:100000000C94DC1F0C940D200C940D200C940D20EE
:100010000C940D200C940D200C940D200C940D20AC
:100020000C940D200C940D200C940D200C940D209C
:100030000C940D200C940D200C940D200C940D208C
:100040000C940D200C944A7A0C940D200C940D20E5
:100050000C940D200C940D200C944ED60C9473B778
:100060000C940D200C94E9470C940D200C940D2059
:100070000C940D200C940D200C940D200C940D204C
:100080000C940D200C940D200C940D200C940D203C
:100090000C940D200C940D200C940D200C940D202C
:1000A0000C940D200C940D200C940D200C940D201C
:1000B0000C940D200C940D200C940D200C940D200C
:1000C0000C940D200C940D200C940D200C940D20FC
:1000D0000C940D200C940D200C940D200C940D20EC
:1000E0000C940D20F0B5F3B5E2B5E6B5ECB52AB643
:1000F000F7B5FBB501B605B609B60FB613B617B618
:100100002AB61DB621B625B68FB694B699B6A3B653
:10011000ADB626B7B7B6BFB6C7B6D1B6DBB6E5B68D
:10012000F4B6FEB626B708B712B71CB7A0BB86BB9D
:1001300089BB8CBB8FBB9BBB92BBACBB95BB98BB3D
:10014000084AD73B3BCE016E84BCBFFDC12F3D6C3E
:1001500074319ABD56833DDA3D00C77F11BED9E4A4
:10016000BB4C3E916BAAAABE000000803F05A84C84
:10017000CDB2D44EB93836A9020C50B99186880850
:100180003CA6AAAA2ABE000000803F004E414E496C
:100190004E495459494E46CDCCCC3D0AD7233C1745
:1001A000B7D13877CC2B329595E6241FB14F0A0092
:1001B0000020410000C84200401C4620BCBE4CCA82
:1001C0001B0E5AAEC59D74434F4D4D554E4943418C
:1001D00054494F4E0044525952554E004552524FC9
:1001E000525300494E464F004543484F0020746F1C
:1001F0006F206C6F6E6720657874727573696F6EAF
:100200002070726576656E7465640A0020636F6C99
:100210006420657874727573696F6E20707265768C
:10022000656E7465640A0047322F4733206261644B
:1002300020706172616D65746572730A00D0A1D01F
:10024000BED0BD2E2E2E00D09FD180D0BED0B4D037
:10025000BED0BBD0B6D0B8D182D18C2E2E2E00D03D
:100260009DD0B5D18220D0B4D0B2D0B8D0B6D0B560
:10027000D0BDD0B8D18F2E004D31323500286E6FF1
:100280002066696C6529005344207072696E746938
:100290006E67206279746520004E6F74205344208D
:1002A0007072696E74696E670A0043757272656E6A
:1002B000742066696C653A2000E801E301DC01D531
:1002C00001C7016F66660044454255473A00D0A316
:1002D000D091D098D0A2D09E2E200020573A00D0A6
:1002E0009ED185D0BBD0B0D0B6D0B4D0B5D0BDD023
:1002F000B8D0B520D181D182D0BED0BBD0B02E2E07
:100300002E00D09DD0B0D0B3D180D0B5D0B220D106
:1003100081D182D0BED0BBD0B02E2E2E003344204F
:100320005072696E74657220D092D18BD0BAD0BBF6
:100330002E2E002F2F20004D31343520533C696E76
:100340006465783E206F7574206F662072616E67F9
:10035000652028302D31290A002054002052004108
:100360006363656C65726174696F6E3A205000D08A
:100370009AD0BED180D180D0B5D0BAD186D0B8D0F5
:10038000B820D0BFD180D0B8D0BCD0B5D0BDD0B50A
:10039000D0BDD18B004572723A20546F6F206661D8
:1003A000722100546F6F206661722066726F6D203B
:1003B0007265666572656E636520706F696E740A3A
:1003C00000205A00205900580020204D61783A2022
:1003D00000205A00205900580020204D696E3A2014
:1003E00000D092D0BAD0BB2E00D092D18BD0BAD050
:1003F000BB2E00536F667420656E6473746F7073E8
:100400003A200020466C6F773A20000001363726EC
:1004100003FFFFFF353C3D380EFFFFFF312E303E1E
:1004200012FFFFFFFF28FF0C0809FFFF071A1C1827
:10043000FFFF2A08440A2C4320643A0020693A004E
:1004400020703A00496E76616C6964206578747238
:10045000756465720A0043290A0061626C65642054
:10046000286D696E2074656D702000436F6C642088
:100470006578747275646573206172652000236409
:100480006566696E652044454641554C545F4B6432
:10049000200023646566696E652044454641554CDD
:1004A000545F4B69200023646566696E652044458E
:1004B0004641554C545F4B702000504944204175D3
:1004C000746F74756E652066696E69736865642102
:1004D0002050757420746865206C617374204B70B3
:1004E0002C204B6920616E64204B6420636F6E7317
:1004F00074616E74732066726F6D2062656C6F77C5
:1005000020696E746F20436F6E66696775726174DF
:10051000696F6E2E680A00504944204175746F74EB
:10052000756E65206661696C6564212074696D650E
:100530006F75740A00453120D0A3D091D095D09327
:10054000D090D09DD098D09520D0A2D095D09FD0DB
:100550009BD09000546865726D616C2052756E611D
:1005600077617900453120D0A0D0B0D0B7D0BED0CF
:10057000B3D180D0B5D0B220D0BDD0B520D183D0FA
:10058000B4D0B0D0BBD181D18F0048656174696EA1
:1005900067206661696C6564005049442041757448
:1005A0006F74756E65206661696C656421205465A1
:1005B0006D706572617475726520746F6F20686903
:1005C00067680A00204B643A2000204B693A2000FB
:1005D000204B703A20000A20436C617373696320DA
:1005E000504944200A002054753A2000204B753AA7
:1005F0002000206D61783A2000206D696E3A20005D
:1006000020643A200020626961733A200050494416
:10061000204175746F74756E65206661696C6564E0
:100620002120426164206578747275646572206E61
:10063000756D6265720A00504944204175746F748B
:10064000756E652073746172740A004E6F20636169
:100650007365206C696768740A00454550524F4DB8
:10066000204F4B0A00496E736572742066696C6195
:100670006D656E7420616E642070726573732062A4
:100680007574746F6E0A00507265737320627574AE
:10069000746F6E20746F2068656174206E6F7A7A53
:1006A0006C650A00496E736572742066696C616DD1
:1006B000656E7420616E642070726573732062755C
:1006C00074746F6E20286F72204D313038290A0003
:1006D0004163746976652045787472756465723A11
:1006E0002000496E76616C69642065787472756467
:1006F00065720A004E6F20436865636B73756D20E9
:1007000077697468206C696E65206E756D626572BC
:100710002C204C617374204C696E653A2000D0A384
:10072000D091D098D0A2D09E2E2000D09ED0A1D023
:10073000A2D090D09DD09ED092D09BD095D09DD06D
:100740009E2E20005072696E7465722073746F70F3
:100750007065642064756520746F206572726F72B5
:10076000732E2046697820746865206572726F72F6
:1007700020616E6420757365204D39393920746F9E
:1007800020726573746172742E202854656D7065D3
:100790007261747572652069732072657365742E59
:1007A00020536574206974206166746572207265D7
:1007B0007374617274696E67290A004E6F20436812
:1007C00065636B73756D2077697468206C696E65FD
:1007D000206E756D6265722C204C617374204C69BB
:1007E0006E653A2000636865636B73756D206D6993
:1007F000736D617463682C204C617374204C696E56
:10080000653A20004C696E65204E756D62657220F8
:100810006973206E6F74204C617374204C696E652F
:10082000204E756D6265722B312C204C61737420E3
:100830004C696E653A20004D313130004D33310046
:1008400053442072656164206572726F720A0044BD
:100850006F6E65207072696E74696E672066696C70
:10086000650A0020496E76616C696420657874724F
:100870007564657220000000A0C000000000000048
:100880000000000057430000574300009643D092F9
:10089000D0BED0B7D0B2D180D0B0D18220D0BDD020
:1008A000B520D183D0B4D0B0D0BBD181D18F004D91
:1008B0003630303A20D09DD0B8D0B7D0BAD0B0D1F1
:1008C0008F20D0A200486F74656E6420746F6F2013
:1008D000636F6C640A00456E642066696C65206C09
:1008E0006973740A00426567696E2066696C6520E9
:1008F0006C6973740A007C3C3E5E2B3D3F2F5B5D50
:100900003B2C2A225C004572726F722077726974E8
:10091000696E6720746F20454550524F4D210A0083
:10092000D092D18BD0B3D180D183D0B7D0BAD0B050
:1009300020D0BCD0BC00D092D18BD0B3D180D18399
:10094000D0B7D0BAD0B020D0BCD0BC00D092D18B20
:10095000D0B3D180D183D0B7D0BAD0B020D0BCD062
:10096000BC00D097D0B0D0B3D180D183D0B7D0BAAB
:10097000D0B020D0BCD0BC00D097D0B0D0B3D18004
:10098000D183D0B7D0BAD0B020D0BCD0BC00D097E3
:10099000D0B0D0B3D180D183D0B7D0BAD0B020D02E
:1009A000BCD0BC00D094D0B8D0B0D0BCD0B5D1822F
:1009B000D18020D184D0B8D0BBD0B0D0BCD0B5D0FD
:1009C000BDD182D0B000D094D0B8D0B0D0BCD0B51A
:1009D000D182D18020D184D0B8D0BBD0B0D0BCD00F
:1009E000B5D0BDD182D0B000D092D18BD0BAD0BB1F
:1009F0002E00D092D0BAD0BB2E004520D0B220D04D
:100A0000BCD0BC3300D09DD0B0D181D182D180D0B8
:100A1000BED0B9D0BAD0B80043616E6E6F74206595
:100A20006E746572207375626469723A2000022EDA
:100A30002E00D09CD0B5D0BDD18E004D36303020A8
:100A4000423020542564004D373031205425640055
:100A50004D373032203B2564004D3730322054254D
:100A60006400D0A1D0BCD0B5D0BDD0B020D184D04E
:100A7000B8D0BBD0B0D0BCD0B5D0BDD182D0B00042
:100A8000D09FD180D0B5D0B4D0BDD0B0D0B3D180BC
:100A9000D0B5D0B22041425300D09FD180D0B5D044
:100AA000B4D0BDD0B0D0B3D180D0B5D0B220504CEE
:100AB0004100D0A1D0BCD0B5D0BDD0B020D184D021
:100AC000B8D0BBD0B0D0BCD0B5D0BDD182D0B000F2
:100AD000D09FD095D0A7D090D0A2D0AC20D09DD020
:100AE0009020D09FD090D0A3D097D09500D092D016
:100AF000ABD093D0A0D0A3D097D09AD09020D0A440
:100B0000D098D09BD090D09CD095D09DD0A2D090A2
:100B100000D097D090D093D0A0D0A3D097D09AD027
:100B20009020D0A4D098D09BD090D09CD095D09D30
:100B3000D0A2D09000D092D18BD0B4D0B0D0B2D0CF
:100B4000B8D182D18C20D0B5D189D19100D092D0AA
:100B5000BED0B7D0BED0B1D0BDD0BED0B2D0B8D14B
:100B600082D18C20D0BFD0B5D187D0B0D182D18CEA
:100B700000D09ED09FD0A6D098D09820D092D09E62
:100B8000D097D09ED091D09DD09ED092D09BD09522
:100B9000D09DD098D0AF3A002020D0A1D0BED0BFF9
:100BA000D0BBD0B03A2000D184D0B8D0BBD0B0D028
:100BB000BCD0B5D0BDD182D0B000D0BDD0B0D1872F
:100BC000D0B0D0BBD0B020D181D0BCD0B5D0BDD1B9
:100BD0008B00D09ED0B6D0B8D0B4D0B0D0B9D1822E
:100BE000D0B5002020D0A1D0BED0BFD0BBD0B03A6D
:100BF0002000D184D0B8D0BBD0B0D0BCD0B5D0BD4F
:100C0000D182D0B000D0B2D18BD0B3D180D183D03B
:100C1000B7D0BAD0B800D09ED0B6D0B8D0B4D0B08B
:100C2000D0B9D182D0B5002020D0A1D0BED0BFD0C5
:100C3000BBD0B03A20002000D096D0B4D0B8D1823A
:100C4000D0B52E2E2E00D09DD0B0D0B3D180D0B54F
:100C5000D0B220D181D0BED0BFD0BBD0B000202038
:100C6000D0A1D0BED0BFD0BBD0B03A20002000D0A1
:100C7000BDD0B0D0B3D180D0B5D0B2D0B020D1816A
:100C8000D0BED0BFD0BBD0B02E2E2E00D09DD0B0C5
:100C9000D0B6D0BCD0B8D182D0B520D0BAD0BDD0DB
:100CA000BED0BFD0BAD18320D0B4D0BBD18F00206A
:100CB00020D0A1D0BED0BFD0BBD0B03A2000D0B49D
:100CC000D0BBD18F20D0BFD180D0BED0B4D0BED0C9
:100CD000BBD0B6D0B5D0BDD0B8D18F00D0B820D061
:100CE000BDD0B0D0B6D0BCD0B8D182D0B520D0BAAB
:100CF000D0BDD0BED0BFD0BAD18300D092D181D1E7
:100D000082D0B0D0B2D18CD182D0B520D0BFD1802A
:100D1000D183D182D0BED0BA0056D0BFD183D18288
:100D2000D0B5D1882E20D0BCD0B8D0BD0056D0BF11
:100D3000D183D182D0B5D1882E20D0BCD0B8D0BD3F
:100D40000056D0BFD183D182D0B5D1882E20D0BC5F
:100D5000D0B8D0BD0056D0BCD0B8D0BD0056D0BCA5
:100D6000D0B8D0BD0056D0BCD0B8D0BD0056D0BC95
:100D7000D0B0D0BAD18120450056D0BCD0B0D0BAC6
:100D8000D18120450056D0BCD0B0D0BAD181204509
:100D90000056D0BCD0B0D0BAD181205A0056D0BCB9
:100DA000D0B0D0BAD181205A0056D0BCD0B0D0BA81
:100DB000D181205A0056D0BCD0B0D0BAD1812059B0
:100DC0000056D0BCD0B0D0BAD18120590056D0BC8A
:100DD000D0B0D0BAD18120590056D0BCD0B0D0BA52
:100DE000D18120580056D0BCD0B0D0BAD181205883
:100DF0000056D0BCD0B0D0BAD181205800D094D009
:100E0000B2D0B8D0B6D0B5D0BDD0B8D0B50041D0F2
:100E1000BCD0B0D0BAD18120450041D0BCD0B0D038
:100E2000BAD18120450041D0BCD0B0D0BAD1812008
:100E30005A0041D0BCD0B0D0BAD181205A0041D0A4
:100E4000BCD0B0D0BAD18120590041D0BCD0B0D0F4
:100E5000BAD18120590041D0BCD0B0D0BAD18120C4
:100E6000580041D0BCD0B0D0BAD181205800412D1B
:100E7000D0BFD183D182D0B5D1882E00412DD0BF33
:100E8000D183D182D0B5D1882E00412DD0B2D1826C
:100E9000D18FD0B3D0B8D0B2D0B0D0BDD0B8D0B54B
:100EA00000412DD0B2D182D18FD0B3D0B8D0B2D042
:100EB000B0D0BDD0B8D0B500D0A3D181D0BAD0BE0B
:100EC000D180D0B5D0BDD0B8D0B500D0A3D181D01D
:100ED000BAD0BED180D0B5D0BDD0B8D0B500D094F6
:100EE000D0B2D0B8D0B6D0B5D0BDD0B8D0B50056FD
:100EF000652DD180D18BD0B2D0BED0BA0056652D31
:100F0000D180D18BD0B2D0BED0BA0056652DD18061
:100F1000D18BD0B2D0BED0BA00567A2D6A65726B32
:100F200000567A2D6A65726B0056792D6A65726B70
:100F30000056792D6A65726B0056792D6A65726B61
:100F40000056782D6A65726B0056782D6A65726B53
:100F50000056782D6A65726B00D094D0B2D0B8D0AC
:100F6000B6D0B5D0BDD0B8D0B50045D188D0B0D0BE
:100F7000B32FD0BCD0BC0045D188D0B0D0B32FD0D7
:100F8000BCD0BC005AD188D0B0D0B32FD0BCD0BC1C
:100F9000005AD188D0B0D0B32FD0BCD0BC0059D12A
:100FA00088D0B0D0B32FD0BCD0BC0059D188D0B03D
:100FB000D0B32FD0BCD0BC0058D188D0B0D0B32F84
:100FC000D0BCD0BC0058D188D0B0D0B32FD0BCD0CA
:100FD000BC00D094D0B2D0B8D0B6D0B5D0BDD0B8C7
:100FE000D0B500D0A8D0B0D0B32FD0BCD0BC00D0EA
:100FF000A0D18BD0B2D0BED0BA00D0A3D181D0BA0C
:10100000D0BED180D0B5D0BDD0B8D0B500D091D1B0
:101010008BD181D182D180D0BED182D0B000D09D81
:10102000D0B0D181D182D180D0BED0B9D0BAD0B821
:1010300000627573793A2070617573656420666F1C
:101040007220696E7075740A00627573793A207047
:10105000617573656420666F7220757365720A002E
:10106000627573793A2070726F63657373696E6726
:101070000A00D0A3D091D098D0A2D09E2E20004BB1
:10108000494C4C20636175736564206279204B493B
:101090004C4C20627574746F6E2F70696E0A00D0AC
:1010A000A3D091D098D0A2D09E2E20004B494C4C7A
:1010B0002063617573656420627920746F6F206DA1
:1010C00075636820696E6163746976652074696D03
:1010D00065202D2063757272656E7420636F6D6D6F
:1010E000616E643A20004D36303000D0A1D0B4D0CB
:1010F000B5D0BBD0B0D0B9D182D0B520D181D0B1DC
:10110000D180D0BED18100D09FD0A0D098D09DD02A
:10111000A2D095D0A020D09ED0A1D0A2D090D09D1A
:10112000D09ED092D09BD095D09D005072696E74A5
:1011300065722068616C7465642E206B696C6C2824
:10114000292063616C6C6564210A00656E717565A8
:101150007565696E672022000000A0C000000000D5
:10116000000000000000484200004842000020410A
:10117000000000005761726E696E673A20486F6D1B
:10118000696E672042756D702044697669736F726D
:10119000203C20310A000202040000A0400000A010
:1011A000400000004000005C4300005743000096F0
:1011B00043FFFFFF2020D0A1D0BED0BFD0BBD0B016
:1011C0003A20002000D0B7D0B0D0B3D180D183D0A6
:1011D000B7D0BAD0B820D0BFD180D183D182D0BA15
:1011E000D0B000D09ED0B6D0B8D0B4D0B0D0B9D1A5
:1011F00082D0B5002020D0A1D0BED0BFD0BBD0B00F
:101200003A2000D184D0B8D0BBD0B0D0BCD0B5D0BB
:10121000BDD182D0B000D18DD0BAD181D182D18060
:10122000D183D0B7D0B8D0B800D09ED0B6D0B8D087
:10123000B4D0B0D0B9D182D0B500D0BFD0B5D187AD
:10124000D0B0D182D0B800D0B2D0BED0B7D0BED04E
:10125000B1D0BDD0BED0B2D0BBD0B5D0BDD0B8D14A
:101260008F00D09ED0B6D0B8D0B4D0B0D0B9D18293
:10127000D0B500D09AD0B0D180D182D0B020D0B833
:10128000D0B7D0B2D0BBD0B5D187D0B5D0BDD0B05B
:1012900000D09AD0B0D180D182D0B020D0B2D1814C
:1012A000D182D0B0D0B2D0BBD0B5D0BDD0B00024A8
:1012B000F4D43050C38E20C2A24017828B7011121A
:1012C0007A910D816CD90AA861E108C75866076157
:1012D0005143061E4B5D05C145A7041A411104097F
:1012E0003D9803713931034036DB0265339102D4F6
:1012F000305402802E1D02632CEE01752AC501B008
:1013000028A001102781018F2564012B244B01E0C7
:10131000223401AC211F018D200D01801FFC0084AF
:101320001EED00971DDF00B81CD200E61BC6002092
:101330001BBC00641AB200B219A8000A19A0006A06
:10134000189900D117910040178B00B51684003111
:10135000167E00B31579003A157300C7146F005854
:10136000146A00EE1366008813630025135E00C73D
:10137000125B006C12570015125400C1115100701D
:10138000114F0021114B00D61049008D1047004627
:1013900010440002104200C00F4000800F3E004287
:1013A0000F3C00060F3B00CB0E3800930E37005C5D
:1013B0000E3500270E3400F30D3200C10D310090C0
:1013C0000D3000600D2E00320D2D00050D2C00D9C2
:1013D0000C2B00AE0C2900850C29005C0C27003575
:1013E0000C27000E0C2600E80B2400C40B2400A0E0
:1013F0000B23007D0B23005A0B2100390B21001811
:101400000B2000F80A1F00D90A1E00BB0A1E009D0F
:101410000A1D00800A1D00630A1C00470A1B002CDD
:101420000A1B00110A1A00F7091A00DD091900C485
:10143000091900AB091900920917007B091800630C
:101440000917004C09160036091600200916000A73
:10145000091500F5081500E0081400CC081400B8C0
:10146000081400A4081400900813007D0812006BF3
:10147000081300580812004608120034081100230F
:101480000811001208110001081100F0071000E017
:10149000071000D0071000C0071000B0070F00A110
:1014A00007100091070E0083070F0074070F0065F7
:1014B000070E0057070E0049070E003B070D002ED0
:1014C000070E0020070D0013070D0006070D00F999
:1014D000060C00ED060D00E0060C00D4060C00C85A
:1014E000060C00BC060C00B0060C00A4060B00990C
:1014F000060C008D060B0082060B0077060B006CB5
:10150000060B0061060A0057060B004C060A004253
:10151000060A0038060A002E060A0024060A001AE7
:10152000060A001006090007060A00FD050900F476
:10153000050900EB050900E2050900D9050900D0FD
:10154000050900C7050900BE050900B5050800AD7D
:10155000050800A50509009C050800940508008CF5
:10156000050800840508007C050800740508006C67
:10157000050700650508005D050700560508004ED3
:10158000050700470507004005080038050700313A
:101590000507002A050700230507001C050600169D
:1015A0000507000F0507000805060002050700FBF8
:1015B000040600F5040700EE040600E8040600E255
:1015C000040700DB040600D5040600CF040600C9AA
:1015D000040600C3040600BD040600B7040600B1FB
:1015E000040500AC040600A6040600A00405009B48
:1015F00004060095040500900406008A0405008591
:10160000040500800406007A0405007504050070D6
:101610000405006B04050066040500610405005C18
:1016200004050057040500520405004D0405004858
:10163000040500430405003E0404003A0405003597
:10164000040500300404002C0405002704040023D2
:101650000405001E0404001A040400160405001109
:101660000404000D0404000904050004040400003F
:10167000040400FC030400F8030400F4030400F075
:10168000030400EC030400E8030400E4030400E0A6
:10169000030400DC030400D8030400D4030400D0D6
:1016A000030400CC030400C8030300C503030024A3
:1016B000F404D9201BC40C5C0E9804C4095F0265B5
:1016C000077101F405F900FB04B30048048700C169
:1016D0000369005803550003034500BE023A008425
:1016E00002310053022A002902250004022000E4EE
:1016F000011C00C8011900AF0117009801140084F3
:10170000011300710110006101100051010E00432E
:10171000010D0036010B002B010B0020010B001501
:101720000109000C01090003010800FB000800F397
:10173000000800EB000700E4000600DE000600D809
:10174000000600D2000600CC000500C7000500C25C
:10175000000500BD000400B9000400B5000400B19C
:10176000000400AD000400A9000400A5000300A2CD
:101770000003009F0004009B0003009800030095F5
:1017800000020093000300900003008D0002008B14
:10179000000300880002008600020084000300812C
:1017A0000002007F0002007D0002007B0002007941
:1017B000000200770001007600020074000200724F
:1017C000000100710002006F0002006D0001006C5A
:1017D0000002006A00010069000200670001006663
:1017E0000001006500010064000200620001006168
:1017F000000100600001005F0002005D0001005C6C
:101800000001005B0001005A00010059000100586E
:10181000000100570001005600010055000100546E
:10182000000100530000005300010052000100516C
:10183000000100500001004F0001004E0000004E6A
:101840000001004D0001004C0001004B0000004B66
:101850000001004A00010049000100480000004862
:10186000000100470001004600000046000100455D
:101870000000004500010044000100430000004357
:101880000001004200000042000100410000004150
:10189000000100400001003F0000003F0001003E49
:1018A0000000003E0001003D0000003D0001003C42
:1018B0000000003C0000003C0001003B0000003B39
:1018C0000001003A0000003A000100390000003930
:1018D0000001003800000038000000380001003727
:1018E000000000370001003600000036000000361E
:1018F0000001003500000035000000350001003413
:101900000000003400000034000100330000003308
:1019100000000033000100320000003200000032FD
:1019200000010031000000310000003100010030F2
:1019300000000030000000300001002F0000002FE8
:101940000000002F0000002F0001002E0000002EDC
:101950000000002E0001002D0000002D0000002DD1
:101960000000002D0001002C0000002C0000002CC5
:101970000000002C0001002B0000002B0000002BB9
:101980000000002B0001002A0000002A0000002AAD
:101990000000002A000100290000002900000029A1
:1019A0000000002900000029000100280000002894
:1019B0000000002800000028000000280001002787
:1019C000000000270000002700000027000000277B
:1019D000000100260000002600000026000000266E
:1019E0000000002600010025000000250000002561
:1019F0000000002500000025000000250001002453
:101A00000000002400000024000000240000002446
:101A10000001002300000023000000230000002339
:101A2000000000230000002300000023000100222A
:101A3000000000220000002200000022000000221E
:101A40000000002200010021000000210000002110
:101A50000000002100000021000000210000002102
:101A600000010020000000200000002000000020F5
:101A700000000020000000200000002000000020E6
:101A80000001001F0000001F0000001F0000001FD9
:101A90000000001F0000001F0000001F0001001ECA
:101AA0000000001E0000001E0000001E00000004D8
:101AB0003700001E290000511B00005810000010C4
:101AC000090000CC04000078020000410100002C55
:101AD000FFFFFFFFFF0001010101016265640A00D1
:101AE0002C2073797374656D2073746F70706564E6
:101AF00021204865617465725F49443A2000D0A096
:101B0000D0B0D0B7D0BED0B3D1802E20D181D18279
:101B1000D0BED0BBD0B020D0BDD0B520D183D0B402
:101B20002E0048656174696E67206661696C656442
:101B300000453120D0A0D0B0D0B7D0BED0B3D18036
:101B4000D0B5D0B220D0BDD0B520D183D0B4D0B0E4
:101B5000D0BBD181D18F0048656174696E67206602
:101B600061696C656400D098D0BDD0B8D186D0B81A
:101B7000D0B0D0BBD0B8D0B7D0B0D186D0B8D18F8C
:101B800020454550524F4D00D09DD0B0D181D182DB
:101B9000D180D0BED0B9D0BAD0B800D092D0BED10A
:101BA00081D181D182D0B0D0BDD0BED0B2D0B8D199
:101BB00082D18C20D0BDD0B0D181D182D1802E00F5
:101BC000D097D0B0D0B3D180D183D0B7D0B8D182A4
:101BD000D18C20D0BDD0B0D181D182D180D0BED027
:101BE000B9D0BAD0B800D098D0BDD0B8D186D0B8CE
:101BF000D0B0D0BBD0B8D0B7D0B0D186D0B8D18F0C
:101C000020454550524F4D00D0A1D0BED185D18046
:101C1000D0B0D0BDD0B8D182D18C20D0BDD0B0D181
:101C200081D182D180D0BED0B9D0BAD0B800D0A4F2
:101C3000D0B8D0BBD0B0D0BCD0B5D0BDD18200D050
:101C400094D0B2D0B8D0B6D0B5D0BDD0B8D0B50051
:101C5000D0A2D0B5D0BCD0BFD0B5D180D0B0D182C9
:101C6000D183D180D0B000D09CD0B5D0BDD18E0072
:101C70004D333033205531204525692053256900E7
:101C8000D09FD180D0B5D0B4D0BDD0B0D0B3D180AA
:101C9000D0B5D0B22041425320D0BDD0B0D181D1F7
:101CA00082D1802E00D09FD180D0B5D0B4D0BDD00D
:101CB000B0D0B3D180D0B5D0B220504C4120D0BDEF
:101CC000D0B0D181D182D1802E00504944204175BD
:101CD000746F74756E6500504944204175746F745B
:101CE000756E65005049442D44005049442D440010
:101CF0005049442D49005049442D49005049442D34
:101D000050005049442D5000200820D0A4D0B0D01D
:101D1000BAD182D0BED18000200820D0A4D0B0D0CB
:101D2000BAD182D0BED18000200820D09CD0B0D0C3
:101D3000BAD18100200820D09CD0B0D0BAD1810087
:101D4000200820D09CD0B0D0BAD18100200820D06B
:101D50009CD0B8D0BD00200820D09CD0B8D0BD0009
:101D6000200820D09CD0B8D0BD00D092D18BD0BA62
:101D7000D0BB2E00D092D0BAD0BB2E00D090D0B223
:101D8000D182D0BED182D0B5D0BCD0BFD0B5D180A9
:101D9000D0B0D182D183D180D0B000D09AD183D0BD
:101DA000BBD0B5D18000D09AD183D0BBD0B5D18083
:101DB00000D0A1D182D0BED0BB00D0A1D182D0BEF4
:101DC000D0BB00D0A1D0BED0BFD0BBD0BE00D0A170
:101DD000D0BED0BFD0BBD0BE00D09DD0B0D181D1BD
:101DE00082D180D0BED0B9D0BAD0B800D0A1D0BEF8
:101DF000D185D180D0B0D0BDD0B8D182D18C20D007
:101E0000BDD0B0D181D182D180D0BED0B9D0BAD02E
:101E1000B800D0A1D182D0BED0BB00D0A1D182D099
:101E2000BED0BB00D0A1D0BED0BFD0BBD0BE00D0F2
:101E3000A1D0BED0BFD0BBD0BE00D09AD183D0BB82
:101E4000D0B5D18000D09AD183D0BBD0B5D180009D
:101E5000D0A2D0B5D0BCD0BFD0B5D180D0B0D182C7
:101E6000D183D180D0B00000002200250028002BB3
:101E7000002E003100340002010000050108010BB2
:101E800001000020002300260029002C002F003232
:101E90000000010000030106010901050505050711
:101EA0000508080808020202020A0A0808040404D5
:101EB0000401010101010101010303030303030301
:101EC00003040707070C0C0C0C0C0C0C0C02020290
:101ED0000206060606060606060B0B0B0B0B0B0B83
:101EE0000B01021020200808102040102040800222
:101EF0000102010804020101020408102040808050
:101F000040201008040201800402018040201008D3
:101F100004020108040201010204081020408001AB
:101F20000204081020408000000A0B02090C0D0E6C
:101F3000080703040100000000000000000000008A
:101F40000000000000000000000000000000000091
:101F5000000000121110000000000000000000004E
:101F600000000000000000000000000000D0A3D02E
:101F700091D098D0A2D09E2E2000202D20496E76A0
:101F8000616C6964206578747275646572206E7521
:101F90006D62657220210A001FFFFFFFFFFFFF60D7
:101FA0000000000001FF400000000000FF80000072
:101FB0000000007F83CF00000C303F87FF80000CC3
:101FC000301F867980000C000F8C30C7838C30E77F
:101FD0008C30CFC7CC31F38C30DCECEC33B98C30A7
:101FE000D86C6C33198C30D06C0C33198C30D86CA5
:101FF0000C33198C30DC6C0E3B198C30CF7C079F76
:10200000198C30C77C038F1940000000000002606B
:102010000000000000061FFFFFFFFFFFF820205018
:102020006C616E6E65724275666665724279746542
:10203000733A20002046726565204D656D6F727998
:102040003A2000436F6D70696C65643A204A756E82
:1020500020323720323031390A00207C204175741B
:10206000686F723A204461726B5F5361726D617484
:1020700020636F6E666967206D6F640A00323031CD
:10208000382D30382D303100204C6173742055705C
:1020900064617465643A2000312E312E3920446128
:1020A000726B5F5361726D6174204D4F440A004D35
:1020B00061726C696E0020536F667477617265207F
:1020C00052657365740A00205761746368646F67B2
:1020D0002052657365740A002042726F776E206F1C
:1020E00075742052657365740A00204578746572B2
:1020F0006E616C2052657365740A00506F7765726B
:1021000055700A0073746172740A006175746F25EA
:10211000692E67006572726F722077726974696EDA
:102120006720746F2066696C650A00D0ADD0BDD0A1
:10213000B4D181D182D0BED0BFD18B2025632025E0
:102140006320256320256300205A3A0020593A0075
:1021500020583A00656E6473746F707320686974F8
:102160003A2000446F6E6520736176696E67206661
:10217000696C652E0A004D323900454550524F4D6D
:10218000206461746173697A65206572726F722E62
:102190000A00290A002062797465733B2063726328
:1021A000200053657474696E67732053746F726591
:1021B00064202800290A002062797465733B20633B
:1021C000726320002073746F726564207365747489
:1021D000696E67732072657472696576656420281C
:1021E00000202863616C63756C6174656429210A41
:1021F0000020213D2000454550524F4D2043524381
:10220000206D69736D61746368202D202873746F6D
:102210007265642920002053697A653A2000496E6E
:102220006465783A2000204D61726C696E3D5635C8
:1022300035290A0028454550524F4D3D004545502F
:10224000524F4D2076657273696F6E206D69736DA4
:10225000617463682000D09FD0B0D180D0BAD183A0
:10226000D0B92025732573257320D0BFD0B5D18078
:10227000D0B2D18BD0B90020D0BFD0B5D180D0B2F0
:10228000D18BD0B90A005A0059005800D09FD0B065
:10229000D180D0BAD183D0B9200020746F6F206C68
:1022A0006F6E6720657874727573696F6E207072D7
:1022B0006576656E7465640A0020636F6C642065E2
:1022C0007874727573696F6E2070726576656E745E
:1022D00065640A00D0A1D0BCD0B5D0BDD0B020D1AB
:1022E00084D0B8D0BBD0B0D0BCD0B5D0BDD182D016
:1022F000B000D0A1D0BCD0B5D0BDD0B020D184D05A
:10230000B8D0BBD0B0D0BCD0B5D0BDD182D0B00099
:102310004D36303020423000D09FD0BED182D0BE6A
:10232000D0BA00D09FD0BED182D0BED0BA00D09A51
:10233000D183D0BBD0B5D18000D09AD183D0BBD0CF
:10234000B5D18000D0A1D182D0BED0BB00D0A1D168
:1023500082D0BED0BB00D0A1D0BED0BFD0BBD0BE3B
:1023600000D0A1D0BED0BFD0BBD0BE00D0A1D0BACB
:10237000D0BED180D0BED181D182D18C00D0A1D0AD
:10238000BAD0BED180D0BED181D182D18C00D09CB8
:10239000D0B5D0BDD18E00D09FD180D0B5D0B4D033
:1023A000BDD0B0D0B3D180D0B5D0B220504C4120F8
:1023B000D181D0BED0BFD0BBD0BE00D09FD180D005
:1023C000B5D0B4D0BDD0B0D0B3D180D0B5D0B220CC
:1023D000504C4120D181D182D0BED0BB00D09FD102
:1023E00080D0B5D0B4D0BDD0B0D0B3D180D0B5D02E
:1023F000B220504C4100D09FD0BED0B4D0B3D0BE9C
:10240000D182D0BED0B2D0B8D182D18C00D09FD1F1
:1024100080D0B5D0B4D0BDD0B0D0B3D180D0B5D0FD
:10242000B22041425320D181D0BED0BFD0BBD0BE5C
:1024300000D09FD180D0B5D0B4D0BDD0B0D0B3D172
:1024400080D0B5D0B22041425320D181D182D0BEBC
:10245000D0BB00D09FD180D0B5D0B4D0BDD0B0D04B
:10246000B3D180D0B5D0B22041425300D09FD0BE6E
:10247000D0B4D0B3D0BED182D0BED0B2D0B8D18289
:10248000D18C004D34323800D09FD180D0B5D0B43B
:10249000D0BDD0B0D0B3D180D0B5D0B220504C4157
:1024A00000D09ED185D0BBD0B0D0B6D0B4D0B5D0FE
:1024B000BDD0B8D0B500D0A1D0BCD0B5D0BDD0B0C3
:1024C00020D184D0B8D0BBD0B0D0BCD0B5D0BDD195
:1024D00082D0B000D0A1D0BCD0B5D0BDD0B020D17A
:1024E00084D0B8D0BBD0B0D0BCD0B5D0BDD182D014
:1024F000B0004D36303020423000D092D18BD0BA6F
:10250000D0BB2E20D0B4D0B2D0B8D0B3D0B0D1820E
:10251000D0B5D0BBD0B8004D383400D097D0B0D0B3
:10252000BFD0BED0BCD0BDD0B8D182D18C20D0BF5E
:10253000D0B0D180D0BAD0BED0B2D0BAD18300D082
:102540009FD180D0B5D0B4D0BDD0B0D0B3D180D0E1
:10255000B5D0B22041425300D09FD0B0D180D0BA84
:10256000D0BED0B2D0BAD0B0205A00473238205AAC
:1025700000D09FD0B0D180D0BAD0BED0B2D0BAD027
:10258000B0205900473238205900D09FD0B0D180B8
:10259000D0BAD0BED0B2D0BAD0B02058004732386E
:1025A000205800D090D0B2D182D0BE20D0BFD0B0C1
:1025B000D180D0BAD0BED0B2D0BAD0B00047323875
:1025C00000D094D0B2D0B8D0B6D0B5D0BDD0B8D0AD
:1025D000B520D0BFD0BE20D0BED181D18FD0BC001D
:1025E000D09CD0B5D0BDD18E0046696C65206465A5
:1025F0006C657465643A0044656C6574696F6E203F
:102600006661696C65642C2046696C653A2000251A
:1026100069730025696D2025697300256968202587
:10262000696D202569730025696420256968202566
:10263000696D202569730025697920256964202545
:1026400069682025696D20256973005072696E7470
:102650002074696D653A200050726F74656374650B
:10266000642050696E0A006F6B0020573A004520C5
:10267000D09ED185D0BBD0B0D0B6D0B4D0B5D0BD6F
:10268000D0B8D0B52E2E2E004520D09DD0B0D0B3DE
:10269000D180D0B5D0B22E2E2E004D313133205303
:1026A00000205A3A0020593A0020436F756E74207A
:1026B000583A0020453A00205A3A0020593A00582A
:1026C0003A002C20002C20003A004361703A00545C
:1026D0004845524D414C5F50524F54454354494F29
:1026E0004E004155544F5245504F52545F53445F32
:1026F00053544154555300454D455247454E435957
:102700005F50415253455200434153455F4C494746
:1027100048545F4252494748544E45535300544F22
:1027200047474C455F4C494748545300534F465424
:10273000574152455F504F574552004255494C440E
:102740005F50455243454E54004C4556454C494E0A
:10275000475F44415441005A5F50524F4245004147
:1027600055544F4C4556454C005052494E545F4AC3
:102770004F420050524F4752455353004155544F1A
:102780005245504F52545F54454D5000564F4C5592
:102790004D455452494300454550524F4D00534515
:1027A0005249414C5F584F4E5F584F46460046498C
:1027B000524D574152455F4E414D453A4D61726C05
:1027C000696E20312E312E39204461726B5F536166
:1027D000726D6174204D4F4420284769746875629A
:1027E0002920534F555243455F434F44455F55524F
:1027F0004C3A68747470733A2F2F67697468756205
:102800002E636F6D2F4D61726C696E4669726D77C4
:102810006172652F4D61726C696E2050524F544F3A
:10282000434F4C5F56455253494F4E3A312E30205C
:102830004D414348494E455F545950453A33442031
:102840005072696E74657220455854525544455211
:102850005F434F554E543A3120555549443A6365CC
:102860006465326132662D343161322D343734384B
:102870002D396231322D6335356336326633363762
:1028800066660A0025753A253032750025303275A6
:102890003A253032750025756420253032753A2589
:1028A00030327500202020202020005A00590020BE
:1028B0002020200058000920000000000000000037
:1028C00000000000003FFFF00000000000000000DA
:1028D0000000000038007000000000000000000050
:1028E00000000030FC30000000000000000000008C
:1028F000000020FC100000000000000000000000AC
:10290000002078100000000000000000000000001F
:102910002030100000000000000000000000002C2B
:1029200000D03FC0000000000000002082002E31D7
:10293000D07FE0000000000000001041002F7BD09D
:102940007FE0000000000000001041002F7BD07FDE
:10295000E0000000000000002082002E31D03FC0C7
:10296000000000000000004104002C00D03FC00027
:102970000000000000008208002030107FE000000E
:1029800000000000008208002078107FE0000000B6
:102990000000000041040020FC107FE00000000067
:1029A00000000020820030FC301F8000000000008A
:1029B00000000000003800700F0000000000000060
:1029C00000FFFFC03FFFF006000000000000000015
:1029D000FFFFC00000000000000000000000000039
:1029E00000003FFFF00000000000000000000000B9
:1029F000003800700000000000000000000000002F
:102A000031863000000000000000000000000023BC
:102A10008710000000000000000000000000278771
:102A2000900000000000000000000000002F87D090
:102A30000000000000000000000000002F03D03F55
:102A4000C0000000000000002082002030107FE065
:102A5000000000000000001041002078107FE0001E
:102A60000000000000001041002078107FE000000E
:102A700000000000002082002030103FC000000055
:102A8000000000004104002F03D03FC00000000000
:102A90000000008208002F87D07FE00000000000C7
:102AA00000008208002787907FE0000000000000FF
:102AB000004104002387107FE000000000000000B8
:102AC0002082003186301F800000000000000000DE
:102AD00000003800700F0000000000000000FFFF41
:102AE000C03FFFF0060000000000000000FFFFC034
:102AF00000000000060900FE0000000000010900BF
:102B000008FE000005080806000040F0C888889804
:102B10007810050808060000C0F88888888888F8BA
:102B20000505050600012030F830200508080600DC
:102B3000002070F820202020E00509090600FF2071
:102B400070A8A8B8888870200509090600FFE080F1
:102B5000C0B0A8283028280509090600FFF8A88871
:102B600088888888A8F8050A0A0600FE2050505078
:102B70005088A8A8887003030306000340A0400003
:102B8000002100240027002A002D0030003300011E
:102B9000010000040107010A014D3234004D3233B7
:102BA00020257300556E6B6E6F776E20636F6D6DB1
:102BB000616E643A202200496E7365727420666902
:102BC0006C616D656E7420616E64207072657373E4
:102BD00020627574746F6E20286F72204D3130380A
:102BE000290A00486F74656E6420746F6F20636FEC
:102BF0006C640A0043616E6E6F74206F70656E20A6
:102C000073756264697220006563686F3A006F7063
:102C1000656E206661696C65642C2046696C653A56
:102C2000200066696C616D656E74007A5F6D696E17
:102C300000795F6D696E00785F6D696E0052657036
:102C40006F7274696E6720656E6473746F70207341
:102C500074617475730A0053442063617264206F59
:102C60006B0A006F70656E526F6F74206661696CDD
:102C700065640A00766F6C756D652E696E697420E7
:102C80006661696C65640A00534420696E6974204A
:102C90006661696C0A0057726974696E6720746FA7
:102CA0002066696C653A20006F70656E2066616908
:102CB0006C65642C2046696C653A20006F70656E07
:102CC000206661696C65642C2046696C653A200059
:102CD00046696C652073656C65637465640A0020E1
:102CE00053697A653A200046696C65206F70656E9D
:102CF00065643A20002066696C653A2000646F695B
:102D00006E67006672657368004E6F772000454EEF
:102D10004420535542524F5554494E450A002220F3
:102D2000706F73002220706172656E743A220053D6
:102D30005542524F5554494E452043414C4C207406
:102D400061726765743A2200D0A3D091D098D0A266
:102D5000D09E2E2000747279696E6720746F206394
:102D6000616C6C207375622D67636F6465206669A2
:102D70006C6573207769746820746F6F206D616E65
:102D800079206C6576656C732E204D4158206C65FA
:102D900076656C2069733A004572726F723A007002
:102DA000012C0190012701B0012201C0011D01F099
:102DB0000118011002130130020E01600209019096
:102DC000020401C002FF000003FA004003F5008086
:102DD00003F000D003EB002004E6007004E100E003
:102DE00004DC004005D700C005D2004006CD00D06D
:102DF00006C8008007C3003008BE00F008B900C054
:102E000009B400B00AAF00B00BAA00D00CA50000B6
:102E10000EA000500F9B00C01096005012910000B1
:102E2000148C00C0158700B0178200B0197D00D047
:102E30001B7800001E730040206E0090226900F095
:102E400024640040275F0090295A00E02B550010B1
:102E50002E500020304B0010324600E033410090ED
:102E6000353C001037370070383200A0392D00B0E3
:102E70003A2800A03B2300603C1E00103D19009042
:102E80003D1400103E0F00703E0A00C03E050000D9
:102E90003F0000403FFBFF803FF6FFC03FF1FF4592
:102EA0003120D0A3D091D095D093D090D09DD09800
:102EB000D09520D0A2D095D09FD09BD09000D0A309
:102EC000D091D095D093D090D09DD098D09520D04F
:102ED000A2D095D09FD09BD09020D0A1D0A2D09E40
:102EE000D09BD09000546865726D616C2052756EF5
:102EF0006177617900453120D09ED188D0B8D0B1BA
:102F0000D0BAD0B03A20D0A220D0BCD0B0D0BAD164
:102F1000812E00D09ED188D0B8D0B1D0BAD0B03AEE
:102F200020D0A220D181D182D0BED0BBD0B020D0C1
:102F3000BCD0B0D0BAD181004D415854454D50203D
:102F400074726967676572656400453120D09ED1EF
:102F500088D0B8D0B1D0BAD0B03A20D0A220D0BC5E
:102F6000D0B8D0BD2E00D09ED188D0B8D0B1D0BAC4
:102F7000D0B03A20D0A220D181D182D0BED0BBD057
:102F8000B020D0BCD0B8D0BD2E004D494E54454DD8
:102F90005020747269676765726564004D3834202B
:102FA000582059205A204500202F002042403A0046
:102FB00020403A0048617264636F64656420446530
:102FC0006661756C742053657474696E6773204C08
:102FD0006F616465640A0020030000200300006440
:102FE00000000010270000000016430000164300F8
:102FF000002041000048420000A0420000A0420022
:1030000000C843E1FABC4220286D6D290020204D04
:1030100036303320002055004C0046696C616D65E8
:103020006E74206C6F61642F756E6C6F6164206CC0
:10303000656E677468733A0A0020440020490020D6
:10304000204D333031205000504944207365747452
:10305000696E67733A0A002046002042002048004B
:1030600020204D3134352053004D61746572696103
:103070006C2068656174757020706172616D657433
:103080006572733A0A00205A0020590020204D3200
:103090003036205800486F6D65206F666673657422
:1030A0003A0A00204500205A0020590020580020EC
:1030B000540020530020204D32303520510020454F
:1030C0003C6D61785F655F6A65726B3E0020583CBD
:1030D0006D61785F785F6A65726B3E20593C6D6107
:1030E000785F795F6A65726B3E205A3C6D61785FEC
:1030F0007A5F6A65726B3E00416476616E636564F7
:103100003A20513C6D696E5F7365676D656E745FE3
:1031100074696D655F75733E20533C6D696E5F66C3
:10312000656564726174653E20543C6D696E5F74C0
:10313000726176656C5F66656564726174653E0098
:1031400020540020520020204D32303420500041C5
:103150006363656C65726174696F6E2028756E6952
:1031600074732F7332293A20503C7072696E745F09
:10317000616363656C3E20523C7265747261637476
:103180005F616363656C3E20543C74726176656C6C
:103190005F616363656C3E0A00204500205A002091
:1031A000590020204D3230312058004D6178696D32
:1031B000756D20416363656C65726174696F6E2023
:1031C00028756E6974732F7332293A0A00204500FE
:1031D000205A0020590020204D3230332058004D15
:1031E0006178696D756D206665656472617465737B
:1031F0002028756E6974732F73293A0A00204500E0
:10320000205A0020590020204D3932205800537494
:103210006570732070657220756E69743A0A0020BB
:10322000204D3230302044300A0020204D323030E2
:103230002044002044697361626C65640A00466939
:103240006C616D656E742073657474696E67733A32
:103250000020204D3134392043203B20556E6974C5
:103260007320696E2043656C736975730A002020B2
:10327000473231202020203B0054524947474552D5
:103280004544006F70656E003A200000060900FE9C
:10329000070191032020FFFF08FF07FF0000000641
:1032A0000000010707060200808080808000800304
:1032B0000202060105A0A00507070600005050F80D
:1032C00050F850500507070600002078A07028F03D
:1032D00020050707060000C0C81020409818050701
:1032E000070600006090A040A89068020303060152
:1032F00004C0408003070706010020408080804012
:10330000200307070601008040202020408005059B
:103310000506000120A870A820050505060001206B
:1033200020F820200203030602FFC04080050101AF
:10333000060003F8020202060200C0C005050506E9
:1033400000010810204080050707060000708898DB
:10335000A8C8887003070706010040C040404040ED
:10336000E0050707060000708808708080F80507F0
:1033700007060000F81020100808F00507070600EF
:103380000010305090F81010050707060000F88074
:10339000F008088870050707060000304080F088B4
:1033A0008870050707060000F80810202020200577
:1033B0000707060000708888708888700507070670
:1033C000000070888878081060020505060200C0B9
:1033D000C000C0C00206060602FFC0C000C0408098
:1033E000040707060000102040804020100503035A
:1033F000060002F800F804070706010080402010CC
:103400002040800507070600007088081020002073
:1034100005060606000070880868A87005070706FC
:103420000000708888F8888888050707060000F083
:103430008888F08888F0050707060000708880807B
:10344000808870050707060000E09088888890E073
:10345000050707060000F88080F08080F805070760
:10346000060000F88080F0808080050707060000D5
:10347000708880B8888870050707060000888888EB
:10348000F888888801070706020080808080808095
:10349000800507070600003810101010906005071F
:1034A000070600008890A0C0A090880507070600C6
:1034B00000808080808080F805070706000088D89B
:1034C000A8888888880507070600008888C8A89803
:1034D0008888050707060000708888888888700536
:1034E0000707060000F08888F0808080050707063F
:1034F000000070888888A89068050707060000F01B
:103500008888F0A090880507070600007880807002
:103510000808F0050707060000F8202020202020DA
:1035200005070706000088888888888870050707CF
:103530000600008888888888502005070706000054
:103540008888888888A85005070706000088885062
:1035500020508888050707060000888888502020AA
:1035600020050707060000F80810204080F8030730
:1035700007060100E08080808080E00505050600E8
:10358000018040201008030707060100E0202020EA
:103590002020E005030306000420508805010106F1
:1035A0000000F8020202060205804005050506003B
:1035B0000070087888780507070600008080B0C88A
:1035C0008888F00505050600007080808870050772
:1035D0000706000008086898888878050505060031
:1035E000007088F880700507070600003048E0404A
:1035F0004040400506060600FF7088887808700580
:1036000007070600008080B0C88888880107070681
:103610000200800080808080800308080601FF206F
:103620000020202020A04004070706000080809092
:10363000A0C0A090030707060100C04040404040E2
:10364000E0050505060000D0A8A8A8A80505050600
:103650000000B0C8888888050505060000708888C5
:1036600088700506060600FFF08888F08080050651
:10367000060600FF7888887808080505050600001A
:10368000B0C880808005050506000070807008F0D5
:103690000507070600004040E040404830050505AA
:1036A0000600008888889868050505060000888857
:1036B0008850200505050600008888A8A850050543
:1036C0000506000088502050880506060600FF8881
:1036D0008888780870050505060000F8102040F875
:1036E00003070706010020404080404020010707F3
:1036F000060200808080808080800307070601002A
:10370000804040204040800502020600036890008F
:103710000000060000000000060000000000060097
:10372000000000000600000000000600000000008D
:103730000600000000000600000000000600000077
:103740000000060000000000060000000000060067
:10375000000000000600000000000600000000005D
:103760000600000000000600000000000600000047
:103770000000060000000000060000000000060037
:10378000000000000600000000000600000000002D
:103790000600000000000600000000000600000017
:1037A0000000060000000000060000000000060007
:1037B00000000000060000000000060000000000FD
:1037C00006000000000006000000000006000000E7
:1037D000000006000005080806000040F88080F0A0
:1037E0008080F805080806000050F88080F080808E
:1037F000F8050707060000E04040704848700508DB
:10380000080600001020F8888080808005070706E1
:103810000000304880E0804830050707060000704F
:10382000888070088870030707060100E040404068
:103830004040E0030808060100A000E0404040408E
:10384000E00507070600003810101010906005070B
:1038500007060000A0A0A0B8A8A8B80507070600A2
:1038600000A0A0A0F8A8A8B8040707060000E04040
:10387000705050505005080806000010208890A095
:10388000E0908805080806000040208898A8C888AD
:10389000880509090600FF502088888850202020CC
:1038A0000508080600FF888888888888F8200507AA
:1038B00007060000708888F88888880507070600D2
:1038C00000F88080F08888F0050707060000F0887F
:1038D00088F08888F0050707060000F88880808057
:1038E00080800508080600FF782828284888F8887E
:1038F000050707060000F88080F08080F8050707BC
:10390000060000A8A8A870A8A8A805070706000038
:10391000F00808700808F005070706000088889876
:10392000A8C8888805080806000050208898A8A81C
:10393000C8880507070600008890A0C0A0908805E9
:1039400007070600007828282828A8480507070642
:10395000000088D8A888888888050707060000889E
:103960008888F88888880507070600007088888896
:10397000888870050707060000F888888888888886
:10398000050707060000F08888F08080800507079B
:103990000600007088808080887005070706000098
:1039A000F8202020202020050707060000888888AE
:1039B000502040800507070600002070A8A8A870C6
:1039C00020050707060000888850205088880508D1
:1039D000080600FF888888888888F8080507070691
:1039E000000088888898680808050707060000A86E
:1039F000A8A8A8A8A8F80508080600FFA8A8A8A8CD
:103A0000A8A8F808050707060000C040407048480D
:103A100070050707060000888888C8A8A8C8050799
:103A200007060000808080F08888F0050707060000
:103A3000007088083808887005070706000090A8FD
:103A4000A8E8A8A8900507070600007888887828C5
:103A5000488805050506000070087888780507077E
:103A6000060000186080F0888870040505060000D4
:103A7000E090E090E0050505060000F88880808071
:103A80000506060600FF78284888F888050505061B
:103A900000007088F88070050505060000A8A87071
:103AA000A8A8050505060000F0083008F005050582
:103AB0000600008898A8C88805070706000050205F
:103AC0008898A8C88804050506000090A0C0A090AA
:103AD000050505060000F82828A848050505060084
:103AE0000088D8A888880505050600008888F88819
:103AF000880505050600007088888870050505069C
:103B00000000F8888888880506060600FFF0888887
:103B1000F08080050505060000708080887005052E
:103B200005060000F8202020200506060600FF8874
:103B300088887808700506060600002070A8A8701E
:103B40002005050506000088502050880506060659
:103B500000FF88888888F808050505060000888821
:103B6000F80808050505060000A8A8A8A8F8050695
:103B7000060600FFA8A8A8A8F80805050506000085
:103B8000C0407048700505050600008888C8A8C8B0
:103B90000305050601008080C0A0C00505050600DC
:103BA00000708838887005050506000090A8E8A810
:103BB000900505050600007888782848050808065D
:103BC00000004020007088F880700507070600009C
:103BD00050007088F880700509090600FF40E04039
:103BE000407848484810050808060000102000F8F2
:103BF0008880808005050506000070886088700553
:103C0000050506000070807008F001070706020035
:103C100080008080808080030707060100A00040AC
:103C2000404040400308080601FF200020202020DB
:103C3000A040050505060000A0A0B8A8B805050528
:103C4000060000A0A0F8A8B805060606000040E09F
:103C50004078484804080806000010200090A0C0E2
:103C6000A0900508080600004020008898A8C88891
:103C70000509090600FF502000888888780870052B
:103C800006060600FF88888888F820D094D0B2D035
:103C9000B8D0B6D0B5D0BDD0B8D0B520D0BFD0BE8A
:103CA000205800D094D0B2D0B8D0B6D0B5D0BDD0C6
:103CB000B8D0B520D0BFD0BE205900D094D0B2D05B
:103CC000B8D0B6D0B5D0BDD0B8D0B520D0BFD0BE5A
:103CD000205A00D0ADD0BAD181D182D180D183D049
:103CE000B4D0B5D18000D094D0B2D0B8D0B6D0B5D1
:103CF000D0BDD0B8D0B520302E31D0BCD0BC00D093
:103D000094D0B2D0B8D0B6D0B5D0BDD0B8D0B52050
:103D100031D0BCD0BC00D094D0B2D0B8D0B6D0B5E1
:103D2000D0BDD0B8D0B5203130D0BCD0BC00D094FC
:103D3000D0B2D0B8D0B6D0B5D0BDD0B8D0B520D0E4
:103D4000BFD0BE20D0BED181D18FD0BC00D0ADD0ED
:103D5000BAD181D182D180D183D0B4D0B5D1800005
:103D6000D094D0B2D0B8D0B6D0B5D0BDD0B8D0B540
:103D700020D0BFD0BE205A00D094D0B2D0B8D0B698
:103D8000D0B5D0BDD0B8D0B520D0BFD0BE2059005E
:103D9000D094D0B2D0B8D0B6D0B5D0BDD0B8D0B510
:103DA00020D0BFD0BE205800D0ADD0BAD181D182B2
:103DB000D180D183D0B4D0B5D18000D094D0B2D04E
:103DC000B8D0B6D0B5D0BDD0B8D0B520D0BFD0BE59
:103DD000205A00D094D0B2D0B8D0B6D0B5D0BDD093
:103DE000B8D0B520D0BFD0BE205900D094D0B2D02A
:103DF000B8D0B6D0B5D0BDD0B8D0B520D0BFD0BE29
:103E0000205800D092D18BD0BAD0BB2E00D092D007
:103E1000BAD0BB2E00D09FD180D0BED0B3D1802EDF
:103E200020D18DD0BDD0B4D181D182D0BED0BFD170
:103E30008B00D09FD0BED0B4D0B3D0BED182D0BE84
:103E4000D0B2D0B8D182D18C003344205072696E88
:103E500074657220D0B3D0BED182D0BED0B22E0055
:103E6000D09FD0B5D187D0B0D182D18C2E2E2E004C
:103E7000D09FD0B5D187D0B0D182D18C20D0BDD049
:103E8000B020D0BFD0B0D183D0B7D0B5004D313243
:103E900035004D323400D09FD0B5D187D0B0D1821B
:103EA000D18C20D0BED182D0BCD0B5D0BDD0B5D0C1
:103EB000BDD0B000D09FD0B5D187D0B0D182D18C49
:103EC00020D18120534420D0BAD0B0D180D182D12A
:103ED0008B00D09ED181D182D0B0D0BDD0BED0B227
:103EE000D0B8D182D18C20D0BFD0B5D187D0B0D1BD
:103EF00082D18C00D09FD180D0BED0B4D0BED0BBF8
:103F0000D0B6D0B8D182D18C20D0BFD0B5D187D097
:103F1000B0D182D18C00D09DD0B5D1822053442025
:103F2000D0BAD0B0D180D182D18B00D09FD0B0D1C7
:103F300083D0B7D0B020D0BFD0B5D187D0B0D18298
:103F4000D0B800D09DD0B0D181D182D180D0BED0A8
:103F5000B9D0BAD0B800D09FD0BED0B4D0B3D0BE04
:103F6000D182D0BED0B2D0B8D182D18C00D09DD079
:103F7000B0D181D182D180D0BED0B8D182D18C00D5
:103F8000D098D0BDD184D0BED180D0BCD0B0D186A5
:103F9000D0B8D0BED0BDD0BDD18BD0B920D18DD0BE
:103FA000BAD180D0B0D0BD00526573656E643A203E
:103FB000006F6B0024F3EFEB11241FBECFEFD1E2B3
:103FC000DEBFCDBF00E00CBF13E0A0E0B2E0ECE14B
:103FD000F1E002E00BBF02C007900D92A636B107D8
:103FE000D9F724E1A6E6B3E001C01D92AF32B207D3
:103FF000E1F71FE1CBEDDFE100E006C02197010909
:10400000802FFE010E94ECFFCA3DD10780E0080727
:10401000A9F70E9410EC0D947D000C9400002F92E3
:104020003F924F925F926F927F928F929F92AF9248
:10403000BF92CF92DF92EF92FF920F931F93CF9395
:10404000DF93CDB7DEB7C258D1090FB6F894DEBF03
:104050000FBECDBF21E020937F0C8091A6138D343D
:1040600009F40BC7843511F40C945838873411F0D7
:104070000C949C388091A4139091A51384309105E1
:1040800009F455C544F497FDF4C62091130282301B
:10409000910544F522C08A35910509F478C644F4A7
:1040A0008B31910509F482C54C9709F4AFC5E1C67F
:1040B0008B35910509F46FC68C35910509F0D9C689
:1040C00075E5272E72E0372EE9E1CE2EE4E0DE2EF4
:1040D000E12CF12C00E010E09BC621110C94A338D8
:1040E0000C949E38222311F40C949E3811E0029710
:1040F00009F010E00E94904182E50E9484418823EB
:1041000009F430C10E940A416B017C014090920C7D
:104110005090930C6090940C7090950C8091960C3C
:104120009091970CA091980CB091990C8DA39EA39F
:10413000AFA3B8A72091820C3091830C4091840CDE
:104140005091850C29A73AA74BA75CA78091860CB4
:104150009091870CA091880CB091890C89AB9AAB97
:10416000ABABBCAB20E030E0A901C701B6010E94B7
:10417000CEF8882309F4C1C4A301920169A57AA5E8
:104180008BA59CA50E94CEF881110DC02DA13EA14A
:104190004FA158A569A97AA98BA99CA90E94CEF81C
:1041A000882309F4AAC420E030E0A901C701B601C0
:1041B0000E94CEF8881F8827881F18130BC020E0A4
:1041C00030E040E85FE321962CAF3DAF4EAF5FAFEC
:1041D00021970AC080E090E0A0E8BFEB21968CAF69
:1041E0009DAFAEAFBFAF2197A301920169A57AA59C
:1041F0008BA59CA50E94E4FC6DAB7EAB8FAB98AF0A
:104200002DA13EA14FA158A569A97AA98BA99CA966
:104210000E94E4FC69AF7AAF8BAF9CAF2DA93EA999
:104220004FA958ADCA01B9010E9433F94B015C0195
:1042300029AD3AAD4BAD5CADCA01B9010E9433F96D
:104240009B01AC01C501B4010E94E5FC0E9450FF36
:104250006DA77EA78FA798AB20E030E040E05FE33A
:104260000E9433F94B015C01A7019601C701B60119
:104270000E9433F96B017C01A5019401C501B401D1
:104280000E9433F99B01AC01C701B6010E94E4FC16
:104290000E9450FF9B01AC0121966CAD7DAD8EADAF
:1042A0009FAD21970E9433F94B015C0129A53AA5E6
:1042B0004BA55CA5C301B2010E94E5FC20E030E003
:1042C00040E05FE30E9433F96B017C0169AD7AAD98
:1042D0008BAD9CAD90582DA53EA54FA558A90E9429
:1042E000C1FD9B01AC01C501B4010E9433F99B01E2
:1042F000AC01C701B6010E94E5FCA30192010E9436
:10430000E4FC6B017C0129A93AA94BA95CA96DA128
:104310007EA18FA198A50E94E5FC20E030E040E05E
:104320005FE30E9433F92B013C012DA53EA54FA56B
:1043300058A96DA97EA98FA998AD0E94C1FD9B01C6
:10434000AC01C501B4010E9433F99B01AC01C3016A
:10435000B2010E94E5FC2DA13EA14FA158A50E94EB
:10436000E4FC14C089E40E948441882329F00E945F
:104370000A416B017C0103C0C12CD12C76018AE477
:104380000E9484418823D9F00E940A4169AB7AAB2C
:104390008BAB9CAB20E030E0A901C701B6010E94C5
:1043A000CEF881111AC020E030E0A90169A97AA9EC
:1043B0008BA99CA90E94CEF881110FC09EC320E05A
:1043C00030E0A901C701B6010E94CEF8882309F4A4
:1043D00094C319AA1AAA1BAA1CAAA701960150588D
:1043E0002DA33EA34FA358A789A99AA9ABA9BCA9FD
:1043F000B05889A79AA7ABA7BCA7CA01B9010E9468
:1044000033F94B015C0129A53AA54BA55CA5CA016E
:10441000B9010E9433F99B01AC01C501B4010E94AE
:10442000E5FC0E9450FF2D966CAF7DAF8EAF9FAF25
:104430002D972091920C3091930C4091940C5091B7
:10444000950C2DA73EA74FA758ABA70196016DA5C8
:104450007EA58FA598A90E94E5FC21966CAF7DAF43
:104460008EAF9FAF21978091960C9091970CA09161
:10447000980CB091990C8DAB9EABAFABB8AF29A99E
:104480003AA94BA95CA9BC01CD010E94E5FC61964B
:104490006CAF7DAF8EAF9FAF61972091820C309152
:1044A000830C4091840C5091850C29AF3AAF4BAFEF
:1044B0005CAF21962CAD3DAD4EAD5FAD219769ADA2
:1044C0007AAD8BAD9CAD0E94E4FC6B017C018091C8
:1044D000860C9091870CA091880CB091890C259640
:1044E0008CAF9DAFAEAFBFAF259761962CAD3DAD04
:1044F0004EAD5FAD6197BC01CD010E94E4FC4B0164
:104500005C0120919A0C30919B0C40919C0C509135
:104510009D0C29962CAF3DAF4EAF5FAF29976091B0
:104520008A0C70918B0C80918C0C90918D0C0E9458
:10453000E4FC2B013C0180918E0C90918F0CA0919A
:10454000900CB091910C69968CAF9DAFAEAFBFAFA0
:10455000699720919E0C30919F0C4091A00C509136
:10456000A10C65962CAF3DAF4EAF5FAF6597A7012D
:1045700096016DA17EA18FA198A50E9433F96D9639
:104580006CAF7DAF8EAF9FAF6D97A501940169A50C
:104590007AA58BA59CA50E9433F99B01AC016D9671
:1045A0006CAD7DAD8EAD9FAD6D970E94E5FC6D96B7
:1045B0006CAF7DAF8EAF9FAF6D97A50194016DA1DC
:1045C0007EA18FA198A50E9433F94B015C01A70140
:1045D000960169A57AA58BA59CA50E9433F99B013C
:1045E000AC01C501B4010E94E4FC6D962CAD3DAD5B
:1045F0004EAD5FAD6D970E9458FD6B017C0120E0D0
:1046000030E0A9010E94CEF887FF0AC02BED3FE001
:1046100049EC50E4C701B6010E94E5FC6B017C0146
:10462000112351F02BED3FE049EC50E4C701B601F6
:104630000E94E4FC6B017C0120E030E0A901C7018D
:10464000B6010E94CEF8811122C029AD3AAD4BAD22
:104650005CAD6DA57EA58FA598A90E94CEF88111AD
:1046600016C025962CAD3DAD4EAD5FAD25976DA91D
:104670007EA98FA998AD0E94CEF8811108C0ABED3C
:10468000CA2EAFE0DA2EA9ECEA2EA0E4FA2EA7019A
:1046900096012D966CAD7DAD8EAD9FAD2D970E9490
:1046A00033F94B015C0120E030E0A901C301B20104
:1046B0000E94CEF88823C9F0A5019401C501B40178
:1046C0000E9433F94B015C01A3019201C301B201C5
:1046D0000E9433F99B01AC01C501B4010E94E5FCC5
:1046E0000E9450FF4B015C010DC020E030E0A901A9
:1046F000C501B4010E940BFF87FF04C0B7FAB09454
:10470000B7F8B0942FE632E143E85AE3C501B401AB
:104710000E94CEF887FF02C00C949E38C501B401F8
:104720000E945AFE0E942EFE1B01672B19F42224C0
:104730002394312CB10180E090E00E94D2F84B012B
:104740005C019B01AC01C701B6010E94C1FD6DA7D0
:104750007EA78FA798ABA5019401C301B2010E9467
:10476000C1FD2D966CAF7DAF8EAF9FAF2D97659637
:104770002CAD3DAD4EAD5FAD659769966CAD7DAD31
:104780008EAD9FAD69970E94E4FCA50194010E9443
:10479000C1FD69966CAF7DAF8EAF9FAF69972DA5B8
:1047A0003EA54FA558A9CA01B9010E9433F920E0DE
:1047B00030E040E05FE30E9433F99B01AC0160E030
:1047C00070E080E89FE30E94E4FC25966CAF7DAF2B
:1047D0008EAF9FAF259729968CAD9DADAEADBFAD89
:1047E000299789879A87AB87BC8765962CAD3DADA5
:1047F0004EAD5FAD65972D873E874F87588B609193
:10480000310270913202072E000C880B990B0E9426
:10481000D4F820910002309101024091020250919F
:1048200003020E9433F92AE037ED43E25CE30E9481
:1048300033F9698F7A8F8B8F9C8F0E9467B79B01AA
:10484000AC0128533F4F4F4F5F4F29962CAF3DAFE0
:104850004EAF5FAF29974DA05EA06FA078A441E056
:1048600050E05AAF49AF59E15DAB29AD3AAD2215E1
:10487000330509F41BC10E94BA770E9467B7DC01B7
:10488000CB0129962CAD3DAD4EAD5FAD2997821B76
:10489000930BA40BB50BB7FD11C00E9467B79B012A
:1048A000AC0128533F4F4F4F5F4F29962CAF3DAF80
:1048B0004EAF5FAF299780E00E9464673DA93150F9
:1048C0003DAB332309F441C025962CAD3DAD4EAD33
:1048D0005FAD259769A57AA58BA59CA50E9433F9A4
:1048E0006B017C012DA53EA54FA558A9B201C301BE
:1048F0000E9433F9A70196010E94E5FC7B018C011F
:1049000025962CAD3DAD4EAD5FAD2597B201C301EF
:104910000E9433F94B015C012DA53EA54FA558A976
:1049200069A57AA58BA59CA50E9433F99B01AC01D2
:10493000C501B4010E94E4FC2B013C01C701D80170
:1049400089A79AA7ABA7BCA751C049AD5AADBA0178
:1049500080E090E00E94D2F82DA53EA54FA558A971
:104960000E9433F94B015C010E94BEFD6B017C018A
:10497000C501B4010E9446FF4B015C01A7019601ED
:104980006DA17EA18FA198A50E9433F92B013C0156
:10499000A501940169A97AA98BA99CA90E9433F960
:1049A0009B01AC01C301B2010E94E5FC2B013C015B
:1049B000A50194016DA17EA18FA198A50E9433F954
:1049C0004B015C01A701960169A97AA98BA99CA951
:1049D0000E9433F99B01AC01C501B4010E94E4FCC3
:1049E00069A77AA78BA79CA759E15DAB9201A301A8
:1049F00021966CAD7DAD8EAD9FAD21970E94E5FCFB
:104A000069837A838B839C8329A53AA54BA55CA5F2
:104A100061966CAD7DAD8EAD9FAD61970E94E5FC5A
:104A20006D837E838F8398872D962CAD3DAD4EADE3
:104A30005FAD2D9769857A858B859C850E94E5FC05
:104A400069877A878B879C8769962CAD3DAD4EAD83
:104A50005FAD69976D857E858F8598890E94E5FC9D
:104A60006D877E878F87988B80915402882321F0F1
:104A7000CE0101960E943F65E090B30C198A1A8A14
:104A80001B8A1C8ACE0141966C018E01075E1F4F66
:104A90009E01235F3F4FAE01475F5F4FBE016B5FDB
:104AA0007F4F40970E942A93811121C0E090B30C60
:104AB0001D8A1E8A1F8A188EDE0155966D018E0191
:104AC000075E1F4F2EE83CE04AE85CE066E87CE0C9
:104AD00082E89CE00E942A9380E1E2E8FCE0A2E9FF
:104AE000BCE001900D928A95E1F70C949E38E9ADF7
:104AF000FAAD3196FAAFE9AFB8CEE8E9FDE28491BC
:104B00008F010F5F1F4F882321F00E948042F80120
:104B1000F6CFE7E2F2E084918F010F5F1F4F882309
:104B200011F40C949E380E948042F801F4CF80E585
:104B30000E948441882329F00E94CA406B017C01B5
:104B400003C0C12CD12C760183E50E9484418823C7
:104B500061F00E940A4120E030E04AE754E40E94FC
:104B600033F90E942EFE6B017C010E943AC68091AF
:104B7000BD0C811105C060E08DE392E00E9472E3FC
:104B80000E9467B7C60ED71EE81EF91E0E9467B7BF
:104B9000DC01CB018C199D09AE09BF09B7FD02C02C
:104BA0000C949E3880E00E946467F0CF0E94B5A00C
:104BB00081110C949E3880E090E0A0EAB0E48983F3
:104BC0009A83AB83BC8380E090E0ADE4B3E48D8353
:104BD0009E83AF83B88780E090E0A0EAB1E4898744
:104BE0009A87AB87BC8780E50E948441882319F0AF
:104BF0000E94DA4001C060E0698BBE016F5F7F4FA9
:104C0000CE0141960E94D1C90C949E388091130523
:104C10008770873071F48FE40E948441882319F0F3
:104C20000E94FB4003C08FE40E943D4181110C941F
:104C30009E380E943AC68091000290910102A09194
:104C40000202B091030280936D0390936E03A093D0
:104C50006F03B09370038091310290913202909370
:104C60006C0380936B0384E690E090933202809310
:104C7000310211E01093120588E50E943D41E82EB3
:104C800089E50E943D41082F8AE50E943D41F82EAA
:104C9000E11004C0011104C0182705C0011102C0B1
:104CA00010E001C0182F0E94164282E50E94844144
:104CB000882391F10E940A414B015C0120E030E021
:104CC000A9010E94CEF8882339F1111104C0E11026
:104CD00002C0002391F180928A0C90928B0CA092DA
:104CE0008C0CB0928D0C20919A0C30919B0C4091C1
:104CF0009C0C50919D0CC501B4010E940BFF18162D
:104D00005CF419821A821B821C82BE016F5F7F4F86
:104D10008AE89CE00E94513F111105C0E11003C0D8
:104D2000011106C00AC080E00E94D1651123C1F3C1
:104D300081E00E94D165111102C0FF2019F082E0CC
:104D40000E94D1650E942240809111058093120536
:104D500080916D0390916E03A0916F03B0917003E9
:104D60008093000290930102A0930202B093030289
:104D700080916B0390916C03909332028093310287
:104D800083E0809328020E9488A80C949E38109299
:104D90006A030C949E3820936A030C949E380E94F8
:104DA0000A412B013C01133059F0F701EA59FC4E3E
:104DB00020813181428153810E94E4FC2B013C011E
:104DC000F701EE56F34F2081318142815381C301B7
:104DD000B2010E94E4FC4B015C012DEB37E346E895
:104DE00055EB0E940BFF87FD1BC02DEB37E346E818
:104DF00055E3C501B4010E94CEF818168CF01F5F70
:104E0000B4E0CB0ED11CE4E0EE0EF11C143039F10D
:104E1000D1018D911D010E948441882381F3BFCF70
:104E2000133051F440929E0C50929F0C6092A00C53
:104E30007092A10C01E0E3CFA5019401F60160811D
:104E40007181828193810E94E5FCD6016D937D93EF
:104E50008D939C931397812F0E946F3FD0CF002397
:104E600021F08EE99CE00E9456A10E9488A80C9433
:104E70009E380E94CABD0C949E388091A4139091D4
:104E8000A5138337910509F42BC50CF0CDC08B34E5
:104E9000910509F440C30CF06FC08831910509F405
:104EA00041C2D4F58231910509F4C6C4DCF497FF00
:104EB00002C00C945538823091050CF49EC1419784
:104EC00011F00C94553860E08FE592E00E9472E397
:104ED0005F988A98809108018170809306011298EA
:104EE0000C949E388531910509F401C244F444972D
:104EF00011F00C9455380E948A420C949E388631E9
:104F0000910509F4F8C1479711F00C945538E091D8
:104F1000A213F091A313F9C18D31910511F40C94F2
:104F20009E38C4F48A31910509F434C20CF424C2C9
:104F30008B31910509F43CC24C9711F00C94553813
:104F400040E060E08091A2139091A3130E9440D0B2
:104F50000C949E388F31910509F4D9C20CF4C2C269
:104F60008032910509F4C2C28A9711F00C94553829
:104F70000E94C3AC0C949E388936910509F477C31E
:104F800044F58335910509F453C49CF48D3491059F
:104F900009F4C9C20CF4C3C28135910509F433C4C4
:104FA0008235910511F00C945538109269030C94D8
:104FB0009E388535910509F474C40CF43DC48C35D4
:104FC000910509F489C48836910509F4B0C20C949E
:104FD00055388E36910509F4D9C29CF48B3691056B
:104FE00009F486C30CF466C38C36910509F42FC30B
:104FF0008D36910511F00C9455380E946FAA0C94CF
:105000009E388037910509F426C30CF4D2C281374B
:10501000910509F428C38237910511F00C94553895
:105020000E9453A90C949E388D3D910511F40C9467
:105030009B300CF067C08B39910509F41EC374F5E1
:105040008837910509F4A1C47CF48637910509F4E9
:105050004BC40CF096C48537910511F00C9455386B
:105060000E942CA80C949E388D37910509F444C3F6
:105070005CF48937910511F00C94553810921205A3
:10508000109211050C949E388C38910509F4F9C2E0
:105090008139910509F47FC40C9455388C3C9105F5
:1050A00009F473C5F4F4883C910509F4EEC434F4B2
:1050B0008E3B910509F4E9C20C945538893C910561
:1050C00009F42BC58B3C910511F00C945538EDEE8D
:1050D000EE2EE6E0FE2E05E512E0F4E0DF2ED00E27
:1050E00045C58E3C910509F435C60CF4C6C5833D13
:1050F000910509F430C78C3D910511F40C948C3066
:105100000C945538843FF1E09F0711F40C94B635A8
:10511000ECF58F3231E0930711F40C945232DCF449
:105120008C3251E0950711F40C9434313CF4823EFA
:10513000910511F40C9409310C9455388D32B1E07D
:105140009B0711F40C945D318E32914011F40C9454
:10515000FE310C9455388039F1E09F0711F40C941E
:10516000B3354CF48336914011F00C945538E8E98E
:10517000FDE20C949C358A3941E0940709F46FC232
:105180008C3A914009F407C60C9455388835A2E052
:105190009A0711F40C94EE35B4F4863FE1E09E07D3
:1051A00011F40C94BC3514F40C94B935873F21E00C
:1051B000920711F40C94BF35883F914011F40C9480
:1051C000CB350C9455388B3843E0940711F40C948C
:1051D0009E383CF48B35924011F40C94B7370C9404
:1051E0005538803AB3E09B0709F484C1873E934069
:1051F00011F40C9440380C945538A090A213B09040
:10520000A31380E50E948441882359F00E94CA407C
:105210006B017C0111E0672B682B692B31F410E0E6
:1052200004C010E0C12CD12C760183E50E9484419A
:10523000882311F40C948E390E940A4120E030E05A
:105240004AE754E40E9433F90E942EFE6B017C0170
:1052500011110BC0672B682B692B39F4A114B10411
:1052600021F0D5018C91811102C010E001C011E044
:105270000E943AC6112329F061E0C5010E94ACE307
:1052800005C060E087E492E00E9472E383E08093CF
:105290007F0C81E080937E0CC114D104E104F10401
:1052A000F1F00E9467B7C60ED71EE81EF91E0E94D5
:1052B00067B7DC01CB018C199D09AE09BF09B7FDA9
:1052C00006C00E944EE810927E0C0C949E3880918D
:1052D0007E0C8823B1F380E00E946467E8CF809160
:1052E0007E0C882371F380E00E946467F8CF0E94EF
:1052F00030D20C949E381092740D1092750D0C944F
:105300009E38803209F41082319680818111F9CF64
:1053100040E061E08091A2139091A3130E9440D0DD
:105320000C949E3880E090E0A8E4B2E489839A83EC
:10533000AB83BC83198A1A8A1B8A1C8A1D8A1E8A1F
:105340001F8A188E8091EA0C882359F020E0AE0164
:105350004F5F5F4FBE016F5E7F4FCE0145960E944B
:105360002CBC8091750D882319F081E08093740D19
:105370000E948C790C949E381092740D0E94C5790D
:1053800088E792E09093760C8093750C0E94C33F5F
:105390000C949E388091750D882311F40C949E38DE
:1053A00083E50E94844181110C9493390C949E38BA
:1053B00083E40E943D41882309F454C0EAEAF2E004
:1053C00084918F010F5F1F4F882321F00E9480423C
:1053D000F801F6CF8091660F882391F0BE016F5FD0
:1053E0007F4F83E69FE00E948A628E010F5F1F4F0E
:1053F000F80181918F01882381F10E948042F8CFCA
:10540000EDE7F2E084918F010F5F1F4F882329F1B0
:105410000E948042F801F6CF8091F40B882309F4B2
:1054200009C169EBC62E62E0D62EE12CF12C20E0FA
:105430008091F40B90E00E2C02C0959587950A940C
:10544000E2F780FDDFC0FFEFEF1AFF0A32E0C30E84
:10545000D11C45E0E416F10459F78AE00E9480422D
:105460000C949E388091750D882371F18091740D94
:10547000882351F1E7E8F2E084918F010F5F1F4F1D
:10548000882321F00E948042F801F6CF6091141029
:105490007091151080911610909117104AE00E949B
:1054A000BC468FE20E9480426091101070911110F2
:1054B00080911210909113104AE00E94BC468AE03D
:1054C0000E9480420C949E38E9E9F2E084918F01B9
:1054D0000F5F1F4F882311F40C949E380E94804266
:1054E000F801F4CF0E9420AE0C949E380E9410ADBB
:1054F0000C949E388091A2139091A31321E02093E5
:10550000730D40E060E00E9440D00C949E380E94F1
:1055100051AD0C949E380E948C790C949E380E9458
:10552000C5790C949E380E94DA790C949E3888E6EE
:1055300090E00E94224781110C949E388091F40BD8
:1055400083FF02C00C949E3883E50E948441882327
:10555000C9F00E940A410E9429FE7093B50C609325
:10556000B40C80E00E94E7D70E940A4120E030E0BE
:1055700040EA52E40E94CEF8181624F00E94DA792C
:105580000E944EE80E9441C50C949E388EE40E9411
:105590008441882311F40C949E380E94DA40609371
:1055A0002D1370932E1380932F13909330130C941C
:1055B0009E3883E50E943D41882359F083E50E948F
:1055C0008441882319F00E94EA4001C080E0809362
:1055D000F40BE8E0FCE284918F010F5F1F4F8823FA
:1055E00021F00E948042F801F6CFE7ECF2E08491CE
:1055F0008F010F5F1F4F882309F40ECF0E94804256
:10560000F801F5CFBB24B394B20E222319F08CE23B
:105610000E948042F60125913491F901849189011B
:105620000F5F1F4F882321F00E9480429801F5CF21
:105630002B2D09CFE3ECF2E084918F010F5F1F4F18
:10564000882309F40ACF0E948042F801F5CF109216
:1056500036020C949E388EEC92E00E94F5660E9411
:10566000F2A70C949E380E942CAA0C949E380E949B
:105670008BAC10927F0C0C94123D0E945DAC0C948C
:105680009E380E9456AA0C949E388091F40B83FF9A
:1056900002C00C949E3883E50E9484418DAF811135
:1056A0000C94A33982E50E94844181110C94A339A2
:1056B0000C949E3880E50E948441811106C083E5E8
:1056C0000E948441882361F006C00E94EA40811153
:1056D0000C949E38F4CF0E94DA406F3F710510F0B1
:1056E0006FEF70E070931E0760931D070C949E3857
:1056F0000E944EAC0C949E388CE40E943D4188235D
:1057000081F00E940A416B017C0120E030E0A90198
:105710000E940BFF87FF0AC0F7FAF094F7F8F094A5
:1057200005C0C12CD12CE12C30E4F32EF7FAF09413
:10573000F7F8F094CD8ADE8AEF8AF88E80E090E068
:10574000A0EAB0E489839A83AB83BC8380E090E0D5
:10575000ADE4B3E48D839E83AF83B88780E090E0AF
:10576000A0EAB1E489879A87AB87BC8788E50E9465
:105770008441882379F088E50E948441882319F0C8
:105780000E940A4103C060E070E0CB0169837A8324
:105790008B839C8389E50E948441882379F089E585
:1057A0000E948441882319F00E940A4103C060E0EE
:1057B00070E0CB016D837E838F8398878AE50E949A
:1057C0008441882379F08AE50E948441882319F076
:1057D0000E940A4103C060E070E0CB0169877A87CC
:1057E0008B879C87198A1A8A1B8A1C8A20E0AE0143
:1057F0004F5E5F4FBE016F5F7F4FCE0145960E94A7
:10580000E0420C949E380E9432D80E944EC71092FB
:105810001E0710921D0768EE73E080E090E00E9482
:1058200084E260E08DE193E00E9472E30C949E3884
:10583000209369030C949E3883E50E948441882359
:10584000A1F00E940A4120E030E04AE754E40E94BF
:1058500033F90E942EFE6093050270930602809336
:105860000702909308020C949E3888E50E943D41FF
:1058700081110C94403B89E50E943D4181110C94BB
:10588000403B8AE50E943D4181110C94403B85E4F8
:105890000E943D4181110C94403B0E944EC70C94E4
:1058A0009E3883E50E943D41882311F40C949E3874
:1058B0000E940A4120E030E04AE754E40E9433F9B4
:1058C0000E942EFE609310047093110480931204C2
:1058D000909313040C949E380E948EA90C949E38C9
:1058E0000E9439A80C949E380091A2131091A31322
:1058F00083E0D12C40E08150E9F0D8019C91292F20
:105900002B7F2134C1F711962C912133A1F79134CB
:1059100021F0953421F441E002C0DD24D3949801B4
:105920002E5F3F4F89012F5F3F4FF80190819032EA
:10593000C9F3E1CF442369F0E8E0FCE284917F0100
:105940002FEFE21AF20A882321F00E948042F70129
:10595000F5CFDD2069F0E3E3F3E084917F013FEFD1
:10596000E31AF30A882321F00E948042F701F5CF61
:10597000D8018D918D01882309F46FCD0E9480425A
:10598000F7CF0E94D2CA0C949E3820931205209320
:1059900011050C949E3883E50E948441882319F0F8
:1059A0000E94DA4002C060E070E08B0111270230F3
:1059B0001105D4F0E8E9FDE284918F010F5F1F4FDC
:1059C000882321F00E948042F801F6CFE7E3F3E05C
:1059D00084918F010F5F1F4F882311F40C949E3820
:1059E0000E948042F801F4CF88E40E948441882319
:1059F000A9F00E94DA40603A71053CF06530B1E0F0
:105A00007B072CF064E071E002C060EA70E0F8010E
:105A1000EE0FFF1FE351FB4F7183608386E40E940A
:105A200084418823A9F00E94DA40F801EE0FFF1F9D
:105A3000EF50FB4F718360836F3F710519F014F0D5
:105A40006FEF70E077FF02C060E070E07183608309
:105A500082E40E948441882311F40C949E380E94B1
:105A6000DA406530710534F0683871052CF067E86C
:105A700070E002C065E070E0000F111FF801E7510F
:105A8000FB4F718360830C949E3888EC90E00E94F9
:105A9000224781110C949E3884E40E943D41882362
:105AA000C1F10E940A4111E020E030E0A9010E940A
:105AB000CEF8811101C010E01093EB03112349F1DE
:105AC0000E940A41E091401324E0E29FF00111247A
:105AD000E951FC4F608371838283938320E030E03F
