:100000000C9417200C9448200C9448200C94482001
:100010000C9448200C9448200C9448200C944820C0
:100020000C9448200C9448200C9448200C944820B0
:100030000C9448200C9448200C9448200C944820A0
:100040000C9448200C9441B30C9448200C94482004
:100050000C9448200C9448200C94EBC20C9433BEB2
:100060000C9448200C942B460C9448200C94482067
:100070000C9448200C9448200C9448200C94482060
:100080000C9448200C9448200C9448200C94482050
:100090000C9448200C9448200C9448200C94482040
:1000A0000C9448200C9448200C9448200C94482030
:1000B0000C9448200C9448200C9448200C94482020
:1000C0000C9448200C9448200C9448200C94482010
:1000D0000C9448200C9448200C9448200C94482000
:1000E0000C944820B0BCB3BCA2BCA6BCACBCEABC5F
:1000F000B7BCBBBCC1BCC5BCC9BCCFBCD3BCD7BCE6
:10010000EABCDDBCE1BCE5BC4FBD54BD59BD63BD1F
:100110006DBDE6BD77BD7FBD87BD91BD9BBDA5BD56
:10012000B4BDBEBDE6BDC8BDD2BDDCBD78D45ED415
:1001300061D464D467D473D46AD484D46DD470D4B5
:10014000084AD73B3BCE016E84BCBFFDC12F3D6C3E
:1001500074319ABD56833DDA3D00C77F11BED9E4A4
:10016000BB4C3E916BAAAABE000000803F05A84C84
:10017000CDB2D44EB93836A9020C50B99186880850
:100180003CA6AAAA2ABE000000803F004E414E496C
:100190004E495459494E46CDCCCC3D0AD7233C1745
:1001A000B7D13877CC2B329595E6241FB14F0A0092
:1001B0000020410000C84200401C4620BCBE4CCA82
:1001C0001B0E5AAEC59D74434F4D4D554E4943418C
:1001D00054494F4E0044525952554E004552524FC9
:1001E000525300494E464F004543484F0020746F1C
:1001F0006F206C6F6E6720657874727573696F6EAF
:100200002070726576656E7465640A0020636F6C99
:100210006420657874727573696F6E20707265768C
:10022000656E7465640A0047322F4733206261644B
:1002300020706172616D65746572730A00D0A1D01F
:10024000BED0BD2E2E2E00D09FD180D0BED0B4D037
:10025000BED0BBD0B6D0B8D182D18C2E2E2E00D03D
:100260009DD0B5D18220D0B4D0B2D0B8D0B6D0B560
:10027000D0BDD0B8D18F2E00456E642066696C6504
:10028000206C6973740A00426567696E2066696C48
:1002900065206C6973740A004D31323500286E6F29
:1002A0002066696C6529005344207072696E746918
:1002B0006E67206279746520004E6F74205344206D
:1002C0007072696E74696E670A0043757272656E4A
:1002D000742066696C653A200046696C6520646527
:1002E0006C657465643A0044656C6574696F6E2072
:1002F0006661696C65642C2046696C653A2000254E
:1003000069730025696D20256973002569682025BA
:10031000696D202569730025696420256968202599
:10032000696D202569730025697920256964202578
:1003300069682025696D20256973005072696E74A3
:100340002074696D653A2000000136372603FFFFEF
:10035000FF353C3D380EFFFFFF312E303E12FFFFD0
:10036000FFFF28FF0C0809FFFF071A1C18FFFF2AD0
:1003700008440A2C43E801E301DC01D501C7016F01
:1003800066660044454255473A00D0A3D091D098C4
:10039000D0A2D09E2E20004D3131332053006F6B00
:1003A0000020573A004520D09ED185D0BBD0B0D098
:1003B000B6D0B4D0B5D0BDD0B8D0B52E2E2E004515
:1003C00020D09DD0B0D0B3D180D0B5D0B22E2E2EBB
:1003D0000020573A00D09ED185D0BBD0B0D0B6D047
:1003E000B4D0B5D0BDD0B8D0B520D181D182D0BEE7
:1003F000D0BBD0B02E2E2E00D09DD0B0D0B3D180A7
:10040000D0B5D0B220D181D182D0BED0BBD0B02E59
:100410002E2E003344205072696E74657220D09283
:10042000D18BD0BAD0BB2E2E002C20002C20005413
:100430004845524D414C5F50524F54454354494FEB
:100440004E004155544F5245504F52545F53445FF4
:1004500053544154555300454D455247454E435919
:100460005F50415253455200434153455F4C494709
:1004700048545F4252494748544E45535300544FE5
:1004800047474C455F4C494748545300534F4654E7
:10049000574152455F504F574552004255494C44D1
:1004A0005F50455243454E54004C4556454C494ECD
:1004B000475F44415441005A5F50524F424500410A
:1004C00055544F4C4556454C005052494E545F4A86
:1004D0004F420050524F4752455353004155544FDD
:1004E0005245504F52545F54454D5000564F4C5555
:1004F0004D455452494300454550524F4D005345D8
:100500005249414C5F584F4E5F584F46460046494E
:10051000524D574152455F4E414D453A4D61726CC7
:10052000696E20312E312E39204461726B5F536128
:10053000726D6174204D4F4420284769746875625C
:100540002920534F555243455F434F44455F555211
:100550004C3A68747470733A2F2F676974687562C7
:100560002E636F6D2F4D61726C696E4669726D7787
:100570006172652F4D61726C696E2050524F544FFD
:10058000434F4C5F56455253494F4E3A312E30201F
:100590004D414348494E455F545950453A334420F4
:1005A0005072696E746572204558545255444552D4
:1005B0005F434F554E543A3120555549443A63658F
:1005C0006465326132662D343161322D343734380E
:1005D0002D396231322D6335356336326633363725
:1005E00066660A002F2F20004D31343520533C69B8
:1005F0006E6465783E206F7574206F662072616E40
:1006000067652028302D31290A002054002052002F
:10061000416363656C65726174696F6E3A20500066
:10062000D09AD0BED180D180D0B5D0BAD186D0B842
:10063000D0B820D0BFD180D0B8D0BCD0B5D0BDD03C
:10064000B5D0BDD18B004572723A20546F6F2066D1
:1006500061722100546F6F206661722066726F6D47
:10066000207265666572656E636520706F696E7471
:100670000A00205A00205900580020204D61783A85
:100680002000205A00205900580020204D696E3A61
:100690002000D092D0BAD0BB2E00D092D18BD0BA4D
:1006A000D0BB2E00536F667420656E6473746F70D8
:1006B000733A200020466C6F773A200020643A009D
:1006C00020693A0020703A00496E76616C696420B6
:1006D00065787472756465720A0043290A00616264
:1006E0006C656420286D696E2074656D7020004310
:1006F0006F6C6420657874727564657320617265CF
:1007000020004E6F2063617365206C696768740A0E
:1007100000454550524F4D204F4B0A003F4B20762D
:10072000616C7565206F7574206F662072616E67ED
:10073000652028302D3130292E0A00416476616E03
:100740006365204B3D00416374697665204578748C
:1007500072756465723A2000496E76616C69642036
:1007600065787472756465720A004E6F204368651F
:10077000636B73756D2077697468206C696E652092
:100780006E756D6265722C204C617374204C696EBD
:10079000653A2000D0A3D091D098D0A2D09E2E2030
:1007A00000D09ED0A1D0A2D090D09DD09ED092D08B
:1007B0009BD095D09DD09E2E20005072696E74659E
:1007C000722073746F707065642064756520746F37
:1007D000206572726F72732E204669782074686586
:1007E000206572726F7220616E6420757365204D92
:1007F00039393920746F20726573746172742E20D8
:100800002854656D70657261747572652069732016
:1008100072657365742E2053657420697420616657
:100820007465722072657374617274696E67290AE7
:10083000004E6F20436865636B73756D2077697434
:1008400068206C696E65206E756D6265722C204C37
:10085000617374204C696E653A2000636865636B50
:1008600073756D206D69736D617463682C204C61C4
:100870007374204C696E653A20004C696E65204E99
:10088000756D626572206973206E6F74204C6173A0
:1008900074204C696E65204E756D6265722B312C2B
:1008A000204C617374204C696E653A20004D3131E3
:1008B00030004D333100534420726561642065720D
:1008C000726F720A00446F6E65207072696E74698F
:1008D0006E672066696C650A0020496E76616C69F6
:1008E0006420657874727564657220000000A0C091
:1008F00000000000000000000000574300005743C4
:1009000000009643D092D0BED0B7D0B2D180D0B044
:10091000D18220D0BDD0B520D183D0B4D0B0D0BB4F
:10092000D181D18F004D3630303A20D09DD0B8D013
:10093000B7D0BAD0B0D18F20D0A200486F74656E06
:100940006420746F6F20636F6C640A0050726F7460
:1009500065637465642050696E0A00D09FD0B0D181
:1009600080D0BAD183D0B92025732573257320D0C8
:10097000BFD0B5D180D0B2D18BD0B90020D0BFD0FC
:10098000B5D180D0B2D18BD0B90A005A00590058E5
:1009900000D09FD0B0D180D0BAD183D0B920002070
:1009A000746F6F206C6F6E672065787472757369F1
:1009B0006F6E2070726576656E7465640A002063E0
:1009C0006F6C6420657874727573696F6E207072D5
:1009D0006576656E7465640A004572726F72207781
:1009E000726974696E6720746F20454550524F4D8F
:1009F000210A00454550524F4D206461746173696E
:100A00007A65206572726F722E0A00290A002062D0
:100A1000797465733B206372632000536574746955
:100A20006E67732053746F726564202800290A0072
:100A30002062797465733B206372632000207374B5
:100A40006F7265642073657474696E677320726574
:100A500074726965766564202800202863616C6380
:100A6000756C6174656429210A0020213D200045D0
:100A70004550524F4D20435243206D69736D617450
:100A80006368202D202873746F726564292000200C
:100A900053697A653A2000496E6465783A200020EF
:100AA0004D61726C696E3D563535290A0028454501
:100AB00050524F4D3D00454550524F4D2076657286
:100AC00073696F6E206D69736D6174636820007C5B
:100AD0003C3E5E2B3D3F2F5B5D3B2C2A225C006F32
:100AE0006B00627573793A20706175736564206676
:100AF0006F7220696E7075740A00627573793A209E
:100B000070617573656420666F7220757365720A13
:100B100000627573793A2070726F63657373696EE2
:100B2000670A00D0A3D091D098D0A2D09E2E2000EA
:100B30004B494C4C20636175736564206279204B8E
:100B4000494C4C20627574746F6E2F70696E0A0088
:100B5000D0A3D091D098D0A2D09E2E20004B494C4B
:100B60004C2063617573656420627920746F6F2017
:100B70006D75636820696E61637469766520746958
:100B80006D65202D2063757272656E7420636F6DC4
:100B90006D616E643A20004D36303000D0A1D0B483
:100BA000D0B5D0BBD0B0D0B9D182D0B520D181D012
:100BB000B1D180D0BED18100D09FD0A0D098D09D9F
:100BC000D0A2D095D0A020D09ED0A1D0A2D090D03D
:100BD0009DD09ED092D09BD095D09D005072696ED2
:100BE0007465722068616C7465642E206B696C6C2E
:100BF00028292063616C6C6564210A00656E71753B
:100C0000657565696E672022000000A0C0000000C5
:100C100000000000000000484200004842000020A0
:100C200041000000005761726E696E673A20486F9C
:100C30006D696E672042756D702044697669736FC7
:100C400072203C20310A000202040000A040000093
:100C5000A0400000004000005C430000574300003B
:100C60009643FFFFFFD098D0BDD0B8D186D0B8D082
:100C7000B0D0BBD0B8D0B7D0B0D186D0B8D18F204B
:100C8000454550524F4D00D09DD0B0D181D182D139
:100C900080D0BED0B9D0BAD0B800D092D0BED18169
:100CA000D181D182D0B0D0BDD0BED0B2D0B8D182A7
:100CB000D18C20D0BDD0B0D181D182D1802E00D0B6
:100CC00097D0B0D0B3D180D183D0B7D0B8D182D1B2
:100CD0008C20D0BDD0B0D181D182D180D0BED0B94E
:100CE000D0BAD0B800D098D0BDD0B8D186D0B8D0C6
:100CF000B0D0BBD0B8D0B7D0B0D186D0B8D18F20CB
:100D0000454550524F4D00D0A1D0BED185D180D0A5
:100D1000B0D0BDD0B8D182D18C20D0BDD0B0D181DF
:100D2000D182D180D0BED0B9D0BAD0B800D0A4D0B2
:100D3000B8D0BBD0B0D0BCD0B5D0BDD18200D0949B
:100D4000D0B2D0B8D0B6D0B5D0BDD0B8D0B500D024
:100D5000A2D0B5D0BCD0BFD0B5D180D0B0D182D1D7
:100D600083D180D0B000D09CD0B5D0BDD18E004D05
:100D7000333033205531204525692053256900D073
:100D80009FD180D0B5D0B4D0BDD0B0D0B3D180D0B9
:100D9000B5D0B22041425320D0BDD0B0D181D18254
:100DA000D1802E00D09FD180D0B5D0B4D0BDD0B0EE
:100DB000D0B3D180D0B5D0B220504C4120D0BDD0DE
:100DC000B0D181D182D1802E005049442041757428
:100DD0006F74756E6500504944204175746F747569
:100DE0006E65005049442D44005049442D44005044
:100DF00049442D49005049442D49005049442D5043
:100E0000005049442D5000200820D0A4D0B0D0BAC2
:100E1000D182D0BED18000200820D0A4D0B0D0BADA
:100E2000D182D0BED18000200820D09CD0B0D0BAD2
:100E3000D18100200820D09CD0B0D0BAD181002030
:100E40000820D09CD0B0D0BAD18100200820D09CFE
:100E5000D0B8D0BD00200820D09CD0B8D0BD002094
:100E60000820D09CD0B8D0BD00D092D18BD0BAD0C1
:100E7000BB2E00D092D0BAD0BB2E00D090D0B2D131
:100E800082D0BED182D0B5D0BCD0BFD0B5D180D0B9
:100E9000B0D182D183D180D0B000D09AD183D0BBE1
:100EA000D0B5D18000D09AD183D0BBD0B5D180004D
:100EB000D0A1D182D0BED0BB00D0A1D182D0BED033
:100EC000BB00D0A1D0BED0BFD0BBD0BE00D0A1D07F
:100ED000BED0BFD0BBD0BE00D09DD0B0D181D1821A
:100EE000D180D0BED0B9D0BAD0B800D0A1D0BED1B8
:100EF00085D180D0B0D0BDD0B8D182D18C20D0BD2A
:100F0000D0B0D181D182D180D0BED0B9D0BAD0B842
:100F100000D0A1D182D0BED0BB00D0A1D182D0BEA2
:100F2000D0BB00D0A1D0BED0BFD0BBD0BE00D0A11E
:100F3000D0BED0BFD0BBD0BE00D09AD183D0BBD062
:100F4000B5D18000D09AD183D0BBD0B5D18000D0AC
:100F5000A2D0B5D0BCD0BFD0B5D180D0B0D182D1D5
:100F600083D180D0B000D09FD180D0B5D0B4D0BDD7
:100F7000D0B0D0B3D180D0B5D0B22041425320D12F
:100F800081D0BED0BFD0BBD0BE00D09FD180D0B565
:100F9000D0B4D0BDD0B0D0B3D180D0B5D0B2204184
:100FA000425320D181D182D0BED0BB00D09FD1800E
:100FB000D0B5D0B4D0BDD0B0D0B3D180D0B5D0B240
:100FC0002041425300D09FD0BED0B4D0B3D0BED1C8
:100FD00082D0BED0B2D0B8D182D18C004D3432385C
:100FE00000D09FD180D0B5D0B4D0BDD0B0D0B3D1D7
:100FF00080D0B5D0B220504C4100D09ED185D0BB1E
:10100000D0B0D0B6D0B4D0B5D0BDD0B8D0B500D067
:10101000A1D0BCD0B5D0BDD0B020D184D0B8D0BB89
:10102000D0B0D0BCD0B5D0BDD182D0B000D0A1D08E
:10103000BCD0B5D0BDD0B020D184D0B8D0BBD0B05A
:10104000D0BCD0B5D0BDD182D0B0004D363030202C
:10105000423000D092D18BD0BAD0BB2E20D0B4D0A9
:10106000B2D0B8D0B3D0B0D182D0B5D0BBD0B80058
:101070004D383400D097D0B0D0BFD0BED0BCD0BD9A
:10108000D0B8D182D18C20D0BFD0B0D180D0BAD04E
:10109000BED0B2D0BAD18300D09FD180D0B5D0B469
:1010A000D0BDD0B0D0B3D180D0B5D0B22041425362
:1010B00000D09FD0B0D180D0BAD0BED0B2D0BAD0FC
:1010C000B0205A00473238205A00D09FD0B0D1808B
:1010D000D0BAD0BED0B2D0BAD0B020590047323842
:1010E000205900D09FD0B0D180D0BAD0BED0B2D0DD
:1010F000BAD0B0205800473238205800D090D0B233
:10110000D182D0BE20D0BFD0B0D180D0BAD0BED096
:10111000B2D0BAD0B00047323800D094D0B2D0B8F4
:10112000D0B6D0B5D0BDD0B8D0B520D0BFD0BE20BD
:10113000D0BED181D18FD0BC00D09CD0B5D0BDD194
:101140008E00D094D0B2D0B8D0B6D0B5D0BDD0B883
:10115000D0B520D0BFD0BE205800D094D0B2D0B8E7
:10116000D0B6D0B5D0BDD0B8D0B520D0BFD0BE207D
:101170005900D094D0B2D0B8D0B6D0B5D0BDD0B888
:10118000D0B520D0BFD0BE205A00D0ADD0BAD181CA
:10119000D182D180D183D0B4D0B5D18000D094D0C9
:1011A000B2D0B8D0B6D0B5D0BDD0B8D0B520302EE2
:1011B00031D0BCD0BC00D094D0B2D0B8D0B6D0B56D
:1011C000D0BDD0B8D0B52031D0BCD0BC00D094D0E8
:1011D000B2D0B8D0B6D0B5D0BDD0B8D0B5203130AF
:1011E000D0BCD0BC00D094D0B2D0B8D0B6D0B5D09E
:1011F000BDD0B8D0B520D0BFD0BE20D0BED181D117
:101200008FD0BC00D0ADD0BAD181D182D180D18372
:10121000D0B4D0B5D18000D094D0B2D0B8D0B6D0B0
:10122000B5D0BDD0B8D0B520D0BFD0BE205A00D0E8
:1012300094D0B2D0B8D0B6D0B5D0BDD0B8D0B5204B
:10124000D0BFD0BE205900D094D0B2D0B8D0B6D044
:10125000B5D0BDD0B8D0B520D0BFD0BE205800D0BA
:10126000ADD0BAD181D182D180D183D0B4D0B5D123
:101270008000D094D0B2D0B8D0B6D0B5D0BDD0B860
:10128000D0B520D0BFD0BE205A00D094D0B2D0B8B4
:10129000D0B6D0B5D0BDD0B8D0B520D0BFD0BE204C
:1012A0005900D094D0B2D0B8D0B6D0B5D0BDD0B857
:1012B000D0B520D0BFD0BE205800D092D18BD0BAAC
:1012C000D0BB2E00D092D0BAD0BB2E00D09FD18000
:1012D000D0BED0B3D1802E20D18DD0BDD0B4D1819D
:1012E000D182D0BED0BFD18B00D09FD0BED0B4D0E1
:1012F000B3D0BED182D0BED0B2D0B8D182D18C0012
:10130000D0A8D0B0D0B32FD0BCD0BC00D0A0D18B4F
:10131000D0B2D0BED0BA00D0A3D181D0BAD0BED185
:1013200080D0B5D0BDD0B8D0B500D091D18BD1810F
:10133000D182D180D0BED182D0B000D09DD0B0D1EA
:1013400081D182D180D0BED0B9D0BAD0B800D092ED
:10135000D18BD0B3D180D183D0B7D0BAD0B020D088
:10136000BCD0BC00D092D18BD0B3D180D183D0B7C8
:10137000D0BAD0B020D0BCD0BC00D092D18BD0B3EA
:10138000D180D183D0B7D0BAD0B020D0BCD0BC00EF
:10139000D097D0B0D0B3D180D183D0B7D0BAD0B0AD
:1013A00020D0BCD0BC00D097D0B0D0B3D180D183F6
:1013B000D0B7D0BAD0B020D0BCD0BC00D097D0B07D
:1013C000D0B3D180D183D0B7D0BAD0B020D0BCD0E8
:1013D000BC00D094D0B8D0B0D0BCD0B5D182D18030
:1013E00020D184D0B8D0BBD0B0D0BCD0B5D0BDD186
:1013F00082D0B000D094D0B8D0B0D0BCD0B5D1821B
:10140000D18020D184D0B8D0BBD0B0D0BCD0B5D0A2
:10141000BDD182D0B000D092D18BD0BAD0BB2E003B
:10142000D092D0BAD0BB2E004520D0B220D0BCD0B4
:10143000BC33004B20D0BFD180D0BED0B4D0B2D00E
:10144000B8D0B6D0B5D0BDD0B8D18F004B20D0BF6A
:10145000D180D0BED0B4D0B2D0B8D0B6D0B5D0BD87
:10146000D0B8D18F00D09DD0B0D181D182D180D0E1
:10147000BED0B9D0BAD0B80043616E6E6F7420652B
:101480006E746572207375626469723A2000022E70
:101490002E00D09CD0B5D0BDD18E004D363030203E
:1014A000423020542564004D3730312054256400EB
:1014B0004D373032203B2564004D373032205425E3
:1014C0006400D0A1D0BCD0B5D0BDD0B020D184D0E4
:1014D000B8D0BBD0B0D0BCD0B5D0BDD182D0B000D8
:1014E000D09FD180D0B5D0B4D0BDD0B0D0B3D18052
:1014F000D0B5D0B22041425300D09FD180D0B5D0DA
:10150000B4D0BDD0B0D0B3D180D0B5D0B220504C83
:101510004100D0A1D0BCD0B5D0BDD0B020D184D0B6
:10152000B8D0BBD0B0D0BCD0B5D0BDD182D0B00087
:10153000D09FD095D0A7D090D0A2D0AC20D09DD0B5
:101540009020D09FD090D0A3D097D09500D092D0AB
:10155000ABD093D0A0D0A3D097D09AD09020D0A4D5
:10156000D098D09BD090D09CD095D09DD0A2D09038
:1015700000D097D090D093D0A0D0A3D097D09AD0BD
:101580009020D0A4D098D09BD090D09CD095D09DC6
:10159000D0A2D09000D092D18BD0B4D0B0D0B2D065
:1015A000B8D182D18C20D0B5D189D19100D092D040
:1015B000BED0B7D0BED0B1D0BDD0BED0B2D0B8D1E1
:1015C00082D18C20D0BFD0B5D187D0B0D182D18C80
:1015D00000D09ED09FD0A6D098D09820D092D09EF8
:1015E000D097D09ED091D09DD09ED092D09BD095B8
:1015F000D09DD098D0AF3A002020D0A1D0BED0BF8F
:10160000D0BBD0B03A2000D184D0B8D0BBD0B0D0BD
:10161000BCD0B5D0BDD182D0B000D0BDD0B0D187C4
:10162000D0B0D0BBD0B020D181D0BCD0B5D0BDD14E
:101630008B00D09ED0B6D0B8D0B4D0B0D0B9D182C3
:10164000D0B50000002200250028002B002E00311C
:1016500000340002010000050108010B0100002018
:10166000002300260029002C002F0032000001007A
:10167000000301060109010505050507050808081D
:1016800008020202020A0A08080404040401010113
:10169000010101010103030303030303030407071B
:1016A000070C0C0C0C0C0C0C0C02020202060606B9
:1016B00006060606060B0B0B0B0B0B0B0B010210A1
:1016C000202008081020401020408002010201085C
:1016D000040201010204081020408080402010080C
:1016E0000402018004020180402010080402010865
:1016F00004020101020408102040800102040810C5
:1017000020408000000A0B02090C0D0E080703049C
:1017100001000000000000000000000000000000C8
:1017200000000000000000000000000000000012A7
:101730001110000000000000000000000000000088
:10174000000000000000000000D0A3D091D098D08D
:10175000A2D09E2E2000202D20496E76616C6964F7
:10176000206578747275646572206E756D6265723D
:1017700020210A001FFFFFFFFFFFFF6000000000A5
:1017800001FF400000000000FF8000000000007F1B
:1017900083CF00000C303F87FF80000C301F86791C
:1017A00080000C000F8C30C7838C30E78C30CFC7A3
:1017B000CC31F38C30DCECEC33B98C30D86C6C333E
:1017C000198C30D06C0C33198C30D86C0C33198CCC
:1017D00030DC6C0E3B198C30CF7C079F198C30C7E6
:1017E0007C038F1940000000000002600000000030
:1017F00000061FFFFFFFFFFFF82020506C616E6E98
:10180000657242756666657242797465733A200046
:101810002046726565204D656D6F72793A200043F0
:101820006F6D70696C65643A204A756E203237209E
:10183000323031390A00207C20417574686F723A69
:10184000204461726B5F5361726D617420636F6ECF
:10185000666967206D6F640A00323031382D303888
:101860002D303100204C61737420557064617465B3
:10187000643A2000312E312E39204461726B5F535F
:1018800061726D6174204D4F440A004D61726C6944
:101890006E0020536F6674776172652052657365C0
:1018A000740A00205761746368646F67205265731F
:1018B00065740A002042726F776E206F7574205233
:1018C000657365740A002045787465726E616C20DA
:1018D00052657365740A00506F77657255700A001F
:1018E00073746172740A006175746F25692E6700E4
:1018F0006572726F722077726974696E6720746F97
:101900002066696C650A00D0ADD0BDD0B4D181D15C
:1019100082D0BED0BFD18B202563202563202563D4
:1019200020256300205A3A0020593A0020583A00F6
:10193000656E6473746F7073206869743A20004434
:101940006F6E6520736176696E672066696C652EBF
:101950000A004D32390056D0BFD183D182D0B5D1E3
:10196000882E20D0BCD0B8D0BD0056D0BFD183D1F6
:1019700082D0B5D1882E20D0BCD0B8D0BD0056D0F2
:10198000BFD183D182D0B5D1882E20D0BCD0B8D0E1
:10199000BD0056D0BCD0B8D0BD0056D0BCD0B8D059
:1019A000BD0056D0BCD0B8D0BD0056D0BCD0B0D051
:1019B000BAD18120450056D0BCD0B0D0BAD1812058
:1019C000450056D0BCD0B0D0BAD18120450056D009
:1019D000BCD0B0D0BAD181205A0056D0BCD0B0D043
:1019E000BAD181205A0056D0BCD0B0D0BAD1812013
:1019F0005A0056D0BCD0B0D0BAD18120590056D0B0
:101A0000BCD0B0D0BAD18120590056D0BCD0B0D013
:101A1000BAD18120590056D0BCD0B0D0BAD18120E3
:101A2000580056D0BCD0B0D0BAD18120580056D082
:101A3000BCD0B0D0BAD181205800D094D0B2D0B8A8
:101A4000D0B6D0B5D0BDD0B8D0B50041D0BCD0B0A4
:101A5000D0BAD18120450041D0BCD0B0D0BAD1811C
:101A600020450041D0BCD0B0D0BAD181205A00412D
:101A7000D0BCD0B0D0BAD181205A0041D0BCD0B0B7
:101A8000D0BAD18120590041D0BCD0B0D0BAD181D8
:101A900020590041D0BCD0B0D0BAD18120580041EB
:101AA000D0BCD0B0D0BAD181205800412DD0BFD108
:101AB00083D182D0B5D1882E00412DD0BFD183D122
:101AC00082D0B5D1882E00412DD0B2D182D18FD015
:101AD000B3D0B8D0B2D0B0D0BDD0B8D0B500412DC1
:101AE000D0B2D182D18FD0B3D0B8D0B2D0B0D0BD27
:101AF000D0B8D0B500D0A3D181D0BAD0BED180D0DB
:101B0000B5D0BDD0B8D0B500D0A3D181D0BAD0BEA9
:101B1000D180D0B5D0BDD0B8D0B500D094D0B2D09F
:101B2000B8D0B6D0B5D0BDD0B8D0B50056652DD19F
:101B300080D18BD0B2D0BED0BA0056652DD180D125
:101B40008BD0B2D0BED0BA0056652DD180D18BD00B
:101B5000B2D0BED0BA00567A2D6A65726B00567A42
:101B60002D6A65726B0056792D6A65726B00567925
:101B70002D6A65726B0056792D6A65726B00567816
:101B80002D6A65726B0056782D6A65726B00567807
:101B90002D6A65726B00D094D0B2D0B8D0B6D0B5F3
:101BA000D0BDD0B8D0B50045D188D0B0D0B32FD0FB
:101BB000BCD0BC0045D188D0B0D0B32FD0BCD0BCF5
:101BC000005AD188D0B0D0B32FD0BCD0BC005AD1ED
:101BD00088D0B0D0B32FD0BCD0BC0059D188D0B001
:101BE000D0B32FD0BCD0BC0059D188D0B0D0B32F47
:101BF000D0BCD0BC0058D188D0B0D0B32FD0BCD08E
:101C0000BC0058D188D0B0D0B32FD0BCD0BC00D04D
:101C100094D0B2D0B8D0B6D0B5D0BDD0B8D0B50081
:101C2000D09AD0B0D180D182D0B020D0B8D0B7D0A7
:101C3000B2D0BBD0B5D187D0B5D0BDD0B000D09A8E
:101C4000D0B0D180D182D0B020D0B2D181D182D0D9
:101C5000B0D0B2D0BBD0B5D0BDD0B0000006090026
:101C6000FE070191032020FFFF08FF07FF0000008F
:101C70000600000107070602008080808080008047
:101C8000030202060105A0A0050707060000505048
:101C9000F850F850500507070600002078A070287B
:101CA000F020050707060000C0C81020409818055E
:101CB00007070600006090A040A890680203030692
:101CC0000104C04080030707060100204080808097
:101CD00040200307070601008040202020408005A7
:101CE000050506000120A870A820050505060001CD
:101CF0002020F820200203030602FFC040800501D7
:101D000001060003F8020202060200C0C005050534
:101D100006000108102040800507070600007088B3
:101D200098A8C8887003070706010040C0404040DB
:101D300040E0050707060000708808708080F805FD
:101D40000707060000F81020100808F0050707062E
:101D5000000010305090F81010050707060000F83A
:101D600080F008088870050707060000304080F002
:101D7000888870050707060000F80810202020203A
:101D800005070706000070888870888870050707B7
:101D900006000070888878081060020505060200B9
:101DA000C0C000C0C00206060602FFC0C000C0409E
:101DB0008004070706000010204080402010050323
:101DC00003060002F800F80407070601008040201F
:101DD00010204080050707060000708808102000CA
:101DE0002005060606000070880868A87005070729
:101DF000060000708888F8888888050707060000B4
:101E0000F08888F08888F005070706000070888051
:101E100080808870050707060000E0908888889019
:101E2000E0050707060000F88080F08080F80507CD
:101E300007060000F88080F0808080050707060014
:101E400000708880B88888700507070600008888B9
:101E500088F88888880107070602008080808080D3
:101E600080800507070600003810101010906005EC
:101E700007070600008890A0C0A090880507070605
:101E80000000808080808080F805070706000088B9
:101E9000D8A8888888880507070600008888C8A809
:101EA00098888805070706000070888888888870E9
:101EB000050707060000F08888F080808005070786
:101EC00006000070888888A890680507070600004B
:101ED000F08888F0A09088050707060000788080C9
:101EE000700808F0050707060000F82020202020D1
:101EF00020050707060000888888888888700507FD
:101F00000706000088888888885020050707060093
:101F1000008888888888A8500507070600008888F8
:101F200050205088880507070600008888885020C0
:101F30002020050707060000F80810204080F8035D
:101F40000707060100E08080808080E00505050627
:101F500000018040201008030707060100E0202050
:101F6000202020E00503030600042050880501011D
:101F7000060000F80202020602058040050505067B
:101F8000000070087888780507070600008080B098
:101F9000C88888F0050505060000708080887005F7
:101FA0000707060000080868988888780505050670
:101FB00000007088F880700507070600003048E0D0
:101FC000404040400506060600FF7088887808708B
:101FD0000507070600008080B0C8888888010707C9
:101FE000060200800080808080800308080601FFD0
:101FF000200020202020A040040707060000808049
:1020000090A0C0A090030707060100C040404040D8
:1020100040E0050505060000D0A8A8A8A80505050C
:10202000060000B0C888888805050506000070888D
:102030008888700506060600FFF08888F080800515
:1020400006060600FF78888878080805050506005A
:1020500000B0C8808080050505060000708070080B
:10206000F00507070600004040E040404830050505
:102070000506000088888898680505050600008820
:10208000888850200505050600008888A8A8500506
:10209000050506000088502050880506060600FF4A
:1020A000888888780870050505060000F81020402B
:1020B000F803070706010020404080404020010748
:1020C0000706020080808080808080030707060169
:1020D00000804040204040800502020600036890D6
:1020E00000000006000000000006000000000006DE
:1020F00000000000000600000000000600000000D4
:1021000000060000000000060000000000060000BD
:1021100000000006000000000006000000000006AD
:1021200000000000000600000000000600000000A3
:10213000000600000000000600000000000600008D
:10214000000000060000000000060000000000067D
:102150000000000000060000000000060000000073
:10216000000600000000000600000000000600005D
:10217000000000060000000000060000000000064D
:102180000000000000060000000000060000000043
:10219000000600000000000600000000000600002D
:1021A00000000006000005080806000040F88080D6
:1021B000F08080F805080806000050F88080F08064
:1021C00080F8050707060000E040407048487005A9
:1021D00008080600001020F8888080808005070726
:1021E000060000304880E080483005070706000000
:1021F00070888070088870030707060100E040407F
:10220000404040E0030808060100A000E0404040D4
:1022100040E0050707060000381010101090600518
:102220000707060000A0A0A0B8A8A8B805070706E1
:102230000000A0A0A0F8A8A8B8040707060000E0C6
:10224000407050505050050808060000102088903B
:10225000A0E0908805080806000040208898A8C8DB
:1022600088880509090600FF5020888888502020AA
:10227000200508080600FF888888888888F82005D7
:102280000707060000708888F88888880507070611
:102290000000F88080F08888F0050707060000F04D
:1022A0008888F08888F0050707060000F888808095
:1022B0008080800508080600FF782828284888F8CC
:1022C00088050707060000F88080F08080F8050781
:1022D00007060000A8A8A870A8A8A8050707060078
:1022E00000F00808700808F0050707060000888855
:1022F00098A8C8888805080806000050208898A873
:10230000A8C8880507070600008890A0C0A090888C
:102310000507070600007828282828A84805070789
:1023200006000088D8A88888888805070706000066
:10233000888888F8888888050707060000708888DC
:1023400088888870050707060000F88888888888CC
:1023500088050707060000F08888F0808080050760
:1023600007060000708880808088700507070600D7
:1023700000F820202020202005070706000088887C
:1023800088502040800507070600002070A8A8A8F4
:1023900070200507070600008888502050888805AF
:1023A00008080600FF888888888888F808050707D5
:1023B0000600008888889868080805070706000056
:1023C000A8A8A8A8A8A8F80508080600FFA8A8A813
:1023D000A8A8A8F808050707060000C040407048F4
:1023E0004870050707060000888888C8A8A8C8059F
:1023F0000707060000808080F08888F00507070640
:1024000000007088083808887005070706000090EB
:10241000A8A8E8A8A890050707060000788888788B
:1024200028488805050506000070087888780507A3
:1024300007060000186080F0888870040505060013
:1024400000E090E090E0050505060000F888808037
:10245000800506060600FF78284888F888050505E7
:102460000600007088F88070050505060000A8A821
:1024700070A8A8050505060000F0083008F005055D
:10248000050600008898A8C88805070706000050C0
:10249000208898A8C88804050506000090A0C0A060
:1024A00090050505060000F82828A848050505063A
:1024B000000088D8A888880505050600008888F8E7
:1024C0008888050505060000708888887005050560
:1024D000060000F8888888880506060600FFF08850
:1024E00088F08080050505060000708080887005F2
:1024F0000505060000F8202020200506060600FF3E
:102500008888887808700506060600002070A8A84C
:102510007020050505060000885020508805060635
:102520000600FF88888888F80805050506000088E9
:1025300088F80808050505060000A8A8A8A8F80559
:1025400006060600FFA8A8A8A8F8080505050600C5
:1025500000C0407048700505050600008888C8A8BE
:10256000C80305050601008080C0A0C0050505065A
:102570000000708838887005050506000090A8E8FE
:10258000A890050505060000788878284805080801
:102590000600004020007088F880700507070600DC
:1025A0000050007088F880700509090600FF40E0BF
:1025B00040407848484810050808060000102000F0
:1025C000F8888080800505050600007088608870A6
:1025D00005050506000070807008F0010707060277
:1025E0000080008080808080030707060100A00033
:1025F00040404040400308080601FF200020202002
:1026000020A040050505060000A0A0B8A8B8050553
:1026100005060000A0A0F8A8B805060606000040C0
:10262000E04078484804080806000010200090A008
:10263000C0A0900508080600004020008898A8C89F
:10264000880509090600FF502000888888780870EE
:102650000506060600FF88888888F8202020D0A17B
:10266000D0BED0BFD0BBD0B03A2000D184D0B8D03B
:10267000BBD0B0D0BCD0B5D0BDD182D0B000D0B22C
:10268000D18BD0B3D180D183D0B7D0BAD0B800D05D
:102690009ED0B6D0B8D0B4D0B0D0B9D182D0B50029
:1026A0002020D0A1D0BED0BFD0BBD0B03A200020D7
:1026B00000D096D0B4D0B8D182D0B52E2E2E00D076
:1026C0009DD0B0D0B3D180D0B5D0B220D181D0BE12
:1026D000D0BFD0BBD0B0002020D0A1D0BED0BFD0C2
:1026E000BBD0B03A20002000D0BDD0B0D0B3D18054
:1026F000D0B5D0B2D0B020D181D0BED0BFD0BBD069
:10270000B02E2E2E00D09DD0B0D0B6D0BCD0B8D137
:1027100082D0B520D0BAD0BDD0BED0BFD0BAD18380
:1027200020D0B4D0BBD18F002020D0A1D0BED0BF4C
:10273000D0BBD0B03A2000D0B4D0BBD18F20D0BF16
:10274000D180D0BED0B4D0BED0BBD0B6D0B5D0BD75
:10275000D0B8D18F00D0B820D0BDD0B0D0B6D0BCCA
:10276000D0B8D182D0B520D0BAD0BDD0BED0BFD0E5
:10277000BAD18300D092D181D182D0B0D0B2D18CE5
:10278000D182D0B520D0BFD180D183D182D0BED06C
:10279000BA002020D0A1D0BED0BFD0BBD0B03A204C
:1027A000002000D0B7D0B0D0B3D180D183D0B7D083
:1027B000BAD0B820D0BFD180D183D182D0BAD0B026
:1027C00000D09ED0B6D0B8D0B4D0B0D0B9D182D0DD
:1027D000B5002020D0A1D0BED0BFD0BBD0B03A2011
:1027E00000D184D0B8D0BBD0B0D0BCD0B5D0BDD192
:1027F00082D0B000D18DD0BAD181D182D180D183A5
:10280000D0B7D0B8D0B800D09ED0B6D0B8D0B4D061
:10281000B0D0B9D182D0B500D0BFD0B5D187D0B0BB
:10282000D182D0B800D0B2D0BED0B7D0BED0B1D057
:10283000BDD0BED0B2D0BBD0B5D0BDD0B8D18F0046
:10284000D09ED0B6D0B8D0B4D0B0D0B9D182D0B5A7
:102850000070012C0190012701B0012201C0011D6F
:1028600001F00118011002130130020E016002098B
:102870000190020401C002FF000003FA004003F5CA
:10288000008003F000D003EB002004E6007004E1B8
:1028900000E004DC004005D700C005D2004006CDB2
:1028A00000D006C8008007C3003008BE00F008B999
:1028B00000C009B400B00AAF00B00BAA00D00CA54C
:1028C00000000EA000500F9B00C010960050129107
:1028D0000000148C00C0158700B0178200B0197D6D
:1028E00000D01B7800001E730040206E009022690B
:1028F00000F024640040275F0090295A00E02B5527
:1029000000102E500020304B0010324600E03341C2
:102910000090353C001037370070383200A0392D58
:1029200000B03A2800A03B2300603C1E00103D1977
:1029300000903D1400103E0F00703E0A00C03E059E
:1029400000003F0000403FFBFF803FF6FFC03FF12B
:10295000FF202F002042403A0020403A00205A3AFF
:102960000020593A0020436F756E7420583A0020B9
:10297000453A00205A3A0020593A00583A003A00A5
:102980004361703A0023646566696E65204445467C
:1029900041554C545F4B64200023646566696E6545
:1029A0002044454641554C545F4B692000236465E3
:1029B00066696E652044454641554C545F4B702016
:1029C00000504944204175746F74756E65206669C6
:1029D0006E69736865642120507574207468652081
:1029E0006C617374204B702C204B6920616E6420E5
:1029F0004B6420636F6E7374616E74732066726FC4
:102A00006D2062656C6F7720696E746F20436F6E06
:102A100066696775726174696F6E2E680A00504945
:102A200044204175746F74756E65206661696C65CC
:102A300064212074696D656F75740A00453120D07A
:102A4000A3D091D095D093D090D09DD098D0952000
:102A5000D0A2D095D09FD09BD09000546865726D65
:102A6000616C2052756E6177617900453120D0A08C
:102A7000D0B0D0B7D0BED0B3D180D0B5D0B220D0F6
:102A8000BDD0B520D183D0B4D0B0D0BBD181D18F4F
:102A90000048656174696E67206661696C656400F1
:102AA000504944204175746F74756E652066616984
:102AB0006C6564212054656D706572617475726512
:102AC00020746F6F20686967680A00204B643A20A1
:102AD00000204B693A2000204B703A20000A204326
:102AE0006C617373696320504944200A0020547557
:102AF0003A2000204B753A2000206D61783A200082
:102B0000206D696E3A200020643A200020626961DD
:102B1000733A2000504944204175746F74756E6596
:102B2000206661696C656421204261642065787467
:102B30007275646572206E756D6265720A00504927
:102B400044204175746F74756E652073746172747E
:102B50000A00496E736572742066696C616D656EFA
:102B60007420616E64207072657373206275747472
:102B70006F6E0A00507265737320627574746F6EA5
:102B800020746F2068656174206E6F7A7A6C650AB4
:102B900000496E736572742066696C616D656E7450
:102BA00020616E6420707265737320627574746F37
:102BB0006E20286F72204D313038290A0024F4D459
:102BC0003050C38E20C2A24017828B7011127A91AE
:102BD0000D816CD90AA861E108C7586607615143A5
:102BE000061E4B5D05C145A7041A411104093D9815
:102BF00003713931034036DB0265339102D430541E
:102C000002802E1D02632CEE01752AC501B028A09A
:102C100001102781018F2564012B244B01E0223410
:102C200001AC211F018D200D01801FFC00841EEDD1
:102C300000971DDF00B81CD200E61BC600201BBC9D
:102C400000641AB200B219A8000A19A0006A189903
:102C500000D117910040178B00B516840031167E05
:102C600000B31579003A157300C7146F0058146A41
:102C700000EE1366008813630025135E00C7125B25
:102C8000006C12570015125400C111510070114F01
:102C90000021114B00D61049008D1047004610440A
:102CA0000002104200C00F4000800F3E00420F3C67
:102CB00000060F3B00CB0E3800930E37005C0E353C
:102CC00000270E3400F30D3200C10D3100900D309D
:102CD00000600D2E00320D2D00050D2C00D90C2B9F
:102CE00000AE0C2900850C29005C0C2700350C2750
:102CF000000E0C2600E80B2400C40B2400A00B23BC
:102D0000007D0B23005A0B2100390B2100180B20EA
:102D100000F80A1F00D90A1E00BB0A1E009D0A1DEA
:102D200000800A1D00630A1C00470A1B002C0A1BB6
:102D300000110A1A00F7091A00DD091900C409195F
:102D400000AB091900920917007B091800630917E5
:102D5000004C09160036091600200916000A09154C
:102D600000F5081500E0081400CC081400B8081499
:102D700000A4081400900813007D0812006B0813CB
:102D800000580812004608120034081100230811E8
:102D9000001208110001081100F0071000E00710F0
:102DA00000D0071000C0071000B0070F00A10710E7
:102DB0000091070E0083070F0074070F0065070ED0
:102DC0000057070E0049070E003B070D002E070EA7
:102DD0000020070D0013070D0006070D00F9060C73
:102DE00000ED060D00E0060C00D4060C00C8060C31
:102DF00000BC060C00B0060C00A4060B0099060CE3
:102E0000008D060B0082060B0077060B006C060B8C
:102E10000061060A0057060B004C060A0042060A2B
:102E20000038060A002E060A0024060A001A060ABE
:102E3000001006090007060A00FD050900F405094F
:102E400000EB050900E2050900D9050900D00509D4
:102E500000C7050900BE050900B5050800AD050855
:102E600000A50509009C050800940508008C0508CC
:102E700000840508007C050800740508006C05073F
:102E800000650508005D050700560508004E0507AA
:102E90000047050700400508003805070031050711
:102EA000002A050700230507001C05060016050774
:102EB000000F0507000805060002050700FB0406D1
:102EC00000F5040700EE040600E8040600E204072B
:102ED00000DB040600D5040600CF040600C9040682
:102EE00000C3040600BD040600B7040600B10405D3
:102EF00000AC040600A6040600A00405009B04061E
:102F00000095040500900406008A04050085040568
:102F100000800406007A04050075040500700405AD
:102F2000006B04050066040500610405005C0405EF
:102F30000057040500520405004D0405004804052F
:102F400000430405003E0404003A0405003504056E
:102F500000300404002C04050027040400230405A9
:102F6000001E0404001A04040016040500110404E1
:102F7000000D040400090405000404040000040416
:102F800000FC030400F8030400F4030400F003044D
:102F900000EC030400E8030400E4030400E003047D
:102FA00000DC030400D8030400D4030400D00304AD
:102FB00000CC030400C8030300C503030024F40489
:102FC000D9201BC40C5C0E9804C4095F026507710C
:102FD00001F405F900FB04B30048048700C103694C
:102FE000005803550003034500BE023A0084023135
:102FF0000053022A002902250004022000E4011CDB
:1030000000C8011900AF01170098011400840113D2
:1030100000710110006101100051010E0043010D0B
:103020000036010B002B010B0020010B00150109DC
:10303000000C01090003010800FB000800F3000870
:1030400000EB000700E4000600DE000600D80006E2
:1030500000D2000600CC000500C7000500C2000534
:1030600000BD000400B9000400B5000400B1000474
:1030700000AD000400A9000400A5000300A20003A5
:10308000009F0004009B00030098000300950002CD
:103090000093000300900003008D0002008B0003EA
:1030A0000088000200860002008400030081000204
:1030B000007F0002007D0002007B00020079000218
:1030C0000077000100760002007400020072000127
:1030D00000710002006F0002006D0001006C000230
:1030E000006A00010069000200670001006600013B
:1030F000006500010064000200620001006100013F
:1031000000600001005F0002005D0001005C000142
:10311000005B0001005A0001005900010058000145
:103120000057000100560001005500010054000145
:103130000053000000530001005200010051000143
:1031400000500001004F0001004E0000004E000141
:10315000004D0001004C0001004B0000004B00013D
:10316000004A000100490001004800000048000139
:103170000047000100460000004600010045000035
:10318000004500010044000100430000004300012D
:103190000042000000420001004100000041000127
:1031A00000400001003F0000003F0001003E000021
:1031B000003E0001003D0000003D0001003C000019
:1031C000003C0000003C0001003B0000003B00010F
:1031D000003A0000003A0001003900000039000107
:1031E00000380000003800000038000100370000FF
:1031F00000370001003600000036000000360001F4
:1032000000350000003500000035000100340000EA
:1032100000340000003400010033000000330000DF
:1032200000330001003200000032000000320001D3
:1032300000310000003100000031000100300000CA
:103240000030000000300001002F0000002F0000BF
:10325000002F0000002F0001002E0000002E0000B3
:10326000002E0001002D0000002D0000002D0000A8
:10327000002D0001002C0000002C0000002C00009C
:10328000002C0001002B0000002B0000002B000090
:10329000002B0001002A0000002A0000002A000084
:1032A000002A000100290000002900000029000078
:1032B000002900000029000100280000002800006B
:1032C000002800000028000000280001002700005E
:1032D0000027000000270000002700000027000151
:1032E0000026000000260000002600000026000046
:1032F0000026000100250000002500000025000038
:103300000025000000250000002500010024000029
:10331000002400000024000000240000002400011C
:103320000023000000230000002300000023000011
:103330000023000000230000002300010022000001
:1033400000220000002200000022000000220000F5
:1033500000220001002100000021000000210000E7
:1033600000210000002100000021000000210001D8
:1033700000200000002000000020000000200000CD
:1033800000200000002000000020000000200001BC
:10339000001F0000001F0000001F0000001F0000B1
:1033A000001F0000001F0000001F0001001E0000A1
:1033B000001E0000001E0000001E000000C23100C0
:1033C000001C260000F4190000D80F0000EB0800D4
:1033D00000C0040000750200004001000000002150
:1033E00000240027002A002D0030003300010100D6
:1033F00000040107010A012CFFFFFFFFFF0001018C
:103400000101016265640A002C2073797374656D93
:103410002073746F707065642120486561746572F3
:103420005F49443A2000D0A0D0B0D0B7D0BED0B3CE
:10343000D1802E20D181D182D0BED0BBD0B020D0BF
:10344000BDD0B520D183D0B42E0048656174696EBB
:1034500067206661696C656400453120D0A0D0B0FA
:10346000D0B7D0BED0B3D180D0B5D0B220D0BDD0EF
:10347000B520D183D0B4D0B0D0BBD181D18F00489A
:10348000656174696E67206661696C6564004531C9
:1034900020D0A3D091D095D093D090D09DD098D06B
:1034A0009520D0A2D095D09FD09BD09000D0A3D013
:1034B00091D095D093D090D09DD098D09520D0A287
:1034C000D095D09FD09BD09020D0A1D0A2D09ED01C
:1034D0009BD09000546865726D616C2052756E616E
:1034E00077617900453120D09ED188D0B8D0B1D055
:1034F000BAD0B03A20D0A220D0BCD0B0D0BAD181BE
:103500002E00D09ED188D0B8D0B1D0BAD0B03A2059
:10351000D0A220D181D182D0BED0BBD0B020D0BC2F
:10352000D0B0D0BAD181004D415854454D5020748F
:10353000726967676572656400453120D09ED188E5
:10354000D0B8D0B1D0BAD0B03A20D0A220D0BCD020
:10355000B8D0BD2E00D09ED188D0B8D0B1D0BAD0CE
:10356000B03A20D0A220D181D182D0BED0BBD0B081
:1035700020D0BCD0B8D0BD2E004D494E54454D5042
:1035800020747269676765726564004D383420582D
:103590002059205A20450025753A253032750025DE
:1035A0003032753A25303275002575642025303269
:1035B000753A2530327500202020202020005A0046
:1035C00059002020202000580009200000000000A1
:1035D00000000000000000003FFFF00000000000BD
:1035E0000000000000000038007000000000000033
:1035F00000000000000030FC30000000000000006F
:10360000000000000020FC1000000000000000008E
:103610000000000020781000000000000000000002
:10362000000000203010000000000000000000003A
:1036300000002C00D03FC0000000000000002082ED
:10364000002E31D07FE0000000000000001041009B
:103650002F7BD07FE0000000000000001041002F11
:103660007BD07FE0000000000000002082002E31AF
:10367000D03FC0000000000000004104002C00D03A
:103680003FC0000000000000008208002030107FD2
:10369000E0000000000000008208002078107FE0B9
:1036A0000000000000000041040020FC107FE0004A
:1036B00000000000000020820030FC301F8000006D
:1036C00000000000000000003800700F0000000043
:1036D00000000000FFFFC03FFFF0060000000000F8
:1036E000000000FFFFC0000000000000000000001C
:1036F00000000000003FFFF000000000000000009C
:103700000000000038007000000000000000000011
:1037100000000031863000000000000000000000C2
:1037200000002387100000000000000000000000DF
:10373000002787900000000000000000000000004B
:103740002F87D00000000000000000000000002FC4
:1037500003D03FC0000000000000002082002030A5
:10376000107FE000000000000000104100207810F1
:103770007FE0000000000000001041002078107F72
:10378000E0000000000000002082002030103FC058
:10379000000000000000004104002F03D03FC000E3
:1037A0000000000000008208002F87D07FE00000AA
:1037B00000000000008208002787907FE0000000E2
:1037C000000000004104002387107FE0000000009B
:1037D0000000002082003186301F800000000000C1
:1037E00000000000003800700F0000000000000022
:1037F00000FFFFC03FFFF0060000000000000000D7
:10380000FFFFC000000000060900FE0000000000ED
:1038100001090008FE000005080806000040F0C885
:103820008888987810050808060000C0F8888888FD
:103830008888F80505050600012030F830200508C5
:10384000080600002070F820202020E00509090665
:1038500000FF2070A8A8B888887020050909060014
:10386000FFE080C0B0A8283028280509090600FF1D
:10387000F8A88888888888A8F8050A0A0600FE2023
:103880005050505088A8A8887003030306000340D6
:10389000A0403344205072696E74657220D0B3D05A
:1038A000BED182D0BED0B22E00D09FD0B5D187D0AD
:1038B000B0D182D18C2E2E2E00D09FD0B5D187D002
:1038C000B0D182D18C20D0BDD0B020D0BFD0B0D16B
:1038D00083D0B7D0B5004D313235004D323400D0F1
:1038E0009FD0B5D187D0B0D182D18C20D0BED1822B
:1038F000D0BCD0B5D0BDD0B5D0BDD0B000D09FD059
:10390000B5D187D0B0D182D18C20D1812053442031
:10391000D0BAD0B0D180D182D18B00D09ED181D10C
:1039200082D0B0D0BDD0BED0B2D0B8D182D18C20A0
:10393000D0BFD0B5D187D0B0D182D18C00D09DD0AE
:10394000B5D18220534420D0BAD0B0D180D182D119
:103950008B00D09FD180D0BED0B4D0BED0BBD0B66B
:10396000D0B8D182D18C20D0BFD0B5D187D0B0D142
:1039700082D18C00D09FD0B0D183D0B7D0B020D02E
:10398000BFD0B5D187D0B0D182D0B800D09DD0B053
:10399000D181D182D180D0BED0B9D0BAD0B800D038
:1039A0009FD0BED0B4D0B3D0BED182D0BED0B2D022
:1039B000B8D182D18C00D09DD0B0D181D182D180BC
:1039C000D0BED0B8D182D18C00D098D0BDD184D017
:1039D000BED180D0BCD0B0D186D0B8D0BED0BDD002
:1039E000BDD18BD0B920D18DD0BAD180D0B0D0BDCF
:1039F00000D0A1D0BCD0B5D0BDD0B020D184D0B83B
:103A0000D0BBD0B0D0BCD0B5D0BDD182D0B000D06A
:103A1000A1D0BCD0B5D0BDD0B020D184D0B8D0BB5F
:103A2000D0B0D0BCD0B5D0BDD182D0B0004D3630F2
:103A30003020423000D09FD0BED182D0BED0BA005C
:103A4000D09FD0BED182D0BED0BA00D09AD183D080
:103A5000BBD0B5D18000D09AD183D0BBD0B5D180B6
:103A600000D0A1D182D0BED0BB00D0A1D182D0BE27
:103A7000D0BB00D0A1D0BED0BFD0BBD0BE00D0A1A3
:103A8000D0BED0BFD0BBD0BE00D0A1D0BAD0BED1A6
:103A900080D0BED181D182D18C00D0A1D0BAD0BE8D
:103AA000D180D0BED181D182D18C00D09CD0B5D074
:103AB000BDD18E00D09FD180D0B5D0B4D0BDD0B014
:103AC000D0B3D180D0B5D0B220504C4120D181D0DC
:103AD000BED0BFD0BBD0BE00D09FD180D0B5D0B4B7
:103AE000D0BDD0B0D0B3D180D0B5D0B220504C41F1
:103AF00020D181D182D0BED0BB00D09FD180D0B5A3
:103B0000D0B4D0BDD0B0D0B3D180D0B5D0B22050D9
:103B10004C4100D09FD0BED0B4D0B3D0BED182D063
:103B2000BED0B2D0B8D182D18C004D3234004D32EB
:103B30003320257300556E6B6E6F776E20636F6D4B
:103B40006D616E643A202200496E7365727420665E
:103B5000696C616D656E7420616E6420707265734E
:103B60007320627574746F6E20286F72204D31302F
:103B700038290A00486F74656E6420746F6F206383
:103B80006F6C640A0043616E6E6F74206F70656EB7
:103B90002073756264697220006563686F3A006F14
:103BA00070656E206661696C65642C2046696C6581
:103BB0003A200066696C616D656E74007A5F6D69AC
:103BC0006E00795F6D696E00785F6D696E00526599
:103BD000706F7274696E6720656E6473746F7020A5
:103BE0007374617475730A005344206361726420B6
:103BF0006F6B0A006F70656E526F6F74206661693B
:103C00006C65640A00766F6C756D652E696E6974FB
:103C1000206661696C65640A00534420696E6974AA
:103C2000206661696C0A0057726974696E67207456
:103C30006F2066696C653A20006F70656E20666162
:103C4000696C65642C2046696C653A20006F70656C
:103C50006E206661696C65642C2046696C653A204B
:103C60000046696C652073656C65637465640A0061
:103C70002053697A653A200046696C65206F70654B
:103C80006E65643A20002066696C653A2000646FB6
:103C9000696E67006672657368004E6F7720004535
:103CA0004E4420535542524F5554494E450A002226
:103CB00020706F73002220706172656E743A22006A
:103CC000535542524F5554494E452043414C4C2088
:103CD0007461726765743A2200D0A3D091D098D0F5
:103CE000A2D09E2E2000747279696E6720746F20B6
:103CF00063616C6C207375622D67636F6465206609
:103D0000696C6573207769746820746F6F206D61CA
:103D10006E79206C6576656C732E204D4158206C51
:103D20006576656C2069733A004572726F723A006D
:103D300048617264636F6465642044656661756C94
:103D4000742053657474696E6773204C6F61646589
:103D5000640A00200300002003000064000000103B
:103D60002700000000164300001643000020410019
:103D70000048420000A0420000A0420000C843E109
:103D8000FABC4220286D6D290020204D36303320AA
:103D9000002055004C0046696C616D656E74206CA6
:103DA0006F61642F756E6C6F6164206C656E6774F3
:103DB00068733A0A0020204D393030204B004C699E
:103DC0006E65617220416476616E63653A0A002017
:103DD000440020490020204D33303120500050490C
:103DE000442073657474696E67733A0A0020460054
:103DF00020420020480020204D3134352053004D12
:103E00006174657269616C20686561747570207099
:103E10006172616D65746572733A0A00205A002000
:103E2000590020204D323036205800486F6D6520F3
:103E30006F66667365743A0A00204500205A0020B8
:103E4000590020580020540020530020204D3230CB
:103E50003520510020453C6D61785F655F6A657271
:103E60006B3E0020583C6D61785F785F6A65726BCD
:103E70003E20593C6D61785F795F6A65726B3E20C8
:103E80005A3C6D61785F7A5F6A65726B3E0041648F
:103E900076616E6365643A20513C6D696E5F73654F
:103EA000676D656E745F74696D655F75733E2053F1
:103EB0003C6D696E5F66656564726174653E205431
:103EC0003C6D696E5F74726176656C5F6665656492
:103ED000726174653E0020540020520020204D3253
:103EE0003034205000416363656C65726174696FA2
:103EF0006E2028756E6974732F7332293A20503CF6
:103F00007072696E745F616363656C3E20523C72CF
:103F10006574726163745F616363656C3E20543CD9
:103F200074726176656C5F616363656C3E0A002044
:103F30004500205A0020590020204D3230312058B1
:103F4000004D6178696D756D20416363656C6572C4
:103F50006174696F6E2028756E6974732F733229CE
:103F60003A0A00204500205A0020590020204D32F6
:103F700030332058004D6178696D756D2066656538
:103F80006472617465732028756E6974732F732968
:103F90003A0A00204500205A0020590020204D39BF
:103FA0003220580053746570732070657220756EEE
:103FB00069743A0A0020204D3230302044300A0023
:103FC00020204D3230302044002044697361626CFF
:103FD00065640A0046696C616D656E742073657472
:103FE00074696E67733A0020204D313439204320C4
:103FF0003B20556E69747320696E2043656C73694C
:1040000075730A002020473231202020203B0054C5
:104010005249474745524544006F70656E003A204B
:1040200000526573656E643A2000F3F75CF011246A
:104030001FBECFEFD1E2DEBFCDBF00E00CBF13E06B
:10404000A0E0B2E0E6E3FAE002E00BBF02C00790B6
:104050000D92AE36B107D9F725E1AEE6B3E001C067
:104060001D92A330B207E1F710E2C6E1D0E200E012
:1040700006C021970109802FFE010F947904C531F4
:10408000D10780E00807A9F70E948CF00D940A057B
:104090000C9400002F923F924F925F926F927F920A
:1040A0008F929F92AF92BF92CF92DF92EF92FF9248
:1040B0000F931F93CF93DF93CDB7DEB7C456D109CB
:1040C0000FB6F894DEBF0FBECDBF21E02093970E50
:1040D00080917A148D3409F421C7843511F40C943D
:1040E000FC38873411F00C943A398091781490910F
:1040F00079148430910509F46BC544F497FD0AC71F
:10410000209151028230910544F522C08A359105F3
:1041100009F48EC644F48B31910509F498C54C9787
:1041200009F4C5C5F7C68B35910509F485C68C35EC
:10413000910509F0EFC61DE5212E12E0312E06E1B2
:10414000C02E0AE0D02EE12CF12C00E010E0B1C628
:1041500021110C9441390C943C39222311F40C9414
:104160003C3911E0029709F010E00E94104082E50E
:104170000E940440882309F436C10E948A3F6B01E3
:104180007C014090AA0E5090AB0E6090AC0E7090E7
:10419000AD0E8091AE0E9091AF0EA091B00EB09189
:1041A000B10E8CA79DA7AEA7BFA720919A0E309104
:1041B0009B0E40919C0E50919D0E28AB39AB4AABA3
:1041C0005BAB80919E0E90919F0EA091A00EB0913E
:1041D000A10E88AF99AFAAAFBBAF20E030E0A90134
:1041E000C701B6010E945BFD882309F4D7C4A3016F
:1041F000920168A979A98AA99BA90E945BFD8111F6
:104200000DC02CA53DA54EA55FA568AD79AD8AADC5
:104210009BAD0E945BFD882309F4C0C420E030E020
:10422000A901C701B6010E945BFD881F8827881F6E
:1042300018130BC020E030E040E85FE328962CAF75
:104240003DAF4EAF5FAF28970AC080E090E0A0E896
:10425000BFEB28968CAF9DAFAEAFBFAF2897A30141
:10426000920168A979A98AA99BA90F9471016CAFE1
:104270007DAF8EAF9FAF2CA53DA54EA55FA568ADC8
:1042800079AD8AAD9BAD0F94710124966CAF7DAF73
:104290008EAF9FAF24972CAD3DAD4EAD5FADCA0143
:1042A000B9010E94C0FD4B015C0124962CAD3DADCF
:1042B0004EAD5FAD2497CA01B9010E94C0FD9B01BC
:1042C000AC01C501B4010F9472010F94DD036CAB16
:1042D0007DAB8EAB9FAB20E030E040E05FE30E941F
:1042E000C0FD4B015C01A7019601C701B6010E9408
:1042F000C0FD6B017C01A5019401C501B4010E94C0
:10430000C0FD9B01AC01C701B6010F9471010F9470
:10431000DD039B01AC0128966CAD7DAD8EAD9FADEC
:1043200028970E94C0FD4B015C0128A939A94AA920
:104330005BA9C301B2010F94720120E030E040E0BC
:104340005FE30E94C0FD6B017C0124966CAD7DADE6
:104350008EAD9FAD249790582CA93DA94EA95FA979
:104360000F944E029B01AC01C501B4010E94C0FD37
:104370009B01AC01C701B6010F947201A301920128
:104380000F9471016B017C0128AD39AD4AAD5BAD75
:104390006CA57DA58EA59FA50F94720120E030E04D
:1043A00040E05FE30E94C0FD2B013C012CA93DA928
:1043B0004EA95FA96CAD7DAD8EAD9FAD0F944E0241
:1043C0009B01AC01C501B4010E94C0FD9B01AC0181
:1043D000C301B2010F9472012CA53DA54EA55FA5A6
:1043E0000F94710114C089E40E940440882329F0CD
:1043F0000E948A3F6B017C0103C0C12CD12C760145
:104400008AE40E9404408823D9F00E948A3F68AF62
:1044100079AF8AAF9BAF20E030E0A901C701B601B8
:104420000E945BFD81111AC020E030E0A90168AD57
:1044300079AD8AAD9BAD0E945BFD81110FC0AEC30B
:1044400020E030E0A901C701B6010E945BFD88238E
:1044500009F4A4C318AE19AE1AAE1BAEA70196019B
:1044600050582CA73DA74EA75FA788AD99ADAAAD20
:10447000BBADB05888AB99ABAAABBBABCA01B90115
:104480000E94C0FD4B015C0128A939A94AA95BA97A
:10449000CA01B9010E94C0FD9B01AC01C501B40174
:1044A0000F9472010F94DD0364966CAF7DAF8EAFF5
:1044B0009FAF64972091AA0E3091AB0E4091AC0E45
:1044C0005091AD0E2CAB3DAB4EAB5FABA70196014F
:1044D0006CA97DA98EA99FA90F94720128966CAF33
:1044E0007DAF8EAF9FAF28978091AE0E9091AF0EAB
:1044F000A091B00EB091B10E8CAF9DAFAEAFBFAF7B
:1045000028AD39AD4AAD5BADBC01CD010F94720150
:1045100068966CAF7DAF8EAF9FAF689720919A0E73
:1045200030919B0E40919C0E50919D0E24962CAF85
:104530003DAF4EAF5FAF249728962CAD3DAD4EAD4D
:104540005FAD289724966CAD7DAD8EAD9FAD249761
:104550000F9471016B017C0180919E0E90919F0ED2
:10456000A091A00EB091A10E2C968CAF9DAFAEAFD6
:10457000BFAF2C9768962CAD3DAD4EAD5FAD689743
:10458000BC01CD010F9471014B015C012091B20E71
:104590003091B30E4091B40E5091B50E60962CAF91
:1045A0003DAF4EAF5FAF60976091A20E7091A30ECA
:1045B0008091A40E9091A50E0F9471012B013C01E6
:1045C0008091A60E9091A70EA091A80EB091A90E71
:1045D000A0968CAF9DAFAEAFBFAFA0972091B60EA7
:1045E0003091B70E4091B80E5091B90E6C962CAF29
:1045F0003DAF4EAF5FAF6C97A70196016CA57DA54F
:104600008EA59FA50E94C0FDA4966CAF7DAF8EAF16
:104610009FAFA497A501940168A979A98AA99BA92C
:104620000E94C0FD9B01AC01A4966CAD7DAD8EAD2A
:104630009FADA4970F947201A4966CAF7DAF8EAF1F
:104640009FAFA497A50194016CA57DA58EA59FA5FC
:104650000E94C0FD4B015C01A701960168A979A9E0
:104660008AA99BA90E94C0FD9B01AC01C501B401B0
:104670000F947101A4962CAD3DAD4EAD5FADA497E6
:104680000F94E5016B017C0120E030E0A9010E945C
:104690005BFD87FF0AC02BED3FE049EC50E4C7010A
:1046A000B6010F9472016B017C01112351F02BEDC7
:1046B0003FE049EC50E4C701B6010F9471016B0172
:1046C0007C0120E030E0A901C701B6010E945BFD3A
:1046D000811124C024962CAD3DAD4EAD5FAD249725
:1046E0006CA97DA98EA99FA90E945BFD811116C0AE
:1046F0002C962CAD3DAD4EAD5FAD2C976CAD7DAD28
:104700008EAD9FAD0E945BFD811108C09BEDC92E4F
:104710009FE0D92E99ECE92E90E4F92EA70196019D
:1047200064966CAD7DAD8EAD9FAD64970E94C0FD6B
:104730004B015C0120E030E0A901C301B2010E94FD
:104740005BFD8823C9F0A5019401C501B4010E9455
:10475000C0FD4B015C01A3019201C301B2010E94A3
:10476000C0FD9B01AC01C501B4010F9472010F940F
:10477000DD034B015C010DC020E030E0A901C50163
:10478000B4010F94980387FF04C0B7FAB094B7F848
:10479000B0942FE632E143E85AE3C501B4010E9428
:1047A0005BFD87FF02C00C943C39C501B4010F9436
:1047B000E7020F94BB021B01672B19F422242394F8
:1047C000312CB10180E090E00E945FFD4B015C0163
:1047D0009B01AC01C701B6010F944E026CAB7DABDF
:1047E0008EAB9FABA5019401C301B2010F944E02A1
:1047F00064966CAF7DAF8EAF9FAF64976C962CAD17
:104800003DAD4EAD5FAD6C97A0966CAD7DAD8EAD00
:104810009FADA0970F947101A50194010F944E02D2
:10482000A0966CAF7DAF8EAF9FAFA0972CA93DA98E
:104830004EA95FA9CA01B9010E94C0FD20E030E085
:1048400040E05FE30E94C0FD9B01AC0160E070E0CE
:1048500080E89FE30F9471012C966CAF7DAF8EAF13
:104860009FAF2C9760968CAD9DADAEADBFAD609700
:1048700089879A87AB87BC876C962CAD3DAD4EADD2
:104880005FAD6C972D873E874F87588B609157029D
:1048900070915802072E000C880B990B0E9461FD45
:1048A00020910002309101024091020250910302D6
:1048B0000E94C0FD2AE037ED43E25CE30E94C0FDA8
:1048C00068A779A78AA79BA70E9427BE9B01AC0176
:1048D00028533F4F4F4F5F4F60962CAF3DAF4EAFC9
:1048E0005FAF60974CA45DA46EA47FA441E050E04C
:1048F00022965FAF4EAF229759E15CAF22962EAD64
:104900003FAD22972215330509F41DC10E94D0C77F
:104910000E9427BEDC01CB0160962CAD3DAD4EADB3
:104920005FAD6097821B930BA40BB50BB7FD11C055
:104930000E9427BE9B01AC0128533F4F4F4F5F4F52
:1049400060962CAF3DAF4EAF5FAF609780E00E94A6
:1049500053713CAD31503CAF332309F441C02C9628
:104960002CAD3DAD4EAD5FAD2C9768A979A98AA954
:104970009BA90E94C0FD6B017C012CA93DA94EA9F9
:104980005FA9B201C3010E94C0FDA70196010F9467
:1049900072017B018C012C962CAD3DAD4EAD5FAD0F
:1049A0002C97B201C3010E94C0FD4B015C012CA9F0
:1049B0003DA94EA95FA968A979A98AA99BA90E94C6
:1049C000C0FD9B01AC01C501B4010F9471012B0125
:1049D0003C01C701D80188AB99ABAAABBBAB53C0B4
:1049E00022964EAD5FAD2297BA0180E090E00E9422
:1049F0005FFD2CA93DA94EA95FA90E94C0FD4B01F6
:104A00005C010F944B026B017C01C501B4010F9452
:104A1000D3034B015C01A70196016CA57DA58EA572
:104A20009FA50E94C0FD2B013C01A501940168AD2A
:104A300079AD8AAD9BAD0E94C0FD9B01AC01C30165
:104A4000B2010F9472012B013C01A50194016CA5E8
:104A50007DA58EA59FA50E94C0FD4B015C01A7010D
:104A6000960168AD79AD8AAD9BAD0E94C0FD9B01FA
:104A7000AC01C501B4010F94710168AB79AB8AAB8D
:104A80009BAB59E15CAF9201A30128966CAD7DAD63
:104A90008EAD9FAD28970F94720169837A838B83C3
:104AA0009C8328A939A94AA95BA968966CAD7DADFC
:104AB0008EAD9FAD68970F9472016D837E838F8357
:104AC000988764962CAD3DAD4EAD5FAD649769851A
:104AD0007A858B859C850F94720169877A878B878D
:104AE0009C87A0962CAD3DAD4EAD5FADA0976D857A
:104AF0007E858F8598890F9472016D877E878F8759
:104B0000988B80912A02882321F0CE0101960E9481
:104B10002D6FE090CB0E18A219A21AA21BA2CE01F3
:104B200080966C018E01085D1F4F9E01235F3F4FF1
:104B3000AE01475F5F4FBE016B5F7F4F4F970E9493
:104B40005546811121C0E090CB0E1CA21DA21EA2D1
:104B50001FA2DE0194966D018E01085D1F4F26EAAB
:104B60003EE042EA5EE06EE97EE08AE99EE00E9475
:104B7000554680E1EAE9FEE0AAEABEE001900D9226
:104B80008A95E1F70C943C392296EEADFFAD229761
:104B900031962296FFAFEEAF2297B0CEE9E2FDE369
:104BA00084918F010F5F1F4F882321F00E94FF40E7
:104BB000F801F6CFE7E2F2E084918F010F5F1F4F1B
:104BC000882311F40C943C390E94FF40F801F4CF83
:104BD00080E50E940440882329F00E944A3F6B012F
:104BE0007C0103C0C12CD12C760183E50E940440D6
:104BF000882361F00E948A3F20E030E04AE754E4D5
:104C00000E94C0FD0F94BB026B017C010E94E6DE96
:104C10008091D50E811105C060E08DE392E00E9485
:104C20000C980E9427BEC60ED71EE81EF91E0E94D1
:104C300027BEDC01CB018C199D09AE09BF09B7FD68
:104C400002C00C943C3980E00E945371F0CF0E9466
:104C5000675681110C943C3980E090E0A0EAB0E402
:104C600089839A83AB83BC8380E090E0ADE4B3E4B6
:104C70008D839E83AF83B88780E090E0A0EAB1E4A3
:104C800089879A87AB87BC8780E50E940440882388
:104C900019F00E945A3F01C060E068A3BE016F5F37
:104CA0007F4FCE0180960E94BBE20C943C398091EC
:104CB0009C0A8770873071F48FE40E940440882337
:104CC00019F00E947B3F03C08FE40E94BD3F811119
:104CD0000C943C390E94E6DE809100029091010222
:104CE000A0910202B0910302809375039093760322
:104CF000A0937703B0937803809157029091580264
:104D0000909374038093730384E690E09093580229
:104D10008093570211E010939B0A88E50E94BD3FE3
:104D2000E82E89E50E94BD3F082F8AE50E94BD3F1D
:104D3000F82EE11004C0011104C0182705C00111AC
:104D400002C010E001C0182F0E94964082E50E9428
:104D50000440882391F10E948A3F4B015C0120E0CE
:104D600030E0A9010E945BFD882339F1111104C0D4
:104D7000E11002C0002391F18092A20E9092A30E46
:104D8000A092A40EB092A50E2091B20E3091B30E57
:104D90004091B40E5091B50EC501B4010F94980323
:104DA00018165CF419821A821B821C82BE016F5F86
:104DB0007F4F82EA9EE00E94D23D111105C0E110B2
:104DC00003C0011106C00AC080E00E94BF6F11231A
:104DD000C1F381E00E94BF6F111102C0FF2019F0E2
:104DE00082E00E94BF6F0E94A33E80919A0A809346
:104DF0009B0A8091750390917603A0917703B091FF
:104E000078038093000290930102A0930202B09372
:104E100003028091730390917403909358028093DE
:104E2000570283E0809304020E94C2B10C943C3983
:104E3000109272030C943C39209372030C943C3909
:104E40000E948A3F2B013C01133059F0F701E95AC7
:104E5000F54F20813181428153810F9471012B01E3
:104E60003C01F701E655F14F2081318142815381A8
:104E7000C301B2010F9471014B015C012DEB37E3CB
:104E800046E855EB0F94980387FD1BC02DEB37E3E5
:104E900046E855E3C501B4010E945BFD18168CF08D
:104EA0001F5FB4E0CB0ED11CE4E0EE0EF11C143019
:104EB00039F1D1018D911D010E940440882381F3B5
:104EC000BFCF133051F44092B60E5092B70E60929D
:104ED000B80E7092B90E01E0E3CFA5019401F6017E
:104EE00060817181828193810F947201D6016D93EB
:104EF0007D938D939C931397812F0E94F03DD0CF8B
:104F0000002321F086EB9EE00E9408570E94C2B168
:104F10000C943C390E94A3D60C943C3980917814AF
:104F2000909179148337910511F40C9445320CF06B
:104F3000CCC08B34910509F454C50CF06CC0883199
:104F4000910509F4A2C2D4F58231910511F40C94B3
:104F50003231DCF497FF02C00C94F93882309105AD
:104F60000CF4BDC1419711F00C94F93860E08FE565
:104F700092E00E940C985F988A9880910801817055
:104F80008093060112980C943C398531910509F4FF
:104F900061C23CF4449711F00C94F938E7E8F2E070
:104FA00018C28631910509F459C2479711F00C9443
:104FB000F938E0917614F09177145AC28D31910549
:104FC00011F40C943C39C4F48A31910509F495C26A
:104FD0000CF485C28B31910509F49DC24C9711F0F8
:104FE0000C94F93840E060E0809176149091771449
:104FF0000E9494E50C943C398F31910509F403C467
:105000000CF423C38032910509F4BAC38A9709F4DA
:10501000A0C40C94F9388936910509F4B6C56CF52D
:105020008335910511F40C942E31A4F48D3491053F
:1050300009F4DFC40CF4D9C48135910511F40C9442
:1050400019318235910511F00C94F93810927103E1
:105050000C943C398535910511F40C94653114F4A8
:105060000C9432318C35910511F40C947E318836D4
:10507000910509F4C2C40C94F9388E36910509F4EF
:10508000EBC494F48B36910511F40C948E3014F427
:105090000C948A308C36910509F43FC58D36910504
:1050A00009F4B5C50C94F9388037910509F439C570
:1050B0000CF4E5C48137910509F43BC582379105AD
:1050C00011F40C9406320C94F938823E910511F4D7
:1050D0000C9430370CF080C08E3B910509F462C708
:1050E000D4F58937910511F40C94FF32F4F4863726
:1050F000910511F40C94AF323CF48537910511F40D
:105100000C94A2320C94F9388737910511F40C9461
:10511000FC328837910511F00C94F93881E08093C6
:105120009B0A80939A0A0C943C398C38910509F4B7
:1051300035C734F48D37910509F4F4C70C94F93868
:105140008139910511F40C9404338B39910509F4DC
:1051500037C50C94F9388D3C910511F40C947434D6
:10516000CCF4893C910511F40C94C1333CF4883C97
:10517000910511F40C947B330C94F9388B3C910518
:1051800011F40C94E2338C3C910511F40C94FF3330
:105190000C94F938833D910511F40C94D53584F4C1
:1051A0008E3C910511F00C94F9386DE5C62E62E045
:1051B000D62E7DE9E72E7AE0F72E10E00C94E73446
:1051C0008C3D910511F40C94B5368D3D910511F48B
:1051D0000C94C2360C94F938853FF1E09F0711F426
:1051E0000C9464380CF042C0833631E0930711F41C
:1051F0000C944B38ECF48D3251E0950711F40C947B
:105200005C373CF48C32914011F40C9433370C949D
:10521000F9388E32E1E09E0711F40C94FB378F329F
:10522000914011F00C94F9380E94C6AC0C943C39B2
:105230008A3921E0920709F478C44CF4803991400E
:1052400011F00C94F9380E94E6DE0C943C398C3A4B
:1052500051E0950711F40C94F934843F914011F01A
:105260000C94F9380E94D2580C943C398B35B2E03A
:105270009B0711F40C949038C4F4873FF1E09F072A
:1052800011F40C946A3814F40C946738883F31E0B8
:10529000930711F40C946D388835924011F00C94FA
:1052A000F9380E9498AA0C943C398B3853E0950742
:1052B00011F40C943C393CF48438934011F40C9470
:1052C00093380C94F938803AE3E09E0709F497C2CA
:1052D000873E934011F40C94E7380C94F938A09071
:1052E0007614B090771480E50E940440882359F02A
:1052F0000E944A3F6B017C0111E0672B682B692BF0
:1053000031F410E004C010E0C12CD12C760183E50B
:105310000E940440882311F40C94263A0E948A3F8C
:1053200020E030E04AE754E40E94C0FD0F94BB0245
:105330006B017C0111110BC0672B682B692B39F4B1
:10534000A114B10421F0D5018C91811102C010E0AB
:1053500001C011E00E94E6DE112329F061E0C501E1
:105360000E94469805C060E087E492E00E940C9895
:1053700083E08093970E81E08093960EC114D10450
:10538000E104F104F1F00E9427BEC60ED71EE81E0C
:10539000F91E0E9427BEDC01CB018C199D09AE09C4
:1053A000BF09B7FD06C00E9424D21092960E0C943D
:1053B0003C398091960E8823B1F380E00E945371AE
:1053C000E8CF8091960E882371F380E00E9453719C
:1053D000F8CF84918F010F5F1F4F882321F00E9427
:1053E000FF40F801F6CF1092401240E050E0BA01C1
:1053F00083EF9FE00E9460658BE1E3EFFFE0DE0159
:10540000159601900D928A95E1F78091F10F909198
:10541000F20F9C838B8383E193E09A83898340E03E
:1054200050E0BE016F5F7F4F80E090E00E9458DB4C
:10543000CE0101960E94C270E8E7F2E084918F01EC
:105440000F5F1F4F882311F40C943C390E94FF40DA
:10545000F801F4CF0E9483E70C943C3910929C0F22
:1054600010929D0F0C943C39803209F410823196D1
:1054700080818111F9CF40E061E0809176149091B4
:1054800077140E9494E50C943C3980E090E0A8E405
:10549000B2E489839A83AB83BC8318A219A21AA2AF
:1054A0001BA21CA21DA21EA21FA28091020F882374
:1054B00059F020E0AE014F5F5F4FBE01605E7F4F4D
:1054C000CE0184960E9405D580919D0F882319F006
:1054D00081E080939C0F0E949DC90C943C391092EE
:1054E0009C0F0E94D6C988E992E090938E0E80931B
:1054F0008D0E0E94443E0C943C3980919D0F882370
:1055000011F40C943C3983E50E94044081110C9401
:105510002B3A0C943C3983E40E94BD3F882309F464
:1055200054C0EAECF2E084918F010F5F1F4F882393
:1055300021F00E94FF40F801F6CF80918E11882360
:1055400091F0BE016F5F7F4F8BE891E10E944A6C42
:105550008E010F5F1F4FF80181918F01882381F128
:105560000E94FF40F8CFEDE9F2E084918F010F5FD8
:105570001F4F882329F10E94FF40F801F6CF809148
:10558000E409882309F4BCC2A5E7CA2EA3E0DA2EF9
:10559000E12CF12C20E08091E40990E00E2C02C077
:1055A000959587950A94E2F780FD92C2FFEFEF1A76
:1055B000FF0A32E0C30ED11C45E0E416F10459F7AE
:1055C0008AE00E94FF400C943C3980919D0F882313
:1055D00071F180919C0F882351F1E7EAF2E0849108
:1055E0008F010F5F1F4F882321F00E94FF40F801B9
:1055F000F6CF60913C1270913D1280913E129091D5
:105600003F124AE00E94FE448FE20E94FF406091F8
:1056100038127091391280913A1290913B124AE0FF
:105620000E94FE448AE00E94FF400C943C39E9EB62
:10563000F2E084918F010F5F1F4F882311F40C94C7
:105640003C390E94FF40F801F4CF80919D0F8823E0
:1056500011F40C943C398BE891E10E941F658BE8B2
:1056600091E10E94C96C10929B0F10929A0F0091C9
:1056700076141091771480919D0F882311F40C9467
:105680003C390E945BDAB801CE0180960E94A4D911
:105690008C01892B11F40C943C3968A179A1611516
:1056A000710511F06C5F7F4F19821C8222E0A80106
:1056B000CE0101960E945C6B811102C0F12C1EC0CC
:1056C000CE0101960E9412D98823C1F36D857E8593
:1056D0008F85988941E00E947063882379F3E98976
:1056E00020E2E29FF0011124EA5BFD4E309731F396
:1056F00085EE80831C820E943063F82ECE010196D5
:105700000E949040FF2011F1E9EDF2E084917F01C9
:105710003FEFE31AF30A882321F00E94FF40F701CC
:10572000F5CFD8018D918D01882319F00E94FF409B
:10573000F8CF8AE00E94FF4010923C1210923D1276
:1057400010923E1210923F120C943C39E7EEF2E0B8
:1057500084917F01BFEFEB1AFB0A882321F00E949E
:10576000FF40F701F5CFF80181918F01882319F0EF
:105770000E94FF40F8CF8EE20E94FF400C943C391B
:1057800080919C0F81110E94E6DE80919D0F8823FD
:1057900011F40C943C3980E50E940440882319F0F0
:1057A0000E947B3F03C080E50E94BD3F182F482F19
:1057B00061E080917614909177140E9494E583E5DE
:1057C0000E940440882381F00E945A3FAB01BC0133
:1057D00040933C1250933D1260933E1270933F12DF
:1057E0008BE891E10E94606580919D0F882319F0FC
:1057F00081E080939C0F11110C943C396CCE0E9477
:10580000603C0C943C390E9469C9BCE3CB2ED12C7E
:10581000E12CF12CA70196010F943601762E672E0C
:10582000CA01B901A70196010F9436016B017C01F1
:10583000CA01B90128E130E040E050E00F943601A0
:105840004B015C01C9016DE671E00F9436048E01D5
:105850000F5F1F4F6115710599F06F927F92DF9274
:10586000CF929F928F929F938F937F936F9387E2B4
:1058700093E09F938F931F930F930E94F4FC12C0A9
:105880000097B1F06F927F92DF92CF929F928F92AA
:105890009F938F9387E193E09F938F931F930F9331
:1058A0000E94F4FC0FB6F894DEBF0FBECDBF36C029
:1058B00081149104A104B10479F06F927F92DF9278
:1058C000CF929F928F928BE093E09F938F931F9341
:1058D0000F930E94F4FCE6CFC114D104E104F1045B
:1058E00069F06F927F92DF92CF9283E093E09F9373
:1058F0008F931F930F930E94F4FCD4CF6F927F92EB
:105900008FEF92E09F938F931F930F930E94F4FC6D
:105910000F900F900F900F900F900F9060E0C801C4
:105920000E944698E9E9FBE384917F01BFEFEB1AFF
:10593000FB0A882321F00E94FF40F701F5CFB80150
:105940008BE393E00E94F5DD8AE00E94FF400C9417
:105950003C3983E50E940440882311F40C943C39BF
:105960000E946A3FE82E80E50E940440882339F0B7
:105970000E946A3F182F87FF03C00C943C391DE03A
:1059800089E40E940440882349F00E947B3F8111F2
:1059900011C0E8E4F3E08DE28E0F07C089E40E94B5
:1059A000BD3FF5CF31968E1729F094911913FACF98
:1059B0000C94863B61E0812F0E94EBBC6E2D812F01
:1059C0000E949C8AF12CB701812F0E9427BD1930BB
:1059D00011F00C943C39F0925E04E0925D040C945A
:1059E0003C390E949DC90C943C390E94D6C90C9444
:1059F0003C390E94D1B20C943C3988E690E00E9478
:105A0000644581110C943C398091E40983FF02C004
:105A10000C943C3983E50E9404408823C9F00E941D
:105A20008A3F0F94B6027093CD0E6093CC0E80E047
:105A30000E946CC30E948A3F20E030E040EA52E4BA
:105A40000E945BFD181624F00E94D1B20E9424D25D
:105A50000E94B0F80C943C398EE40E9404408823E4
:105A600011F40C943C390E945A3F60935314709384
:105A7000541480935514909356140C943C3983E538
:105A80000E94BD3F882359F083E50E94044088238B
:105A900019F00E946A3F01C080E08093E409E9E9BF
:105AA000FBE384918F010F5F1F4F882321F00E9439
:105AB000FF40F801F6CFE3E8F3E084918F010F5F38
:105AC0001F4F882309F45BCD0E94FF40F801F5CFFA
:105AD000BB24B394B20E222319F08CE20E94FF4043
