:100000000C9428180C9459180C9459180C945918DD
:100010000C9459180C9459180C9459180C9459189C
:100020000C9459180C9459180C9459180C9459188C
:100030000C9459180C9459180C9459180C9459187C
:100040000C9459180C9476920C9459180C945918D5
:100050000C9459180C9459180C94A09B0C9414C42B
:100060000C9459180C94E33F0C9459180C9459189B
:100070000C9459180C9459180C9459180C9459183C
:100080000C9459180C9459180C9459180C9459182C
:100090000C9459180C9459180C9459180C9459181C
:1000A0000C9459180C9459180C9459180C9459180C
:1000B0000C9459180C9459180C9459180C945918FC
:1000C0000C9459180C9459180C9459180C945918EC
:1000D0000C9459180C9459180C9459180C945918DC
:1000E0000C9459184B723172347237723A724672EC
:1000F0003D7257724072437291C294C283C287C2EA
:100100008DC2CBC298C29CC2A2C2A6C2AAC2B0C2B1
:10011000B4C2B8C2CBC2BEC2C2C2C6C230C335C3EB
:100120003AC344C34EC3C7C358C360C368C372C392
:100130007CC386C395C39FC3C7C3A9C3B3C3BDC391
:10014000084AD73B3BCE016E84BCBFFDC12F3D6C3E
:1001500074319ABD56833DDA3D00C77F11BED9E4A4
:10016000BB4C3E916BAAAABE000000803F05A84C84
:10017000CDB2D44EB93836A9020C50B99186880850
:100180003CA6AAAA2ABE000000803F004E414E496C
:100190004E495459494E46CDCCCC3D0AD7233C1745
:1001A000B7D13877CC2B329595E6241FB14F0A0092
:1001B0000020410000C84200401C4620BCBE4CCA82
:1001C0001B0E5AAEC59D74434F4D4D554E4943418C
:1001D00054494F4E0044525952554E004552524FC9
:1001E000525300494E464F004543484F0020746F1C
:1001F0006F206C6F6E6720657874727573696F6EAF
:100200002070726576656E7465640A0020636F6C99
:100210006420657874727573696F6E20707265768C
:10022000656E7465640A0047322F4733206261644B
:1002300020706172616D65746572730A00536C653C
:1002400065702E2E2E00436C69636B20746F2072D4
:100250006573756D652E2E2E004E6F206D6F766561
:100260002E00456E642066696C65206C6973740AA3
:1002700000426567696E2066696C65206C697374FD
:100280000A004D31323500286E6F2066696C652991
:10029000005344207072696E74696E6720627974CD
:1002A0006520004E6F74205344207072696E74692B
:1002B0006E670A0043757272656E742066696C65BC
:1002C0003A200046696C652064656C657465643A23
:1002D0000044656C6574696F6E206661696C656465
:1002E0002C2046696C653A20002569730025696DEC
:1002F00020256973002569682025696D20256973AB
:1003000000256964202569682025696D20256973A9
:100310000025697920256964202569682025696D93
:1003200020256973005072696E742074696D653A96
:100330002000000136372603FFFFFF353C3D380E15
:10034000FFFFFF312E303E12FFFFFFFF28FF0C089A
:1003500009FFFF071A1C18FFFF2A08440A2C43E86C
:1003600001E301DC01D501C7016F66660044454227
:1003700055473A004B494C4C45442E20004D3131F5
:10038000332053006F6B0020573A004520436F6FB6
:100390006C696E672E2E2E00452048656174696E6B
:1003A000672E2E2E0020573A0042656420636F6F3F
:1003B0006C696E672E2E2E0042656420686561743C
:1003C000696E672E2E2E003344205072696E74655C
:1003D00072204F66662E002C20002C2000544845C9
:1003E000524D414C5F50524F54454354494F4E007B
:1003F0004155544F5245504F52545F53445F5354EC
:100400004154555300454D455247454E43595F5061
:10041000415253455200434153455F4C494748546C
:100420005F4252494748544E45535300544F474743
:100430004C455F4C494748545300534F465457412D
:1004400052455F504F574552004255494C445F500A
:10045000455243454E54004C4556454C494E475F26
:1004600044415441005A5F50524F42450041555457
:100470004F4C4556454C005052494E545F4A4F42EE
:100480000050524F4752455353004155544F524527
:10049000504F52545F54454D5000564F4C554D45AA
:1004A0005452494300454550524F4D00534552491F
:1004B000414C5F584F4E5F584F4646004649524D9B
:1004C000574152455F4E414D453A4D61726C696EE0
:1004D00020312E312E39204461726B5F5361726D71
:1004E0006174204D4F442028476974687562292043
:1004F000534F555243455F434F44455F55524C3A25
:1005000068747470733A2F2F6769746875622E630C
:100510006F6D2F4D61726C696E4669726D77617295
:10052000652F4D61726C696E2050524F544F434F8E
:100530004C5F56455253494F4E3A312E30204D4173
:100540004348494E455F545950453A334420507210
:10055000696E7465722045585452554445525F4344
:100560004F554E543A3120555549443A63656465B8
:10057000326132662D343161322D343734382D39C1
:100580006231322D6335356336326633363766660F
:100590000A002F2F20004D31343520533C696E6402
:1005A00065783E206F7574206F662072616E676596
:1005B0002028302D31290A002054002052004163A8
:1005C00063656C65726174696F6E3A2050004F66A6
:1005D0006673657473206170706C69656400457240
:1005E000723A20546F6F206661722100546F6F2041
:1005F0006661722066726F6D207265666572656EE7
:10060000636520706F696E740A00205A00205900DB
:10061000580020204D61783A2000205A00205900CF
:10062000580020204D696E3A20004F6E20004F6622
:100630006600536F667420656E6473746F70733AEE
:100640002000454550524F4D204F4B0A00496E73D4
:100650006572742066696C616D656E7420616E648C
:1006600020707265737320627574746F6E0A005027
:100670007265737320627574746F6E20746F206876
:10068000656174206E6F7A7A6C650A00496E7365D5
:1006900072742066696C616D656E7420616E642091
:1006A000707265737320627574746F6E20286F7238
:1006B000204D313038290A00416374697665204540
:1006C000787472756465723A2000496E76616C695F
:1006D000642065787472756465720A004E6F2043F9
:1006E0006865636B73756D2077697468206C696EDB
:1006F00065206E756D6265722C204C617374204CA0
:10070000696E653A20004B494C4C45442E200053FD
:10071000544F505045442E20005072696E746572DB
:100720002073746F707065642064756520746F2029
:100730006572726F72732E20466978207468652026
:100740006572726F7220616E6420757365204D3919
:10075000393920746F20726573746172742E202889
:1007600054656D706572617475726520697320726D
:10077000657365742E2053657420697420616674F6
:1007800065722072657374617274696E67290A00FC
:100790004E6F20436865636B73756D20776974686D
:1007A000206C696E65206E756D6265722C204C61DF
:1007B0007374204C696E653A2000636865636B73DF
:1007C000756D206D69736D617463682C204C617365
:1007D00074204C696E653A20004C696E65204E7538
:1007E0006D626572206973206E6F74204C61737442
:1007F000204C696E65204E756D6265722B312C2020
:100800004C617374204C696E653A20004D31313073
:10081000004D33310053442072656164206572726B
:100820006F720A00446F6E65207072696E74696E33
:10083000672066696C650A0020496E76616C6964A0
:1008400020657874727564657220000000A0C00095
:100850000000000000000000005743000057430064
:10086000009643486F6D696E67206661696C6564C8
:10087000004D3630303A20546F6F20636F6C640047
:10088000486F74656E6420746F6F20636F6C640AC8
:100890000050726F7465637465642050696E0A005D
:1008A000205A3A0020593A0020436F756E74205840
:1008B0003A0020453A00205A3A0020593A00583A66
:1008C000003A004361703A0020466C6F773A20008E
:1008D00020746F6F206C6F6E67206578747275730B
:1008E000696F6E2070726576656E7465640A0020AB
:1008F000636F6C6420657874727573696F6E2070B5
:10090000726576656E7465640A0053442063617293
:1009100064206F6B0A006F70656E526F6F74206693
:1009200061696C65640A00766F6C756D652E696E21
:100930006974206661696C65640A00534420696EBD
:100940006974206661696C0A004573746570732F61
:100950006D6D004573746570732F6D6D005A7374FF
:100960006570732F6D6D005A73746570732F6D6DA4
:10097000005973746570732F6D6D005973746570D1
:10098000732F6D6D005873746570732F6D6D005803
:1009900073746570732F6D6D004D6F74696F6E00A9
:1009A00053746570732F6D6D004A65726B004163FF
:1009B00063656C65726174696F6E0056656C6F6318
:1009C00069747900436F6E74726F6C004C6F616470
:1009D000206D6D004C6F6164206D6D004C6F616423
:1009E000206D6D00556E6C6F6164206D6D00556EED
:1009F0006C6F6164206D6D00556E6C6F6164206D6D
:100A00006D0046696C2E204469612E0046696C2E8B
:100A1000204469612E004F6666004F6E200045201D
:100A2000696E206D6D3300436F6E74726F6C00439E
:100A3000616E6E6F7420656E74657220737562648A
:100A400069723A2000022E2E004D61696E004D360B
:100A5000303020423020542564004D37303120544E
:100A60002564004D373032203B2564004D3730324D
:100A700020542564004368616E67652066696C6177
:100A80006D656E74005072656865617420414253F3
:100A9000005072656865617420504C410043686184
:100AA0006E67652066696C616D656E7400505249B1
:100AB0004E542050415553454400554E4C4F4144EF
:100AC0002046494C414D454E54004C4F4144204630
:100AD000494C414D454E54005075726765206D6F0D
:100AE000726500436F6E74696E75650052455355AB
:100AF0004D45204F5054494F4E533A0020204E6FE1
:100B00007A7A6C653A20006368616E6765006F668B
:100B1000207468652066696C616D656E740057614C
:100B2000697420666F722073746172740057726901
:100B300074696E6720746F2066696C653A20006F77
:100B400070656E206661696C65642C2046696C6511
:100B50003A20006F70656E206661696C65642C20B8
:100B600046696C653A200046696C652073656C6562
:100B7000637465640A002053697A653A2000466907
:100B80006C65206F70656E65643A20002066696C44
:100B9000653A2000646F696E67006672657368006D
:100BA0004E6F772000454E4420535542524F5554C6
:100BB000494E450A002220706F7300222070617236
:100BC000656E743A2200535542524F5554494E4572
:100BD0002043414C4C207461726765743A22004B8B
:100BE000494C4C45442E2000747279696E6720741C
:100BF0006F2063616C6C207375622D67636F646531
:100C00002066696C6573207769746820746F6F2043
:100C10006D616E79206C6576656C732E204D415840
:100C2000206C6576656C2069733A004572726F724C
:100C30003A0043616E6E6F74206F70656E2073753D
:100C40006264697220006563686F3A006F70656E58
:100C5000206661696C65642C2046696C653A2000E9
:100C60004572726F722077726974696E6720746F53
:100C700020454550524F4D210A00454550524F4D99
:100C8000206461746173697A65206572726F722E77
:100C90000A00290A002062797465733B206372633D
:100CA000200053657474696E67732053746F7265A6
:100CB00064202800290A002062797465733B206350
:100CC000726320002073746F72656420736574749E
:100CD000696E677320726574726965766564202831
:100CE00000202863616C63756C6174656429210A56
:100CF0000020213D2000454550524F4D2043524396
:100D0000206D69736D61746368202D202873746F82
:100D10007265642920002053697A653A2000496E83
:100D20006465783A2000204D61726C696E3D5635DD
:100D300035290A0028454550524F4D3D0045455044
:100D4000524F4D2076657273696F6E206D69736DB9
:100D5000617463682000496E697469616C697A65C1
:100D600020454550524F4D00436F6E74726F6C00BA
:100D7000526573746F7265206661696C7361666534
:100D8000004C6F61642073657474696E6773004909
:100D90006E697469616C697A6520454550524F4DA2
:100DA0000053746F72652073657474696E677300A5
:100DB00046696C616D656E74004D6F74696F6E008D
:100DC00054656D7065726174757265004D61696E10
:100DD000004D333033205531204525692053256996
:100DE00000507265686561742041425320636F6EE4
:100DF00066005072656865617420504C4120636FD5
:100E00006E6600504944204175746F74756E6500BC
:100E1000504944204175746F74756E6500504944A3
:100E20002D44005049442D44005049442D49005060
:100E300049442D49005049442D50005049442D50FB
:100E40000020082046616374002008204661637416
:100E5000002008204D6178002008204D6178002096
:100E600008204D6178002008204D696E0020082080
:100E70004D696E002008204D696E004F6666004F78
:100E80006E20004175746F74656D700046616E2050
:100E900073706565640046616E20737065656400FB
:100EA00042656400426564004E6F7A7A6C65004E5C
:100EB0006F7A7A6C6500436F6E74726F6C00537456
:100EC0006F72652073657474696E67730042656440
:100ED00000426564004E6F7A7A6C65004E6F7A7AD4
:100EE0006C650046616E2073706565640046616ED6
:100EF0002073706565640054656D7065726174750A
:100F000072650000002200250028002B002E003111
:100F100000340002010000050108010B010000205F
:100F2000002300260029002C002F003200000100C1
:100F30000003010601090105050505070508080864
:100F400008020202020A0A0808040404040101015A
:100F50000101010101030303030303030304070762
:100F6000070C0C0C0C0C0C0C0C0202020206060600
:100F700006060606060B0B0B0B0B0B0B0B010210E8
:100F800020200808102040102040800201020108A3
:100F90000402010102040810204080804020100853
:100FA00004020180040201804020100804020108AC
:100FB000040201010204081020408001020408100C
:100FC00020408000000A0B02090C0D0E08070304E4
:100FD0000100000000000000000000000000000010
:100FE00000000000000000000000000000000012EF
:100FF00011100000000000000000000000000000D0
:101000000000000000000000004B494C4C45442EFD
:101010002000202D20496E76616C6964206578740B
:101020007275646572206E756D62657220210A00AA
:101030001FFFFFFFFFFFFF600000000001FF4000F7
:1010400000000000FF8000000000007F83CF000050
:101050000C303F87FF80000C301F867980000C0029
:101060000F8C30C7838C30E78C30CFC7CC31F38CFA
:1010700030DCECEC33B98C30D86C6C33198C30D05C
:101080006C0C33198C30D86C0C33198C30DC6C0E32
:101090003B198C30CF7C079F198C30C77C038F198C
:1010A00040000000000002600000000000061FFF7A
:1010B000FFFFFFFFF82020506C616E6E6572427575
:1010C0006666657242797465733A200020467265DF
:1010D00065204D656D6F72793A2000436F6D7069C0
:1010E0006C65643A204A756E2032372032303139CF
:1010F0000A00207C20417574686F723A2044617246
:101100006B5F5361726D617420636F6E66696720F7
:101110006D6F640A00323031382D30382D30310097
:10112000204C61737420557064617465643A2000CA
:10113000312E312E39204461726B5F5361726D61C3
:1011400074204D4F440A004D61726C696E0020534B
:101150006F6674776172652052657365740A00204A
:101160005761746368646F672052657365740A0021
:101170002042726F776E206F7574205265736574AC
:101180000A002045787465726E616C205265736543
:10119000740A00506F77657255700A00737461723B
:1011A000740A006175746F25692E67006572726F2D
:1011B000722077726974696E6720746F2066696C3B
:1011C000650A00456E6473746F7073202563202573
:1011D0006320256320256300205A3A0020593A00F5
:1011E00020583A00656E6473746F70732068697478
:1011F0003A2000446F6E6520736176696E672066E1
:10120000696C652E0A004D3239004D3234004D3282
:101210003320257300556E6B6E6F776E20636F6D94
:101220006D616E643A202200496E736572742066A7
:10123000696C616D656E7420616E64207072657397
:101240007320627574746F6E20286F72204D313078
:1012500038290A00486F74656E6420746F6F2063CC
:101260006F6C640A00486F6D6520257325732573C4
:10127000206669727374002066697273740A005A7A
:101280000059005800486F6D6520003344205072AB
:10129000696E7465722052656164792E00507269BE
:1012A0006E74696E672E2E2E005072696E742070F7
:1012B0006175736564004D313235004D3234005034
:1012C00072696E742061626F727465640050726935
:1012D0006E742066726F6D2053440053746F7020DB
:1012E0007072696E7400526573756D6520707269F5
:1012F0006E74004E6F20534420636172640050612D
:10130000757365207072696E7400436F6E74726FCE
:101310006C00507265706172650054756E650049AD
:101320006E666F2073637265656E004368616E67F9
:10133000652066696C616D656E74004368616E67F7
:10134000652066696C616D656E74004D36303020C5
:10135000423000466C6F7700466C6F770046616ED6
:101360002073706565640046616E20737065656406
:101370000042656400426564004E6F7A7A6C6500D5
:101380004E6F7A7A6C6500537065656400537065C2
:101390006564004D61696E00507265686561742016
:1013A000504C4120456E6400507265686561742040
:1013B000504C41204265640050726568656174203C
:1013C000504C4100507265706172650050726568E2
:1013D0006561742041425320456E64005072656817
:1013E0006561742041425320426564005072656813
:1013F00065617420414253005072657061726500EE
:1014000025753A2530327500253032753A2530324F
:10141000750025756420253032753A253032750007
:10142000202020202020005A0059002020202000C9
:10143000580009200000000000000000000000002B
:10144000003FFFF00000000000000000000000006E
:1014500038007000000000000000000000000030B4
:10146000FC3000000000000000000000000020FC34
:1014700010000000000000000000000000207810B4
:1014800000000000000000000000000020301000FC
:1014900000000000000000000000002C00D03FC051
:1014A000000000000000002082002E31D07FE0000C
:1014B0000000000000001041002F7BD07FE0000002
:1014C00000000000001041002F7BD07FE0000000F2
:1014D000000000002082002E31D03FC0000000003C
:1014E0000000004104002C00D03FC00000000000BC
:1014F00000008208002030107FE0000000000000A3
:10150000008208002078107FE0000000000000004A
:1015100041040020FC107FE00000000000000020DB
:10152000820030FC301F800000000000000000003E
:10153000003800700F0000000000000000FFFFC036
:101540003FFFF0060000000000000000FFFFC000A9
:1015500000000000000000000000000000003FFF4D
:10156000F0000000000000000000000000380070E3
:101570000000000000000000000000003186300084
:1015800000000000000000000000002387100000A1
:10159000000000000000000000002787900000000D
:1015A0000000000000000000002F87D000000000B5
:1015B00000000000000000002F03D03FC00000002A
:1015C000000000002082002030107FE000000000BA
:1015D0000000001041002078107FE00000000000B3
:1015E00000001041002078107FE0000000000000A3
:1015F000002082002030103FC000000000000000EA
:101600004104002F03D03FC0000000000000008212
:1016100008002F87D07FE000000000000000820853
:10162000002787907FE000000000000000410400D8
:101630002387107FE00000000000000020820031BE
:1016400086301F800000000000000000000038000D
:10165000700F0000000000000000FFFFC03FFFF01F
:10166000060000000000000000FFFFC000000000B6
:10167000060900FE000000000001090008FE00004D
:1016800005080806000040F0C8888898781005080A
:1016900008060000C0F88888888888F805050506CF
:1016A00000012030F830200508080600002070F8FE
:1016B00020202020E00509090600FF2070A8A8B816
:1016C000888870200509090600FFE080C0B0A828BE
:1016D0003028280509090600FFF8A8888888888826
:1016E000A8F8050A0A0600FE205050505088A8A805
:1016F000887003030306000340A0404D34323800D5
:101700005072656865617420504C4100436F6F6C86
:10171000646F776E004368616E67652066696C610F
:101720006D656E74004368616E67652066696C6103
:101730006D656E74004D3630302042300044697360
:1017400061626C65207374657070657273004D38EA
:10175000340053657420686F6D65206F666673652D
:10176000747300507265686561742041425300488B
:101770006F6D65205A00473238205A00486F6D65FA
:10178000205900473238205900486F6D65205800B5
:101790004732382058004175746F20686F6D6500BE
:1017A000473238004D6F76652061786973004D616E
:1017B000696E004D6F76652058004D6F7665205933
:1017C000004D6F7665205A004578747275646572B5
:1017D000004D6F766520302E316D6D004D6F766552
:1017E00020316D6D004D6F76652031306D6D004D8F
:1017F0006F766520617869730045787472756465E9
:1018000072004D6F7665205A004D6F766520590045
:101810004D6F766520580045787472756465720066
:101820004D6F7665205A004D6F76652059004D6FDB
:1018300076652058004F6666004F6E2000536F6635
:101840007420456E6473746F7073005072657061BC
:1018500072650024F4D43050C38E20C2A240178297
:101860008B7011127A910D816CD90AA861E108C7B9
:10187000586607615143061E4B5D05C145A7041A12
:10188000411104093D9803713931034036DB02658B
:10189000339102D4305402802E1D02632CEE017568
:1018A0002AC501B028A001102781018F2564012BD2
:1018B000244B01E0223401AC211F018D200D018059
:1018C0001FFC00841EED00971DDF00B81CD200E64F
:1018D0001BC600201BBC00641AB200B219A8000A83
:1018E00019A0006A189900D117910040178B00B514
:1018F00016840031167E00B31579003A157300C7BF
:10190000146F0058146A00EE1366008813630025F4
:10191000135E00C7125B006C12570015125400C111
:1019200011510070114F0021114B00D61049008D4C
:101930001047004610440002104200C00F400080D3
:101940000F3E00420F3C00060F3B00CB0E380093C9
:101950000E37005C0E3500270E3400F30D3200C147
:101960000D3100900D3000600D2E00320D2D000560
:101970000D2C00D90C2B00AE0C2900850C29005C25
:101980000C2700350C27000E0C2600E80B2400C4A1
:101990000B2400A00B23007D0B23005A0B210039E0
:1019A0000B2100180B2000F80A1F00D90A1E00BBEB
:1019B0000A1E009D0A1D00800A1D00630A1C0047C4
:1019C0000A1B002C0A1B00110A1A00F7091A00DD75
:1019D000091900C4091900AB091900920917007B05
:1019E000091800630917004C091600360916002073
:1019F0000916000A091500F5081500E0081400CCC6
:101A0000081400B8081400A4081400900813007DFE
:101A10000812006B08130058081200460812003420
:101A2000081100230811001208110001081100F02C
:101A3000071000E0071000D0071000C0071000B02A
:101A4000070F00A107100091070E0083070F007415
:101A5000070F0065070E0057070E0049070E003BF1
:101A6000070D002E070E0020070D0013070D0006BE
:101A7000070D00F9060C00ED060D00E0060C00D481
:101A8000060C00C8060C00BC060C00B0060C00A436
:101A9000060B0099060C008D060B0082060B0077E2
:101AA000060B006C060B0061060A0057060B004C83
:101AB000060A0042060A0038060A002E060A00241A
:101AC000060A001A060A001006090007060A00FDA9
:101AD000050900F4050900EB050900E2050900D934
:101AE000050900D0050900C7050900BE050900B5B4
:101AF000050800AD050800A50509009C050800942F
:101B00000508008C050800840508007C05080074A1
:101B10000508006C050700650508005D050700560F
:101B20000508004E05070047050700400508003876
:101B3000050700310507002A050700230507001CDB
:101B4000050600160507000F050700080506000238
:101B5000050700FB040600F5040700EE040600E894
:101B6000040600E2040700DB040600D5040600CFEB
:101B7000040600C9040600C3040600BD040600B73D
:101B8000040600B1040500AC040600A6040600A08B
:101B90000405009B04060095040500900406008AD5
:101BA00004050085040500800406007A040500751C
:101BB000040500700405006B04050066040500615F
:101BC0000405005C04050057040500520405004D9F
:101BD00004050048040500430405003E0404003ADF
:101BE00004050035040500300404002C040500271A
:101BF000040400230405001E0404001A0404001653
:101C0000040500110404000D040400090405000487
:101C100004040000040400FC030400F8030400F4BE
:101C2000030400F0030400EC030400E8030400E4F0
:101C3000030400E0030400DC030400D8030400D420
:101C4000030400D0030400CC030400C8030300C550
:101C500003030024F404D9201BC40C5C0E9804C4B4
:101C6000095F0265077101F405F900FB04B3004840
:101C7000048700C10369005803550003034500BEF3
:101C8000023A008402310053022A0029022500048E
:101C9000022000E4011C00C8011900AF01170098E0
:101CA0000114008401130071011000610110005142
:101CB000010E0043010D0036010B002B010B00202B
:101CC000010B00150109000C01090003010800FBCC
:101CD000000800F3000800EB000700E4000600DE47
:101CE000000600D8000600D2000600CC000500C7A0
:101CF000000500C2000500BD000400B9000400B5E5
:101D0000000400B1000400AD000400A9000400A517
:101D1000000300A20003009F0004009B0003009842
:101D20000003009500020093000300900003008D63
:101D30000002008B0003008800020086000200847D
:101D4000000300810002007F0002007D0002007B92
:101D500000020079000200770001007600020074A2
:101D600000020072000100710002006F0002006DAD
:101D70000001006C0002006A0001006900020067B7
:101D800000010066000100650001006400020062BD
:101D900000010061000100600001005F0002005DC1
:101DA0000001005C0001005B0001005A00010059C5
:101DB00000010058000100570001005600010055C5
:101DC00000010054000100530000005300010052C4
:101DD00000010051000100500001004F0001004EC1
:101DE0000000004E0001004D0001004C0001004BBE
:101DF0000000004B0001004A0001004900010048BA
:101E000000000048000100470001004600000046B5
:101E100000010045000000450001004400010043AE
:101E200000000043000100420000004200010041A8
:101E300000000041000100400001003F0000003FA1
:101E40000001003E0000003E0001003D0000003D9A
:101E50000001003C0000003C0000003C0001003B91
:101E60000000003B0001003A0000003A0001003988
:101E70000000003900010038000000380000003880
:101E80000001003700000037000100360000003676
:101E9000000000360001003500000035000000356C
:101EA0000001003400000034000000340001003361
:101EB0000000003300000033000100320000003257
:101EC000000000320001003100000031000000314C
:101ED0000001003000000030000000300001002F41
:101EE0000000002F0000002F0000002F0001002E36
:101EF0000000002E0000002E0001002D0000002D2B
:101F00000000002D0000002D0001002C0000002C1E
:101F10000000002C0000002C0001002B0000002B12
:101F20000000002B0000002B0001002A0000002A06
:101F30000000002A0000002A0001002900000029FA
:101F400000000029000000290000002900010028ED
:101F500000000028000000280000002800000028E1
:101F600000010027000000270000002700000027D4
:101F700000000027000100260000002600000026C7
:101F800000000026000000260001002500000025BA
:101F900000000025000000250000002500000025AD
:101FA00000010024000000240000002400000024A0
:101FB0000000002400010023000000230000002393
:101FC0000000002300000023000000230000002385
:101FD0000001002200000022000000220000002278
:101FE000000000220000002200010021000000216A
:101FF000000000210000002100000021000000215D
:10200000000000210001002000000020000000204E
:102010000000002000000020000000200000002040
:10202000000000200001001F0000001F0000001F32
:102030000000001F0000001F0000001F0000001F24
:102040000001001E0000001E0000001E0000001E17
:10205000000000043700001E290000511B0000583A
:1020600010000010090000CC0400007802000041BC
:102070000100002CFFFFFFFFFF00010101010162D1
:1020800065640A002C2073797374656D2073746F16
:102090007070656421204865617465725F49443AD7
:1020A00020004265642068656174696E672066611E
:1020B000696C65640048656174696E672066616972
:1020C0006C65640045312048656174696E672066FF
:1020D00061696C65640048656174696E672066615A
:1020E000696C656400453120544845524D414C208F
:1020F00052554E415741590042454420544845529B
:102100004D414C2052554E4157415900546865721B
:102110006D616C2052756E617761790045312045A3
:1021200072723A204D415854454D50004572723AF2
:10213000204D415854454D5020424544004D415892
:1021400054454D5020747269676765726564004537
:1021500031204572723A204D494E54454D5000454C
:1021600072723A204D494E54454D5020424544002C
:102170004D494E54454D50207472696767657265CC
:1021800064004D383420582059205A204500202F13
:10219000005654726176206D696E005654726176F5
:1021A000206D696E005654726176206D696E00561E
:1021B0006D696E00566D696E00566D696E00566DE4
:1021C0006178204500566D6178204500566D617834
:1021D000204500566D6178205A00566D6178205A6E
:1021E00000566D6178205A00566D6178205900566E
:1021F0006D6178205900566D6178205900566D61E7
:1022000078205800566D6178205800566D6178200E
:1022100058004D6F74696F6E00416D617820450004
:10222000416D6178204500416D6178205A00416D13
:102230006178205A00416D6178205900416D6178C4
:10224000205900416D6178205800416D6178205817
:1022500000412D74726176656C00412D7472617657
:10226000656C00412D7265747261637400412D725A
:1022700065747261637400416363656C00416363FC
:10228000656C004D6F74696F6E0056652D6A6572DE
:102290006B0056652D6A65726B0056652D6A657216
:1022A0006B00567A2D6A65726B00567A2D6A6572DC
:1022B0006B0056792D6A65726B0056792D6A6572CE
:1022C0006B0056792D6A65726B0056782D6A6572BF
:1022D0006B0056782D6A65726B0056782D6A6572B0
:1022E0006B004D6F74696F6E0070012C01900127B7
:1022F00001B0012201C0011D01F0011801100213FB
:102300000130020E016002090190020401C002FFC7
:10231000000003FA004003F5008003F000D003EB57
:10232000002004E6007004E100E004DC004005D772
:1023300000C005D2004006CD00D006C8008007C30B
:10234000003008BE00F008B900C009B400B00AAF00
:1023500000B00BAA00D00CA500000EA000500F9BEF
:1023600000C01096005012910000148C00C0158718
:1023700000B0178200B0197D00D01B7800001E73DA
:102380000040206E0090226900F024640040275F26
:102390000090295A00E02B5500102E500020304BA1
:1023A0000010324600E033410090353C00103737D2
:1023B0000070383200A0392D00B03A2800A03B232D
:1023C00000603C1E00103D1900903D1400103E0FAF
:1023D00000703E0A00C03E0500003F0000403FFB89
:1023E000FF803FF6FFC03FF1FF2042403A0020400F
:1023F0003A0000060900FE0701920321207FFF0733
:10240000FF07FF000000060000010707060200802A
:10241000808080800080030202060105A0A00507DD
:10242000070600005050F850F85050050707060006
:10243000002078A07028F020050707060000C0C81B
:1024400010204098180507070600006090A040A8DB
:102450009068020303060104C040800307070601D9
:102460000020408080804020030707060100804054
:10247000202020408005050506000120A870A82026
:102480000505050600012020F820200203030602AE
:10249000FFC04080050101060003F80202020602A7
:1024A00000C0C00505050600010810204080050792
:1024B000070600007088888888887003070706016F
:1024C0000040C040404040E005070706000070881B
:1024D00008708080F8050707060000F81020100833
:1024E00008F005070706000010305090F81010059E
:1024F0000707060000F880F008088870050707063F
:102500000000708080F0888870050707060000F8DA
:10251000081020202020050707060000708888701A
:10252000888870050707060000708888780808709A
:10253000020505060200C0C000C0C0020606060271
:10254000FFC0C000C0408004070706000010204004
:1025500080402010050303060002F800F804070776
:10256000060100804020102040800507070600007B
:1025700070880810200020050707060000708808F2
:1025800068A8A870050707060000708888F8888882
:1025900088050707060000F08888F08888F005079E
:1025A0000706000070888080808870050707060095
:1025B00000F08888888888F0050707060000F88002
:1025C00080F08080F8050707060000F88080F08022
:1025D0008080050707060000708880B8888870052D
:1025E0000707060000888888F8888888010707069A
:1025F0000200808080808080800507070600003808
:102600001010101090600507070600008890A0C009
:10261000A09088050707060000808080808080F8F1
:1026200005070706000088D8A88888888805070756
:102630000600008888C8A898888805070706000053
:1026400070888888888870050707060000F08888E9
:10265000F080808005070706000070888888A890B1
:1026600068050707060000F08888F0A09088050735
:1026700007060000788080700808F005070706004C
:1026800000F8202020202020050707060000888869
:1026900088888888700507070600008888888888E9
:1026A00050200507070600008888888888A85005FC
:1026B000070706000088885020508888050707060D
:1026C000000088888850202020050707060000F8B1
:1026D0000810204080F8030707060100E080808092
:1026E0008080E005050506000180402010080307F2
:1026F00007060100E02020202020E005030306005B
:1027000004205088050101060000F80202020602BA
:1027100005804005050506000070087888780507E3
:10272000070600008080B0C88888F005050506000F
:102730000070808088700507070600000808689808
:102740008888780505050600007088F88070050700
:10275000070600003048E0404040400506060600FD
:10276000FF7088887808700507070600008080B031
:10277000C888888801070706020080008080808062
:10278000800308080601FF200020202020A040042C
:102790000707060000808090A0C0A09003070706EE
:1027A0000100C04040404040E0050505060000D063
:1027B000A8A8A8A8050505060000B0C8888888054F
:1027C000050506000070888888700506060600FF6B
:1027D000F08888F080800506060600FF78888878F3
:1027E0000808050505060000B0C8808080050505BD
:1027F00006000070807008F00407070600004040E3
:10280000E04040403005050506000088888898684B
:102810000505050600008888885020050505060086
:10282000008888A8A850050505060000885020509B
:10283000880506060600FF88888878087005050563
:10284000060000F8102040F80307070601002040AA
:102850004080404020010707060200808080808081
:10286000808003070706010080404020404080052B
:102870000202060002689000000006000043617238
:10288000642072656D6F76656400436172642069CF
:102890006E73657274656400656E717565756569E2
:1028A0006E672022000000A0C000000000000000B1
:1028B00000000048420000484200002041000000A3
:1028C000005761726E696E673A20486F6D696E6776
:1028D0002042756D702044697669736F72203C20C8
:1028E000310A000202040000A0400000A0400000E5
:1028F000004000005C430000574300009643FFFF88
:10290000FF7C3C3E5E2B3D3F2F5B5D3B2C2A225CD7
:102910000000002100240027002A002D0030003391
:102920000001010000040107010A0120643A0020AF
:10293000693A0020703A00496E76616C69642065DE
:10294000787472756465720A0043290A0061626CCA
:10295000656420286D696E2074656D702000436F7A
:102960006C6420657874727564657320617265208B
:102970000023646566696E652044454641554C54A4
:102980005F4B64200023646566696E65204445469C
:1029900041554C545F4B69200023646566696E6540
:1029A0002044454641554C545F4B702000504944EB
:1029B000204175746F74756E652066696E69736801
:1029C0006564212050757420746865206C6173748F
:1029D000204B702C204B6920616E64204B64206377
:1029E0006F6E7374616E74732066726F6D206265B2
:1029F0006C6F7720696E746F20436F6E66696775C0
:102A0000726174696F6E2E680A00504944204175E6
:102A1000746F74756E65206661696C6564212074DD
:102A2000696D656F75740A00453120544845524DF3
:102A3000414C2052554E4157415900546865726DC2
:102A4000616C2052756E617761790045312048656F
:102A50006174696E67206661696C656400486561D0
:102A600074696E67206661696C6564005049442032
:102A70004175746F74756E65206661696C6564215B
:102A80002054656D706572617475726520746F6F26
:102A900020686967680A00204B643A2000204B696F
:102AA0003A2000204B703A20000A20436C61737377
:102AB000696320504944200A002054753A200020C0
:102AC0004B753A2000206D61783A2000206D696EC8
:102AD0003A200020643A200020626961733A2000A5
:102AE000504944204175746F74756E652066616944
:102AF0006C65642120426164206578747275646538
:102B000072206E756D6265720A00504944204175ED
:102B1000746F74756E652073746172740A004E6F01
:102B20002063617365206C696768740A0020204E19
:102B30006F7A7A6C653A2000200066696C616D6579
:102B40006E7420756E6C6F616400576169742066E5
:102B50006F720020204E6F7A7A6C653A2000200058
:102B6000506C6561736520776169742E2E2E004864
:102B7000656174696E67206E6F7A7A6C65002020DB
:102B80004E6F7A7A6C653A20002000686561742087
:102B90006E6F7A7A6C652E00507265737320627561
:102BA00074746F6E20746F0020204E6F7A7A6C659B
:102BB0003A2000746F20636F6E74696E75652E2EF7
:102BC0002E00616E64207072657373206275747478
:102BD0006F6E00496E736572742066696C616D6515
:102BE0006E740020204E6F7A7A6C653A20002000C7
:102BF00066696C616D656E74206C6F61640057610D
:102C0000697420666F720020204E6F7A7A6C653A84
:102C10002000200066696C616D656E7420707572AD
:102C20006765005761697420666F7200746F207267
:102C30006573756D65005761697420666F722070E9
:102C400072696E740048617264636F6465642044E5
:102C5000656661756C742053657474696E67732062
:102C60004C6F616465640A002003000020030000CB
:102C70006400000010270000000016430000164307
:102C800000002041000048420000A0420000A04295
:102C90000000C843E1FABC4220286D6D29002020C5
:102CA0004D36303320002055004C0046696C616D74
:102CB000656E74206C6F61642F756E6C6F6164203B
:102CC0006C656E677468733A0A00204400204900FE
:102CD00020204D333031205000504944207365741A
:102CE00074696E67733A0A0020460020420020484B
:102CF0000020204D3134352053004D6174657269D8
:102D0000616C2068656174757020706172616D65B9
:102D1000746572733A0A00205A0020590020204D31
:102D2000323036205800486F6D65206F66667365D7
:102D3000743A0A00204500205A002059002058000B
:102D400020540020530020204D32303520510020E7
:102D5000453C6D61785F655F6A65726B3E00205827
:102D60003C6D61785F785F6A65726B3E20593C6D9F
:102D700061785F795F6A65726B3E205A3C6D61785D
:102D80005F7A5F6A65726B3E00416476616E63656F
:102D9000643A20513C6D696E5F7365676D656E7452
:102DA0005F74696D655F75733E20533C6D696E5F3E
:102DB00066656564726174653E20543C6D696E5F42
:102DC00074726176656C5F66656564726174653E98
:102DD0000020540020520020204D3230342050007A
:102DE000416363656C65726174696F6E2028756EEE
:102DF0006974732F7332293A20503C7072696E7473
:102E00005F616363656C3E20523C726574726163FE
:102E1000745F616363656C3E20543C7472617665D7
:102E20006C5F616363656C3E0A00204500205A00B8
:102E300020590020204D3230312058004D617869F2
:102E40006D756D20416363656C65726174696F6E49
:102E50002028756E6974732F7332293A0A00204551
:102E600000205A0020590020204D323033205800D5
:102E70004D6178696D756D20666565647261746514
:102E8000732028756E6974732F73293A0A002045E0
:102E900000205A0020590020204D3932205800537C
:102EA000746570732070657220756E69743A0A00DB
:102EB00020204D3230302044300A0020204D323066
:102EC000302044002044697361626C65640A0046E6
:102ED000696C616D656E742073657474696E677377
:102EE0003A0020204D3134392043203B20556E6973
:102EF000747320696E2043656C736975730A0020D2
:102F000020473231202020203B005452494747457A
:102F1000524544006F70656E003A200066696C612E
:102F20006D656E74007A5F6D696E00795F6D696EB4
:102F300000785F6D696E005265706F7274696E67BC
:102F400020656E6473746F70207374617475730A96
:102F500000526573656E643A20006F6B0062757392
:102F6000793A2070617573656420666F7220696EAE
:102F70007075740A00627573793A207061757365B3
:102F80006420666F7220757365720A0062757379CA
:102F90003A2070726F63657373696E670A004B49FC
:102FA0004C4C45442E20004B494C4C2063617573BA
:102FB0006564206279204B494C4C20627574746FB3
:102FC0006E2F70696E0A004B494C4C45442E200010
:102FD0004B494C4C206361757365642062792074A1
:102FE0006F6F206D75636820696E616374697665C3
:102FF0002074696D65202D2063757272656E742072
:10300000636F6D6D616E643A20004D363030005054
:103010006C65617365207265736574005052494E2A
:103020005445522048414C544544005072696E74D6
:1030300065722068616C7465642E206B696C6C2805
:10304000292063616C6C6564210A00008FE2ABEAA1
:1030500011241FBECFEFD1E2DEBFCDBF00E00CBF19
:1030600013E0A0E0B2E0EEE6FEEE01E00BBF02C02E
:1030700007900D92A636B107D9F724E1A6E6B3E092
:1030800001C01D92A731B207E1F718E1C7E2D8E10C
:1030900000E006C021970109802FFE010E9495F6ED
:1030A000C632D10780E00807A9F70E9445E30C94D7
:1030B00026F70C9400002F923F924F925F926F92EE
:1030C0007F928F929F92AF92BF92CF92DF92EF92B8
:1030D000FF920F931F93CF93DF93CDB7DEB7CC56FC
:1030E000D1090FB6F894DEBF0FBECDBF21E020930B
:1030F0009710809110148D3409F449C7843511F468
:103100000C941A31873411F00C945C3180910E14B8
:1031100090910F148430910509F493C544F497FD00
:1031200032C720913D028230910544F522C08A3594
:10313000910509F4B6C644F48B31910509F4C0C574
:103140004C9709F4EDC51FC78B35910509F4ADC641
:103150008C35910509F017C7F5E52F2EF2E03F2ECB
:10316000A6E2CA2EA3E1DA2EE12CF12C00E010E059
:10317000D9C621110C9463310C945E31222311F4D1
:103180000C945E3111E0029709F010E00E9456386D
:1031900082E50E942838882309F444C10E94AE3792
:1031A0006B017C014090AA105090AB106090AC1065
:1031B0007090AD108091AE109091AF10A091B010B2
:1031C000B091B1108CAB9DABAEABBFAB20919A1060
:1031D00030919B1040919C1050919D1028AF39AFB9
:1031E0004AAF5BAF80919E1090919F10A091A0106C
:1031F000B091A11024968CAF9DAFAEAFBFAF249716
:1032000020E030E0A901C701B6010E9477EF8823D2
:1032100009F4FDC4A301920168AD79AD8AAD9BADFF
:103220000E9477EF81110FC02CA93DA94EA95FA97B
:1032300024966CAD7DAD8EAD9FAD24970E9477EF47
:10324000882309F4E4C420E030E0A901C701B601F5
:103250000E9477EF881F8827881F18130BC020E073
:1032600030E040E85FE360962CAF3DAF4EAF5FAF1C
:1032700060970AC080E090E0A0E8BFEB60968CAF5A
:103280009DAFAEAFBFAF6097A301920168AD79ADBE
:103290008AAD9BAD0E948DF328966CAF7DAF8EAF4B
:1032A0009FAF28972CA93DA94EA95FA924966CAD84
:1032B0007DAD8EAD9FAD24970E948DF32C966CAFA3
:1032C0007DAF8EAF9FAF2C9728962CAD3DAD4EAD08
:1032D0005FAD2897CA01B9010E94DCEF4B015C0188
:1032E0002C962CAD3DAD4EAD5FAD2C97CA01B9010A
:1032F0000E94DCEF9B01AC01C501B4010E948EF37A
:103300000E94F9F56CAF7DAF8EAF9FAF20E030E04B
:1033100040E05FE30E94DCEF4B015C01A7019601F6
:10332000C701B6010E94DCEF6B017C01A50194018D
:10333000C501B4010E94DCEF9B01AC01C701B601DD
:103340000E948DF30E94F9F59B01AC0160966CAD73
:103350007DAD8EAD9FAD60970E94DCEF4B015C01AF
:1033600028AD39AD4AAD5BADC301B2010E948EF309
:1033700020E030E040E05FE30E94DCEF6B017C0185
:103380002C966CAD7DAD8EAD9FAD2C9790582CAD2D
:103390003DAD4EAD5FAD0E946AF49B01AC01C5012D
:1033A000B4010E94DCEF9B01AC01C701B6010E9491
:1033B0008EF3A30192010E948DF36B017C01249690
:1033C0002CAD3DAD4EAD5FAD24976CA97DA98EA906
:1033D0009FA90E948EF320E030E040E05FE30E946E
:1033E000DCEF2B013C012CAD3DAD4EAD5FAD289621
:1033F0006CAD7DAD8EAD9FAD28970E946AF49B01A8
:10340000AC01C501B4010E94DCEF9B01AC01C3011A
:10341000B2010E948EF32CA93DA94EA95FA90E947A
:103420008DF314C089E40E942838882329F00E9473
:10343000AE376B017C0103C0C12CD12C76018AE42C
:103440000E9428388823F9F00E94AE3724966CAF8A
:103450007DAF8EAF9FAF249720E030E0A901C70178
:10346000B6010E9477EF81111EC020E030E0A90173
:1034700024966CAD7DAD8EAD9FAD24970E9477EF05
:10348000811111C0C4C320E030E0A901C701B60119
:103490000E9477EF882309F4BAC324961CAE1DAEB0
:1034A0001EAE1FAE2497A701960150582CAB3DAB22
:1034B0004EAB5FAB24968CAD9DADAEADBFAD24974A
:1034C000B05888AF99AFAAAFBBAFCA01B9010E948B
:1034D000DCEF4B015C0128AD39AD4AAD5BADCA01F3
:1034E000B9010E94DCEF9B01AC01C501B4010E944F
:1034F0008EF30E94F9F56C966CAF7DAF8EAF9FAFE7
:103500006C972091AA103091AB104091AC10509163
:10351000AD102CAF3DAF4EAF5FAFA70196016CADC4
:103520007DAD8EAD9FAD0E948EF360966CAF7DAF8A
:103530008EAF9FAF60978091AE109091AF10A09129
:10354000B010B091B11028968CAF9DAFAEAFBFAFA9
:10355000289724962CAD3DAD4EAD5FAD2497BC01B0
:10356000CD010E948EF3A0966CAF7DAF8EAF9FAF62
:10357000A09720919A1030919B1040919C105091EF
:103580009D102C962CAF3DAF4EAF5FAF2C97609641
:103590002CAD3DAD4EAD5FAD60972C966CAD7DAD65
:1035A0008EAD9FAD2C970E948DF36B017C018091B5
:1035B0009E1090919F10A091A010B091A1106496C0
:1035C0008CAF9DAFAEAFBFAF6497A0962CAD3DADB5
:1035D0004EAD5FADA097BC01CD010E948DF34B01B4
:1035E0005C012091B2103091B3104091B410509111
:1035F000B51068962CAF3DAF4EAF5FAF6897609146
:10360000A2107091A3108091A4109091A5100E9417
:103610008DF32B013C018091A6109091A710A091F1
:10362000A810B091A910A8968CAF9DAFAEAFBFAF58
:10363000A8972091B6103091B7104091B8105091D2
:10364000B910A4962CAF3DAF4EAF5FAFA497A701C2
:1036500096016CA97DA98EA99FA90E94DCEFAC966A
:103660006CAF7DAF8EAF9FAFAC97A501940168ADF5
:1036700079AD8AAD9BAD0E94DCEF9B01AC01AC96AD
:103680006CAD7DAD8EAD9FADAC970E948EF3AC96C8
:103690006CAF7DAF8EAF9FAFAC97A50194016CA9C5
:1036A0007DA98EA99FA90E94DCEF4B015C01A701B7
:1036B000960168AD79AD8AAD9BAD0E94DCEF9B01B0
:1036C000AC01C501B4010E948DF3AC962CAD3DADAB
:1036D0004EAD5FADAC970E9401F46B017C0120E020
:1036E00030E0A9010E9477EF87FF0AC02BED3FE091
:1036F00049EC50E4C701B6010E948EF36B017C01D6
:10370000112351F02BED3FE049EC50E4C701B60125
:103710000E948DF36B017C0120E030E0A901C7011C
:10372000B6010E9477EF811126C02C962CAD3DADDD
:103730004EAD5FAD2C976CAD7DAD8EAD9FAD0E9453
:1037400077EF811118C064962CAD3DAD4EAD5FADE5
:10375000649728966CAD7DAD8EAD9FAD28970E9485
:1037600077EF811108C01BEDC12E1FE0D12E19EC9F
:10377000E12E10E4F12EA70196016C966CAD7DADA3
:103780008EAD9FAD6C970E94DCEF4B015C0120E099
:1037900030E0A901C301B2010E9477EF8823C9F08C
:1037A000A5019401C501B4010E94DCEF4B015C014D
:1037B000A3019201C301B2010E94DCEF9B01AC01A5
:1037C000C501B4010E948EF30E94F9F54B015C0122
:1037D0000DC020E030E0A901C501B4010E94B4F59C
:1037E00087FF04C0B7FAB094B7F8B0942FE632E17F
:1037F00043E85AE3C501B4010E9477EF87FF02C096
:103800000C945E31C501B4010E9403F50E94D7F407
:103810001B01672B19F422242394312CB10180E081
:1038200090E00E947BEF4B015C019B01AC01C70162
:10383000B6010E946AF46CAF7DAF8EAF9FAFA50159
:103840009401C301B2010E946AF46C966CAF7DAF23
:103850008EAF9FAF6C97A4962CAD3DAD4EAD5FADD6
:10386000A497A8966CAD7DAD8EAD9FADA8970E9434
:103870008DF3A50194010E946AF4A8966CAF7DAF08
:103880008EAF9FAFA8972CAD3DAD4EAD5FADCA01D9
:10389000B9010E94DCEF20E030E040E05FE30E94ED
:1038A000DCEF9B01AC0160E070E080E89FE30E94E8
:1038B0008DF364966CAF7DAF8EAF9FAF64976896C3
:1038C0008CAD9DADAEADBFAD689789879A87AB874C
:1038D000BC87A4962CAD3DAD4EAD5FADA4972D87B2
:1038E0003E874F87588B6091250270912602072EE4
:1038F000000C880B990B0E947DEF20910002309103
:10390000010240910202509103020E94DCEF2AE082
:1039100037ED43E25CE30E94DCEF68A779A78AA752
:103920009BA70E9408C49B01AC0128533F4F4F4FF7
:103930005F4F68962CAF3DAF4EAF5FAF68974CA816
:103940005DA86EA87FA841E050E02A965FAF4EAF19
:103950002A9759E125965FAF25972A962EAD3FAD60
:103960002A972215330509F427C10E9487A00E94D7
:1039700008C4DC01CB0168962CAD3DAD4EAD5FAD0A
:103980006897821B930BA40BB50BB7FD11C00E9467
:1039900008C49B01AC0128533F4F4F4F5F4F6896BF
:1039A0002CAF3DAF4EAF5FAF689780E00E94F9DC6F
:1039B00025963FAD2597315025963FAF2597332368
:1039C00009F441C064962CAD3DAD4EAD5FAD64973A
:1039D00068AD79AD8AAD9BAD0E94DCEF6B017C01D7
:1039E0002CAD3DAD4EAD5FADB201C3010E94DCEF29
:1039F000A70196010E948EF37B018C0164962CAD89
:103A00003DAD4EAD5FAD6497B201C3010E94DCEFE6
:103A10004B015C012CAD3DAD4EAD5FAD68AD79ADF8
:103A20008AAD9BAD0E94DCEF9B01AC01C501B401E6
:103A30000E948DF32B013C01C701D80188AF99AFDB
:103A4000AAAFBBAF59C02A964EAD5FAD2A97BA0157
:103A500080E090E00E947BEF2CAD3DAD4EAD5FADC0
:103A60000E94DCEF4B015C010E9467F46B017C015A
:103A7000C501B4010E94EFF54B015C01A70196015D
:103A80006CA97DA98EA99FA90E94DCEF2B013C01A6
:103A9000A501940124966CAD7DAD8EAD9FAD2497AC
:103AA0000E94DCEF9B01AC01C301B2010E948EF3C6
:103AB0002B013C01A50194016CA97DA98EA99FA9A8
:103AC0000E94DCEF4B015C01A701960124966CADCE
:103AD0007DAD8EAD9FAD24970E94DCEF9B01AC01C4
:103AE000C501B4010E948DF368AF79AF8AAF9BAF77
:103AF00059E125965FAF25979201A30160966CADC1
:103B00007DAD8EAD9FAD60970E948EF369837A8301
:103B10008B839C8328AD39AD4AAD5BADA0966CAD6F
:103B20007DAD8EAD9FADA0970E948EF36D837E8399
:103B30008F8398876C962CAD3DAD4EAD5FAD6C9785
:103B400069857A858B859C850E948EF369877A8743
:103B50008B879C87A8962CAD3DAD4EAD5FADA897E9
:103B60006D857E858F8598890E948EF36D877E870F
:103B70008F87988B80913302882321F0CE010196A4
:103B80000E9452C0E090CB1018A219A21AA21BA248
:103B9000CE0180966C018E01085D1F4F9E01235F50
:103BA0003F4FAE01475F5F4FBE016B5F7F4F4F9747
:103BB0000E947D41811121C0E090CB101CA21DA26A
:103BC0001EA21FA2DE0194966D018E01085D1F4F9B
:103BD00026EA30E142EA50E16EE970E18AE990E1DB
:103BE0000E947D4180E1EAE9F0E1AAEAB0E10190BA
:103BF0000D928A95E1F70C945E312A96EEADFFADF9
:103C00002A9731962A96FFAFEEAF2A97A6CEEBE21F
:103C1000FCE084918F010F5F1F4F882321F00E94E9
:103C20004639F801F6CFE7E2F2E084918F010F5FA9
:103C30001F4F882311F40C945E310E944639F8011D
:103C4000F4CF80E50E942838882329F00E946E373F
:103C50006B017C0103C0C12CD12C760183E50E944D
:103C60002838882361F00E94AE3720E030E04AE730
:103C700054E40E94DCEF0E94D7F46B017C010E94A7
:103C8000FFD78091510B811105C060E08DE392E078
:103C90000E94E4B40E9408C4C60ED71EE81EF91E96
:103CA0000E9408C4DC01CB018C199D09AE09BF0933
:103CB000B7FD02C00C945E3180E00E94F9DCF0CFC9
:103CC0000E94AA7081110C945E3180E090E0A0EA1D
:103CD000B0E489839A83AB83BC8380E090E0ADE459
:103CE000B3E48D839E83AF83B88780E090E0A0EA41
:103CF000B1E489879A87AB87BC8780E50E94283822
:103D0000882319F00E947E3701C060E068A3BE01DD
:103D10006F5F7F4FCE0180960E943CDB0C945E313A
:103D20008091D50E8770873071F48FE40E94283817
:103D3000882319F00E949F3703C08FE40E94E13767
:103D400081110C945E310E94FFD780910002909106
:103D50000102A0910202B091030280936D0390933F
:103D60006E03A0936F03B09370038091250290912E
:103D7000260290936C0380936B0384E690E090930B
:103D800026028093250211E01093D40E88E50E944C
:103D9000E137E82E89E50E94E137082F8AE50E9485
:103DA000E137F82EE11004C0011104C0182705C046
:103DB000011102C010E001C0182F0E94DC3882E51A
:103DC0000E942838882391F10E94AE374B015C0194
:103DD00020E030E0A9010E9477EF882339F111112A
:103DE00004C0E11002C0002391F18092A2109092D1
:103DF000A310A092A410B092A5102091B2103091FF
:103E0000B3104091B4105091B510C501B4010E9497
:103E1000B4F518165CF419821A821B821C82BE014A
:103E20006F5F7F4F82EA90E10E94F535111105C066
:103E3000E11003C0011106C00AC080E00E94E4C086
:103E40001123C1F381E00E94E4C0111102C0FF20E0
:103E500019F082E00E94E4C00E94C6368091D30E21
:103E60008093D40E80916D0390916E03A0916F03A7
:103E7000B09170038093000290930102A09302021C
:103E8000B093030280916B0390916C039093260290
:103E90008093250283E0809304020E94AE3E0C943E
:103EA0005E3110926A030C945E3120936A030C9485
:103EB0005E310E94AE372B013C01133059F0F701FF
:103EC000ED5DFE4E20813181428153810E948DF350
:103ED0002B013C01F701E655FF4E208131814281E3
:103EE0005381C301B2010E948DF34B015C012DEBA4
:103EF00037E346E855EB0E94B4F587FD1BC02DEB78
:103F000037E346E855E3C501B4010E9477EF181680
:103F10008CF01F5FB4E0CB0ED11CE4E0EE0EF11C80
:103F2000143039F1D1018D911D010E942838882368
:103F300081F3BFCF133051F44092B6105092B710B6
:103F40006092B8107092B91001E0E3CFA50194011E
:103F5000F60160817181828193810E948EF3D60186
:103F60006D937D938D939C931397812F0E941336AD
:103F7000D0CF002321F086EB90E10E944C710E948B
:103F8000AE3E0C945E310E9475740C945E3180914B
:103F90000E1490910F148337910511F40C94A52AF7
:103FA0000CF0CCC08B34910509F448C50CF06CC002
:103FB0008831910509F497C2D4F58231910511F445
:103FC0000C949229DCF497FF02C00C9417318230D4
:103FD00091050CF4B2C1419711F00C94173160E0D7
:103FE00089E592E00E94E4B45F988A988091080184
:103FF00081708093060112980C945E318531910591
:1040000009F456C23CF4449711F00C941731E1E7DF
:10401000F2E00DC28631910509F44EC2479711F0C6
:104020000C941731E0910C14F0910D144FC28D31A6
:10403000910511F40C945E31C4F48A31910509F4B0
:104040008AC20CF47AC28B31910509F492C24C9762
:1040500011F00C94173140E060E080910C149091C5
:104060000D140E94D05A0C945E318F31910509F4E1
:10407000F7C30CF418C38032910509F4A5C38A97DD
:1040800009F494C40C9417318936910509F4AAC532
:104090006CF58335910511F40C948F29A4F48D34BB
:1040A000910509F4D3C40CF4CDC48135910511F404
:1040B0000C947B298235910511F00C9417311092E4
:1040C00069030C945E318535910511F40C94C52972
:1040D00014F40C9492298C35910511F40C94DE297A
:1040E0008836910509F4B6C40C9417318E369105C3
:1040F00009F4DFC494F48B36910511F40C94E32891
:1041000014F40C94DF288C36910509F433C58D36F0
:10411000910509F4A9C50C9417318037910509F46C
:104120002DC50CF4D9C48137910509F42FC5823708
:10413000910511F40C94662A0C9417318D3D91056C
:1041400011F40C94162F0CF073C08B39910509F4FF
:1041500064C58CF58837910511F40C945F2B7CF4C1
:104160008637910511F40C940F2B14F00C945C2BF2
:104170008537910511F40C94022B0C9417318D376F
:10418000910511F40C94F5285CF48937910511F030
:104190000C9417311092D40E1092D30E0C945E3101
:1041A0008C38910509F435C78139910511F40C94C7
:1041B000642B0C9417318C3C910511F40C94572C02
:1041C0000CF5883C910511F40C94DB2B34F48E3BF8
:1041D000910509F43CC70C941731893C910511F401
:1041E0000C94212C8B3C910511F00C94173150E16B
:1041F000E52E54E0F52E05E512E064E0D62ED00E53
:104200000C94482C8E3C910511F40C94372D14F429
:104210000C94CC2C833D910511F40C94362E8C3DDE
:10422000910511F00C9417310E9434380C945E31D2
:10423000843FF1E09F0711F40C94252F0CF042C04D
:104240008F3231E0930711F40C941F2FFCF48C3261
:1042500051E0950711F40C94192F4CF4823E91050E
:1042600011F00C9417310E94A7CC0C945E318D3262
:10427000B1E09B0711F40C941C2F8E32914011F089
:104280000C9417310E9479CB0C945E318039F1E0A7
:104290009F0711F40C94222F4CF48336914011F0B7
:1042A0000C9417310E943CC60C945E318A3941E06F
:1042B000940709F467C48C3A914011F40C94592D79
:1042C0000C9417318835A2E09A0711F40C94542FFE
:1042D000B4F4863FE1E09E0711F40C942B2F14F404
:1042E0000C94282F873F21E0920711F40C942E2F75
:1042F000883F914011F40C94312F0C9417318B3876
:1043000043E0940711F40C945E314CF48B359240E9
:1043100011F00C9417310E9457C60C945E31803A0C
:10432000B3E09B0709F48FC2873E934011F00C94D1
:1043300017310E9427C60C945E31A0900C14B090E7
:104340000D1480E50E942838882359F00E946E37AA
:104350006B017C0111E0672B682B692B31F410E0B5
:1043600004C010E0C12CD12C760183E50E942838CE
:10437000882311F40C9448320E94AE3720E030E0DC
:104380004AE754E40E94DCEF0E94D7F46B017C0101
:1043900011110BC0672B682B692B39F4A114B104E0
:1043A00021F0D5018C91811102C010E001C011E013
:1043B0000E94FFD7112329F061E0C5010E941EB5BC
:1043C00005C060E086E492E00E94E4B483E080935C
:1043D000971081E080939610C114D104E104F10498
:1043E000F1F00E9408C4C60ED71EE81EF91E0E94F6
:1043F00008C4DC01CB018C199D09AE09BF09B7FDCA
:1044000006C00E94737A109296100C945E318091CF
:1044100096108823B1F380E00E94F9DCE8CF809108
:104420009610882371F380E00E94F9DCF8CF849124
:104430008F010F5F1F4F882321F00E944639F8013A
:10444000F6CF1092960E40E050E0BA0189E49CE06D
:104450000E94027F8BE1E9E4FCE0DE011596019009
:104460000D928A95E1F78091470C9091480C9C83BE
:104470008B8383E692E09A83898340E050E0BE011B
:104480006F5F7F4F80E090E00E94A758CE010196B9
:104490000E94E7C1E2E6F2E084918F010F5F1F4FB7
:1044A000882311F40C945E310E944639F801F4CF50
:1044B0000E940D400C945E311092F20B1092F30B9F
:1044C0000C945E31803209F4108231968081811122
:1044D000F9CF40E061E080910C1490910D140E949E
:1044E000D05A0C945E3180E090E0A8E4B2E4898375
:1044F0009A83AB83BC8318A219A21AA21BA21CA286
:104500001DA21EA21FA28091680B882359F020E0F3
:10451000AE014F5F5F4FBE01605E7F4FCE0184965C
:104520000E94D8728091F30B882319F081E0809368
:10453000F20B0E9454A20C945E311092F20B0E9476
:104540008DA282E892E090938E1080938D100E944D
:1045500067360C945E318091F30B882311F40C9430
:104560005E3183E50E94283881110C944D320C9401
:104570005E3183E40E94E137882309F454C0E4EB00
:10458000F2E084918F010F5F1F4F882321F00E947A
:104590004639F801F6CF8091E40D882391F0BE01F1
:1045A0006F5F7F4F81EE9DE00E94C7BD8E010F5F60
:1045B0001F4FF80181918F01882381F10E944639B4
:1045C000F8CFE7E8F2E084918F010F5F1F4F882357
:1045D00029F10E944639F801F6CF80911709882306
:1045E00009F4BBC25FE5C52E53E0D52EE12CF12CBA
:1045F00020E08091170990E00E2C02C095958795D8
:104600000A94E2F780FD91C2FFEFEF1AFF0A32E051
:10461000C30ED11C45E0E416F10459F78AE00E946C
:1046200046390C945E318091F30B882371F18091AF
:10463000F20B882351F1E1E9F2E084918F010F5FE1
:104640001F4F882321F00E944639F801F6CF609170
:10465000920E7091930E8091940E9091950E4AE077
:104660000E94463D8FE20E94463960918E0E709105
:104670008F0E8091900E9091910E4AE00E94463DDF
:104680008AE00E9446390C945E31E3EAF2E08491BC
:104690008F010F5F1F4F882311F40C945E310E942D
:1046A0004639F801F4CF8091F30B882311F40C9470
:1046B0005E3181EE9DE00E94D07E81EE9DE00E9401
:1046C000B1BC1092F10B1092F00B00910C141091F0
:1046D0000D148091F30B882311F40C945E310E9429
:1046E000AC57B801CE0180960E94F4568C01892BFC
:1046F00011F40C945E3168A179A16115710511F076
:104700006C5F7F4F19821C8222E0A801CE010196C6
:104710000E94BABC811102C0F12C14C0CE010196D6
:104720000E9462568823C1F361E0CE0101960E9487
:10473000ABBD009789F325EEDC012C931C820E940F
:10474000E17CF82ECE0101960E94D638FF2011F1AF
:10475000E3ECF2E084917F01BFEFEB1AFB0A8823C0
:1047600021F00E944639F701F5CFF80181918F01C0
:10477000882319F00E944639F8CF8AE00E94463912
:104780001092920E1092930E1092940E1092950E1B
:104790000C945E31E1EDF2E084917F012FEFE21A9B
:1047A000F20A882321F00E944639F701F5CFD8019B
:1047B0008D918D01882319F00E944639F8CF8EE241
:1047C0000E9446390C945E318091F20B81110E9457
:1047D000FFD78091F30B882311F40C945E3180E5B0
:1047E0000E942838882319F00E949F3703C080E573
:1047F0000E94E137182F482F61E080910C149091AE
:104800000D140E94D05A83E50E942838882381F035
:104810000E947E37AB01BC014093920E5093930EE1
:104820006093940E7093950E81EE9DE00E94027F3E
:104830008091F30B882319F081E08093F20B111122
:104840000C945E3176CE80910C1490910D1421E081
:104850002093F10B40E060E00E94D05A0C945E314E
:104860000E9420A2ECE3CE2ED12CE12CF12CA7014A
:1048700096010E9452F3762E672ECA01B901A70154
:1048800096010E9452F36B017C01CA01B90128E133
:1048900030E040E050E00E9452F34B015C01C9015E
:1048A0006DE671E00E9452F68E010F5F1F4F611599
:1048B000710599F06F927F92DF92CF929F928F92C3
:1048C0009F938F937F936F9381E193E09F938F9357
:1048D0001F930F930E9410EF12C00097B1F06F92D8
:1048E0007F92DF92CF929F928F929F938F9381E0DE
:1048F00093E09F938F931F930F930E9410EF0FB637
:10490000F894DEBF0FBECDBF36C081149104A10460
:10491000B10479F06F927F92DF92CF929F928F9243
:1049200085EF92E09F938F931F930F930E9410EF58
:10493000E6CFC114D104E104F10469F06F927F92D3
:10494000DF92CF928DEE92E09F938F931F930F9300
:104950000E9410EFD4CF6F927F9289EE92E09F93E6
:104960008F931F930F930E9410EF0F900F900F9053
:104970000F900F900F9060E0C8010E941EB5E6E412
:10498000FCE084917F019FEFE91AF90A882321F066
:104990000E944639F701F5CFB80185E293E00E9405
:1049A000E5998AE00E9446390C945E3183E50E94C5
:1049B0002838882311F40C945E310E948E37E82E3B
:1049C00080E50E942838882339F00E948E37182FFE
:1049D00087FF03C00C945E311DE089E40E942838F3
:1049E000882349F00E949F37811111C0E2E3F3E070
:1049F0008DE28E0F07C089E40E94E137F5CF319632
:104A00008E1729F094911913FACF0C94B43361E006
:104A1000812F0E94CCC26E2D812F0E941D70F12C1F
:104A2000B701812F0E9408C3193011F00C945E3138
:104A3000F0924104E09240040C945E310E9454A232
:104A40000C945E310E948DA20C945E310E940692FD
:104A50000C945E3188E690E00E94AC3D81110C948C
:104A60005E318091170983FF02C00C945E3183E5AB
:104A70000E9428388823C9F00E94AE370E94D2F4E1
:104A80007093CD106093CC1080E00E94229C0E9415
:104A9000AE3720E030E040EA52E40E9477EF18168B
:104AA00024F00E9406920E94737A0E94CCEA0C9431
:104AB0005E318EE40E942838882311F40C945E3114
:104AC0000E947E3760934D0B70934E0B80934F0B7B
:104AD0009093500B0C945E3183E50E94E13788235C
:104AE00059F083E50E942838882319F00E948E37F8
:104AF00001C080E080931709E6E4FCE084918F0117
:104B00000F5F1F4F882321F00E944639F801F6CF2E
:104B1000EDE6F3E084918F010F5F1F4F882309F4C6
:104B20005CCD0E944639F801F5CFBB24B394B20E98
:104B3000222319F08CE20E944639F6012591349126
:104B4000F901849189010F5F1F4F882321F00E9492
:104B500046399801F5CF2B2D57CDE9E6F3E0849146
:104B60008F010F5F1F4F882309F458CD0E944639EB
:104B7000F801F5CF109222020C945E3184E793E0A5
:104B80000E948ADC0E94EFC60C945E3183E50E948D
:104B90002838882369F00E948E378D3320F4809363
:104BA00050020C945E318CE3809350020C945E3181
:104BB000E6E4FCE084918F010F5F1F4F882321F012
:104BC0000E944639F801F6CF4091500250E060E073
:104BD00070E08DE793E00E9492998AE00E94463946
:104BE0000C945E3189E690E00E94AC3D811111C0C9
:104BF000E4E8F3E084918F010F5F1F4F882321F0D9
:104C00000E944639F801F6CF0E940CAE8AE00E945D
:104C10004639109297100C94B63383E50E942838D9
:104C2000882311F40C945E310E948E37182F8D3337
:104C300008F01CE31093D9130E9408C46B017C0197
:104C4000212F30E0A8EEB3E00E947EF3C60ED71EFF
:104C5000E81EF91EC092D513D092D613E092D71356
:104C6000F092D8130C945E318DE690E00E94AC3D3A
:104C700081110C945E318091170983FF02C00C945E
:104C80005E3183E50E9428388CAB811105C082E536
:104C90000E9428388823E1F10E94AE370E94D2F4A6
:104CA0007093CD106093CC1080E00E94229C0E94F3
:104CB000AE3720E030E040EA52E40E9477EF181669
:104CC00014F40C945D320E9406920E94737A6091F3
:104CD000CC107091CD10072E000C880B990B0E9400
:104CE0007DEF20914304309144044091450450915C
:104CF00046040E94B4F5181614F40C9461325CA9B1
:104D0000511105C08BE893E060E00E94E4B481E0BB
:104D1000AD968FAFAD970E94CCEAAD968FADAD97B3
:104D2000882311F40C945E3181E080932202249652
:104D30001CAE1DAE1EAE1FAE2497A0961CAE1DAEBF
:104D40001EAE1FAEA09718AE61961FAE61978CE3A2
:104D500065968FAF65979CE1A1969FAFA197A6E45A
:104D60006996AFAF6997C12CD12C30E8E32E4FEB99
:104D7000F42E812C912C54016091CC107091CD10A7
:104D8000072E000C880B990B0E947DEF162F072F22
:104D9000782E692E262F372F482F592FB601C7019D
:104DA0000E9477EF8823C1F020914304309144049E
:104DB0004091450450914604612F702F872D962D08
:104DC0000E9477EF881F8827881F88AFBCA9BB2364
:104DD00039F0882329F0E9C11C2D0D2D7E2C6F2C74
:104DE0000E9408C46B017C01DC01CB01A0962CADB4
:104DF0003DAD4EAD5FADA097821B930BA40BB50BE1
:104E0000B7FD3DC0D701C60188519C4FAF4FBF4F82
:104E1000A0968CAF9DAFAEAFBFAFA0970E940CAE77
:104E2000E7E8F3E084912F019FEF491A590A88239C
:104E300021F00E944639F201F5CF81149104A104BA
:104E4000B104B9F0D501C401805F984DAF4FBF4F99
:104E5000BC01CD016C197D098E099F0928EE33E054
:104E600040E050E00E9452F3CA01B9010E94553E51
:104E700003C08FE30E9446398AE00E94463980E0F1
:104E80000E94F9DC0E9408C46093CD137093CE1386
:104E90008093CF139093D013A0914304ACAFB09103
:104EA00044042596BFAF2597E09145042996EFAFBE
:104EB0002997F09146042D96FFAF2D979D01AF01E4
:104EC000612F702F872D962D0E948DF31B012C01D1
:104ED00020E030E0A9010E94B4F587FF04C057FA32
:104EE000509457F8509481149104A104B10459F4DA
:104EF00020E030E040E85FE3C201B1010E9477EFBB
:104F000087FF0DC00AC020E030E040E450E4C20159
:104F1000B1010E94B4F5181614F44601570128ADEA
:104F2000222309F45AC024968CAD9DADAEADBFAD21
:104F30002497892B8A2B8B2B71F0D701C6012496DD
:104F40002CAD3DAD4EAD5FAD2497821B930BA40BF2
:104F5000B50BB7FD42C02CAD25963FAD25972996E0
:104F60004FAD29972D965FAD2D9761966FAD6197E7
:104F700065967FAD6597A1968FADA19769969FAD18
:104F800069970E948DF320E030E040EC5FE30E94DF
:104F900077EF87FD0AC1D701C601805A9541AF4F0F
:104FA000BF4F24968CAF9DAFAEAFBFAF24979CADE3
:104FB00061969FAF61972596AFAD25976596AFAF88
:104FC00065972996BFAD2997A196BFAFA1972D965A
:104FD000EFAD2D976996EFAF6997809122028823F4
:104FE00009F4E3C081149104A104B10429F4C12E91
:104FF000D02EE72CF62CC0CEF0E1CF1AF7E2DF0A74
:10500000E108F108C818D908EA08FB08F7FECDC086
:10501000EECF8091170983FF02C00C945E3183E5C7
:105020000E942838882311F40C945E310E94AE3718
:105030000E94D2F46639710514F066E970E070934D
:105040008C1060938B100E94D79B0C945E318091E2
:10505000170983FF02C00C945E3183E50E94283853
:105060002D968FAF2D97811107C082E50E942838B9
:10507000882311F40C945E310E94AE370E94D2F462
:105080006639710514F00C94833370938C1060931F
:105090008B100E94D79B0E94AE3720E030E040EAA0
:1050A00050E40E94B4F5181614F40E9454A26091C2
:1050B0008B1070918C10072E000C880B990B0E949E
:1050C0007DEF2091E9103091EA104091EB10509162
:1050D000EC100E94B4F5181614F40C94653289EAA9
:1050E00093E060E00E94E4B481E08093220280912A
:1050F000CB108093FF1118AE19AE1AAE1BAEA0965E
:105100001CAE1DAE1EAE1FAEA0971CAA61961FAEB0
:1051100061972CE365962FAF65973CE1A1963FAF71
:10512000A19746E469964FAF6997C12CD12C90E8BE
:10513000E92E2FEBF22E812C912C540160918B10D3
:1051400070918C10072E000C880B990B0E947DEF3C
:10515000162F072F782E692E262F372F482F592FDD
:10516000B601C7010E9477EF882311F40C946932CD
:105170002091E9103091EA104091EB105091EC1021
:10518000612F702F872D962D0E9477EF881F88271B
:10519000881F8CAB2D965FAD2D97552311F40C9481
:1051A0006D32882311F40C946D3280912202882391
:1051B00011F40C945E310E94737A0C945E310E945B
:1051C0003E380C945E3180E50E942838811106C07B
:1051D00010924104109240040C945E310E947E377C
:1051E000672B11F00C945E31F3CF8CE40E94E13711
:1051F000882381F00E94AE376B017C0120E030E013
:10520000A9010E94B4F587FF0AC0F7FAF094F7F8F5
:10521000F09405C0C12CD12CE12C80E4F82EF7FAD3
:10522000F094F7F8F094CCA2DDA2EEA2FFA280E009
:1052300090E0A0EAB0E489839A83AB83BC8380E0EA
:1052400090E0ADE4B3E48D839E83AF83B88780E0C4
:1052500090E0A0EAB1E489879A87AB87BC8788E5AC
:105260000E942838882379F088E50E94283888230E
:1052700019F00E94AE3703C060E070E0CB01698393
:105280007A838B839C8389E50E942838882379F070
:1052900089E50E942838882319F00E94AE3703C0A0
:1052A00060E070E0CB016D837E838F8398878AE511
:1052B0000E942838882379F08AE50E9428388823BC
:1052C00019F00E94AE3703C060E070E0CB0169873F
:1052D0007A878B879C8718A219A21AA21BA220E0AA
:1052E000AE01405E5F4FBE016F5F7F4FCE0184967F
:1052F0000E946939E3C70E946D9C0E9412D91092E6
:1053000041041092400468EE73E080E090E00E9457
:10531000F6B360E087EC93E00E94E4B4CFC720933B
:105320006903CCC783E50E942838882399F00E943E
:10533000AE3720E030E04AE754E40E94DCEF0E9400
:10534000D7F460935102709352028093530290936A
:105350005402B4C788E50E94E13781110C94873369
:1053600089E50E94E13781110C9487338AE50E9418
:10537000E13781110C94873385E40E94E137811174
:105380000C9487330E9412D999C783E50E94E137B4
:10539000882309F493C70E94AE3720E030E04AE743
:1053A00054E40E94DCEF0E94D7F46093D113709311
:1053B000D2138093D3139093D41380C715E5C12ED5
:1053C00012E0D12E08E1E02E09E0F02E10E0D60127
:1053D0008D916D010E94E137882309F46DC013306F
:1053E00009F063C00E94AE374B015C0120E030E061
:1053F00040EA51E40E9477EF87FF4EC0A501940177
:1054000060912409709125098091260990912709BE
:105410000E946AF42B013C019B01AC016091EC03FA
:105420007091ED038091EE039091EF030E94DCEF09
:105430006093EC037093ED038093EE039093EF037E
:10544000A301920160911C0470911D0480911E04BF
:1054500090911F040E94DCEF60931C0470931D0464
:1054600080931E0490931F046091FC037091FD03D0
:105470008091FE039091FF030E947BEFA3019201B4
:105480000E94DCEF0E94D7F46093FC037093FD034D
:105490008093FE039093FF03809224099092250944
:1054A000A0922609B092270907C00E94AE37F701E3
:1054B00060837183828393831F5FF4E0EF0EF11C9E
:1054C000143009F084CF0E94E8D8F8C60E94FFD7B4
:1054D00083E50E942838882311F40C94BF1F0E9492
:1054E0007E376230710511F00C94BF1F0E9474E08A
:1054F0008BE50E9446396091C1137091C21380916F
:10550000C3139091C41342E00E94723F4091C513AF
:105510005091C6136091C7137091C8138AED93E040
:105520000E94AF994091C9135091CA136091CB1357
:105530007091CC1387ED93E00E94AF998DE50E94A6
:1055400046398AE00E944639B9C6ECEBF4E0849112
:105550008F010F5F1F4F882321F00E944639F80109
:10556000F6CF60E08CEA94E00E946F3E61E085EA4D
:1055700094E00E946F3E61E08AE994E00E946F3EF1
:1055800061E08AE894E00E946F3E60E081E894E088
:105590000E946F3E61E087E794E00E946F3E60E00A
:1055A0008DE694E00E946F3E60E085E694E00E9404
:1055B0006F3E60E087E594E00E946F3E60E089E422
:1055C00094E00E946F3E60E08AE394E00E946F3EA8
:1055D00060E08CE294E00E946F3E60E086E194E03F
:1055E0000E946F3E60E085E094E00E946F3E60E0C4
:1055F00080EF93E00E946F3E61E08DED93E00E94AA
:105600006F3E5CC680910C1490910D14DC012C91BE
:10561000222309F4D0CD60E00E941EB54FC6009150
:105620000C1410910D1483E0D12C40E08150E1F076
:10563000F8019081292F2B7F2134C1F7218121335B
:10564000A9F7913421F0953421F441E002C0DD2422
:10565000D39498012E5F3F4F89012F5F3F4FD801B0
:105660009C919032C9F3E2CF442369F0E6E4FCE078
:1056700084917F01BFEFEB1AFB0A882321F00E947F
:105680004639F701F5CFDD2069F0E2E9F5E08491D4
:105690007F012FEFE21AF20A882321F00E94463997
:1056A000F701F5CFD8018D918D01882311F40C9469
:1056B0000E230E944639F6CF0E943DDCFFC52093A1
:1056C000D40E2093D30EFAC583E50E942838882390
:1056D00019F00E947E3702C060E070E08B01112754
:1056E00002301105CCF0EBE2FCE084918F010F5FFA
:1056F0001F4F882321F00E944639F801F6CFE6E9D2
:10570000F5E084918F010F5F1F4F882309F4D6C500
:105710000E944639F801F5CF88E40E942838882392
:10572000A9F00E947E37603A71053CF06530B1E027
:105730007B072CF064E071E002C060EA70E0F801E1
:10574000EE0FFF1FE155F14F7183608386E40E94E5
:1057500028388823A9F00E947E37F801EE0FFF1F3A
:10576000ED54F14F718360836F3F710519F014F0B0
:105770006FEF70E077FF02C060E070E071836083DC
:1057800082E40E942838882309F498C50E947E3755
:105790006530710534F0683871052CF067E870E009
:1057A00002C065E070E0000F111FF801E555F14FF0
:1057B0007183608383C588EC90E00E94AC3D8111C9
:1057C0007DC584E40E94E1378823C1F10E94AE3791
:1057D00011E020E030E0A9010E9477EF811101C0C3
:1057E00010E010933B09112349F10E94AE37E0917C
:1057F000FF1124E0E29FF0011124E95CF64F608381
:1058000071838283938320E030E0A901609137099E
:10581000709138098091390990913A090E9477EF87
:1058200081110CC080E090E0A0EEBFE380933709C7
:1058300090933809A0933909B0933A090E949FD6F2
:105840003DC57DEEE72E71E1F72E05E512E0E4E0BF
:10585000DE2ED00ED8018D918D010E94E137882374
:1058600049F00E94AE370E94D7F4F701608371833C
:1058700082839383F4E0EF0EF11CD012EBCF0E94F1
:1058800037D71CC5F4E0EF0EF11CD01609F416C58D
:10589000D8018D918D010E94E137882399F30E94F0
:1058A000AE37F7016083718382839383EBCF83E507
:1058B0000E9428388823A1F00E94AE376093080424
:1058C0007093090480930A0490930B04609304047A
:1058D00070930504809306049093070410E001C0C0
:1058E00011E080E50E942838882359F00E94AE37E5
:1058F000609308047093090480930A0490930B0446
:1059000010E082E50E942838882359F00E94AE37C3
:1059100060930C0470930D0480930E0490930F0415
:1059200010E084E50E942838882359F00E94AE37A1
:105930006093040470930504809306049093070415
:10594000BDC4112309F4BAC440910804509109045C
:1059500060910A0470910B048EEB95E00E94AF9960
:1059600040910C0450910D0460910E0470910F044D
:105970008BEB95E00E94AF9940910404509105048F
:10598000609106047091070488EB95E00E94AF993E
:105990008AE00E94463992C481E50E94E13788235B
:1059A00051F00E946E376093240470932504809315
:1059B00026049093270483E50E94E137882351F061
:1059C0000E94AE3760933C0470933D0480933E0484
:1059D00090933F0484E50E94E137882351F00E94B0
:1059E000AE37609338047093390480933A049093EF
:1059F0003B0488E50E94E137882351F00E94AE37CE
:105A00006093E0037093E1038093E2039093E303D8
:105A100089E50E94E137882351F00E94AE376093F8
:105A2000E4037093E5038093E6039093E7038AE52C
:105A30000E94E137882351F00E94AE376093E8035B
:105A40007093E9038093EA039093EB0385E40E944B
:105A5000E137882309F432C40E94AE376093EC0327
:105A60007093ED038093EE039093EF0327C435E525
:105A7000C32E32E0D32E46EDE42E4EE0F42E10E09D
:105A8000D6018D916D010E94E137882351F00E946B
:105A9000AE37F7016083718382839383812F0E94E5
:105AA00013361F5FF4E0EF0EF11C133049F70C942E
:105AB000BF1F0E94AA70811101C425EA822E28E22C
:105AC000922E2AEA30E13DAB2CABAE014F5F5F4F27
:105AD0005A010EEF18E21A0153E0500F58AFF401CB
