:100000000C9454180C9485180C9485180C9485182D
:100010000C9485180C9485180C9485180C948518EC
:100020000C9485180C9485180C9485180C948518DC
:100030000C9485180C9485180C9485180C948518CC
:100040000C9485180C94BE480C9485180C94851853
:100050000C9485180C9485180C941EBC0C94E8AF75
:100060000C9485180C94283F0C9485180C948518D2
:100070000C9485180C9485180C9485180C9485188C
:100080000C9485180C9485180C9485180C9485187C
:100090000C9485180C9485180C9485180C9485186C
:1000A0000C9485180C9485180C9485180C9485185C
:1000B0000C9485180C9485180C9485180C9485184C
:1000C0000C9485180C9485180C9485180C9485183C
:1000D0000C9485180C9485180C9485180C9485182C
:1000E0000C9485180599EB98EE98F198F49800997E
:1000F000F7981199FA98FD9865AE68AE57AE5BAE69
:1001000061AE9FAE6CAE70AE76AE7AAE7EAE84AEB1
:1001100088AE8CAE9FAE92AE96AE9AAE04AF09AFEB
:100120000EAF18AF22AF9BAF2CAF34AF3CAF46AF92
:1001300050AF5AAF69AF73AF9BAF7DAF87AF91AF91
:10014000084AD73B3BCE016E84BCBFFDC12F3D6C3E
:1001500074319ABD56833DDA3D00C77F11BED9E4A4
:10016000BB4C3E916BAAAABE000000803F05A84C84
:10017000CDB2D44EB93836A9020C50B99186880850
:100180003CA6AAAA2ABE000000803F004E414E496C
:100190004E495459494E46CDCCCC3D0AD7233C1745
:1001A000B7D13877CC2B329595E6241FB14F0A0092
:1001B0000020410000C84200401C4620BCBE4CCA82
:1001C0001B0E5AAEC59D74434F4D4D554E4943418C
:1001D00054494F4E0044525952554E004552524FC9
:1001E000525300494E464F004543484F0020746F1C
:1001F0006F206C6F6E6720657874727573696F6EAF
:100200002070726576656E7465640A0020636F6C99
:100210006420657874727573696F6E20707265768C
:10022000656E7465640A0047322F4733206261644B
:1002300020706172616D65746572730A00536C653C
:1002400065702E2E2E00436C69636B20746F2072D4
:100250006573756D652E2E2E004E6F206D6F766561
:100260002E00456E642066696C65206C6973740AA3
:1002700000426567696E2066696C65206C697374FD
:100280000A004D31323500286E6F2066696C652991
:10029000005344207072696E74696E6720627974CD
:1002A0006520004E6F74205344207072696E74692B
:1002B0006E670A0043757272656E742066696C65BC
:1002C0003A200046696C652064656C657465643A23
:1002D0000044656C6574696F6E206661696C656465
:1002E0002C2046696C653A20002569730025696DEC
:1002F00020256973002569682025696D20256973AB
:1003000000256964202569682025696D20256973A9
:100310000025697920256964202569682025696D93
:1003200020256973005072696E742074696D653A96
:100330002000E801E301DC01D501C7016F6666001A
:1003400044454255473A004B494C4C45442E200009
:100350004D3131332053006F6B0020573A00452058
:10036000436F6F6C696E672E2E2E004520486561C5
:1003700074696E672E2E2E0020573A004265642065
:10038000636F6F6C696E672E2E2E00426564206865
:10039000656174696E672E2E2E0033442050726999
:1003A0006E746572204F66662E002C20002C200093
:1003B0004D31343520533C696E6465783E206F754D
:1003C00074206F662072616E67652028302D312998
:1003D0000A00205400205200416363656C6572611D
:1003E00074696F6E3A2050004F66667365747320AF
:1003F0006170706C696564004572723A20546F6F69
:10040000206661722100546F6F20666172206672EF
:100410006F6D207265666572656E636520706F69C9
:100420006E740A00205A00205900580020204D61A7
:10043000783A2000205A00205900580020204D69A9
:100440006E3A20004F6E20004F666600536F667450
:1004500020656E6473746F70733A200020466C6F71
:10046000773A2000000136372603FFFFFF353C3D79
:10047000380EFFFFFF312E303E12FFFFFFFF28FF37
:100480000C0809FFFF071A1C18FFFF2A08440A2C52
:100490004320643A0020693A0020703A00496E76A1
:1004A000616C69642065787472756465720A0043D2
:1004B000290A0061626C656420286D696E2074658C
:1004C0006D702000436F6C6420657874727564658C
:1004D000732061726520004E6F2063617365206C2C
:1004E000696768740A00454550524F4D204F4B0ACA
:1004F000004163746976652045787472756465722D
:100500003A2000496E76616C696420657874727572
:100510006465720A004E6F20436865636B73756D86
:100520002077697468206C696E65206E756D6265F0
:10053000722C204C617374204C696E653A20004B1C
:10054000494C4C45442E200053544F505045442EA6
:1005500020005072696E7465722073746F707065DC
:10056000642064756520746F206572726F72732EDB
:100570002046697820746865206572726F72206108
:100580006E6420757365204D39393920746F20727F
:100590006573746172742E202854656D7065726184
:1005A000747572652069732072657365742E2053AB
:1005B0006574206974206166746572207265737455
:1005C000617274696E67290A004E6F204368656323
:1005D0006B73756D2077697468206C696E65206E29
:1005E000756D6265722C204C617374204C696E6568
:1005F0003A2000636865636B73756D206D69736D78
:10060000617463682C204C617374204C696E653A88
:1006100020004C696E65204E756D626572206973AD
:10062000206E6F74204C617374204C696E65204E8F
:10063000756D6265722B312C204C617374204C698E
:100640006E653A20004D313130004D333100534456
:100650002072656164206572726F720A00446F6E69
:1006600065207072696E74696E672066696C650AD0
:100670000020496E76616C696420657874727564D7
:10068000657220000000A0C0000000000000000013
:10069000000057430000574300009643486F6D69C0
:1006A0006E67206661696C6564004D3630303A20B3
:1006B000546F6F20636F6C6400486F74656E6420C4
:1006C000746F6F20636F6C640A0050726F7465639F
:1006D0007465642050696E0A00205A3A0020593A25
:1006E0000020436F756E7420583A0020453A002070
:1006F0005A3A0020593A00583A0057726974696EA4
:100700006720746F2066696C653A20006F70656EB3
:10071000206661696C65642C2046696C653A20002E
:100720006F70656E206661696C65642C2046696C2B
:10073000653A200046696C652073656C6563746575
:10074000640A002053697A653A200046696C652086
:100750006F70656E65643A20002066696C653A20AA
:1007600000646F696E67006672657368004E6F772C
:100770002000454E4420535542524F5554494E4552
:100780000A002220706F73002220706172656E74FF
:100790003A2200535542524F5554494E4520434149
:1007A0004C4C207461726765743A22004B494C4C82
:1007B00045442E2000747279696E6720746F20633F
:1007C000616C6C207375622D67636F646520666968
:1007D0006C6573207769746820746F6F206D616E2B
:1007E00079206C6576656C732E204D4158206C65C0
:1007F00076656C2069733A004572726F723A0043F5
:10080000616E6E6F74206F70656E207375626469BF
:100810007220006563686F3A006F70656E206661D4
:10082000696C65642C2046696C653A200024F4D418
:100830003050C38E20C2A24017828B7011127A9161
:100840000D816CD90AA861E108C758660761514358
:10085000061E4B5D05C145A7041A411104093D98C8
:1008600003713931034036DB0265339102D43054D1
:1008700002802E1D02632CEE01752AC501B028A04E
:1008800001102781018F2564012B244B01E02234C4
:1008900001AC211F018D200D01801FFC00841EED85
:1008A00000971DDF00B81CD200E61BC600201BBC51
:1008B00000641AB200B219A8000A19A0006A1899B7
:1008C00000D117910040178B00B516840031167EB9
:1008D00000B31579003A157300C7146F0058146AF5
:1008E00000EE1366008813630025135E00C7125BD9
:1008F000006C12570015125400C111510070114FB5
:100900000021114B00D61049008D104700461044BD
:100910000002104200C00F4000800F3E00420F3C1A
:1009200000060F3B00CB0E3800930E37005C0E35EF
:1009300000270E3400F30D3200C10D3100900D3050
:1009400000600D2E00320D2D00050D2C00D90C2B52
:1009500000AE0C2900850C29005C0C2700350C2703
:10096000000E0C2600E80B2400C40B2400A00B236F
:10097000007D0B23005A0B2100390B2100180B209E
:1009800000F80A1F00D90A1E00BB0A1E009D0A1D9E
:1009900000800A1D00630A1C00470A1B002C0A1B6A
:1009A00000110A1A00F7091A00DD091900C4091913
:1009B00000AB091900920917007B09180063091799
:1009C000004C09160036091600200916000A091500
:1009D00000F5081500E0081400CC081400B808144D
:1009E00000A4081400900813007D0812006B08137F
:1009F000005808120046081200340811002308119C
:100A0000001208110001081100F0071000E00710A3
:100A100000D0071000C0071000B0070F00A107109A
:100A20000091070E0083070F0074070F0065070E83
:100A30000057070E0049070E003B070D002E070E5A
:100A40000020070D0013070D0006070D00F9060C26
:100A500000ED060D00E0060C00D4060C00C8060CE4
:100A600000BC060C00B0060C00A4060B0099060C96
:100A7000008D060B0082060B0077060B006C060B40
:100A80000061060A0057060B004C060A0042060ADF
:100A90000038060A002E060A0024060A001A060A72
:100AA000001006090007060A00FD050900F4050903
:100AB00000EB050900E2050900D9050900D0050988
:100AC00000C7050900BE050900B5050800AD050809
:100AD00000A50509009C050800940508008C050880
:100AE00000840508007C050800740508006C0507F3
:100AF00000650508005D050700560508004E05075E
:100B000000470507004005080038050700310507C4
:100B1000002A050700230507001C05060016050727
:100B2000000F0507000805060002050700FB040684
:100B300000F5040700EE040600E8040600E20407DE
:100B400000DB040600D5040600CF040600C9040635
:100B500000C3040600BD040600B7040600B1040586
:100B600000AC040600A6040600A00405009B0406D1
:100B70000095040500900406008A0405008504051C
:100B800000800406007A0405007504050070040561
:100B9000006B04050066040500610405005C0405A3
:100BA0000057040500520405004D040500480405E3
:100BB00000430405003E0404003A04050035040522
:100BC00000300404002C040500270404002304055D
:100BD000001E0404001A0404001604050011040495
:100BE000000D0404000904050004040400000404CA
:100BF00000FC030400F8030400F4030400F0030401
:100C000000EC030400E8030400E4030400E0030430
:100C100000DC030400D8030400D4030400D0030460
:100C200000CC030400C8030300C503030024F4043C
:100C3000D9201BC40C5C0E9804C4095F02650771BF
:100C400001F405F900FB04B30048048700C10369FF
:100C5000005803550003034500BE023A00840231E8
:100C60000053022A002902250004022000E4011C8E
:100C700000C8011900AF0117009801140084011386
:100C800000710110006101100051010E0043010DBF
:100C90000036010B002B010B0020010B0015010990
:100CA000000C01090003010800FB000800F3000824
:100CB00000EB000700E4000600DE000600D8000696
:100CC00000D2000600CC000500C7000500C20005E8
:100CD00000BD000400B9000400B5000400B1000428
:100CE00000AD000400A9000400A5000300A2000359
:100CF000009F0004009B0003009800030095000281
:100D00000093000300900003008D0002008B00039D
:100D100000880002008600020084000300810002B7
:100D2000007F0002007D0002007B000200790002CB
:100D300000770001007600020074000200720001DA
:100D400000710002006F0002006D0001006C0002E3
:100D5000006A0001006900020067000100660001EE
:100D600000650001006400020062000100610001F2
:100D700000600001005F0002005D0001005C0001F6
:100D8000005B0001005A00010059000100580001F9
:100D900000570001005600010055000100540001F9
:100DA00000530000005300010052000100510001F7
:100DB00000500001004F0001004E0000004E0001F5
:100DC000004D0001004C0001004B0000004B0001F1
:100DD000004A0001004900010048000000480001ED
:100DE00000470001004600000046000100450000E9
:100DF00000450001004400010043000000430001E1
:100E000000420000004200010041000000410001DA
:100E100000400001003F0000003F0001003E0000D4
:100E2000003E0001003D0000003D0001003C0000CC
:100E3000003C0000003C0001003B0000003B0001C2
:100E4000003A0000003A00010039000000390001BA
:100E500000380000003800000038000100370000B2
:100E600000370001003600000036000000360001A7
:100E7000003500000035000000350001003400009E
:100E80000034000000340001003300000033000093
:100E90000033000100320000003200000032000187
:100EA000003100000031000000310001003000007E
:100EB0000030000000300001002F0000002F000073
:100EC000002F0000002F0001002E0000002E000067
:100ED000002E0001002D0000002D0000002D00005C
:100EE000002D0001002C0000002C0000002C000050
:100EF000002C0001002B0000002B0000002B000044
:100F0000002B0001002A0000002A0000002A000037
:100F1000002A00010029000000290000002900002B
:100F2000002900000029000100280000002800001E
:100F30000028000000280000002800010027000011
:100F40000027000000270000002700000027000104
:100F500000260000002600000026000000260000F9
:100F600000260001002500000025000000250000EB
:100F700000250000002500000025000100240000DD
:100F800000240000002400000024000000240001D0
:100F900000230000002300000023000000230000C5
:100FA00000230000002300000023000100220000B5
:100FB00000220000002200000022000000220000A9
:100FC000002200010021000000210000002100009B
:100FD000002100000021000000210000002100018C
:100FE0000020000000200000002000000020000081
:100FF0000020000000200000002000000020000170
:10100000001F0000001F0000001F0000001F000064
:10101000001F0000001F0000001F0001001E000054
:10102000001E0000001E0000001E000000C2310073
:10103000001C260000F4190000D80F0000EB080087
:1010400000C004000075020000400100002CFFFFFA
:10105000FFFFFF0001010101017C3C3E5E2B3D3F93
:101060002F5B5D3B2C2A225C004572726F722077E9
:10107000726974696E6720746F20454550524F4DF8
:10108000210A00436172642072656D6F76656400A9
:101090004361726420696E73657274656400000652
:1010A0000900FE0701920321207FFF07FF07FF00D1
:1010B0000000060000010707060200808080808093
:1010C0000080030202060105A0A005070706000034
:1010D0005050F850F850500507070600002078A03F
:1010E0007028F020050707060000C0C810204098AF
:1010F000180507070600006090A040A8906802034A
:1011000003060104C0408003070706010020408059
:1011100080804020030707060100804020202040F7
:101120008005050506000120A870A8200505050614
:1011300000012020F820200203030602FFC04080A7
:10114000050101060003F8020202060200C0C00504
:10115000050506000108102040800507070600006D
:101160007088888888887003070706010040C0409F
:10117000404040E005070706000070880870808046
:10118000F8050707060000F81020100808F005070A
:101190000706000010305090F810100507070600F1
:1011A00000F880F0080888700507070600007080C6
:1011B00080F0888870050707060000F808102020D6
:1011C0002020050707060000708888708888700551
:1011D0000707060000708888780808700205050671
:1011E0000200C0C000C0C00206060602FFC0C00068
:1011F000C0408004070706000010204080402010F7
:10120000050303060002F800F80407070601008042
:101210004020102040800507070600007088081055
:1012200020002005070706000070880868A8A8703D
:10123000050707060000708888F888888805070772
:10124000060000F08888F08888F00507070600008F
:1012500070888080808870050707060000F0888805
:10126000888888F0050707060000F88080F08080F5
:10127000F8050707060000F88080F08080800507E9
:1012800007060000708880B8888870050707060088
:1012900000888888F888888801070706020080800F
:1012A000808080808005070706000038101010102D
:1012B00090600507070600008890A0C0A0908805F0
:1012C0000707060000808080808080F805070706F9
:1012D000000088D8A8888888880507070600008845
:1012E00088C8A8988888050707060000708888883D
:1012F000888870050707060000F08888F0808080E5
:1013000005070706000070888888A8906805070709
:10131000060000F08888F0A0908805070706000006
:10132000788080700808F0050707060000F8202084
:1013300020202020050707060000888888888888E4
:1013400070050707060000888888888850200507F0
:10135000070600008888888888A8500507070600C7
:101360000088885020508888050707060000888874
:101370008850202020050707060000F808102040AC
:1013800080F8030707060100E08080808080E00588
:10139000050506000180402010080307070601002C
:1013A000E02020202020E0050303060004205088D0
:1013B000050101060000F802020206020580400550
:1013C0000505060000700878887805070706000004
:1013D0008080B0C88888F005050506000070808010
:1013E000887005070706000008086898888878054F
:1013F00005050600007088F88070050707060000E4
:101400003048E0404040400506060600FF708888EE
:101410007808700507070600008080B0C8888888B3
:101420000107070602008000808080808003080892
:101430000601FF200020202020A04004070706000E
:1014400000808090A0C0A090030707060100C04064
:1014500040404040E0050505060000D0A8A8A8A827
:10146000050505060000B0C8888888050505060042
:101470000070888888700506060600FFF08888F0EE
:1014800080800506060600FF78888878080805052C
:1014900005060000B0C880808005050506000070C4
:1014A000807008F00407070600004040E04040401C
:1014B000300505050600008888889868050505063A
:1014C000000088888850200505050600008888A847
:1014D000A85005050506000088502050880506061E
:1014E0000600FF888888780870050505060000F862
:1014F000102040F8030707060100204040804040CC
:10150000200107070602008080808080808003071A
:10151000070601008040402040408005020206008E
:1015200002689000000006000056652D6A65726B27
:101530000056652D6A65726B0056652D6A65726B83
:1015400000567A2D6A65726B00567A2D6A65726B49
:101550000056792D6A65726B0056792D6A65726B3B
:101560000056792D6A65726B0056782D6A65726B2C
:101570000056782D6A65726B0056782D6A65726B1D
:10158000004D6F74696F6E004573746570732F6DD5
:101590006D004573746570732F6D6D005A737465BB
:1015A00070732F6D6D005A73746570732F6D6D00BD
:1015B0005973746570732F6D6D0059737465707312
:1015C0002F6D6D005873746570732F6D6D005873B7
:1015D000746570732F6D6D004D6F74696F6E00537D
:1015E000746570732F6D6D004A65726B00416363A3
:1015F000656C65726174696F6E0056656C6F6369C6
:10160000747900436F6E74726F6C004C6F6164206C
:101610006D6D004C6F6164206D6D004C6F616420D6
:101620006D6D00556E6C6F6164206D6D00556E6C54
:101630006F6164206D6D00556E6C6F6164206D6D1F
:101640000046696C2E204469612E0046696C2E208C
:101650004469612E004F6666004F6E200045206988
:101660006E206D6D3300416476616E6365204B00C2
:10167000416476616E6365204B00436F6E74726FD8
:101680006C0043616E6E6F7420656E7465722073BA
:1016900075626469723A2000022E2E004D61696EF7
:1016A000004D36303020423020542564004D373014
:1016B0003120542564004D373032203B2564004DE5
:1016C0003730322054256400627573793A20706196
:1016D0007573656420666F7220696E7075740A0098
:1016E000627573793A2070617573656420666F72F4
:1016F00020757365720A00627573793A2070726F93
:1017000063657373696E670A004B494C4C45442E00
:1017100020004B494C4C20636175736564206279ED
:10172000204B494C4C20627574746F6E2F70696E3B
:101730000A004B494C4C45442E20004B494C4C2050
:1017400063617573656420627920746F6F206D75B5
:10175000636820696E6163746976652074696D657C
:10176000202D2063757272656E7420636F6D6D61DC
:101770006E643A20004D36303000506C6561736500
:10178000207265736574005052494E54455220488A
:10179000414C544544005072696E74657220686112
:1017A0006C7465642E206B696C6C28292063616CF5
:1017B0006C6564210A00656E7175657565696E6793
:1017C0002022000000A0C000000000000000000077
:1017D000004842000048420000204100000000573D
:1017E00061726E696E673A20486F6D696E6720425C
:1017F000756D702044697669736F72203C20310AE0
:10180000000202040000A0400000A04000000040D0
:1018100000005C430000574300009643FFFFFF4376
:1018200068616E67652066696C616D656E740050F5
:101830007265686561742041425300507265686545
:10184000617420504C41004368616E676520666991
:101850006C616D656E74005052494E542050415574
:1018600053454400554E4C4F41442046494C414D50
:10187000454E54004C4F41442046494C414D454E45
:1018800054005075726765206D6F726500436F6E0E
:1018900074696E756500524553554D45204F50543F
:1018A000494F4E533A0020204E6F7A7A6C653A20A9
:1018B000006368616E6765006F6620746865206606
:1018C000696C616D656E74005761697420666F7232
:1018D0002073746172740020204E6F7A7A6C653ABE
:1018E0002000200066696C616D656E7420756E6CF9
:1018F0006F6164005761697420666F720020204E2A
:101900006F7A7A6C653A20002000506C65617365CF
:1019100020776169742E2E2E0048656174696E67A8
:10192000206E6F7A7A6C650020204E6F7A7A6C6533
:101930003A2000200068656174206E6F7A7A6C65C9
:101940002E00507265737320627574746F6E20740C
:101950006F0020204E6F7A7A6C653A2000746F20F9
:10196000636F6E74696E75652E2E2E00616E642035
:10197000707265737320627574746F6E00496E7354
:101980006572742066696C616D656E740020204E0E
:101990006F7A7A6C653A2000200066696C616D652B
:1019A0006E74206C6F6164005761697420666F7299
:1019B0000020204E6F7A7A6C653A2000200066691C
:1019C0006C616D656E742070757267650057616932
:1019D0007420666F7200746F20726573756D650098
:1019E0005761697420666F72207072696E74004965
:1019F0006E697469616C697A6520454550524F4D36
:101A000000436F6E74726F6C00526573746F726511
:101A1000206661696C73616665004C6F6164207358
:101A2000657474696E677300496E697469616C6985
:101A30007A6520454550524F4D0053746F726520B2
:101A400073657474696E67730046696C616D656E69
:101A500074004D6F74696F6E0054656D70657261CE
:101A600074757265004D61696E004D3330332055D9
:101A700031204525692053256900507265686561EC
:101A8000742041425320636F6E6600507265686532
:101A9000617420504C4120636F6E660050494420B1
:101AA0004175746F74756E650050494420417574BA
:101AB0006F74756E65005049442D44005049442DA3
:101AC00044005049442D49005049442D4900504993
:101AD000442D50005049442D500020082046616399
:101AE000740020082046616374002008204D61784E
:101AF000002008204D6178002008204D61780020EA
:101B000008204D696E002008204D696E00200820D5
:101B10004D696E004F6666004F6E20004175746F10
:101B200074656D700046616E207370656564004673
:101B3000616E20737065656400426564004265648F
:101B4000004E6F7A7A6C65004E6F7A7A6C6500434E
:101B50006F6E74726F6C0053746F7265207365746E
:101B600074696E67730042656400426564004E6F7D
:101B70007A7A6C65004E6F7A7A6C650046616E20E9
:101B800073706565640046616E20737065656400FE
:101B900054656D7065726174757265000000220095
:101BA000250028002B002E00310034000201000027
:101BB000050108010B010000200023002600290078
:101BC0002C002F0032000001000003010601090172
:101BD00005050505070508080808020202020A0AA9
:101BE00008080404040401010101010101010303C7
:101BF000030303030303040707070C0C0C0C0C0C72
:101C00000C0C0202020206060606060606060B0B6E
:101C10000B0B0B0B0B0B01021020200808102040AF
:101C200010204080020102010804020101020408A0
:101C3000102040808040201008040201800402012E
:101C40008040201008040201080402010102040877
:101C500010204080010204081020408000000A0B80
:101C600002090C0D0E08070304010000000000002B
:101C70000000000000000000000000000000000064
:101C80000000000000000000121110000000000021
:101C90000000000000000000000000000000000044
:101CA00000004B494C4C45442E2000202D20496E0D
:101CB00076616C6964206578747275646572206EF3
:101CC000756D62657220210A001FFFFFFFFFFFFF95
:101CD000600000000001FF400000000000FF8000E5
:101CE000000000007F83CF00000C303F87FF8000A2
:101CF0000C301F867980000C000F8C30C7838C302D
:101D0000E78C30CFC7CC31F38C30DCECEC33B98CC2
:101D100030D86C6C33198C30D06C0C33198C30D8B3
:101D20006C0C33198C30DC6C0E3B198C30CF7C077B
:101D30009F198C30C77C038F1940000000000002FF
:101D4000600000000000061FFFFFFFFFFFF82020DB
:101D5000506C616E6E65724275666665724279742A
:101D600065733A20002046726565204D656D6F727F
:101D7000793A2000436F6D70696C65643A204A754A
:101D80006E20323720323031390A00207C204175F4
:101D900074686F723A204461726B5F5361726D6157
:101DA0007420636F6E666967206D6F640A0032305D
:101DB00031382D30382D303100204C61737420556E
:101DC0007064617465643A2000312E312E392044EC
:101DD00061726B5F5361726D6174204D4F440A00F4
:101DE0004D61726C696E0020536F66747761726525
:101DF0002052657365740A00205761746368646FCC
:101E0000672052657365740A002042726F776E20F6
:101E10006F75742052657365740A00204578746587
:101E2000726E616C2052657365740A00506F77653D
:101E30007255700A0073746172740A006175746F70
:101E400025692E67006572726F72207772697469F6
:101E50006E6720746F2066696C650A00456E647356
:101E6000746F70732025632025632025632025630C
:101E700000205A3A0020593A0020583A00656E6412
:101E800073746F7073206869743A2000446F6E65D4
:101E900020736176696E672066696C652E0A004D55
:101EA000323900454550524F4D2064617461736969
:101EB0007A65206572726F722E0A00290A0020620C
:101EC000797465733B206372632000536574746991
:101ED0006E67732053746F726564202800290A00AE
:101EE0002062797465733B206372632000207374F1
:101EF0006F7265642073657474696E6773207265B0
:101F000074726965766564202800202863616C63BB
:101F1000756C6174656429210A0020213D2000450B
:101F20004550524F4D20435243206D69736D61748B
:101F30006368202D202873746F7265642920002047
:101F400053697A653A2000496E6465783A2000202A
:101F50004D61726C696E3D563535290A002845453C
:101F600050524F4D3D00454550524F4D20766572C1
:101F700073696F6E206D69736D61746368200043CF
:101F800068616E67652066696C616D656E7400439B
:101F900068616E67652066696C616D656E74004D81
:101FA00036303020423000466C6F7700466C6F77D9
:101FB0000046616E2073706565640046616E207333
:101FC000706565640042656400426564004E6F7A26
:101FD0007A6C65004E6F7A7A6C6500537065656443
:101FE000005370656564004D61696E0050726568EC
:101FF00065617420504C4120456E640050726568E4
:1020000065617420504C41204265640050726568DF
:1020100065617420504C41005072657061726500BA
:10202000507265686561742041425320456E6400BA
:1020300050726568656174204142532042656400B6
:10204000507265686561742041425300507265703A
:10205000617265004D343238005072656865617494
:1020600020504C4100436F6F6C646F776E00436883
:10207000616E67652066696C616D656E74004368AA
:10208000616E67652066696C616D656E74004D36C2
:1020900030302042300044697361626C6520737493
:1020A000657070657273004D383400536574206834
:1020B0006F6D65206F666673657473005072656836
:1020C0006561742041425300486F6D65205A004796
:1020D0003238205A00486F6D652059004732382049
:1020E0005900486F6D65205800473238205800412C
:1020F00075746F20686F6D6500473238004D6F76DC
:10210000652061786973004D61696E004D3234005D
:102110004D323320257300556E6B6E6F776E2063E2
:102120006F6D6D616E643A202200496E7365727442
:102130002066696C616D656E7420616E64207072DA
:1021400065737320627574746F6E20286F72204DF2
:10215000313038290A00486F74656E6420746F6FDF
:1021600020636F6C640A00486F6D652025732573CA
:102170002573206669727374002066697273740A2D
:10218000005A0059005800486F6D65200020746F98
:102190006F206C6F6E6720657874727573696F6EEF
:1021A0002070726576656E7465640A0020636F6CDA
:1021B0006420657874727573696F6E2070726576CD
:1021C000656E7465640A0000002100240027002A5F
:1021D000002D003000330001010000040107010A56
:1021E0000125753A2530327500253032753A253093
:1021F00032750025756420253032753A25303275E8
:1022000000202020202020005A00590020202020DB
:10221000005800092000000000000000000000003D
:1022200000003FFFF0000000000000000000000080
:1022300000380070000000000000000000000000F6
:1022400030FC300000000000000000000000002012
:10225000FC100000000000000000000000002078DA
:1022600010000000000000000000000000203010FE
:102270000000000000000000000000002C00D03F23
:10228000C0000000000000002082002E31D07FE05E
:10229000000000000000001041002F7BD07FE00014
:1022A0000000000000001041002F7BD07FE0000004
:1022B00000000000002082002E31D03FC00000004E
:1022C000000000004104002C00D03FC000000000CE
:1022D0000000008208002030107FE00000000000B5
:1022E00000008208002078107FE00000000000005D
:1022F0000041040020FC107FE0000000000000000E
:1023000020820030FC301F80000000000000000030
:1023100000003800700F0000000000000000FFFF08
:10232000C03FFFF0060000000000000000FFFFC0FB
:102330000000000000000000000000000000003F5E
:10234000FFF0000000000000000000000000380066
:102350007000000000000000000000000031863026
:1023600000000000000000000000000023871000B3
:10237000000000000000000000000027879000001F
:10238000000000000000000000002F87D0000000C7
:102390000000000000000000002F03D03FC000003C
:1023A00000000000002082002030107FE0000000CC
:1023B000000000001041002078107FE000000000C5
:1023C0000000001041002078107FE00000000000B5
:1023D00000002082002030103FC0000000000000FC
:1023E000004104002F03D03FC000000000000000A7
:1023F0008208002F87D07FE00000000000000082EC
:1024000008002787907FE0000000000000004104E2
:10241000002387107FE00000000000000020820001
:102420003186301F800000000000000000000038EE
:1024300000700F0000000000000000FFFFC03FFF21
:10244000F0060000000000000000FFFFC0000000D8
:1024500000060900FE000000000001090008FE005F
:102460000005080806000040F0C888889878100524
:102470000808060000C0F88888888888F8050505DF
:102480000600012030F83020050808060000207002
:10249000F820202020E00509090600FF2070A8A8E8
:1024A000B8888870200509090600FFE080C0B0A840
:1024B000283028280509090600FFF8A88888888898
:1024C00088A8F8050A0A0600FE205050505088A837
:1024D000A8887003030306000340A0406265640AF5
:1024E000002C2073797374656D2073746F70706540
:1024F0006421204865617465725F49443A20004256
:1025000065642068656174696E67206661696C65E1
:10251000640048656174696E67206661696C656412
:102520000045312048656174696E67206661696C99
:1025300065640048656174696E67206661696C65F1
:10254000640070012C0190012701B0012201C0013B
:102550001D01F00118011002130130020E0160028A
:10256000090190020401C002FF000003FA004003C9
:10257000F5008003F000D003EB002004E6007004B7
:10258000E100E004DC004005D700C005D2004006B1
:10259000CD00D006C8008007C3003008BE00F00898
:1025A000B900C009B400B00AAF00B00BAA00D00C4B
:1025B000A500000EA000500F9B00C0109600501206
:1025C000910000148C00C0158700B0178200B0196C
:1025D0007D00D01B7800001E730040206E0090220A
:1025E0006900F024640040275F0090295A00E02B26
:1025F0005500102E500020304B0010324600E033C2
:10260000410090353C001037370070383200A03957
:102610002D00B03A2800A03B2300603C1E00103D76
:102620001900903D1400103E0F00703E0A00C03E9D
:102630000500003F0000403FFBFF803FF6FFC03F2A
:10264000F1FF453120544845524D414C2052554EE2
:10265000415741590042454420544845524D414C50
:102660002052554E4157415900546865726D616C56
:102670002052756E61776179004531204572723A5A
:10268000204D415854454D50004572723A204D41FD
:102690005854454D5020424544004D415854454DF5
:1026A0005020747269676765726564004531204522
:1026B00072723A204D494E54454D50004572723A5F
:1026C000204D494E54454D5020424544004D494E01
:1026D00054454D5020747269676765726564004D9A
:1026E000383420582059205A204500202F002042FD
:1026F000403A0020403A003A004361703A005448A2
:1027000045524D414C5F50524F54454354494F4EF2
:10271000004155544F5245504F52545F53445F53FC
:10272000544154555300454D455247454E43595F1A
:1027300050415253455200434153455F4C4947482D
:10274000545F4252494748544E45535300544F47F3
:10275000474C455F4C494748545300534F465457E4
:102760004152455F504F574552004255494C445FD6
:1027700050455243454E54004C4556454C494E47F2
:102780005F44415441005A5F50524F424500415509
:10279000544F4C4556454C005052494E545F4A4F99
:1027A000420050524F4752455353004155544F52E7
:1027B00045504F52545F54454D5000564F4C554D67
:1027C000455452494300454550524F4D00534552E0
:1027D00049414C5F584F4E5F584F4646004649525C
:1027E0004D574152455F4E414D453A4D61726C69BE
:1027F0006E20312E312E39204461726B5F5361722D
:102800006D6174204D4F44202847697468756229B2
:1028100020534F555243455F434F44455F55524CFB
:102820003A68747470733A2F2F6769746875622EF2
:10283000636F6D2F4D61726C696E4669726D776161
:1028400072652F4D61726C696E2050524F544F4328
:102850004F4C5F56455253494F4E3A312E30204D22
:10286000414348494E455F545950453A33442050FE
:1028700072696E7465722045585452554445525FD2
:10288000434F554E543A3120555549443A63656497
:1028900065326132662D343161322D343734382D52
:1028A000396231322D6335356336326633363766F9
:1028B000660A002F2F200023646566696E65204438
:1028C000454641554C545F4B64200023646566695E
:1028D0006E652044454641554C545F4B69200023AA
:1028E000646566696E652044454641554C545F4BAE
:1028F000702000504944204175746F74756E6520D6
:1029000066696E6973686564212050757420746807
:1029100065206C617374204B702C204B6920616EB4
:1029200064204B6420636F6E7374616E74732066F1
:10293000726F6D2062656C6F7720696E746F2043D3
:102940006F6E66696775726174696F6E2E680A00D2
:10295000504944204175746F74756E6520666169D5
:102960006C6564212074696D656F75740A0045316A
:1029700020544845524D414C2052554E41574159E3
:1029800000546865726D616C2052756E6177617973
:102990000045312048656174696E67206661696C25
:1029A00065640048656174696E67206661696C657D
:1029B0006400504944204175746F74756E652066DB
:1029C00061696C6564212054656D70657261747510
:1029D000726520746F6F20686967680A00204B6415
:1029E0003A2000204B693A2000204B703A20000A20
:1029F00020436C617373696320504944200A0020AE
:102A000054753A2000204B753A2000206D61783AC9
:102A10002000206D696E3A200020643A2000206278
:102A20006961733A2000504944204175746F747590
:102A30006E65206661696C65642120426164206571
:102A400078747275646572206E756D6265720A00C5
:102A5000504944204175746F74756E6520737461BC
:102A600072740A00496E736572742066696C616DD8
:102A7000656E7420616E6420707265737320627578
:102A800074746F6E0A00507265737320627574748B
:102A90006F6E20746F2068656174206E6F7A7A6C37
:102AA000650A00496E736572742066696C616D65B4
:102AB0006E7420616E642070726573732062757429
:102AC000746F6E20286F72204D313038290A003F14
:102AD0004B2076616C7565206F7574206F6620726F
:102AE000616E67652028302D3130292E0A0041643F
:102AF00076616E6365204B3D005654726176206DA1
:102B0000696E005654726176206D696E005654727B
:102B10006176206D696E00566D696E00566D696E46
:102B200000566D696E00566D6178204500566D61E6
:102B300078204500566D6178204500566D617820FB
:102B40005A00566D6178205A00566D6178205A00FF
:102B5000566D6178205900566D6178205900566D88
:102B60006178205900566D6178205800566D617863
:102B7000205800566D61782058004D6F74696F6E53
:102B800000416D6178204500416D6178204500412C
:102B90006D6178205A00416D6178205A00416D6165
:102BA00078205900416D6178205900416D6178208D
:102BB0005800416D6178205800412D74726176652E
:102BC0006C00412D74726176656C00412D726574E4
:102BD0007261637400412D726574726163740041A7
:102BE0006363656C00416363656C004D6F74696F6E
:102BF0006E0048617264636F646564204465666159
:102C0000756C742053657474696E6773204C6F61C2
:102C10006465640A002003000020030000640000D3
:102C2000001027000000001643000016430000209B
:102C300041000048420000A0420000A0420000C83D
:102C400043E1FABC4220286D6D290020204D36302A
:102C50003320002055004C0046696C616D656E7430
:102C6000206C6F61642F756E6C6F6164206C656E93
:102C7000677468733A0A0020204D393030204B00C9
:102C80004C696E65617220416476616E63653A0AD3
:102C90000020440020490020204D333031205000D6
:102CA0005049442073657474696E67733A0A002052
:102CB000460020420020480020204D31343520536A
:102CC000004D6174657269616C206865617475702E
:102CD00020706172616D65746572733A0A00205AE2
:102CE0000020590020204D323036205800486F6DAA
:102CF00065206F66667365743A0A00204500205AA5
:102D00000020590020580020540020530020204D5E
:102D100032303520510020453C6D61785F655F6A37
:102D200065726B3E0020583C6D61785F785F6A6524
:102D3000726B3E20593C6D61785F795F6A65726B9A
:102D40003E205A3C6D61785F7A5F6A65726B3E0027
:102D5000416476616E6365643A20513C6D696E5FD3
:102D60007365676D656E745F74696D655F75733EDD
:102D700020533C6D696E5F66656564726174653E83
:102D800020543C6D696E5F74726176656C5F666538
:102D90006564726174653E0020540020520020205A
:102DA0004D323034205000416363656C657261744C
:102DB000696F6E2028756E6974732F7332293A20FB
:102DC000503C7072696E745F616363656C3E205243
:102DD0003C726574726163745F616363656C3E200D
:102DE000543C74726176656C5F616363656C3E0A26
:102DF00000204500205A0020590020204D3230315B
:102E00002058004D6178696D756D20416363656C74
:102E100065726174696F6E2028756E6974732F73A3
:102E200032293A0A00204500205A0020590020206B
:102E30004D3230332058004D6178696D756D2066D4
:102E400065656472617465732028756E6974732F8B
:102E500073293A0A00204500205A002059002020FA
:102E60004D3932205800537465707320706572209C
:102E7000756E69743A0A0020204D3230302044309B
:102E80000A0020204D323030204400204469736114
:102E9000626C65640A0046696C616D656E742073CE
:102EA000657474696E67733A0020204D313439209F
:102EB00043203B20556E69747320696E2043656C16
:102EC000736975730A002020473231202020203B8F
:102ED00000545249474745524544006F70656E00A3
:102EE0003A200066696C616D656E74007A5F6D6989
:102EF0006E00795F6D696E00785F6D696E00526576
:102F0000706F7274696E6720656E6473746F702081
:102F10007374617475730A004D6F76652058004DA7
:102F20006F76652059004D6F7665205A004578749C
:102F30007275646572004D6F766520302E316D6D4F
:102F4000004D6F766520316D6D004D6F76652031D7
:102F5000306D6D004D6F766520617869730045783E
:102F6000747275646572004D6F7665205A004D6FFE
:102F700076652059004D6F7665205800457874724B
:102F800075646572004D6F7665205A004D6F7665E9
:102F90002059004D6F76652058004F6666004F6ED1
:102FA0002000536F667420456E6473746F707300F5
:102FB00050726570617265003344205072696E749E
:102FC00065722052656164792E005072696E746971
:102FD0006E672E2E2E005072696E742070617573AC
:102FE0006564004D313235004D3234005072696EE7
:102FF000742061626F72746564005072696E74202F
:1030000066726F6D2053440053746F702070726944
:103010006E7400526573756D65207072696E740010
:103020004E6F205344206361726400506175736574
:10303000207072696E7400436F6E74726F6C005012
:103040007265706172650054756E6500496E666FD9
:103050002073637265656E00526573656E643A2015
:10306000006F6B0053442063617264206F6B0A0031
:103070006F70656E526F6F74206661696C65640A6B
:1030800000766F6C756D652E696E69742066616976
:103090006C65640A00534420696E69742066616936
:1030A0006C0A000090E87DE911241FBECFEFD1E249
:1030B000DEBFCDBF00E00CBF13E0A0E0B2E0EEE960
:1030C000FAEF01E00BBF02C007900D92AE36B107D8
:1030D000D9F724E1AEE6B3E001C01D92AB3EB207E2
:1030E000E1F718E1C3E5D8E100E006C02197010946
:1030F000802FFE010E94ADFCC235D10780E0080799
:10310000A9F70E94ADE90C943EFD0C9400002F92AB
:103110003F924F925F926F927F928F929F92AF9267
:10312000BF92CF92DF92EF92FF920F931F93CF93B4
:10313000DF93CDB7DEB7C456D1090FB6F894DEBF22
:103140000FBECDBF21E02093130C809156148D3417
:1031500009F421C7843511F40C942B31873411F014
:103160000C946C31809154149091551484309105D5
:1031700009F46BC544F497FD0AC720913E028230E2
:10318000910544F522C08A35910509F48EC644F4B0
:103190008B31910509F498C54C9709F4C5C5F7C65C
:1031A0008B35910509F485C68C35910509F0EFC67C
:1031B0000DE5202E02E0302E83EFC82E89E0D82EB8
:1031C000E12CF12C00E010E0B1C621110C94733118
:1031D0000C946E31222311F40C946E3111E002979D
:1031E00009F010E00E94613882E50E94553888237A
:1031F00009F436C10E94DB376B017C014090260C3C
:103200005090270C6090280C7090290C80912A0C0B
:1032100090912B0CA0912C0CB0912D0C8CA79DA7FC
:10322000AEA7BFA72091160C3091170C4091180C37
:103230005091190C28AB39AB4AAB5BAB80911A0C9F
:1032400090911B0CA0911C0CB0911D0C88AF99AFF4
:10325000AAAFBBAF20E030E0A901C701B6010E94D0
:103260008FF5882309F4D7C4A301920168A979A92D
:103270008AA99BA90E948FF581110DC02CA53DA59F
:103280004EA55FA568AD79AD8AAD9BAD0E948FF567
:10329000882309F4C0C420E030E0A901C701B601C9
:1032A0000E948FF5881F8827881F18130BC020E005
:1032B00030E040E85FE328962CAF3DAF4EAF5FAF04
:1032C00028970AC080E090E0A0E8BFEB28968CAF7A
:1032D0009DAFAEAFBFAF2897A301920168A979A9AE
:1032E0008AA99BA90E94A5F96CAF7DAF8EAF9FAF55
:1032F0002CA53DA54EA55FA568AD79AD8AAD9BAD6A
:103300000E94A5F924966CAF7DAF8EAF9FAF249736
:103310002CAD3DAD4EAD5FADCA01B9010E94F4F5D3
:103320004B015C0124962CAD3DAD4EAD5FAD2497B5
:10333000CA01B9010E94F4F59B01AC01C501B401B9
:103340000E94A6F90E9411FC6CAB7DAB8EAB9FABCB
:1033500020E030E040E05FE30E94F4F54B015C01C7
:10336000A7019601C701B6010E94F4F56B017C012B
:10337000A5019401C501B4010E94F4F59B01AC01C3
:10338000C701B6010E94A5F90E9411FC9B01AC0186
:1033900028966CAD7DAD8EAD9FAD28970E94F4F55B
:1033A0004B015C0128A939A94AA95BA9C301B20153
:1033B0000E94A6F920E030E040E05FE30E94F4F5CF
:1033C0006B017C0124966CAD7DAD8EAD9FAD2497D5
:1033D00090582CA93DA94EA95FA90E9482FA9B0191
:1033E000AC01C501B4010E94F4F59B01AC01C70119
:1033F000B6010E94A6F9A30192010E94A5F96B01F2
:103400007C0128AD39AD4AAD5BAD6CA57DA58EA51F
:103410009FA50E94A6F920E030E040E05FE30E9413
:10342000F4F52B013C012CA93DA94EA95FA96CAD77
:103430007DAD8EAD9FAD0E9482FA9B01AC01C501AE
:10344000B4010E94F4F59B01AC01C301B2010E94DA
:10345000A6F92CA53DA54EA55FA50E94A5F914C00F
:1034600089E40E945538882329F00E94DB376B01DC
:103470007C0103C0C12CD12C76018AE40E9455380E
:103480008823D9F00E94DB3768AF79AF8AAF9BAF52
:1034900020E030E0A901C701B6010E948FF581113B
:1034A0001AC020E030E0A90168AD79AD8AAD9BADCE
:1034B0000E948FF581110FC0AEC320E030E0A9015A
:1034C000C701B6010E948FF5882309F4A4C318AE82
:1034D00019AE1AAE1BAEA701960150582CA73DA7F6
:1034E0004EA75FA788AD99ADAAADBBADB05888AB6C
:1034F00099ABAAABBBABCA01B9010E94F4F54B0171
:103500005C0128A939A94AA95BA9CA01B9010E948D
:10351000F4F59B01AC01C501B4010E94A6F90E941B
:1035200011FC64966CAF7DAF8EAF9FAF6497209116
:10353000260C3091270C4091280C5091290C2CAB73
:103540003DAB4EAB5FABA70196016CA97DA98EA9DF
:103550009FA90E94A6F928966CAF7DAF8EAF9FAF52
:10356000289780912A0C90912B0CA0912C0CB09153
:103570002D0C8CAF9DAFAEAFBFAF28AD39AD4AAD0E
:103580005BADBC01CD010E94A6F968966CAF7DAF22
:103590008EAF9FAF68972091160C3091170C409119
:1035A000180C5091190C24962CAF3DAF4EAF5FAF65
:1035B000249728962CAD3DAD4EAD5FAD289724964F
:1035C0006CAD7DAD8EAD9FAD24970E94A5F96B01CA
:1035D0007C0180911A0C90911B0CA0911C0CB09155
:1035E0001D0C2C968CAF9DAFAEAFBFAF2C976896DD
:1035F0002CAD3DAD4EAD5FAD6897BC01CD010E94D5
:10360000A5F94B015C0120912E0C30912F0C4091BB
:10361000300C5091310C60962CAF3DAF4EAF5FAF88
:10362000609760911E0C70911F0C8091200C9091FE
:10363000210C0E94A5F92B013C018091220C909154
:10364000230CA091240CB091250CA0968CAF9DAFBB
:10365000AEAFBFAFA0972091320C3091330C4091A8
:10366000340C5091350C6C962CAF3DAF4EAF5FAF24
:103670006C97A70196016CA57DA58EA59FA50E94BC
:10368000F4F5A4966CAF7DAF8EAF9FAFA497A50164
:10369000940168A979A98AA99BA90E94F4F59B01C4
:1036A000AC01A4966CAD7DAD8EAD9FADA4970E948C
:1036B000A6F9A4966CAF7DAF8EAF9FAFA497A5017E
:1036C00094016CA57DA58EA59FA50E94F4F54B01E4
:1036D0005C01A701960168A979A98AA99BA90E9402
:1036E000F4F59B01AC01C501B4010E94A5F9A496B3
:1036F0002CAD3DAD4EAD5FADA4970E9419FA6B01A4
:103700007C0120E030E0A9010E948FF587FF0AC00C
:103710002BED3FE049EC50E4C701B6010E94A6F949
:103720006B017C01112351F02BED3FE049EC50E49B
:10373000C701B6010E94A5F96B017C0120E030E0D1
:10374000A901C701B6010E948FF5811124C02496FA
:103750002CAD3DAD4EAD5FAD24976CA97DA98EA972
:103760009FA90E948FF5811116C02C962CAD3DADFE
:103770004EAD5FAD2C976CAD7DAD8EAD9FAD0E9413
:103780008FF5811108C02BEDC22E2FE0D22E29EC2F
:10379000E22E20E4F22EA701960164966CAD7DAD79
:1037A0008EAD9FAD64970E94F4F54B015C0120E063
:1037B00030E0A901C301B2010E948FF58823C9F04E
:1037C000A5019401C501B4010E94F4F54B015C010F
:1037D000A3019201C301B2010E94F4F59B01AC0167
:1037E000C501B4010E94A6F90E9411FC4B015C01C5
:1037F0000DC020E030E0A901C501B4010E94CCFB5E
:1038000087FF04C0B7FAB094B7F8B0942FE632E15E
:1038100043E85AE3C501B4010E948FF587FF02C057
:103820000C946E31C501B4010E941BFB0E94EFFA9B
:103830001B01672B19F422242394312CB10180E061
:1038400090E00E9493F54B015C019B01AC01C70124
:10385000B6010E9482FA6CAB7DAB8EAB9FABA5012B
:103860009401C301B2010E9482FA64966CAF7DAFED
:103870008EAF9FAF64976C962CAD3DAD4EAD5FADF6
:103880006C97A0966CAD7DAD8EAD9FADA0970E945C
:10389000A5F9A50194010E9482FAA0966CAF7DAFB4
:1038A0008EAF9FAFA0972CA93DA94EA95FA9CA01D1
:1038B000B9010E94F4F520E030E040E05FE30E94AF
:1038C000F4F59B01AC0160E070E080E89FE30E94AA
:1038D000A5F92C966CAF7DAF8EAF9FAF2C976096FD
:1038E0008CAD9DADAEADBFAD609789879A87AB8734
:1038F000BC876C962CAD3DAD4EAD5FAD6C972D8702
:103900003E874F87588B6091310270913202072EAB
:10391000000C880B990B0E9495F5209100023091C4
:10392000010240910202509103020E94F4F52AE044
:1039300037ED43E25CE30E94F4F568A779A78AA714
:103940009BA70E94DCAF9B01AC0128533F4F4F4F18
:103950005F4F60962CAF3DAF4EAF5FAF60974CA40A
:103960005DA46EA47FA441E050E022965FAF4EAF0D
:10397000229759E15CAF22962EAD3FAD22972215DA
:10398000330509F41DC10E9499C00E94DCAFDC011F
:10399000CB0160962CAD3DAD4EAD5FAD6097821B07
:1039A000930BA40BB50BB7FD11C00E94DCAF9B01BC
:1039B000AC0128533F4F4F4F5F4F60962CAF3DAF48
:1039C0004EAF5FAF609780E00E9485743CAD315090
:1039D0003CAF332309F441C02C962CAD3DAD4EAD28
:1039E0005FAD2C9768A979A98AA99BA90E94F4F5D3
:1039F0006B017C012CA93DA94EA95FA9B201C301AD
:103A00000E94F4F5A70196010E94A6F97B018C01A2
:103A10002C962CAD3DAD4EAD5FAD2C97B201C301E0
:103A20000E94F4F54B015C012CA93DA94EA95FA9A8
:103A300068A979A98AA99BA90E94F4F59B01AC0108
:103A4000C501B4010E94A5F92B013C01C701D801B1
:103A500088AB99ABAAABBBAB53C022964EAD5FAD62
:103A60002297BA0180E090E00E9493F52CA93DA92D
:103A70004EA95FA90E94F4F54B015C010E947FFAF8
:103A80006B017C01C501B4010E9407FC4B015C0184
:103A9000A70196016CA57DA58EA59FA50E94F4F5B2
:103AA0002B013C01A501940168AD79AD8AAD9BADB8
:103AB0000E94F4F59B01AC01C301B2010E94A6F97A
:103AC0002B013C01A50194016CA57DA58EA59FA5A8
:103AD0000E94F4F54B015C01A701960168AD79AD38
:103AE0008AAD9BAD0E94F4F59B01AC01C501B40108
:103AF0000E94A5F968AB79AB8AAB9BAB59E15CAF8F
:103B00009201A30128966CAD7DAD8EAD9FAD289737
:103B10000E94A6F969837A838B839C8328A939A99B
:103B20004AA95BA968966CAD7DAD8EAD9FAD6897D7
:103B30000E94A6F96D837E838F83988764962CAD4F
:103B40003DAD4EAD5FAD649769857A858B859C856B
:103B50000E94A6F969877A878B879C87A0962CADEF
:103B60003DAD4EAD5FADA0976D857E858F85988903
:103B70000E94A6F96D877E878F87988B80915C0263
:103B8000882321F0CE0101960E946072E090470CDC
:103B900018A219A21AA21BA2CE0180966C018E0156
:103BA000085D1F4F9E01235F3F4FAE01475F5F4F90
:103BB000BE016B5F7F4F4F970E94A09D811121C076
:103BC000E090470C1CA21DA21EA21FA2DE0194962B
:103BD0006D018E01085D1F4F22E23CE04EE15CE08A
:103BE0006AE17CE086E19CE00E94A09D80E1E6E144
:103BF000FCE0A6E2BCE001900D928A95E1F70C94FE
:103C00006E312296EEADFFAD229731962296FFAF30
:103C1000EEAF2297B0CEE8EFF7E084918F010F5F0F
:103C20001F4F882321F00E945139F801F6CFE7E2B7
:103C3000F2E084918F010F5F1F4F882311F40C94E1
:103C40006E310E945139F801F4CF80E50E94553859
:103C5000882329F00E949B376B017C0103C0C12C93
:103C6000D12C760183E50E945538882361F00E94AB
:103C7000DB3720E030E04AE754E40E94F4F50E948C
:103C8000EFFA6B017C010E94FBD98091F80581114C
:103C900005C060E08DE392E00E94BB630E94DCAF50
:103CA000C60ED71EE81EF91E0E94DCAFDC01CB0158
:103CB0008C199D09AE09BF09B7FD02C00C946E3185
:103CC00080E00E948574F0CF0E944E9781110C9481
:103CD0006E3180E090E0A0EAB0E489839A83AB8300
:103CE000BC8380E090E0ADE4B3E48D839E83AF833A
:103CF000B88780E090E0A0EAB1E489879A87AB8733
:103D0000BC8780E50E945538882319F00E94AB37A4
:103D100001C060E068A3BE016F5F7F4FCE01809657
:103D20000E944FDD0C946E318091500A877087306D
:103D300071F48FE40E945538882319F00E94CC3723
:103D400003C08FE40E940E3881110C946E310E94E2
:103D5000FBD98091000290910102A0910202B091E2
:103D600003028093750390937603A0937703B09337
:103D70007803809131029091320290937403809382
:103D8000730384E690E0909332028093310211E055
:103D900010934F0A88E50E940E38E82E89E50E94AC
:103DA0000E38082F8AE50E940E38F82EE11004C064
:103DB000011104C0182705C0011102C010E001C0A4
:103DC000182F0E94E73882E50E945538882391F128
:103DD0000E94DB374B015C0120E030E0A9010E942A
:103DE0008FF5882339F1111104C0E11002C00023BE
:103DF00091F180921E0C90921F0CA092200CB09218
:103E0000210C20912E0C30912F0C4091300C5091B0
:103E1000310CC501B4010E94CCFB18165CF4198268
:103E20001A821B821C82BE016F5F7F4F8EE19CE075
:103E30000E942236111105C0E11003C0011106C015
:103E40000AC080E00E94F2721123C1F381E00E9457
:103E5000F272111102C0FF2019F082E00E94F2728A
:103E60000E94F33680914E0A80934F0A8091750329
:103E700090917603A0917703B0917803809300022C
:103E800090930102A0930202B09303028091730306
:103E900090917403909332028093310283E0809377
:103EA00037020E94F33D0C946E31109272030C9411
:103EB0006E31209372030C946E310E94DB372B011C
:103EC0003C01133059F0F701EE5EFB4E2081318149
:103ED000428153810E94A5F92B013C01F701EA5D63
:103EE000F34F2081318142815381C301B2010E948D
:103EF000A5F94B015C012DEB37E346E855EB0E9439
:103F0000CCFB87FD1BC02DEB37E346E855E3C5012D
:103F1000B4010E948FF518168CF01F5FB4E0CB0E31
:103F2000D11CE4E0EE0EF11C143039F1D1018D9179
:103F30001D010E945538882381F3BFCF133051F4FF
:103F40004092320C5092330C6092340C7092350CCB
:103F500001E0E3CFA5019401F601608171818281C6
:103F600093810E94A6F9D6016D937D938D939C93C6
:103F70001397812F0E944036D0CF002321F082E397
:103F80009CE00E94EF970E94F33D0C946E310E94DA
:103F90002F9B0C946E31809154149091551483375B
:103FA000910511F40C94C52A0CF0CCC08B3491050A
:103FB00009F458C50CF06CC08831910509F4A7C20A
:103FC000D4F58231910511F40C94B229DCF497FFF9
:103FD00002C00C942831823091050CF4C2C1419783
:103FE00011F00C94283160E089E592E00E94BB63F7
:103FF0005F988A98809108018170809306011298D9
:104000000C946E318531910509F466C23CF44497F5
:1040100011F00C942831E1E7F2E01DC286319105E0
:1040200009F45EC2479711F00C942831E0915214C4
:10403000F09153145FC28D31910511F40C946E31DF
:10404000C4F48A31910509F49AC20CF48AC28B3106
:10405000910509F4A2C24C9711F00C94283140E06C
:1040600060E080915214909153140E94BD430C94CF
:104070006E318F31910509F407C40CF428C38032E6
:10408000910509F4B5C38A9709F4A4C40C942831A6
:104090008936910509F4BAC56CF58335910511F49B
:1040A0000C94AF29A4F48D34910509F4E3C40CF405
:1040B000DDC48135910511F40C949B29823591055D
:1040C00011F00C942831109271030C946E318535E7
:1040D000910511F40C94E52914F40C94B2298C3553
:1040E000910511F40C94FE298836910509F4C6C493
:1040F0000C9428318E36910509F4EFC494F48B3674
:10410000910511F40C94032914F40C94E5288C36D1
:10411000910509F443C58D36910509F4B9C50C9490
:1041200028318037910509F43DC50CF4E9C4813785
:10413000910509F43FC58237910511F40C94862A44
:104140000C942831823E910511F40C94002F0CF050
:1041500083C08E3B910509F480C7ECF58937910542
:1041600011F40C94CE2A04F58637910511F40C94C1
:10417000C82A4CF48537910511F00C9428310E941F
:10418000A3C90C946E318737910511F40C94CB2A96
:104190008837910511F00C94283181E080934F0A03
:1041A00080934E0A0C946E318C38910509F437C710
:1041B0003CF48D37910511F40C9415290C94283199
:1041C0008139910511F40C94D32A8B39910509F4A6
:1041D00038C50C9428318D3C910511F40C94432C76
:1041E000CCF4893C910511F40C94902B3CF4883C60
:1041F000910511F40C944A2B0C9428318B3C9105B9
:1042000011F40C94B12B8C3C910511F40C94CE2B31
:104210000C942831833D910511F40C94A52D84F460
:104220008E3C910511F00C942831EDE5CE2EE2E0A4
:10423000DE2EF1E5EF2EFAE0FF2E10E00C94B62C06
:104240008C3D910511F40C94852E8D3D910511F452
:104250000C94922E0C942831853FF1E09F0711F4C5
:104260000C945E300CF042C0833631E0930711F4B9
:104270000C944530ECF48D3251E0950711F40C9418
:10428000522F3CF48C32914011F40C94292F0C9451
:1042900028318E32E1E09E0711F40C94F32F8F3217
:1042A000914011F00C9428310E94FFC40C946E319F
:1042B0008A3921E0920709F479C44CF4803991409D
:1042C00011F00C9428310E94FBD90C946E318C3A79
:1042D00051E0950711F40C94C82C843F914011F0E3
:1042E0000C9428310E94758C0C946E318B35B2E0A1
:1042F0009B0711F40C949130C4F4873FF1E09F07C1
:1043000011F40C94643014F40C946130883F31E063
:10431000930711F40C946E308835924011F00C9490
:1043200028310E94DDC20C946E318B3853E0950722
:1043300011F40C946E314CF48438934011F00C94C9
:1043400028310E9477C20C946E31803AE3E09E07D8
:1043500009F48DC2873E934011F40C9416310C94ED
:104360002831A0905214B090531480E50E94553823
:10437000882359F00E949B376B017C0111E0672B69
:10438000682B692B31F410E004C010E0C12CD12C53
:10439000760183E50E945538882311F40C94583235
:1043A0000E94DB3720E030E04AE754E40E94F4F555
:1043B0000E94EFFA6B017C0111110BC0672B682B77
:1043C000692B39F4A114B10421F0D5018C9181112C
:1043D00002C010E001C011E00E94FBD9112329F0B6
:1043E00061E0C5010E94F56305C060E086E492E0EB
:1043F0000E94BB6383E08093130C81E08093120CD6
:10440000C114D104E104F104F1F00E94DCAFC60E46
:10441000D71EE81EF91E0E94DCAFDC01CB018C190F
:104420009D09AE09BF09B7FD06C00E9427E310929F
:10443000120C0C946E318091120C8823B1F380E041
:104440000E948574E8CF8091120C882371F380E07C
:104450000E948574F8CF84918F010F5F1F4F8823CE
:1044600021F00E945139F801F6CF10924D0940E039
:1044700050E0BA0180E097E00E94B7558BE1E0E0A0
:10448000F7E0DE01159601900D928A95E1F7809193
:10449000FE069091FF069C838B838BE692E09A83C5
:1044A000898340E050E0BE016F5F7F4F80E090E085
:1044B0000E949541CE0101960E94F573E2E6F2E07A
:1044C00084918F010F5F1F4F882311F40C946E317C
:1044D0000E945139F801F4CF0E94FDE60C946E3130
:1044E0001092A9061092AA060C946E31803209F43B
:1044F0001082319680818111F9CF40E061E0809196
:104500005214909153140E94BD430C946E3180E07C
:1045100090E0A8E4B2E489839A83AB83BC8318A2B9
:1045200019A21AA21BA21CA21DA21EA21FA2809148
:104530000F06882359F020E0AE014F5F5F4FBE01A8
:10454000605E7F4FCE0184960E9492998091AA0668
:10455000882319F081E08093A9060E9400480C94FA
:104560006E311092A9060E94394882E892E0909339
:104570000A0C8093090C0E9494360C946E31809141
:10458000AA06882311F40C946E3183E50E945538F5
:1045900081110C945D320C946E3183E40E940E38CC
:1045A000882309F454C0E4EBF2E084918F010F5F9B
:1045B0001F4F882321F00E945139F801F6CF8091D6
:1045C0009B08882391F0BE016F5F7F4F88E998E0D8
:1045D0000E94D16F8E010F5F1F4FF80181918F01F3
:1045E000882381F10E945139F8CFE7E8F2E0849105
:1045F0008F010F5F1F4F882329F10E945139F80165
:10460000F6CF80914C12882309F4BBC2B2E3CB2EC3
:10461000B3E0DB2EE12CF12C20E080914C1290E0F5
:104620000E2C02C0959587950A94E2F780FD91C201
:10463000FFEFEF1AFF0A32E0C30ED11C45E0E4168B
:10464000F10459F78AE00E9451390C946E3180913F
:10465000AA06882371F18091A906882351F1E1E926
:10466000F2E084918F010F5F1F4F882321F00E9499
:104670005139F801F6CF6091490970914A0980914A
:104680004B0990914C094AE00E94373D8FE20E940D
:10469000513960914509709146098091470990917F
:1046A00048094AE00E94373D8AE00E9451390C9443
:1046B0006E31E3EAF2E084918F010F5F1F4F882390
:1046C00011F40C946E310E945139F801F4CF8091AD
:1046D000AA06882311F40C946E3188E998E00E94B0
:1046E000855588E998E00E94AC6F1092A806109258
:1046F000A70600915214109153148091AA068823A2
:1047000011F40C946E310E949A40B801CE0180964B
:104710000E94E43F8C01892B11F40C946E3168A146
:1047200079A16115710511F06C5F7F4F19821C82B0
:1047300022E0A801CE0101960E94A05B811102C077
:10474000F12C14C0CE0101960E94523F8823C1F380
:1047500061E0CE0101960E94B56F009789F325EEC6
:10476000DC012C931C820E949653F82ECE010196F8
:104770000E94E138FF2011F1E3ECF2E084917F0127
:10478000BFEFEB1AFB0A882321F00E945139F70191
:10479000F5CFF80181918F01882319F00E945139DA
:1047A000F8CF8AE00E9451391092490910924A09C3
:1047B00010924B0910924C090C946E31E1EDF2E02D
:1047C00084917F012FEFE21AF20A882321F00E94E0
:1047D0005139F701F5CFD8018D918D01882319F05A
:1047E0000E945139F8CF8EE20E9451390C946E31FB
:1047F0008091A90681110E94FBD98091AA06882385
:1048000011F40C946E3180E50E945538882319F01C
:104810000E94CC3703C080E50E940E38182F482F25
:1048200061E080915214909153140E94BD4383E53E
:104830000E945538882381F00E94AB37AB01BC0140
:104840004093490950934A0960934B0970934C096E
:1048500088E998E00E94B7558091AA06882319F04C
:1048600081E08093A90611110C946E3176CE80916F
:1048700052149091531421E02093A80640E060E088
:104880000E94BD430C946E310E94CC471CE3C12EA4
:10489000D12CE12CF12CA70196010E946AF9762E09
:1048A000672ECA01B901A70196010E946AF96B013E
:1048B0007C01CA01B90128E130E040E050E00E94EB
:1048C0006AF94B015C01C9016DE671E00E946AFC66
:1048D0008E010F5F1F4F6115710599F06F927F92E6
:1048E000DF92CF929F928F929F938F937F936F933C
:1048F00081E193E09F938F931F930F930E9428F57C
:1049000012C00097B1F06F927F92DF92CF929F9288
:104910008F929F938F9381E093E09F938F931F9348
:104920000F930E9428F50FB6F894DEBF0FBECDBFDF
:1049300036C081149104A104B10479F06F927F9282
:10494000DF92CF929F928F9285EF92E09F938F9309
:104950001F930F930E9428F5E6CFC114D104E10400
:10496000F10469F06F927F92DF92CF928DEE92E028
:104970009F938F931F930F930E9428F5D4CF6F922C
:104980007F9289EE92E09F938F931F930F930E94E3
:1049900028F50F900F900F900F900F900F9060E000
:1049A000C8010E94F563E3E1F8E084917F019FEF85
:1049B000E91AF90A882321F00E945139F701F5CF4D
:1049C000B80185E293E00E94DD518AE00E945139EE
:1049D0000C946E3183E50E945538882311F40C94B1
:1049E0006E310E94BB37E82E80E50E94553888233F
:1049F00039F00E94BB37182F87FF03C00C946E312B
:104A00001DE089E40E945538882349F00E94CC3784
:104A1000811111C0E4E6F4E08DE28E0F07C089E455
:104A20000E940E38F5CF31968E1729F09491191304
:104A3000FACF0C94B73361E0812F0E94A0AE6E2DA7
:104A4000812F0E949F86F12CB701812F0E94DCAE3E
:104A5000193011F00C946E31F092C60CE092C50C36
:104A60000C946E310E9400480C946E310E943948BB
:104A70000C946E310E944E480C946E3188E690E0A2
:104A80000E949D3D81110C946E3180914C1283FFE8
:104A900002C00C946E3183E50E9455388823C9F01A
:104AA0000E94DB370E94EAFA7093490C6093480C2D
:104AB00080E00E94A0BC0E94DB3720E030E040EAAA
:104AC00052E40E948FF5181624F00E944E480E946E
:104AD00027E30E944DE90C946E318EE40E94553814
:104AE000882311F40C946E310E94AB376093F40567
:104AF0007093F5058093F6059093F7050C946E314D
:104B000083E50E940E38882359F083E50E945538CA
:104B1000882319F00E94BB3701C080E080934C12BB
:104B2000E3E1F8E084918F010F5F1F4F882321F0AC
:104B30000E945139F801F6CFE0E4F3E084918F014F
:104B40000F5F1F4F882309F45CCD0E945139F80193
:104B5000F5CFBB24B394B20E222319F08CE20E944D
:104B60005139F60125913491F901849189010F5F42
:104B70001F4F882321F00E9451399801F5CF2B2D2A
:104B800057CDECE3F3E084918F010F5F1F4F882333
:104B900009F458CD0E945139F801F5CF1092360230
:104BA0000C946E3187E493E00E9416740E94C5C491
:104BB0000C946E3183E50E945538882369F00E9479
:104BC000BB378D3320F4809316020C946E318CE346
:104BD000809316020C946E31E3E1F8E084918F012A
:104BE0000F5F1F4F882321F00E945139F801F6CF43
:104BF0004091160250E060E070E080E593E00E9492
:104C00008A518AE00E9451390C946E3189E690E015
:104C10000E949D3D811111C0E7E5F3E084918F0171
:104C20000F5F1F4F882321F00E945139F801F6CF02
:104C30000E949BBB8AE00E9451391092130C0C9485
:104C4000E33383E50E945538882311F40C946E31C8
:104C50000E94BB37182F8D3308F01CE31093F20924
:104C60000E94DCAF6B017C01212F30E0A8EEB3E0A5
:104C70000E9496F9C60ED71EE81EF91EC092EE09D4
:104C8000D092EF09E092F009F092F1090C946E31A4
:104C90008DE690E00E949D3D81110C946E318091D3
:104CA0004C1283FF02C00C946E3183E50E9455388C
:104CB0008CA7811105C082E50E9455388823E1F157
:104CC0000E94DB370E94EAFA7093490C6093480C0B
:104CD00080E00E94A0BC0E94DB3720E030E040EA88
:104CE00052E40E948FF5181614F40C946D320E9451
:104CF0004E480E9427E36091480C7091490C072EA2
:104D0000000C880B990B0E9495F52091C80C3091EE
:104D1000C90C4091CA0C5091CB0C0E94CCFB1816C8
:104D200014F40C9471325CA5511105C08EE593E02A
:104D300060E00E94BB6381E0A5968FAFA5970E94BB
:104D40004DE9A5968FADA597882311F40C946E318B
:104D500081E08093360218AE19AE1AAE1BAE68968B
:104D60001CAE1DAE1EAE1FAE689718AA29961FAEC8
:104D700029978CE32D968FAF2D979CE169969FAF75
:104D80006997A6E46196AFAF6197C12CD12CF0E88A
:104D9000EF2EAFEBFA2E812C912C54016091480C30
:104DA0007091490C072E000C880B990B0E9495F509
:104DB000162F072F782E692E262F372F482F592F81
:104DC000B601C7010E948FF58823C1F02091C80C5D
:104DD0003091C90C4091CA0C5091CB0C612F702FAF
:104DE000872D962D0E948FF5881F8827881F88ABF6
:104DF000BCA5BB2339F0882329F0DDC11C2D0D2D66
:104E00007E2C6F2C0E94DCAF6B017C01DC01CB019E
:104E100068962CAD3DAD4EAD5FAD6897821B930B90
:104E2000A40BB50BB7FD3DC0D701C60188519C4FFF
:104E3000AF4FBF4F68968CAF9DAFAEAFBFAF689717
:104E40000E949BBBEAE5F3E084912F019FEF491A92
:104E5000590A882321F00E945139F201F5CF8114BB
:104E60009104A104B104B9F0D501C401805F984D4B
:104E7000AF4FBF4FBC01CD016C197D098E099F0951
:104E800028EE33E040E050E00E946AF9CA01B9011F
:104E90000E94D93D03C08FE30E9451398AE00E94ED
:104EA000513980E00E9485740E94DCAF6093E6096E
:104EB0007093E7098093E8099093E909A091C80CE1
:104EC000ACABB091C90CBCAFE091CA0C2196EFAF6E
:104ED0002197F091CB0C2596FFAF25979D01AF014F
:104EE000612F702F872D962D0E94A5F91B012C0193
:104EF00020E030E0A9010E94CCFB87FF04C057FAF4
:104F0000509457F8509481149104A104B10459F4B9
:104F100020E030E040E85FE3C201B1010E948FF57C
:104F200087FF0DC00AC020E030E040E450E4C20139
:104F3000B1010E94CCFB181614F44601570128A9B0
:104F4000222309F450C088AD99ADAAADBBAD892B21
:104F50008A2B8B2B61F0D701C60128AD39AD4AAD44
:104F60005BAD821B930BA40BB50BB7FD3CC02CA90A
:104F70003CAD21964FAD219725965FAD259729969B
:104F80006FAD29972D967FAD2D9769968FAD699757
:104F900061969FAD61970E94A5F920E030E040EC5A
:104FA0005FE30E948FF587FD06C1D701C601805AD5
:104FB0009541AF4FBF4F88AF99AFAAAFBBAF9CA988
:104FC00029969FAF2997ACAD2D96AFAF2D9721961F
:104FD000BFAD21976996BFAF69972596EFAD25972D
:104FE0006196EFAF619780913602882309F4E3C0A0
:104FF00081149104A104B10429F4C12ED02EE72C10
:10500000F62CCCCEF0E1CF1AF7E2DF0AE108F10886
:10501000C818D908EA08FB08F7FECDC0EECF80918A
:105020004C1283FF02C00C946E3183E50E94553808
:10503000882311F40C946E310E94DB370E94EAFA47
:105040006639710514F066E970E07093080C60939E
:10505000070C0E9455BC0C946E3180914C1283FF5A
:1050600002C00C946E3183E50E94553825968FAFAF
:105070002597811107C082E50E945538882311F4D5
:105080000C946E310E94DB370E94EAFA6639710592
:1050900014F00C9487337093080C6093070C0E94F3
:1050A00055BC0E94DB3720E030E040EA50E40E942B
:1050B000CCFB181614F40E9400486091070C709104
:1050C000080C072E000C880B990B0E9495F5209177
:1050D0006D1230916E1240916F12509170120E94B9
:1050E000CCFB181614F40C9475328CE793E060E056
:1050F0000E94BB6381E0809336028091470C8093CD
:10510000AF1218AA19AA1AAA1BAA68961CAE1DAE3D
:105110001EAE1FAE68971CA629961FAE29972CE3DA
:105120002D962FAF2D973CE169963FAF699746E4E6
:1051300061964FAF6197C12CD12C70E8E72EEFEB51
:10514000FE2E812C912C54016091070C7091080C5B
:10515000072E000C880B990B0E9495F5162F072F30
:10516000782E692E262F372F482F592FB601C701C9
:105170000E948FF5882311F40C94793220916D12DE
:1051800030916E1240916F1250917012612F702FFA
:10519000872D962D0E948FF5881F8827881F8CA742
:1051A00025965FAD2597552311F40C947D32882305
:1051B00011F40C947D3280913602882311F40C9402
:1051C0006E310E9427E30C946E3180E50E945538C1
:1051D000811106C083E50E945538882361F006C01E
:1051E0000E94BB3781110C946E31F4CF0E94AB3713
:1051F0006F3F710510F06FEF70E07093C60C609315
:10520000C50C0C946E3180E50E945538811106C0A2
:105210001092C60C1092C50C0C946E310E94AB37E4
:10522000672B11F00C946E31F3CF8CE40E940E3892
:10523000882381F00E94DB376B017C0120E030E0A5
:10524000A9010E94CCFB87FF0AC0F7FAF094F7F897
:10525000F09405C0C12CD12CE12C60E4F62EF7FAB5
:10526000F094F7F8F094CCA2DDA2EEA2FFA280E0C9
:1052700090E0A0EAB0E489839A83AB83BC8380E0AA
:1052800090E0ADE4B3E48D839E83AF83B88780E084
:1052900090E0A0EAB1E489879A87AB87BC8788E56C
:1052A0000E945538882379F088E50E945538882374
:1052B00019F00E94DB3703C060E070E0CB01698326
:1052C0007A838B839C8389E50E945538882379F003
:1052D00089E50E945538882319F00E94DB3703C006
:1052E00060E070E0CB016D837E838F8398878AE5D1
:1052F0000E945538882379F08AE50E945538882322
:1053000019F00E94DB3703C060E070E0CB016987D1
:105310007A878B879C8718A219A21AA21BA220E069
:10532000AE01405E5F4FBE016F5F7F4FCE0184963E
:105330000E945B39D3C70E94EBBC0E9421DB109214
:10534000C60C1092C50C68EE73E080E090E00E94FD
:10535000CD6260E08AE993E00E94BB63BFC72093FF
:105360007103BCC783E50E945538882399F00E94D9
:10537000DB3720E030E04AE754E40E94F4F50E9475
:10538000EFFA6093170270931802809319029093BA
:105390001A02A4C788E50E940E3881110C948B3341
:1053A00089E50E940E3881110C948B338AE50E94A6
:1053B0000E3881110C948B3385E40E940E388111D4
:1053C0000C948B330E9421DB89C783E50E940E3841
:1053D000882309F483C70E94DB3720E030E04AE7E6
:1053E00054E40E94F4F50E94EFFA6093EA09709386
:1053F000EB098093EC099093ED0970C74DE5C42E3D
:1054000042E0D42E5DE4E52E52E1F52E10E0D60107
:105410008D916D010E940E38882309F46DC0133000
:1054200009F063C00E94DB374B015C0120E030E0F3
:1054300040EA51E40E948FF587FF4EC0A501940118
:105440006091591270915A1280915B1290915C1286
:105450000E9482FA2B013C019B01AC016091810CFE
:105460007091820C8091830C9091840C0E94F4F5D1
:105470006093810C7093820C8093830C9093840CC6
:10548000A30192016091A10C7091A20C8091A30CD8
:105490009091A40C0E94F4F56093A10C7093A20C5F
:1054A0008093A30C9093A40C60916D0C70916E0C82
:1054B00080916F0C9091700C0E9493F5A301920162
:1054C0000E94F4F50E94EFFA60936D0C70936E0CDD
:1054D00080936F0C9093700C8092591290925A1294
:1054E000A0925B12B0925C1207C00E94DB37F701FA
:1054F00060837183828393831F5FF4E0EF0EF11C5E
:10550000143009F084CF0E940552E8C60E94FBD9EE
:1055100083E50E945538882311F40C94C31F0E9420
:10552000AB376230710511F00C94C31F0E94F1E497
:105530008BE50E9451396091D9147091DA148091F1
:10554000DB149091DC1442E00E94B73E4091DD14E0
:105550005091DE146091DF147091E0148DEA93E0B5
:105560000E94A7514091E1145091E2146091E3141C
:105570007091E4148AEA93E00E94A7518DE50E949D
:1055800051398AE00E945139A9C60E94B0C9A6C605
:105590000E9451C9A3C60E9450DEA0C610924F0AB5
:1055A00010924E0A9BC683E50E945538882319F055
:1055B0000E94AB3702C060E070E08B01112702301F
:1055C0001105CCF0E8EFF7E084918F010F5F1F4FDA
:1055D000882321F00E945139F801F6CFE0EBF3E087
:1055E00084918F010F5F1F4F882309F477C60E94B3
:1055F0005139F801F5CF88E40E9455388823A9F085
:105600000E94AB37603A71053CF0653021E07207CB
:105610002CF064E071E002C060EA70E0F801EE0F87
:10562000FF1FE65DF54F7183608386E40E94553865
:105630008823A9F00E94AB37F801EE0FFF1FE25D4F
:10564000F54F718360836F3F710519F014F06FEFB0
:1056500070E077FF02C060E070E07183608382E4F5
:105660000E945538882309F439C60E94AB3765304B
:10567000710534F0683871052CF067E870E002C0FD
:1056800065E070E0000F111FF801EA5DF54F7183CE
:10569000608324C688EC90E00E949D3D81111EC667
:1056A00084E40E940E388823C1F10E94DB3711E0A8
:1056B00020E030E0A9010E948FF5811101C010E0C7
:1056C0001093E509112349F10E94DB37E091AF12F5
:1056D00034E0E39FF0011124EF51F64F60837183B2
:1056E0008283938320E030E0A9016091E109709109
:1056F000E2098091E3099091E4090E948FF58111FC
:105700000CC080E090E0A0EEBFE38093E1099093AD
:10571000E209A093E309B093E4090E949AD8DEC598
:1057200010E0E12E14E1F12E0DE512E084E0D82E18
:10573000D00ED8018D918D010E940E38882349F03A
:105740000E94DB370E94EFFAF70160837183828346
:105750009383F4E0EF0EF11CD012EBCF0E9432D90C
:10576000BDC5A5E9EA2EACE0FA2E0DE512E0B4E0E5
:10577000DB2ED00ED8018D918D010E940E3888232A
:1057800039F00E94DB37F701608371838283938352
:10579000F4E0EF0EF11CD012EDCFA0C583E50E941E
:1057A00055388823A1F00E94DB3760938D0C7093ED
:1057B0008E0C80938F0C9093900C6093890C709357
:1057C0008A0C80938B0C90938C0C10E001C011E03C
:1057D00080E50E945538882359F00E94DB3760939A
:1057E0008D0C70938E0C80938F0C9093900C10E026
:1057F00082E50E945538882359F00E94DB37609378
:10580000910C7093920C8093930C9093940C10E0F5
:1058100084E50E945538882359F00E94DB37609355
:10582000890C70938A0C80938B0C90938C0C56C5CA
:10583000112309F453C540918D0C50918E0C609149
:105840008F0C7091900C88ED93E00E94A7514091CD
:10585000910C5091920C6091930C7091940C85ED89
:1058600093E00E94A7514091890C50918A0C60915D
:105870008B0C70918C0C82ED93E00E94A7518AE012
:105880000E9451392BC581E50E940E38882351F0C2
:105890000E949B376093A90C7093AA0C8093AB0C69
:1058A0009093AC0C83E50E940E38882351F00E943F
:1058B000DB376093C10C7093C20C8093C30C909340
:1058C000C40C84E50E940E38882351F00E94DB3717
:1058D0006093BD0C7093BE0C8093BF0C9093C00C72
:1058E00088E50E940E38882351F00E94DB376093D0
:1058F000750C7093760C8093770C9093780C89E5F7
:105900000E940E38882351F00E94DB376093790C97
:1059100070937A0C80937B0C90937C0C8AE50E94A8
:105920000E38882351F00E94DB3760937D0C709312
:105930007E0C80937F0C9093800C85E40E940E383F
:10594000882309F4CBC40E94DB376093810C7093E9
:10595000820C8093830C9093840CC0C41F5FF4E08E
:10596000EF0EF11C133011F40C94C31FD6018D916E
:105970006D010E940E38882389F30E94DB37F701FE
:105980006083718382839383812F0E944036E6CFA8
:105990000E944E978111A2C473EC872E77E1972E57
:1059A00026E23CE03DA72CA7AE014F5F5F4F5A01B6
:1059B0000CE118E11A0153E0500F58ABF401659166
:1059C000759185919491ACA5BDA5CD90DD90ED909C
:1059D000FD90BDA7ACA7A70196010E94A5F92B01D8
:1059E0003C0120E030E040EA51EC0E94CCFB87FD16
:1059F00010C020E030E040EA51E4C301B2010E944F
:105A00008FF5181634F0F101408251826282738260
:105A10000EC0F80184911816B4F7F7FAF094F7F86D
:105A2000F094D101CD92DD92ED92FC921397D101C9
:105A3000CD90DD90ED90FD901D0120E030E040EA3A
:105A400051ECC701B6010E94CCFB87FF03C0E8EF11
:105A5000F7E00BC020E030E040EA51E4C701B601B6
:105A60000E948FF5181674F5F2CF84918F010F5FA5
:105A70001F4F882321F00E945139F801F6CFE6E04C
:105A8000F4E084918F010F5F1F4F882321F00E9463
:105A90005139F801F6CF61E088EF93E00E94BB63D3
:105AA0000E9450B988E290E099A388A388EC90E026
:105AB0009DA38CA3BE01605E7F4FCE0184960E94A1
:105AC00041E80CC4B4E08B0E911C0F5F1F4FE8A996
:105AD000E01374CF61E5E62E6AE0F62E10E0F501E2
