:100000000C94DA1F0C940B200C940B200C940B20F6
:100010000C940B200C940B200C940B200C940B20B4
:100020000C940B200C942DF00C942DF00C942DF0CE
:100030000C940B200C940B200C940B200C940B2094
:100040000C940B200C94F7630C940B200C940B2055
:100050000C940B200C940B200C947F520C9420ECED
:100060000C940B200C9464C90C940B200C940B2062
:100070000C940B200C940B200C940B200C940B2054
:100080000C940B200C940B200C940B200C940B2044
:100090000C940B200C940B200C940B200C940B2034
:1000A0000C940B200C940B200C940B200C940B2024
:1000B0000C940B200C940B200C940B200C940B2014
:1000C0000C940B200C940B200C940B200C940B2004
:1000D0000C940B200C940B200C940B200C940B20F4
:1000E0000C940B20084AD73B3BCE016E84BCBFFD6D
:1000F000C12F3D6C74319ABD56833DDA3D00C77FF8
:1001000011BED9E4BB4C3E916BAAAABE0000008090
:100110003F05A84CCDB2D44EB93836A9020C50B91F
:10012000918688083CA6AAAA2ABE000000803F004B
:100130004E414E494E495459494E46CDCCCC3D0ACC
:10014000D7233C17B7D13877CC2B329595E6241FAF
:10015000B14F0A000020410000C84200401C462068
:10016000BCBE4CCA1B0E5AAEC59D74453400453307
:10017000004532004531004530005A320059320006
:100180005832005A005900580054524947474552C6
:100190004544006F70656E003A200066696C616DC1
:1001A000656E74007A5F6D696E00795F6D696E00CF
:1001B000785F6D696E005265706F7274696E67204A
:1001C000656E6473746F70207374617475730A0064
:1001D00024F4D43050C38E20C2A24017828B7011F9
:1001E000127A910D816CD90AA861E108C758660797
:1001F000615143061E4B5D05C145A7041A41110418
:10020000093D9803713931034036DB0265339102B1
:10021000D4305402802E1D02632CEE01752AC501D4
:10022000B028A001102781018F2564012B244B01E8
:10023000E0223401AC211F018D200D01801FFC0044
:10024000841EED00971DDF00B81CD200E61BC6001F
:10025000201BBC00641AB200B219A8000A19A00041
:100260006A189900D117910040178B00B5168400C9
:1002700031167E00B31579003A157300C7146F006C
:1002800058146A00EE1366008813630025135E009D
:10029000C7125B006C12570015125400C1115100B7
:1002A00070114F0021114B00D61049008D104700EE
:1002B0004610440002104200C00F4000800F3E0074
:1002C000420F3C00060F3B00CB0E3800930E370068
:1002D0005C0E3500270E3400F30D3200C10D3100E5
:1002E000900D3000600D2E00320D2D00050D2C00FC
:1002F000D90C2B00AE0C2900850C29005C0C2700C2
:10030000350C27000E0C2600E80B2400C40B24003B
:10031000A00B23007D0B23005A0B2100390B210079
:10032000180B2000F80A1F00D90A1E00BB0A1E0085
:100330009D0A1D00800A1D00630A1C00470A1B005D
:100340002C0A1B00110A1A00F7091A00DD0919000E
:10035000C4091900AB091900920917007B0918009C
:10036000630917004C09160036091600200916000B
:100370000A091500F5081500E0081400CC0814005F
:10038000B8081400A4081400900813007D08120097
:100390006B081300580812004608120034081100B8
:1003A000230811001208110001081100F0071000C5
:1003B000E0071000D0071000C0071000B0070F00C2
:1003C000A107100091070E0083070F0074070F00AC
:1003D00065070E0057070E0049070E003B070D008A
:1003E0002E070E0020070D0013070D0006070D0055
:1003F000F9060C00ED060D00E0060C00D4060C001A
:10040000C8060C00BC060C00B0060C00A4060B00CD
:1004100099060C008D060B0082060B0077060B0078
:100420006C060B0061060A0057060B004C060A001A
:1004300042060A0038060A002E060A0024060A00B0
:100440001A060A001006090007060A00FD05090041
:10045000F4050900EB050900E2050900D9050900CA
:10046000D0050900C7050900BE050900B50508004B
:10047000AD050800A50509009C05080094050800C5
:100480008C050800840508007C0508007405080038
:100490006C050700650508005D05070056050800A6
:1004A0004E0507004705070040050800380507000E
:1004B000310507002A050700230507001C05060073
:1004C000160507000F0507000805060002050700CE
:1004D000FB040600F5040700EE040600E80406002D
:1004E000E2040700DB040600D5040600CF04060082
:1004F000C9040600C3040600BD040600B7040600D4
:10050000B1040500AC040600A6040600A004050022
:100510009B04060095040500900406008A0405006B
:1005200085040500800406007A04050075040500B2
:10053000700405006B0405006604050061040500F5
:100540005C04050057040500520405004D04050035
:1005500048040500430405003E0404003A04050075
:1005600035040500300404002C04050027040400B1
:10057000230405001E0404001A04040016040500E8
:10058000110404000D04040009040500040404001F
:1005900000040400FC030400F8030400F403040056
:1005A000F0030400EC030400E8030400E403040087
:1005B000E0030400DC030400D8030400D4030400B7
:1005C000D0030400CC030400C8030300C5030300E8
:1005D00024F404D9201BC40C5C0E9804C4095F02E7
:1005E00065077101F405F900FB04B30048048700B6
:1005F000C10369005803550003034500BE023A00D9
:100600008402310053022A0029022500040220003E
:10061000E4011C00C8011900AF0117009801140083
:1006200084011300710110006101100051010E00DE
:1006300043010D0036010B002B010B0020010B00C4
:10064000150109000C01090003010800FB00080066
:10065000F3000800EB000700E4000600DE000600DF
:10066000D8000600D2000600CC000500C700050037
:10067000C2000500BD000400B9000400B50004007C
:10068000B1000400AD000400A9000400A5000300AF
:10069000A20003009F0004009B00030098000300D9
:1006A0009500020093000300900003008D000200FB
:1006B0008B00030088000200860002008400030013
:1006C000810002007F0002007D0002007B0002002A
:1006D0007900020077000100760002007400020039
:1006E00072000100710002006F0002006D00010045
:1006F0006C0002006A00010069000200670001004E
:100700006600010065000100640002006200010053
:1007100061000100600001005F0002005D00010057
:100720005C0001005B0001005A000100590001005B
:10073000580001005700010056000100550001005B
:10074000540001005300000053000100520001005A
:1007500051000100500001004F0001004E00000058
:100760004E0001004D0001004C0001004B00000054
:100770004B0001004A000100490001004800000050
:10078000480001004700010046000000460001004B
:100790004500000045000100440001004300000046
:1007A000430001004200000042000100410000003F
:1007B00041000100400001003F0000003F00010037
:1007C0003E0000003E0001003D0000003D00010031
:1007D0003C0000003C0000003C0001003B00000029
:1007E0003B0001003A0000003A000100390000001F
:1007F0003900010038000000380000003800010016
:10080000370000003700010036000000360000000D
:100810003600010035000000350000003500010001
:1008200034000000340000003400010033000000F8
:1008300033000000330001003200000032000000ED
:1008400032000100310000003100000031000100E1
:100850003000000030000000300001002F000000D8
:100860002F0000002F0000002F0001002E000000CC
:100870002E0000002E0001002D0000002D000000C1
:100880002D0000002D0001002C0000002C000000B5
:100890002C0000002C0001002B0000002B000000A9
:1008A0002B0000002B0001002A0000002A0000009D
:1008B0002A0000002A000100290000002900000091
:1008C0002900000029000000290001002800000084
:1008D0002800000028000000280000002800010077
:1008E000270000002700000027000000270000006C
:1008F000270001002600000026000000260000005E
:100900002600000026000100250000002500000050
:100910002500000025000000250000002500010042
:100920002400000024000000240000002400000037
:100930002400010023000000230000002300000029
:10094000230000002300000023000000230001001A
:10095000220000002200000022000000220000000F
:100960002200000022000100210000002100000000
:1009700021000000210000002100000021000000F3
:1009800021000100200000002000000020000000E5
:1009900020000000200000002000000020000000D7
:1009A000200001001F0000001F0000001F000000C9
:1009B0001F0000001F0000001F0000001F000100BA
:1009C0001E0000001E0000001E0000001E000000AF
:1009D000C23100001C260000F4190000D80F0000EE
:1009E000EB080000C0040000750200004001000098
:1009F0002CFFFFFFFFFF0001010101016265640A96
:100A0000002C2073797374656D2073746F7070653A
:100A10006421204865617465725F49443A2000D0C2
:100A2000A0D0B0D0B7D0BED0B3D1802E20D181D14C
:100A300082D0BED0BBD0B020D0BDD0B520D183D025
:100A4000B42E0048656174696E67206661696C65E3
:100A50006400453120D0A0D0B0D0B7D0BED0B3D143
:100A600080D0B5D0B220D0BDD0B520D183D0B4D005
:100A7000B0D0BBD181D18F0048656174696E6720A9
:100A80006661696C65640070012C0190012701B0FA
:100A9000012201C0011D01F00118011002130130F3
:100AA000020E016002090190020401C002FF000071
:100AB00003FA004003F5008003F000D003EB0020B0
:100AC00004E6007004E100E004DC004005D700C04B
:100AD00005D2004006CD00D006C8008007C3003014
:100AE00008BE00F008B900C009B400B00AAF00B0F9
:100AF0000BAA00D00CA500000EA000500F9B00C058
:100B00001096005012910000148C00C0158700B0A0
:100B1000178200B0197D00D01B7800001E730040C2
:100B2000206E0090226900F024640040275F00904E
:100B3000295A00E02B5500102E500020304B001099
:100B4000324600E033410090353C001037370070EA
:100B5000383200A0392D00B03A2800A03B230060B5
:100B60003C1E00103D1900903D1400103E0F007017
:100B70003E0A00C03E0500003F0000403FFBFF80F2
:100B80003FF6FFC03FF1FF453120D0A3D091D09573
:100B9000D093D090D09DD098D09520D0A2D095D091
:100BA0009FD09BD09000D0A3D091D095D093D090DF
:100BB000D09DD098D09520D0A2D095D09FD09BD05A
:100BC0009020D0A1D0A2D09ED09BD0900054686538
:100BD000726D616C2052756E6177617900453120CC
:100BE000D09ED188D0B8D0B1D0BAD0B03A20D0A25F
:100BF00020D0BCD0B0D0BAD1812E00D09ED188D028
:100C0000B8D0B1D0BAD0B03A20D0A220D181D18210
:100C1000D0BED0BBD0B020D0BCD0B0D0BAD1810033
:100C20004D415854454D502074726967676572652F
:100C30006400453120D09ED188D0B8D0B1D0BAD090
:100C4000B03A20D0A220D0BCD0B8D0BD2E00D09ECB
:100C5000D188D0B8D0B1D0BAD0B03A20D0A220D16B
:100C600081D182D0BED0BBD0B020D0BCD0B8D0BD56
:100C70002E004D494E54454D50207472696767658A
:100C8000726564004D383420582059205A204500A0
:100C9000202F002042403A0020403A008701850181
:100CA000830180017D017A017701740171016E0178
:100CB0006B01747275650066616C73650020746504
:100CC0006D7065726174757265207072657761729E
:100CD0006E207472696767657265643A20002070DF
:100CE00072657761726E20666C616720636C656106
:100CF0007265640A0025753A253032750025303258
:100D0000753A253032750025756420253032753AE4
:100D10002530327500202020202020005A00590064
:100D200020202020005800092000000000000000C2
:100D30000000000000003FFFF00000000000000085
:100D400000000000003800700000000000000000FB
:100D50000000000030FC3000000000000000000037
:100D600000000020FC100000000000000000000057
:100D700000002078100000000000000000000000CB
:100D80000020301000000000000000000000000003
:100D90002C00D03FC0000000000000002082002E88
:100DA00031D07FE0000000000000001041002F7BE8
:100DB000D07FE0000000000000001041002F7BD039
:100DC0007FE0000000000000002082002E31D03FB4
:100DD000C0000000000000004104002C00D03FC013
:100DE000000000000000008208002030107FE000BA
:100DF0000000000000008208002078107FE0000062
:100E0000000000000041040020FC107FE000000012
:100E10000000000020820030FC301F800000000035
:100E20000000000000003800700F0000000000000B
:100E30000000FFFFC03FFFF00600000000000000C0
:100E400000FFFFC0000000000000000000000000E4
:100E50000000003FFFF00000000000000000000064
:100E600000003800700000000000000000000000DA
:100E7000003186300000000000000000000000008B
:100E80002387100000000000000000000000002781
:100E900087900000000000000000000000002F8785
:100EA000D00000000000000000000000002F03D070
:100EB0003FC0000000000000002082002030107FB2
:100EC000E0000000000000001041002078107FE0EA
:100ED000000000000000001041002078107FE000BA
:100EE0000000000000002082002030103FC0000001
:100EF00000000000004104002F03D03FC0000000AC
:100F0000000000008208002F87D07FE00000000072
:100F10000000008208002787907FE00000000000AA
:100F200000004104002387107FE000000000000063
:100F3000002082003186301F800000000000000089
:100F40000000003800700F0000000000000000FFEB
:100F5000FFC03FFFF0060000000000000000FFFFA0
:100F6000C00000003344205072696E74657220D056
:100F7000B3D0BED182D0BED0B22E00D09FD0B5D1DA
:100F800087D0B0D182D18C2E2E2E00D09FD0B5D15B
:100F900087D0B0D182D18C20D0BDD0B020D0BFD0EE
:100FA000B0D183D0B7D0B5004D313235004D323499
:100FB00000D09FD0B5D187D0B0D182D18C20D0BE07
:100FC000D182D0BCD0B5D0BDD0B5D0BDD0B000D0CE
:100FD0009FD0B5D187D0B0D182D18C20D181205380
:100FE0004420D0BAD0B0D180D182D18B00D09ED154
:100FF00081D182D0B0D0BDD0BED0B2D0B8D182D154
:101000008C20D0BFD0B5D187D0B0D182D18C00D0C8
:101010009FD180D0BED0B4D0BED0BBD0B6D0B8D1D6
:1010200082D18C20D0BFD0B5D187D0B0D182D18C25
:1010300000D09DD0B5D18220534420D0BAD0B0D1B9
:1010400080D182D18B00D09FD0B0D183D0B7D0B027
:1010500020D0BFD0B5D187D0B0D182D0B800D09D3C
:10106000D0B0D181D182D180D0BED0B9D0BAD0B8E1
:1010700000D09FD0BED0B4D0B3D0BED182D0BED02D
:10108000B2D0B8D182D18C00D09DD0B0D181D182E4
:10109000D180D0BED0B8D182D18C00D098D0BDD173
:1010A00084D0BED180D0BCD0B0D186D0B8D0BED094
:1010B000BDD0BDD18BD0B920D18DD0BAD180D0B028
:1010C000D0BD00D0A1D0BCD0B5D0BDD0B020D1848F
:1010D000D0B8D0BBD0B0D0BCD0B5D0BDD182D0B00C
:1010E00000D0A1D0BCD0B5D0BDD0B020D184D0B874
:1010F000D0BBD0B0D0BCD0B5D0BDD182D0B0004D27
:1011000036303020423000D09FD0BED182D0BED009
:10111000BA00D09FD0BED182D0BED0BA00D09AD172
:1011200083D0BBD0B5D18000D09AD183D0BBD0B50D
:10113000D18000D0A1D182D0BED0BB00D0A1D182BD
:10114000D0BED0BB00D0A1D0BED0BFD0BBD0BE00DF
:10115000D0A1D0BED0BFD0BBD0BE00D0A1D0BAD01D
:10116000BED180D0BED181D182D18C00D0A1D0BAE5
:10117000D0BED180D0BED181D182D18C00D09CD0C4
:10118000B5D0BDD18E00D09FD180D0B5D0B4D0BD68
:10119000D0B0D0B3D180D0B5D0B220504C4120D106
:1011A00081D0BED0BFD0BBD0BE00D09FD180D0B543
:1011B000D0B4D0BDD0B0D0B3D180D0B5D0B2205053
:1011C0004C4120D181D182D0BED0BB00D09FD180F4
:1011D000D0B5D0B4D0BDD0B0D0B3D180D0B5D0B21E
:1011E00020504C4100D09FD0BED0B4D0B3D0BED19F
:1011F00082D0BED0B2D0B8D182D18C00D09FD18065
:10120000D0B5D0B4D0BDD0B0D0B3D180D0B5D0B2ED
:101210002041425320D181D0BED0BFD0BBD0BE0030
:10122000D09FD180D0B5D0B4D0BDD0B0D0B3D18014
:10123000D0B5D0B22041425320D181D182D0BED08E
:10124000BB00D09FD180D0B5D0B4D0BDD0B0D0B38A
:10125000D180D0B5D0B22041425300D09FD0BED073
:10126000B4D0B3D0BED182D0BED0B2D0B8D182D1AA
:101270008C004D34323800D09FD180D0B5D0B4D05E
:10128000BDD0B0D0B3D180D0B5D0B220504C410049
:10129000D09ED185D0BBD0B0D0B6D0B4D0B5D0BD63
:1012A000D0B8D0B500D09FD180D0B5D0B4D0BDD00B
:1012B000B0D0B3D180D0B5D0B22041425300D0A13C
:1012C000D0BCD0B5D0BDD0B020D184D0B8D0BBD0A8
:1012D000B0D0BCD0B5D0BDD182D0B000D0A1D0BCF0
:1012E000D0B5D0BDD0B020D184D0B8D0BBD0B0D094
:1012F000BCD0B5D0BDD182D0B0004D363030204208
:101300003000D092D18BD0BAD0BB2E20D0B4D0B286
:10131000D0B8D0B3D0B0D182D0B5D0BBD0B8004D0A
:10132000383400D097D0B0D0BFD0BED0BCD0BDD064
:10133000B8D182D18C20D0BFD0B0D180D0BAD0BEAD
:10134000D0B2D0BAD18300D09FD0B0D180D0BAD0A3
:10135000BED0B2D0BAD0B0205A00473238205A009E
:10136000D09FD0B0D180D0BAD0BED0B2D0BAD0B099
:10137000205900473238205900D09FD0B0D180D0BA
:10138000BAD0BED0B2D0BAD0B02058004732382040
:101390005800D090D0B2D182D0BE20D0BFD0B0D132
:1013A00080D0BAD0BED0B2D0BAD0B0004732380068
:1013B000D094D0B2D0B8D0B6D0B5D0BDD0B8D0B51A
:1013C00020D0BFD0BE20D0BED181D18FD0BC00D024
:1013D0009CD0B5D0BDD18E00D094D0B2D0B8D0B60C
:1013E000D0B5D0BDD0B8D0B520D0BFD0BE20580029
:1013F000D094D0B2D0B8D0B6D0B5D0BDD0B8D0B5DA
:1014000020D0BFD0BE205900D094D0B2D0B8D0B632
:10141000D0B5D0BDD0B8D0B520D0BFD0BE205A00F6
:10142000D0ADD0BAD181D182D180D183D0B4D0B562
:10143000D18000D094D0B2D0B8D0B6D0B5D0BDD085
:10144000B8D0B520302E31D0BCD0BC00D094D0B2B2
:10145000D0B8D0B6D0B5D0BDD0B8D0B52031D0BC82
:10146000D0BC00D094D0B2D0B8D0B6D0B5D0BDD01A
:10147000B8D0B5203130D0BCD0BC00D094D0B2D0E0
:10148000B8D0B6D0B5D0BDD0B8D0B520D0BFD0BEC2
:1014900020D0BED181D18FD0BC00D0ADD0BAD18107
:1014A000D182D180D183D0B4D0B5D18000D094D0B6
:1014B000B2D0B8D0B6D0B5D0BDD0B8D0B520D0BF9E
:1014C000D0BE205A00D094D0B2D0B8D0B6D0B5D0CB
:1014D000BDD0B8D0B520D0BFD0BE205900D094D058
:1014E000B2D0B8D0B6D0B5D0BDD0B8D0B520D0BF6E
:1014F000D0BE205800D0ADD0BAD181D182D180D118
:1015000083D0B4D0B5D18000D094D0B2D0B8D0B60A
:10151000D0B5D0BDD0B8D0B520D0BFD0BE205A00F5
:10152000D094D0B2D0B8D0B6D0B5D0BDD0B8D0B5A8
:1015300020D0BFD0BE205900D094D0B2D0B8D0B601
:10154000D0B5D0BDD0B8D0B520D0BFD0BE205800C7
:10155000D092D18BD0BAD0BB2E00D092D0BAD0BB13
:101560002E00D09FD180D0BED0B3D1802E20D18D7F
:10157000D0BDD0B4D181D182D0BED0BFD18B00D06C
:101580009FD0BED0B4D0B3D0BED182D0BED0B2D066
:10159000B8D182D18C00D098D0BDD0B8D186D0B887
:1015A000D0B0D0BBD0B8D0B7D0B0D186D0B8D18F62
:1015B00020454550524F4D00D09DD0B0D181D182B1
:1015C000D180D0BED0B9D0BAD0B800D092D0BED1E0
:1015D00081D181D182D0B0D0BDD0BED0B2D0B8D16F
:1015E00082D18C20D0BDD0B0D181D182D1802E00CB
:1015F000D097D0B0D0B3D180D183D0B7D0B8D1827A
:10160000D18C20D0BDD0B0D181D182D180D0BED0FC
:10161000B9D0BAD0B800D098D0BDD0B8D186D0B8A3
:10162000D0B0D0BBD0B8D0B7D0B0D186D0B8D18FE1
:1016300020454550524F4D00D0A1D0BED185D1801C
:10164000D0B0D0BDD0B8D182D18C20D0BDD0B0D157
:1016500081D182D180D0BED0B9D0BAD0B800D0A4C8
:10166000D0B8D0BBD0B0D0BCD0B5D0BDD18200D026
:1016700094D0B2D0B8D0B6D0B5D0BDD0B8D0B50027
:10168000D0A2D0B5D0BCD0BFD0B5D180D0B0D1829F
:10169000D183D180D0B000D09CD0B5D0BDD18E0048
:1016A0004D333033205531204525692053256900BD
:1016B000D09FD180D0B5D0B4D0BDD0B0D0B3D18080
:1016C000D0B5D0B22041425320D0BDD0B0D181D1CD
:1016D00082D1802E00D09FD180D0B5D0B4D0BDD0E3
:1016E000B0D0B3D180D0B5D0B220504C4120D0BDC5
:1016F000D0B0D181D182D1802E0050494420417593
:10170000746F74756E6500504944204175746F7430
:10171000756E65005049442D44005049442D4400E5
:101720005049442D49005049442D49005049442D09
:1017300050005049442D5000200820D0A4D0B0D0F3
:10174000BAD182D0BED18000200820D0A4D0B0D0A1
:10175000BAD182D0BED18000200820D09CD0B0D099
:10176000BAD18100200820D09CD0B0D0BAD181005D
:10177000200820D09CD0B8D0BD00200820D09CD01C
:10178000B8D0BD00D092D18BD0BAD0BB2E00D092B1
:10179000D0BAD0BB2E00D090D0B2D182D0BED182F0
:1017A000D0B5D0BCD0BFD0B5D180D0B0D182D1839C
:1017B000D180D0B000D09AD183D0BBD0B5D1800039
:1017C000D09AD183D0BBD0B5D18000D0A1D182D066
:1017D000BED0BB00D0A1D182D0BED0BB00D0A1D0A2
:1017E000BED0BFD0BBD0BE00D0A1D0BED0BFD0BB7A
:1017F000D0BE00D09DD0B0D181D182D180D0BED01A
:10180000B9D0BAD0B800D0A1D0BED185D180D0B0E7
:10181000D0BDD0B8D182D18C20D0BDD0B0D181D1B3
:1018200082D180D0BED0B9D0BAD0B800D0A1D182F8
:10183000D0BED0BB00D0A1D182D0BED0BB00D0A141
:10184000D0BED0BFD0BBD0BE00D0A1D0BED0BFD004
:10185000BBD0BE00D09AD183D0BBD0B5D18000D050
:101860009AD183D0BBD0B5D18000D0A2D0B5D0BCA6
:10187000D0BFD0B5D180D0B0D182D183D180D0B00B
:101880000056D0BFD183D182D0B5D1882E20D0BC14
:10189000D0B8D0BD0056D0BFD183D182D0B5D188C9
:1018A0002E20D0BCD0B8D0BD0056D0BCD0B8D0BD52
:1018B0000056D0BCD0B8D0BD0056D0BCD0B0D0BA45
:1018C000D18120450056D0BCD0B0D0BAD1812045BE
:1018D0000056D0BCD0B0D0BAD181205A0056D0BC6E
:1018E000D0B0D0BAD181205A0056D0BCD0B0D0BA36
:1018F000D18120590056D0BCD0B0D0BAD181205966
:101900000056D0BCD0B0D0BAD18120580056D0BC3F
:10191000D0B0D0BAD181205800D094D0B2D0B8D0B5
:10192000B6D0B5D0BDD0B8D0B50041D0BCD0B0D0C5
:10193000BAD18120450041D0BCD0B0D0BAD18120ED
:10194000450041D0BCD0B0D0BAD181205A0041D09E
:10195000BCD0B0D0BAD181205A0041D0BCD0B0D0D8
:10196000BAD18120590041D0BCD0B0D0BAD18120A9
:10197000590041D0BCD0B0D0BAD18120580041D05C
:10198000BCD0B0D0BAD181205800412DD0BFD18376
:10199000D182D0B5D1882E00412DD0BFD183D18244
:1019A000D0B5D1882E00412DD0B2D182D18FD0B305
:1019B000D0B8D0B2D0B0D0BDD0B8D0B500412DD0C5
:1019C000B2D182D18FD0B3D0B8D0B2D0B0D0BDD048
:1019D000B8D0B500D0A3D181D0BAD0BED180D0B517
:1019E000D0BDD0B8D0B500D0A3D181D0BAD0BED1AF
:1019F00080D0B5D0BDD0B8D0B500D094D0B2D0B8DA
:101A0000D0B6D0B5D0BDD0B8D0B50056652DD180F8
:101A1000D18BD0B2D0BED0BA0056652DD180D18B3B
:101A2000D0B2D0BED0BA00567A2D6A65726B00561D
:101A30007A2D6A65726B0056792D6A65726B005655
:101A4000792D6A65726B0056782D6A65726B005647
:101A5000782D6A65726B00D094D0B2D0B8D0B6D071
:101A6000B5D0BDD0B8D0B50045D188D0B0D0B32F57
:101A7000D0BCD0BC0045D188D0B0D0B32FD0BCD022
:101A8000BC005AD188D0B0D0B32FD0BCD0BC005A43
:101A9000D188D0B0D0B32FD0BCD0BC0059D188D021
:101AA000B0D0B32FD0BCD0BC0059D188D0B0D0B307
:101AB0002FD0BCD0BC0058D188D0B0D0B32FD0BC70
:101AC000D0BC0058D188D0B0D0B32FD0BCD0BC008F
:101AD000D094D0B2D0B8D0B6D0B5D0BDD0B8D0B5F3
:101AE00000D0A8D0B0D0B32FD0BCD0BC00D0A0D1F3
:101AF0008BD0B2D0BED0BA00D0A3D181D0BAD0BEE4
:101B0000D180D0B5D0BDD0B8D0B500D091D18BD1D7
:101B100081D182D180D0BED182D0B000D09DD0B052
:101B2000D181D182D180D0BED0B9D0BAD0B800D0C6
:101B300092D18BD0B3D180D183D0B7D0BAD0B020DE
:101B4000D0BCD0BC00D092D18BD0B3D180D183D0C7
:101B5000B7D0BAD0B020D0BCD0BC00D097D0B0D0D5
:101B6000B3D180D183D0B7D0BAD0B020D0BCD0BC54
:101B700000D097D0B0D0B3D180D183D0B7D0BAD075
:101B8000B020D0BCD0BC00D094D0B8D0B0D0BCD0A5
:101B9000B5D182D18020D184D0B8D0BBD0B0D0BC58
:101BA000D0B5D0BDD182D0B000D094D0B8D0B0D014
:101BB000BCD0B5D182D18020D184D0B8D0BBD0B038
:101BC000D0BCD0B5D0BDD182D0B000D092D18BD016
:101BD000BAD0BB2E00D092D0BAD0BB2E004520D0B8
:101BE000B220D0BCD0BC33004B20D0BFD180D0BEFF
:101BF000D0B4D0B2D0B8D0B6D0B5D0BDD0B8D18FD7
:101C0000004B20D0BFD180D0BED0B4D0B2D0B8D09D
:101C1000B6D0B5D0BDD0B8D18F00D09DD0B0D181D5
:101C2000D182D180D0BED0B9D0BAD0B80043616ED5
:101C30006E6F7420656E746572207375626469726C
:101C40003A2000022E2E00D09CD0B5D0BDD18E00FF
:101C50004D37303220542564004D3630302042302C
:101C600020542564004D373032203B2564004D3729
:101C700030312054256400D0A1D0BCD0B5D0BDD027
:101C8000B020D184D0B8D0BBD0B0D0BCD0B5D0BDFE
:101C9000D182D0B000D09FD180D0B5D0B4D0BDD04B
:101CA000B0D0B3D180D0B5D0B22041425300D09F44
:101CB000D180D0B5D0B4D0BDD0B0D0B3D180D0B564
:101CC000D0B220504C4100D0A1D0BCD0B5D0BDD0B6
:101CD000B020D184D0B8D0BBD0B0D0BCD0B5D0BDAE
:101CE000D182D0B000D09FD095D0A7D090D0A2D034
:101CF000AC20D09DD09020D09FD090D0A3D097D0B2
:101D00009500D092D0ABD093D0A0D0A3D097D09A4A
:101D1000D09020D0A4D098D09BD090D09CD095D0FB
:101D20009DD0A2D09000D097D090D093D0A0D0A337
:101D3000D097D09AD09020D0A4D098D09BD090D0DB
:101D40009CD095D09DD0A2D09000D092D18BD0B411
:101D5000D0B0D0B2D0B8D182D18C20D0B5D189D179
:101D60009100D092D0BED0B7D0BED0B1D0BDD0BE41
:101D7000D0B2D0B8D182D18C20D0BFD0B5D187D04D
:101D8000B0D182D18C00D09ED09FD0A6D098D098D0
:101D900020D092D09ED097D09ED091D09DD09ED072
:101DA00092D09BD095D09DD098D0AF3A002020D033
:101DB000A1D0BED0BFD0BBD0B03A2000D184D0B823
:101DC000D0BBD0B0D0BCD0B5D0BDD182D0B000D0C7
:101DD000BDD0B0D187D0B0D0BBD0B020D181D0BCE5
:101DE000D0B5D0BDD18B00D09ED0B6D0B8D0B4D0B5
:101DF000B0D0B9D182D0B5002020D0A1D0BED0BF04
:101E0000D0BBD0B03A2000D184D0B8D0BBD0B0D0B5
:101E1000BCD0B5D0BDD182D0B000D0B2D18BD0B3C0
:101E2000D180D183D0B7D0BAD0B800D09ED0B6D0B0
:101E3000B8D0B4D0B0D0B9D182D0B5002020D0A1D4
:101E4000D0BED0BFD0BBD0B03A20002000D096D0BA
:101E5000B4D0B8D182D0B52E2E2E00D09DD0B0D027
:101E6000B3D180D0B5D0B220D181D0BED0BFD0BB4D
:101E7000D0B0002020D0A1D0BED0BFD0BBD0B03ACF
:101E800020002000D0BDD0B0D0B3D180D0B5D0B22A
:101E9000D0B020D181D0BED0BFD0BBD0B02E2E2E9E
:101EA00000D09DD0B0D0B6D0BCD0B8D182D0B520B3
:101EB000D0BAD0BDD0BED0BFD0BAD18320D0B4D09C
:101EC000BBD18F002020D0A1D0BED0BFD0BBD0B01E
:101ED0003A2000D0B4D0BBD18F20D0BFD180D0BEAB
:101EE000D0B4D0BED0BBD0B6D0B5D0BDD0B8D18FD5
:101EF00000D0B820D0BDD0B0D0B6D0BCD0B8D18240
:101F0000D0B520D0BAD0BDD0BED0BFD0BAD183001A
:101F1000D092D181D182D0B0D0B2D18CD182D0B583
:101F200020D0BFD180D183D182D0BED0BA002020B2
:101F3000D0A1D0BED0BFD0BBD0B03A20002000D0BE
:101F4000B7D0B0D0B3D180D183D0B7D0BAD0B82079
:101F5000D0BFD180D183D182D0BAD0B000D09ED0B2
:101F6000B6D0B8D0B4D0B0D0B9D182D0B50020208E
:101F7000D0A1D0BED0BFD0BBD0B03A2000D184D049
:101F8000B8D0BBD0B0D0BCD0B5D0BDD182D0B0001D
:101F9000D18DD0BAD181D182D180D183D0B7D0B800
:101FA000D0B800D09ED0B6D0B8D0B4D0B0D0B9D1CF
:101FB00082D0B500D0BFD0B5D187D0B0D182D0B853
:101FC00000D0B2D0BED0B7D0BED0B1D0BDD0BED080
:101FD000B2D0BBD0B5D0BDD0B8D18F00D09ED0B6D6
:101FE000D0B8D0B4D0B0D0B9D182D0B500D09AD0CA
:101FF000B0D180D182D0B020D0B8D0B7D0B2D0BBD1
:10200000D0B5D187D0B5D0BDD0B000D09AD0B0D1A6
:1020100080D182D0B020D0B2D181D182D0B0D0B224
:10202000D0BBD0B5D0BDD0B00000060900FE000086
:1020300000000001090008FE000005080806000075
:1020400040F0C88888987810050808060000C0F895
:102050008888888888F80505050600012030F83052
:10206000200508080600002070F820202020E00548
:1020700009090600FF2070A8A8B888887020050903
:10208000090600FFE080C0B0A8283028280509090B
:102090000600FFF8A88888888888A8F8050A0A0634
:1020A00000FE205050505088A8A8887003030306F3
:1020B000000340A04000060900FE07019103202014
:1020C000FFFF08FF07FF00000006000001070706EA
:1020D000020080808080800080030202060105A04B
:1020E000A00507070600005050F850F850500507AB
:1020F000070600002078A07028F0200507070600DA
:1021000000C0C8102040981805070706000060901E
:10211000A040A89068020303060104C040800307A2
:102120000706010020408080804020030707060149
:10213000008040202020408005050506000120A8E1
:1021400070A8200505050600012020F820200203C4
:10215000030602FFC04080050101060003F80202E9
:1021600002060200C0C00505050600010810204057
:1021700080050707060000708898A8C888700307C4
:102180000706010040C040404040E0050707060048
:1021900000708808708080F8050707060000F810B6
:1021A00020100808F005070706000010305090F8CE
:1021B0001010050707060000F880F0080888700571
:1021C0000707060000304080F08888700507070682
:1021D0000000F808102020202005070706000070E6
:1021E00088887088887005070706000070888878DE
:1021F000081060020505060200C0C000C0C002064B
:10220000060602FFC0C000C04080040707060000A9
:1022100010204080402010050303060002F800F85B
:1022200004070706010080402010204080050707B2
:102230000600007088081020002005060606000031
:1022400070880868A870050707060000708888F87D
:10225000888888050707060000F08888F08888F0DD
:1022600005070706000070888080808870050707D2
:10227000060000E09088888890E0050707060000C7
:10228000F88080F08080F8050707060000F880805D
:10229000F0808080050707060000708880B8888875
:1022A00070050707060000888888F8888888010775
:1022B0000706020080808080808080050707060076
:1022C0000038101010109060050707060000889075
:1022D000A0C0A0908805070706000080808080804D
:1022E00080F805070706000088D8A8888888880530
:1022F00007070600008888C8A89888880507070689
:10230000000070888888888870050707060000F03C
:102310008888F0808080050707060000708888881C
:10232000A89068050707060000F08888F0A090884C
:10233000050707060000788080700808F005070789
:10234000060000F8202020202020050707060000B6
:10235000888888888888700507070600008888882C
:10236000888850200507070600008888888888A884
:102370005005070706000088885020508888050708
:1023800007060000888888502020200507070600DF
:1023900000F80810204080F8030707060100E080DD
:1023A00080808080E005050506000180402010083F
:1023B000030707060100E02020202020E00503039A
:1023C000060004205088050101060000F802020200
:1023D000060205804005050506000070087888782B
:1023E0000507070600008080B0C88888F00505054D
:1023F0000600007080808870050707060000080846
:1024000068988888780505050600007088F880704F
:102410000507070600003048E0404040400506063A
:102420000600FF708888780870050707060000809E
:1024300080B0C88888880107070602008000808075
:102440008080800308080601FF200020202020A0B3
:1024500040040707060000808090A0C0A0900307FA
:1024600007060100C04040404040E0050505060069
:1024700000D0A8A8A8A8050505060000B0C888884F
:102480008805050506000070888888700506060620
:1024900000FFF08888F080800506060600FF788837
:1024A00088780808050505060000B0C8808080050A
:1024B000050506000070807008F00507070600009B
:1024C0004040E04040483005050506000088888807
:1024D00098680505050600008888885020050505D0
:1024E0000600008888A8A850050505060000885049
:1024F0002050880506060600FF8888887808700541
:102500000505060000F8102040F803070706010043
:102510002040408040402001070706020080808064
:1025200080808080030707060100804040204040F3
:10253000800502020600036890000000060000000B
:102540000000060000000000060000000000060079
:10255000000000000600000000000600000000006F
:102560000600000000000600000000000600000059
:102570000000060000000000060000000000060049
:10258000000000000600000000000600000000003F
:102590000600000000000600000000000600000029
:1025A0000000060000000000060000000000060019
:1025B000000000000600000000000600000000000F
:1025C00006000000000006000000000006000000F9
:1025D00000000600000000000600000000000600E9
:1025E00000000000060000000000060000000000DF
:1025F00006000000000006000000000006000005C4
:10260000080806000040F88080F08080F80508087F
:1026100006000050F88080F08080F805070706006B
:1026200000E040407048487005080806000010208F
:10263000F88880808080050707060000304880E029
:102640008048300507070600007088807008887091
:10265000030707060100E04040404040E00308084F
:10266000060100A000E040404040E00507070600EA
:102670000038101010109060050707060000A0A099
:10268000A0B8A8A8B8050707060000A0A0A0F8A851
:10269000A8B8040707060000E040705050505005ED
:1026A000080806000010208890A0E090880508081F
:1026B00006000040208898A8C888880509090600F7
:1026C000FF5020888888502020200508080600FF39
:1026D000888888888888F8200507070600007088A1
:1026E00088F8888888050707060000F88080F08849
:1026F00088F0050707060000F08888F08888F00554
:102700000707060000F8888080808080050808069A
:1027100000FF782828284888F88805070706000061
:10272000F88080F08080F8050707060000A8A8A8B8
:1027300070A8A8A8050707060000F0080870080898
:10274000F0050707060000888898A8C8888805084B
:102750000806000050208898A8A8C8880507070622
:1027600000008890A0C0A0908805070706000078A8
:1027700028282828A84805070706000088D8A88820
:10278000888888050707060000888888F888888870
:102790000507070600007088888888887005070785
:1027A000060000F8888888888888050707060000E2
:1027B000F08888F080808005070706000070888018
:1027C00080808870050707060000F8202020202060
:1027D00020050707060000888888502040800507EC
:1027E000070600002070A8A8A870200507070600AB
:1027F00000888850205088880508080600FF8888CF
:1028000088888888F808050707060000888888985F
:10281000680808050707060000A8A8A8A8A8A8F83F
:102820000508080600FFA8A8A8A8A8A8F808050792
:1028300007060000C04040704848700507070600C2
:1028400000888888C8A8A8C80507070600008080F7
:1028500080F08888F00507070600007088083808AF
:10286000887005070706000090A8A8E8A8A89005AA
:102870000707060000788888782848880505050637
:102880000000700878887805070706000018608047
:10289000F0888870040505060000E090E090E005EF
:1028A0000505060000F8888080800506060600FF02
:1028B00078284888F8880505050600007088F880A3
:1028C00070050505060000A8A870A8A8050505065E
:1028D0000000F0083008F00505050600008898A8FB
:1028E000C88805070706000050208898A8C88804F3
:1028F000050506000090A0C0A09005050506000093
:10290000F82828A84805050506000088D8A8888862
:102910000505050600008888F88888050505060075
:10292000007088888870050505060000F88888888A
:10293000880506060600FFF08888F08080050505FA
:102940000600007080808870050505060000F820EC
:102950002020200506060600FF8888887808700574
:1029600006060600002070A8A870200505050600D0
:102970000088502050880506060600FF8888888851
:10298000F8080505050600008888F808080505050B
:10299000060000A8A8A8A8F80506060600FFA8A833
:1029A000A8A8F808050505060000C0407048700595
:1029B00005050600008888C8A8C8030505060100AB
:1029C0008080C0A0C00505050600007088388870AA
:1029D00005050506000090A8E8A890050505060075
:1029E0000078887828480508080600004020007014
:1029F00088F8807005070706000050007088F8808E
:102A0000700509090600FF40E0404078484848103A
:102A1000050808060000102000F888808080050561
:102A200005060000708860887005050506000070C6
:102A3000807008F001070706020080008080808017
:102A400080030707060100A0004040404040030803
:102A5000080601FF200020202020A04005050506D3
:102A60000000A0A0B8A8B8050505060000A0A0F8C1
:102A7000A8B805060606000040E04078484804086B
:102A80000806000010200090A0C0A09005080806CD
:102A900000004020008898A8C8880509090600FFA2
:102AA0005020008888887808700506060600FF8890
:102AB000888888F820434F4D4D554E49434154492D
:102AC0004F4E0044525952554E004552524F5253A8
:102AD00000494E464F004543484F00656E7175658D
:102AE0007565696E67202200D0A3D091D098D0A2DE
:102AF000D09E2E2000D09ED0A1D0A2D090D09DD02C
:102B00009ED092D09BD095D09DD09E2E200050720A
:102B1000696E7465722073746F707065642064757B
:102B20006520746F206572726F72732E204669780B
:102B300020746865206572726F7220616E64207502
:102B40007365204D39393920746F20726573746153
:102B500072742E202854656D70657261747572658B
:102B60002069732072657365742E20536574206923
:102B70007420616674657220726573746172746921
:102B80006E67290A004E6F20436865636B73756D2D
:102B90002077697468206C696E65206E756D62655A
:102BA000722C204C617374204C696E653A20004E83
:102BB0006F20436865636B73756D20776974682057
:102BC0006C696E65206E756D6265722C204C617348
:102BD00074204C696E653A2000636865636B737599
:102BE0006D206D69736D617463682C204C61737422
:102BF000204C696E653A20004C696E65204E756DFB
:102C0000626572206973206E6F74204C617374204A
:102C10004C696E65204E756D6265722B312C204CAF
:102C2000617374204C696E653A20004D313130007B
:102C30004D33310053442072656164206572726FB8
:102C4000720A00446F6E65207072696E74696E67F7
:102C50002066696C650A0020496E76616C696420A3
:102C6000657874727564657220000000A0C0000071
:102C70000000000000000000574300005743000020
:102C80009643D092D0BED0B7D0B2D180D0B0D1824E
:102C900020D0BDD0B520D183D0B4D0B0D0BBD181AD
:102CA000D18F0044656C6574696F6E206661696CD4
:102CB00065642C2046696C653A200046696C652085
:102CC00064656C657465643A0050726F7465637412
:102CD00065642050696E0A0020573A004520D09E56
:102CE000D185D0BBD0B0D0B6D0B4D0B5D0BDD0B8DF
:102CF000D0B52E2E2E004520D09DD0B0D0B3D1809F
:102D0000D0B5D0B22E2E2E0020573A00D09ED185BD
:102D1000D0BBD0B0D0B6D0B4D0B5D0BDD0B8D0B57F
:102D200020D181D182D0BED0BBD0B02E2E2E00D0EB
:102D30009DD0B0D0B3D180D0B5D0B220D181D182D6
:102D4000D0BED0BBD0B02E2E2E00205A3A00205933
:102D50003A0020436F756E7420583A0020453A00BF
:102D6000205A3A0020593A00583A003A004361701C
:102D70003A00205A00205900580020204D61783A2E
:102D80002000205A00205900580020204D696E3A3A
:102D90002000D092D0BAD0BB2E00D092D18BD0BA26
:102DA000D0BB2E00536F667420656E6473746F70B1
:102DB000733A200023646566696E65204445464188
:102DC000554C545F4B64200023646566696E652032
:102DD00044454641554C545F4B6920002364656669
:102DE000696E652044454641554C545F4B70200048
:102DF000504944204175746F74756E652066696E24
:102E00006973686564212050757420746865206C4E
:102E1000617374204B702C204B6920616E64204BD1
:102E20006420636F6E7374616E74732066726F6D6D
:102E30002062656C6F7720696E746F20436F6E66D9
:102E4000696775726174696F6E2E680A0050494433
:102E5000204175746F74756E65206661696C656478
:102E6000212074696D656F75740A00453120D0A307
:102E7000D091D095D093D090D09DD098D09520D09F
:102E8000A2D095D09FD09BD09000546865726D61A0
:102E90006C2052756E6177617900453120D0A0D0E9
:102EA000B0D0B7D0BED0B3D180D0B5D0B220D0BDD5
:102EB000D0B520D183D0B4D0B0D0BBD181D18F00D8
:102EC00048656174696E67206661696C656400506D
:102ED0004944204175746F74756E65206661696C34
:102EE0006564212054656D7065726174757265202A
:102EF000746F6F20686967680A00204B643A20008D
:102F0000204B693A2000204B703A20000A20436C85
:102F1000617373696320504944200A002054753A54
:102F20002000204B753A2000206D61783A20002067
:102F30006D696E3A200020643A2000206269617356
:102F40003A2000504944204175746F74756E6520B5
:102F500073746172740A00504944204175746F742F
:102F6000756E65206661696C65642120426164202C
:102F70006578747275646572206E756D6265720A2B
:102F800000496E736572742066696C616D656E745C
:102F900020616E6420707265737320627574746F43
:102FA0006E0A00507265737320627574746F6E20C0
:102FB000746F2068656174206E6F7A7A6C650A00A0
:102FC000496E736572742066696C616D656E7420FC
:102FD000616E6420707265737320627574746F6EB5
:102FE00020286F72204D313038290A0047322F4790
:102FF000332062616420706172616D657465727303
:103000000A00D0A1D0BED0BD2E2E2E00D09FD180E0
:10301000D0BED0B4D0BED0BBD0B6D0B8D182D18CC7
:103020002E2E2E00D09DD0B5D18220D0B4D0B2D0DB
:10303000B8D0B6D0B5D0BDD0B8D18F2E00456E6413
:103040002066696C65206C6973740A004265676963
:103050006E2066696C65206C6973740A004D3132AC
:103060003500286E6F2066696C65290043757272A1
:10307000656E742066696C653A2000534420707256
:10308000696E74696E67206279746520004E6F7492
:10309000205344207072696E74696E670A00256956
:1030A000730025696D2025697300256968202569ED
:1030B0006D202569730025696420256968202569CC
:1030C0006D202569730025697920256964202569AB
:1030D000682025696D20256973005072696E74201F
:1030E00074696D653A20006F666600D62AD12ACAD7
:1030F0002AC32AB52A44454255473A00D0A3D09165
:10310000D098D0A2D09E2E20004D313133205300D4
:103110006F6B003344205072696E74657220D092D8
:10312000D18BD0BAD0BB2E2E002C20002C200054E6
:103130004845524D414C5F50524F54454354494FBE
:103140004E004155544F5245504F52545F53445FC7
:1031500053544154555300454D455247454E4359EC
:103160005F50415253455200434153455F4C4947DC
:1031700048545F4252494748544E45535300544FB8
:1031800047474C455F4C494748545300534F4654BA
:10319000574152455F504F574552004255494C44A4
:1031A0005F50455243454E54004C4556454C494EA0
:1031B000475F44415441005A5F50524F42450041DD
:1031C00055544F4C4556454C005052494E545F4A59
:1031D0004F420050524F4752455353004155544FB0
:1031E0005245504F52545F54454D5000564F4C5528
:1031F0004D455452494300454550524F4D005345AB
:103200005249414C5F584F4E5F584F464600464921
:10321000524D574152455F4E414D453A4D61726C9A
:10322000696E20312E312E39204461726B5F5361FB
:10323000726D6174204D4F4420284769746875622F
:103240002920534F555243455F434F44455F5552E4
:103250004C3A68747470733A2F2F6769746875629A
:103260002E636F6D2F4D61726C696E4669726D775A
:103270006172652F4D61726C696E2050524F544FD0
:10328000434F4C5F56455253494F4E3A312E3020F2
:103290004D414348494E455F545950453A334420C7
:1032A0005072696E746572204558545255444552A7
:1032B0005F434F554E543A3120555549443A636562
:1032C0006465326132662D343161322D34373438E1
:1032D0002D396231322D63353563363266333637F8
:1032E00066660A002F2F20004D31343520533C698B
:1032F0006E6465783E206F7574206F662072616E13
:1033000067652028302D31290A0020540020520002
:10331000416363656C65726174696F6E3A20500039
:10332000D09AD0BED180D180D0B5D0BAD186D0B815
:10333000D0B820D0BFD180D0B8D0BCD0B5D0BDD00F
:10334000B5D0BDD18B004572723A20546F6F2066A4
:1033500061722100546F6F206661722066726F6D1A
:10336000207265666572656E636520706F696E7444
:103370000A0020466C6F773A20000001363726039A
:10338000FFFFFF353C3D380EFFFFFF312E303E1270
:10339000FFFFFFFF28FF0C0809FFFF071A1C18FF9B
:1033A000FF2A08440A2C43496E76616C69642065E3
:1033B000787472756465720A0020643A0020693A74
:1033C0000020703A0043290A0061626C656420287D
:1033D0006D696E2074656D702000436F6C642065AC
:1033E000787472756465732061726520004E6F2079
:1033F00063617365206C696768740A0045455052C3
:103400004F4D204F4B0A003F4B2076616C75652075
:103410006F7574206F662072616E67652028302D8D
:103420003130292E0A00416476616E6365204B3D80
:1034300000416374697665204578747275646572BD
:103440003A2000496E76616C696420657874727503
:103450006465720A00526573656E643A20006F6B92
:103460000020746F6F206C6F6E67206578747275C2
:1034700073696F6E2070726576656E7465640A009C
:1034800020636F6C6420657874727573696F6E2049
:1034900070726576656E7465640A00627573793A58
:1034A0002070617573656420666F7220696E707537
:1034B000740A00627573793A2070617573656420CF
:1034C000666F7220757365720A00627573793A20AF
:1034D00070726F63657373696E670A00D0A3D091D1
:1034E000D098D0A2D09E2E20004B494C4C20636136
:1034F00075736564206279204B494C4C2062757469
:10350000746F6E2F70696E0A00D0A3D091D098D0DE
:10351000A2D09E2E20004B494C4C206361757365F0
:103520006420627920746F6F206D75636820696E06
:103530006163746976652074696D65202D206375FB
:103540007272656E7420636F6D6D616E643A2000F7
:103550004D36303000D0A1D0B4D0B5D0BBD0B0D033
:10356000B9D182D0B520D181D0B1D180D0BED181A6
:1035700000D09FD0A0D098D09DD0A2D095D0A02030
:10358000D09ED0A1D0A2D090D09DD09ED092D09BE2
:10359000D095D09D005072696E7465722068616C20
:1035A0007465642E206B696C6C28292063616C6CD7
:1035B0006564210A00206472697665722063757201
:1035C00072656E743A20000000A0C0000000000088
:1035D0000000000000484200004842000020410076
:1035E0000000005761726E696E673A20486F6D691E
:1035F0006E672042756D702044697669736F722022
:103600003C20310A000202040000A0400000A0405B
:103610000000004000005C43000057430000964358
:10362000FFFFFF4D3630303A20D09DD0B8D0B7D014
:10363000BAD0B0D18F20D0A200486F74656E6420DC
:10364000746F6F20636F6C640A007C3C3E5E2B3DA0
:103650003F2F5B5D3B2C2A225C004572726F72200B
:1036600077726974696E6720746F20454550524FB8
:103670004D210A00454550524F4D206461746173DD
:10368000697A65206572726F722E0A00290A00201D
:1036900062797465733B20637263200053657474B0
:1036A000696E67732053746F726564202800290A5D
:1036B000002062797465733B20637263200020737D
:1036C000746F7265642073657474696E67732072B9
:1036D0006574726965766564202800202863616CD2
:1036E00063756C6174656429210A0020213D200006
:1036F000454550524F4D20435243206D69736D61D3
:10370000746368202D202873746F7265642920000B
:103710002053697A653A2000496E6465783A200042
:10372000204D61726C696E3D563535290A00284579
:103730004550524F4D3D00454550524F4D20766506
:103740007273696F6E206D69736D617463682000B8
:1037500048617264636F6465642044656661756C7A
:10376000742053657474696E6773204C6F6164656F
:10377000640A002003000020030000640000001021
:1037800027000000001643000016430000204100FF
:103790000020420000A0420000A0420000C843E117
:1037A000FABC4220204D3930360020286D6D2900AA
:1037B00020204D36303320002055004C0046696CE7
:1037C000616D656E74206C6F61642F756E6C6F61D6
:1037D00064206C656E677468733A0A0020204D3966
:1037E0003030204B004C696E656172204164766117
:1037F0006E63653A0A00205430204500205A0020AC
:1038000059002058005374657070657220647269A5
:103810007665722063757272656E743A0A00204490
:103820000020490020204D333031205000504944C1
:103830002073657474696E67733A0A00204600202D
:10384000420020480020204D3134352053004D6186
:1038500074657269616C206865617475702070614F
:1038600072616D65746572733A0A00205A002059BE
:103870000020204D323036205800486F6D65206F93
:1038800066667365743A0A00204500205A00205984
:103890000020580020540020530020204D323035A5
:1038A00020510020453C6D61785F655F6A65726BF1
:1038B0003E0020583C6D61785F785F6A65726B3EB0
:1038C00020593C6D61785F795F6A65726B3E205A62
:1038D0003C6D61785F7A5F6A65726B3E0041647629
:1038E000616E6365643A20513C6D696E5F73656714
:1038F0006D656E745F74696D655F75733E20533CD2
:103900006D696E5F66656564726174653E20543CE6
:103910006D696E5F74726176656C5F666565647211
:103920006174653E0020540020520020204D32304A
:1039300034205000416363656C65726174696F6E19
:103940002028756E6974732F7332293A20503C70A9
:1039500072696E745F616363656C3E20523C726590
:1039600074726163745F616363656C3E20543C7480
:10397000726176656C5F616363656C3E0A00204529
:1039800000205A0020590020204D323031205800AC
:103990004D6178696D756D20416363656C65726119
:1039A00074696F6E2028756E6974732F7332293AAB
:1039B0000A00204500205A0020590020204D3230B6
:1039C000332058004D6178696D756D2066656564BA
:1039D00072617465732028756E6974732F73293A48
:1039E0000A00204500205A0020590020204D39327D
:1039F00020580053746570732070657220756E696D
:103A0000743A0A0020204D3230302044300A002021
:103A1000204D3230302044002044697361626C656F
:103A2000640A0046696C616D656E74207365747418
:103A3000696E67733A0020204D3134392043203BB2
:103A400020556E69747320696E2043656C736975C7
:103A5000730A002020473231202020203B001FFF26
:103A6000FFFFFFFFFF600000000001FF40000000BB
:103A70000000FF8000000000007F83CF00000C30BA
:103A80003F87FF80000C301F867980000C000F8C70
:103A900030C7838C30E78C30CFC7CC31F38C30DC2F
:103AA000ECEC33B98C30D86C6C33198C30D06C0C96
:103AB00033198C30D86C0C33198C30DC6C0E3B19FC
:103AC0008C30CF7C079F198C30C77C038F19400046
:103AD0000000000002600000000000061FFFFFFF62
:103AE000FFFFF82020506C616E6E6572427566664D
:103AF000657242797465733A2000204672656520CC
:103B00004D656D6F72793A2000436F6D70696C6519
:103B1000643A204A616E20313220323032300A005D
:103B2000207C20417574686F723A204461726B5F2B
:103B30005361726D617420636F6E666967206D6F8B
:103B4000640A00323031382D30382D303100204CAD
:103B500061737420557064617465643A2000312E7D
:103B6000312E39204461726B5F5361726D61742034
:103B70004D4F440A004D61726C696E0020536F66B0
:103B800074776172652052657365740A002057610D
:103B9000746368646F672052657365740A0020421D
:103BA000726F776E206F75742052657365740A00AA
:103BB0002045787465726E616C2052657365740A75
:103BC00000506F77657255700A0073746172740AE1
:103BD000006175746F25692E67006572726F7220BF
:103BE00077726974696E6720746F2066696C650A04
:103BF00000D0ADD0BDD0B4D181D182D0BED0BFD1A4
:103C00008B20256320256320256320256300205A0F
:103C10003A0020593A0020583A00656E6473746F78
:103C20007073206869743A2000446F6E6520736178
:103C300076696E672066696C652E0A004D32390020
:103C400000002100240027002A002D00300033004E
:103C500001010000040107010A0100000A0B02092A
:103C60000C0D0E0807030401000000000000000016
:103C70000000000000000000000000000000000044
:103C80000000000000001211100000000000000001
:103C90000000000000000000000000000000000024
:103CA000000020002300260029002C002F003200F5
:103CB00000010000030106010901000022002500A7
:103CC00028002B002E003100340002010000050105
:103CD00008010B010505050507050808080802028B
:103CE00002020A0A08080404040401010101010196
:103CF00001010303030303030303040707070C0C79
:103D00000C0C0C0C0C0C020202020606060606063F
:103D100006060B0B0B0B0B0B0B0B010210202008E4
:103D20000810204010204080020102010804020116
:103D30000102040810204080804020100804020185
:103D400080040201804020100804020108040201DE
:103D50000102040810204080010204081020408065
:103D60004D3234004D323320257300556E6B6E6F2B
:103D7000776E20636F6D6D616E643A202200496E2C
:103D8000736572742066696C616D656E7420616E16
:103D90006420707265737320627574746F6E20286E
:103DA0006F72204D313038290A00486F74656E6497
:103DB00020746F6F20636F6C640A00D09FD0B0D105
:103DC00080D0BAD183D0B92025732573257320D034
:103DD000BFD0B5D180D0B2D18BD0B90020D0BFD068
:103DE000B5D180D0B2D18BD0B90A005A0059005851
:103DF00000D09FD0B0D180D0BAD183D0B9200020DC
:103E0000746F6F206C6F6E6720657874727573695C
:103E10006F6E2070726576656E7465640A0020634B
:103E20006F6C6420657874727573696F6E20707240
:103E30006576656E7465640A00534420636172643C
:103E4000206F6B0A006F70656E526F6F7420666131
:103E5000696C65640A00766F6C756D652E696E69B4
:103E600074206661696C65640A00534420696E6958
:103E700074206661696C0A0057726974696E672004
:103E8000746F2066696C653A20006F70656E2066FD
:103E900061696C65642C2046696C653A20006F701E
:103EA000656E206661696C65642C2046696C653AB4
:103EB000200046696C652073656C65637465640AEF
:103EC000002053697A653A200046696C65206F705E
:103ED000656E65643A20002066696C653A2000646E
:103EE0006F696E67006672657368004E6F772000B9
:103EF000454E4420535542524F5554494E450A00B1
:103F00002220706F73002220706172656E743A22F5
:103F100000535542524F5554494E452043414C4C55
:103F2000207461726765743A2200D0A3D091D09852
:103F3000D0A2D09E2E2000747279696E6720746FB3
:103F40002063616C6C207375622D67636F646520FC
:103F500066696C6573207769746820746F6F206D73
:103F6000616E79206C6576656C732E204D4158200A
:103F70006C6576656C2069733A004572726F723AAF
:103F8000006F70656E206661696C65642C204669FF
:103F90006C653A200043616E6E6F74206F70656EC1
:103FA0002073756264697220006563686F3A00006F
:103FB000E9F9CBF911241FBECFEFD1E2DEBFCDBFAF
:103FC00000E00CBF13E0A0E0B2E0E0E5FCE102E0BD
:103FD0000BBF02C007900D92AA37B107D9F726E1AF
:103FE000AAE7B3E001C01D92A937B207E1F71FE1CC
:103FF000C9EDDFE100E006C021970109802FFE0135
:104000000F944D0DC83DD10780E00807A9F70E9425
:10401000E6FB0D94170E0C94000080914F08813040
:1040200041F0823019F482E09DE1089585EE9CE133
:10403000089586E29DE108952CEA35EC47E25EE3BF
:104040006091C2047091C3048091C4049091C5042E
:104050000F94220B6093A8037093A9038093AA0383
:104060009093AB0308952CEA35EC47E25EE3609150
:10407000C6047091C7048091C8049091C9040F943C
:1040800095066093AC037093AD038093AE03909359
:10409000AF0308956091150270911602072E000C6F
:1040A000880B990B0F9436062AE037ED43E25CE368
:1040B0000F949506209188033091890340918A03DB
:1040C00050918B030F94950660935602709357029C
:1040D00080935802909359020895282F1092E40477
:1040E0008091F6079091F707A091F807B091F90732
:1040F00081309048A105B10540F01092F60710926A
:10410000F7071092F8071092F9078091D9048823D5
:1041100031F08091F6078093CD041092CC04809109
:10412000CE041816FCF4082E000C990B821B910982
:104130002091CD04022E000C330B2817390794F080
:1041400097FF02C090E080E08093CD04092E000C20
:10415000AA0BBB0B8093F6079093F707A093F80781
:10416000B093F9078091CD046623A9F09091CF0414
:10417000891714F48093CF042091CF04022E000CF1
:10418000330B2C5F3F4F482F082E000C550B241784
:1041900035071CF484508093CF04089511989091B2
:1041A000020187FD9095917090930001119A000093
:1041B00011989091020186FD909591709093000165
:1041C000119A000011989091020185FD90959170CF
:1041D00090930001119A000011989091020184FDC2
:1041E0009095917090930001119A00001198909110
:1041F000020183FD9095917090930001119A000047
:1042000011989091020182FD909591709093000118
:10421000119A000011989091020181FD9095917082
:1042200090930001119A0000119880910201817011
:1042300080930001119A0000089590916F00292F3A
:10424000227091FF05C090916F009D7F90936F0049
:1042500034E0839FC0011124FC01EF5AF74F4081E5
:10426000518162817381835D9B4FFC014083518347
:104270006283738381E080937A03222329F0809103
:104280006F00826080936F000895CF92DF92EF926B
:10429000FF928091D903882309F457C0C090D503B9
:1042A000D090D603E090D703F090D80320E030E020
:1042B000A901C701B6010F943006882309F445C04F
:1042C00020E030E040E05FE3C701B6010F949506BF
:1042D0009B01AC010F9495062BED3FE049E450E4BF
:1042E0000F9495069B01AC0160E070E080E89FE3CD
:1042F0000F94220B6B017C01C0928803D09289033A
:10430000E0928A03F0928B0360911502709116027D
:10431000072E000C880B990B0F9436062AE037ED18
:1043200043E25CE30F949506A70196010F9495066E
:1043300060935602709357028093580290935902EB
:10434000FF90EF90DF90CF900895C12CD12C80E8A2
:10435000E82E8FE3F82ED0CFCF93DF938091DA034E
:1043600065994AC081608093DA039091030180913E
:10437000DA0391FD43C082608093DA038091DA030F
:104380004B993EC084608093DA03C0911E04C0FF45
:104390000FC08091DD0380FF0BC08091DA0380FFA6
:1043A00007C08091680681608093680680E045DFE1
:1043B000C1FF0FC08091DD0381FF0BC08091DA0344
:1043C00081FF07C08091680682608093680681E063
:1043D00034DFC2FF17C08091DD0382FF13C08091DC
:1043E000DA0382FF0FC080916806846080936806BC
:1043F00082E0DF91CF9121CF8E7FB5CF8D7FBCCF73
:104400008B7FC1CFDF91CF91089585EB90E20E9421
:10441000F8CD81E08093F50408950C94E2E80F93C1
:104420001F930E94D6E80091F1041091F2042091AC
:10443000F3043091F404601B710B820B930B97FD16
:104440000CC086B186FB882780F991E08927349BD0
:104450008260329B84608093F0048091F0048170CC
:104460009091F00491FD82609091EF04981749F0CB
:10447000813009F148F0823079F0833091F08093F7
:10448000EF041F910F910895913079F09230B9F7B0
:104490009091EE049F5F0CC0992339F09330C1F3E3
:1044A000EECF9130A9F3923051F79091EE049150F4
:1044B0009093EE04E4CF992359F3933001F7F5CFAD
:1044C000CF92DF92EF92FF920F931F930E94D6E854
:1044D0000091D1041091D2042091D3043091D404DE
:1044E0006B017C01C01AD10AE20AF30A9701860126
:1044F00037FD11C02091D00420952093D0046A5438
:104500007C4F8F4F9F4F6093D1047093D204809360
:10451000D3049093D40481E09091D004911101C010
:1045200080E01F910F91FF90EF90DF90CF90089562
:10453000CF92DF92EF92FF92CF93C82F0E94D6E8DE
:104540006B017C0124EA30E74DE75FE36091BC0436
:104550007091BD048091BE049091BF040F94300609
:1045600087FD18C08AEF90E0A0E0B0E08C0D9D1DA3
:10457000AE1DBF1D8093D5049093D604A093D7049D
:10458000B093D804C0933402CF91FF90EF90DF90A6
:10459000CF90089580E090E0DC01E8CFCF93DF93E7
:1045A00060E085E09ADDD091CF04C0E0D1110CC06D
:1045B00080915C02882391F030DD21E041E0BC0174
:1045C0008C2F0E94FAE00AC0D13091F480915C02F5
:1045D00020E041E06CED7FE18111F2CFDF5FCF5F42
:1045E000C53021F784E08093CE04DF91CF91089508
:1045F000D23049F480915C0220E041E061EC7FE13F
:10460000882361F3DDCFD33049F780915C028823A2
:1046100029F320E041E064EB7FE1D2CF0F931F93B9
:10462000CF93DF93CDB7DEB76E970FB6F894DEBFAA
:104630000FBECDBF809127028F93809126028F936A
:104640001F921F9280EA96E19F938F938E010F5FD6
:104650001F4F1F930F930F94C90581E08093EC04C3
:10466000C8010E941C9D1092EC040FB6F894DEBFA6
:104670000FBECDBF6E960FB6F894DEBF0FBECDBF96
:10468000DF91CF911F910F9108951F93CF93DF93E7
:10469000182FEB01FE018491219681110AC0C8E90F
:1046A000D1E0FE0184912196882331F00E94078792
:1046B000F8CF0E940787EECFC3E9D1E0112311F0B4
:1046C000C9E8D1E0FE0184912196882319F00E9467
:1046D0000787F8CF8AE0DF91CF911F910C9407876D
:1046E000CF93DF9300D01F92CDB7DEB7882349F078
:1046F0000E94F6F40F900F900F900F90DF91CF91E2
:10470000089588EB91E09C838B8384E190E09A8309
:104710008983BE016D5F7F4FCE0101960E9412CF4B
:10472000E9CFCF93DF931F92CDB7DEB78091E6102C
:10473000811105C081E08093E6100E94D9EC609160
:10474000AF107091B01019829E012F5F3F4F4FE064
:104750008DEA90E10E949DEC0F90DF91CF9108953A
:104760009F92AF92BF92CF92DF92EF92FF920F9300
:104770001F93CF93DF935B01E9014A3009F4B2C084
:10478000453109F068C0DB011296ED91FC91F28091
:10479000C681D7818091020180958270809300014B
:1047A00088E290E00197F1F7EF2CE29420EFE2220B
:1047B00030E1932E9F0C48E2C42ED12C88EFEEDC22
:1047C000C6010197F1F7BFE1BF1508F47BC08F2D3B
:1047D00080778068E3DC8E2DE1DCC6010197F1F77C
:1047E00080E8DCDC80E0DADCC6010197F1F78AEFD3
:1047F000D5DCC6010197F1F78E01005F1F4F88815C
:10480000807FCCDC89918295807FC8DCC017D1077E
:10481000B1F7C6010197F1F7F394E0E1EE0EF9105C
:10482000CDCF80910201827080930001D501129654
:10483000CD91DC91CE010E9480EC8111D8C1DF9135
:10484000CF911F910F91FF90EF90DF90CF90BF908D
:10485000AF909F900895FB0102811381423309F4C8
:1048600081C108F485C1463409F472C1473409F4A2
:1048700075C14B3329F589812B81D80112966C9132
:10488000129713964C91213009F4C8C1233009F0D6
:1048900092C138EF380F582F91E0431708F490E099
:1048A00041E0531708F040E031E0561708F430E0DB
:1048B000592F542B352309F0A6C1942309F0A3C125
:1048C00081E0BDCF80EE8F0D8068807F67DC8F2D0B
:1048D0008295807F63DCC6010197F1F780E85EDC9A
:1048E00080E881CF809101018260809301018091F5
:1048F00002018270809300018091010181608093A8
:10490000010180910201817080930001099A119A3E
:1049100080910201809582708093000188E290E08E
:104920000197F1F788E790E0CEE9DFE0FE013197EB
:10493000F1F70197D9F788EF31DC08E210E0C80100
:104940000197F1F780E22ADC80E028DCC8010197BA
:10495000F1F780E023DC80E821DCC8010197F1F762
:1049600080E01CDC80E11ADCC8010197F1F7CE0180
:104970000197F1F7CE010197F1F7CE010197F1F719
:10498000CE010197F1F7CE010197F1F7CE01019722
:10499000F1F7CE010197F1F7CE010197F1F7CE01C2
:1049A0000197F1F7CE010197F1F7CE010197F1F7E9
:1049B000CE010197F1F7CE010197F1F7CE010197F2
:1049C000F1F72197F1F780E2E9DB80E4E7DBC8014A
:1049D0000197F1F780E2E2DB80E6E0DBC8010197B6
:1049E000F1F700E010E0C8E2D0E0812F8077806826
:1049F000D5DB802FD3DBCE010197F1F780E8CEDB4A
:104A000080E0CCDBCE010197F1F78AEFC7DBCE0166
:104A10000197F1F790E211988091020181708093E3
:104A20000001119A00001198809102018170809319
:104A30000001119A00001198809102018170809309
:104A40000001119A000011988091020181708093F9
:104A50000001119A000011988091020181708093E9
:104A60000001119A000011988091020181708093D9
:104A70000001119A000011988091020181708093C9
:104A80000001119A000011988091020181708093B9
:104A90000001119A000011988091020181708093A9
:104AA0000001119A00001198809102018170809399
:104AB0000001119A00001198809102018170809389
:104AC0000001119A00001198809102018170809379
:104AD0000001119A00001198809102018170809369
:104AE0000001119A00001198809102018170809359
:104AF0000001119A00001198809102018170809349
:104B00000001119A00001198809102018170809338
:104B10000001119A0000FE013197F1F7915009F060
:104B20007ACF88EF3BDBCE010197F1F71F5F005F83
:104B3000103209F05ACF80E031DB80EC2FDB219777
:104B4000F1F78091020182708093000181E077CEBD
:104B5000D80115968C91888381E071CEF80181810E
:104B60008883FACFB901C8010E946AEC81E067CE60
:104B7000443171F0473109F0A3CE1882F8018281E7
:104B80008983858181508A8383818B8381E057CE9D
:104B9000D80115964C91159750E0440F551F70E0C1
:104BA00060E016968D919C910F94AF0DC8010E9404
:104BB00096EC81E044CE481708F482CE861708F4BC
:104BC0007FCEFA80E12CD12C243070F41DC0BE01C0
:104BD000C8010E946AEC898198819D0D98838E0D91
:104BE0008983FF0C09F46CCEF7FEF6CFF0CF4D8130
:104BF00050E0440F551F70E060E08E819F810F945C
:104C0000AF0D81E01CCEFA8030E0F901E959FD4F8B
:104C1000D0802D593D4FF901E080E6CF58E0580F84
:104C2000382F3ACEDF92EF92FF920F931F93CF93DC
:104C3000DF93EC01D62E1CAD0BAD7C0184E0E80EB9
:104C4000F11CE98DFA8DC7011995412F480F2D2DC3
:104C5000602FC7010E940BEF9BAD890F8BAF81E0E6
:104C600090E0DF91CF911F910F91FF90EF90DF9037
:104C700008959093A2108093A1100C94E2E8FF9203
:104C80000F931F93CF93DF9300D000D000D01F92DB
:104C90001F92CDB7DEB7F82E2091CA04422F022E04
:104CA000000C550B8091CB048130B1F1823069F159
:104CB00089E59CE15F932F939F938F938E010F5F04
:104CC0001F4F1F930F930F94C9050F900F900F90D4
:104CD0000F900F900F9081E0F81609F180EF90E0AF
:104CE000C8DF81E08093EC04C8010E941C9D1092F3
:104CF000EC042B960FB6F894DEBF0FBECDBFDF914C
:104D0000CF911F910F91FF90089585E69CE127FDBB
:104D1000D1CF80E59CE1CECF8EE69CE1CBCF88EC75
:104D200090E0DECF81E0ABCF82E0A9CF0F931F935D
:104D3000CF93DF938C016F3F19F410929A1060E0CB
:104D400020919A10862F062E000C990B2817190611
:104D500009F00CF560939A10C8010F947F05800F3D
:104D6000911FEC01C01BD10BCD32D1053CF0019756
:104D7000FC012491207C2038D1F3F3CFDD27AE0154
:104D8000B8018DE690E10F94A005C359DF4E18825B
:104D900083E080935C02DF91CF911F910F91089582
:104DA000FC0190E080E02491222339F02491207CC2
:104DB000203809F001963196F6CF0895FC0130E0D5
:104DC00020E09191992331F0907C9038D1F32F5FBE
:104DD0003F4FF7CFC9010895A4DC3E98469A3C980E
:104DE000449A3A98429AEAE0F1E080818E7F80838B
:104DF00080910B01809581708093090182E08093FE
:104E0000EA040DDB1092EE0408958091870382304E
:104E1000A9F090916012992359F08091701281113C
:104E200004C083E692E10C94A6CD80E792E1FBCF2B
:104E3000813039F084E69FE06FEF78CF8BE89FE018
:104E4000FBCF8BE79FE0F8CF8091A9048630D8F4A0
:104E500096E0899FF0011124EB57FB4F20914D0202
:104E600030914E02318320834091F6075091F7072D
:104E70006091F8077091F9074283538364837583C7
:104E80008F5F8093A90408954F925F926F927F92F3
:104E90008F929F92AF92BF92CF92DF92EF92FF924A
:104EA0000F931F93CF93DF936C01EB0129013A011C
:104EB0004701CADF83E080935C02D0920508C0926C
:104EC0000408D0930308C093020820E030E048ECC7
:104ED00052E4C301B2010F9495060F948A0B6093BC
:104EE000FE077093FF0780930008909301080F94CA
:104EF00036066B017C0120E030E048EC52E4C8014A
:104F0000B4010F949506A70196010F94450A0F94DA
:104F10008A0B6093FA077093FB078093FC079093CA
:104F2000FD0720E030E048EC52E4688179818A8115
:104F30009B810F949506A70196010F94450A0F9443
:104F40008F0B6093F6077093F7078093F8079093A1
:104F5000F907DF91CF911F910F91FF90EF90DF90B4
:104F6000CF90BF90AF909F908F907F906F905F9009
:104F70004F90089520914D0230914E022817390725
:104F8000D9F090934E0280934D024093F6075093D0
:104F9000F7076093F8077093F9078854944521F454
:104FA00010924C081092A90482E080935C0281E088
:104FB0008093CC041092E5040895CF93DF93EC0125
:104FC00043DF40E050E0BA01CE01DF91CF91D2CF74
:104FD00021E020934C086093BC047093BD0480933F
:104FE000BE049093BF0440E050E0BA018091C00439
:104FF0009091C104BFCF60E070E080E291E4E8CF1F
:1050000060E070E080E89FE3E3CF6DEC7CEC8CEC3B
:105010009DE3DECF40E050E0BA0188E494E5AACFFA
:10502000E091A904EE2381F0E150E093A90486E029
:10503000E89FF0011124EB57FB4F428153816481BB
:1050400075818081918196CFE5CF9CE0899F802DED
:10505000112491E0980F909309082CE0280F2093D9
:105060000A084091E11030E02E5F3F4F42171306CF
:1050700009F0A4F42091E310921780F4662341F024
:105080008E5F0E94A3EE80910A088E5F0E94A3EEBD
:1050900080910A081092E4108093E5100895CF9350
:1050A000C82F823071F024F4813049F0CF910895F7
:1050B000833011F08430D1F785EB90E204C0CF91BA
:1050C000A4C989E290E20E94F8CDC093F504EECF26
:1050D0004F925F926F927F928F929F92AF92BF9208
:1050E000CF92DF92EF92FF920F931F93CF93DF93B4
:1050F00000D000D000D01F92CDB7DEB7809134022F
:105100008F3F09F44BC00E94D6E8C090D504D090E0
:10511000D604E090D704F090D8046C197D098E096C
:105120009F0997FD3BC080911E1290911F128F5FC7
:105130008F70891799F1E0913402E0904B08E330C9
:1051400009F4E12C24E0E202F0011124E559FD4FBD
:1051500020E030E040E752E46081718182819381F8
:105160000F94220B69837A838B839C831D821E821A
:105170001F821886AE014B5F5F4F6A018E010F5F81
:105180001F4F26E338E042E358E06EE278E08AE21F
:1051900098E00E9446CF8FEF8093340240D98091EF
:1051A000F00482FF40C08091ED0481113EC091E087
:1051B0009093ED0420911608211103C08091EC0416
:1051C00089278093EB041092160883E080935C0299
:1051D0001092F0040E94D6E86C507E4F8F4F9F4F84
:1051E0006093F1047093F2048093F3049093F404B9
:1051F0001A86198682E090E09A838983BE01675FF0
:105200007F4FCE0101960E9412CF16E0115069F037
:1052100080E492E10E94DD7662E070E080E090E060
:105220000E94DBE4F3CF1092ED0490910901892FE5
:10523000809581701091EA04181749F18093EA046F
:1052400090FDCAC064EF71E080E090E00E94D3F46A
:105250000E94EBEA60E08BE090E2123009F0C6C0F9
:105260001092B2128BE1E7EBF2E1A6EDB2E1019010
:105270000D928A95E1F78091B5129091B6129093B4
:10528000D5128093D41283E080935C024ADA0E94A4
:10529000D6E86B017C018091E6049091E704A0912F
:1052A000E804B091E904A7019601281B390B4A0BC9
:1052B0005B0BDA01C901B7FF05C08091E5048823C3
:1052C00009F4E4C1D701C6018C599F4FAF4FBF4FBE
:1052D0008093E6049093E704A093E804B093E90474
:1052E0008091EE04082E000C990B97FF03C0919556
:1052F0008195910984300CF07BC08091EB04811181
:1053000007C180914D0290914E0234E58834930795
:1053100009F020C180914C02882309F40BC181500F
:1053200080934C0280916F00282F227081FF05C06E
:1053300080916F008D7F80936F008091A508909180
:10534000A608A091A708B091A808222329F02091CF
:105350006F00226020936F003AE0B695A79597956D
:1053600087953A95D1F7009751E0A507B10520F050
:105370008FEF9FEFA0E0B0E09695879520915C02BB
:10538000211113C13091E5043111A7C180914D0263
:1053900090914E028854944529F080914C088823BE
:1053A00009F48BC138E9C30E3AE3D31EE11CF11CAA
:1053B000C092DC04D092DD04E092DE04F092DF04BF
:1053C0008091E504811162C180915C02813009F015
:1053D0005DC110925C025AC110926012109261126B
:1053E000123009F450CF60E08DEE9FE19FDC4BCF8F
:1053F0008091E40421E030E040E050E0882309F4AB
:1054000064C08091EE048090E0049090E104A0904C
:10541000E204B090E30481149104A104B10409F4FE
:1054200048C0082E000C990B97FF03C091958195F9
:105430009109682F87FF02C063E0680F6595659545
:10544000062E000C770B880B990B0F9436062B0158
:105450003C01C701B601681979098A099B090F94B3
:1054600034069B01AC01C301B2010F94220B20E072
:1054700030E04AE754E40F9495064B015C0120E0CC
:1054800030E040E253E40F946C0C24E630E040E05E
:1054900050E087FF12C020E030E046E952E4C50149
:1054A000B4010F946C0C2AE030E040E050E087FF3C
:1054B00004C021E030E040E050E0C092E004D0922F
:1054C000E104E092E204F092E304A091EE040A2EDB
:1054D000000CBB0B0F94550D24E030E040E050E091
:1054E0000F94310D8091F6079091F707A091F8077E
:1054F000B091F907820F931FA41FB51F8093F60781
:105500009093F707A093F807B093F9071092EE0471
:10551000D701C6018856954CAF4FBF4F8093DC042E
:105520009093DD04A093DE04B093DF0481E08093C8
:105530005C02E7CE8CE080934C028091DA0490917B
:10554000DB0401979093DB048093DA0481E080937D
:105550005C02E8CE805A934709F0E4CE8091EC07D4
:105560009091ED07891708F0DDCE90914C029923B8
:1055700021F0915090934C02D5CE96E090934C023E
:1055800091E090935C028F5F8093EC07D701C60196
:105590008856954CAF4FBF4F8093DC049093DD0449
:1055A000A093DE04B093DF04BDCE009741F040919C
:1055B000DA045091DB044817590708F0E7CE8091D0
:1055C000E50481110FC0223030F02430C0F12430C6
:1055D00011F410925C020E943AED81E08093D904AC
:1055E0008093E50484E05BDD81E08093CD10E09161
:1055F0004D02F0914E0219951092D9048091E50464
:10560000811121C01092EB048090DA049090DB04A9
:10561000B12CA12C0E94D6E86C197D098E099F0936
:1056200086169706A806B90608F0B0CE0E94D6E8FE
:105630006C197D097093DB046093DA04A7CE81E0D6
:1056400080935C02C8CF0E94A1EC91E0811101C05F
:1056500090E09093E5048823A9F28090DA0490907A
:10566000DB04B12CA12C0E94D6E86C197D098E09AF
:105670009F0986169706A806B90640F40E94D6E848
:105680006C197D097093DB046093DA042A960FB6D7
:10569000F894DEBF0FBECDBFDF91CF911F910F9168
:1056A000FF90EF90DF90CF90BF90AF909F908F9042
:1056B0007F906F905F904F9008958091DC0490915F
:1056C000DD04A091DE04B091DF04C81AD90AEA0A09
:1056D000FB0AF7FC75CE9EDC73CE009709F482CFEF
:1056E00066CF87FF19C090918404803D50F09111DE
:1056F0000AC0805D8093830481E08093840480E00D
:105700000895992379F0909183049295990F990FB8
:10571000907C90568F73890F0E94CCCD1092840498
:1057200081E008958FE3F8CFCF939FEF980F9930E2
:1057300010F0CF91D6CFC82F89E290E20E94F8CD29
:105740008C2F0E94CCCD8091F504A9DC81E0CF9113
:105750000895CF939FEF980F993060F4C82F89E296
:1057600090E20E94F8CD8C2F0E94CCCD8091F50460
:10577000CF9195CCCF91B5CF0F931F93CF93DF935C
:10578000982F862F8A01D22F692F5FDC9091E1102C
:1057900080910A08891730F19091E31080910908EF
:1057A000981700F1C4E1F8018491882329F0BCDF47
:1057B000C81B0F5F1F4FF7CFC15020F080E20E943F
:1057C000CCCDFACF80910A089AE79093E4108093A9
:1057D000E5108D2FBEDF80E2DF91CF911F910F91F9
:1057E0000C94CCCDDF91CF911F910F910895DF9252
:1057F000EF92FF920F931F93CF93DF9361E081E0CD
:105800000E946D20C091CF0415E01C0F81E001E0E3
:10581000D2E0FD2EFC1AE82EEC1ADC2ED194C11138
:1058200030C08823D9F08091CD041816BCF0409187
:10583000F6075091F7076091F8077091F9074F5FED
:105840005F4F6F4F7F4F4093F6075093F70760937A
:10585000F8077093F9078F5F8093CD0480915C0205
:10586000882339F020E041E066E87DE18D2D0E943B
:10587000FAE080E0CF5F1C13D2CF83E08093CE04A8
:1058800020C0C13031F59091CD04913071F08091FC
:105890005C02882371F381E0913009F080E020E21E
:1058A00042E65DE16E2D68DFE4CF8091EB04882352
:1058B00071F31092EB04D0934D088091CC048823AF
:1058C00031F3DF91CF911F910F91FF90EF90DF9017
:1058D0000895C23071F69091CD04923069F08091B4
:1058E0005C02882331F281E0923009F080E020E20E
:1058F0004AE45DE16F2DD7CF8091EB04882379F3E3
:105900001092EB0400934D088091CC04882339F366
:10591000D8CFDF92EF92FF920F931F93CF93DF9335
:105920001092CB041092CA0461E081E00E946D20C5
:10593000C091CF0405E00C0F81E0D3E0DC1B12E046
:105940001C1BF82EFC1AEC2EE194C11130C08823E8
:10595000D9F08091CD041816BCF04091F607509113
:10596000F7076091F8077091F9074F5F5F4F6F4F2E
:105970007F4F4093F6075093F7076093F8077093B3
:10598000F9078F5F8093CD0480915C02882339F002
:1059900021E041E067E77CE18E2D0E94FAE0CF5FD5
:1059A00080E0C013D2CF84E08093CE041FC0C1300A
:1059B00029F5D090CD0481E0D81669F080915C0281
:1059C000882369F381E0D81280E024E047EC5CE1B1
:1059D0006F2DD2DEE4CF8091EB04882379F310920F
:1059E000EB041EDB8091CC04882341F3DF91CF913F
:1059F0001F910F91FF90EF90DF900895C23071F5E5
:105A0000D090CD0492E0D91669F080915C02882391
:105A100031F281E092E0D91280E023E04EEA5CE1CD
:105A2000612FD7CF8091EB04882379F31092EB0498
:105A300082E996E2C2DA8091CC04882331F3D6CF92
:105A40008091EB04882391F01092EB0484E996E2B4
:105A5000B4DA8091CC04882349F0C8CFC33009F070
:105A60009ECFD090CD0483E0D81651F380915C0294
:105A7000882309F494CF81E093E0D91280E023E0F9
:105A800045E95CE16D2FA5CFCF92DF92EF92FF92B7
:105A90000F931F93CF93DF9361E081E00E946D200D
:105AA000C091CF0485E0D82EDC0ED4E0DC1B13E0DF
:105AB0001C1B02E00C1B81E0F82EFC1ACC2EC194BA
:105AC000C1112BC0E090CD04EE2099F080915C02D2
:105AD000882341F081E0E11080E024E04CE15BE1CB
