:100000000C943D180C946E180C946E180C946E1889
:100010000C946E180C946E180C946E180C946E1848
:100020000C946E180C9459E80C9459E80C9459E807
:100030000C946E180C946E180C946E180C946E1828
:100040000C946E180C94205C0C946E180C946E1822
:100050000C946E180C946E180C94A84A0C944CE4F2
:100060000C946E180C948DC10C946E180C946E1830
:100070000C946E180C946E180C946E180C946E18E8
:100080000C946E180C946E180C946E180C946E18D8
:100090000C946E180C946E180C946E180C946E18C8
:1000A0000C946E180C946E180C946E180C946E18B8
:1000B0000C946E180C946E180C946E180C946E18A8
:1000C0000C946E180C946E180C946E180C946E1898
:1000D0000C946E180C946E180C946E180C946E1888
:1000E0000C946E18084AD73B3BCE016E84BCBFFD12
:1000F000C12F3D6C74319ABD56833DDA3D00C77FF8
:1001000011BED9E4BB4C3E916BAAAABE0000008090
:100110003F05A84CCDB2D44EB93836A9020C50B91F
:10012000918688083CA6AAAA2ABE000000803F004B
:100130004E414E494E495459494E46CDCCCC3D0ACC
:10014000D7233C17B7D13877CC2B329595E6241FAF
:10015000B14F0A000020410000C84200401C462068
:10016000BCBE4CCA1B0E5AAEC59D74453400453307
:10017000004532004531004530005A320059320006
:100180005832005A005900580054524947474552C6
:100190004544006F70656E003A200066696C616DC1
:1001A000656E74007A5F6D696E00795F6D696E00CF
:1001B000785F6D696E005265706F7274696E67204A
:1001C000656E6473746F70207374617475730A0064
:1001D00024F4D43050C38E20C2A24017828B7011F9
:1001E000127A910D816CD90AA861E108C758660797
:1001F000615143061E4B5D05C145A7041A41110418
:10020000093D9803713931034036DB0265339102B1
:10021000D4305402802E1D02632CEE01752AC501D4
:10022000B028A001102781018F2564012B244B01E8
:10023000E0223401AC211F018D200D01801FFC0044
:10024000841EED00971DDF00B81CD200E61BC6001F
:10025000201BBC00641AB200B219A8000A19A00041
:100260006A189900D117910040178B00B5168400C9
:1002700031167E00B31579003A157300C7146F006C
:1002800058146A00EE1366008813630025135E009D
:10029000C7125B006C12570015125400C1115100B7
:1002A00070114F0021114B00D61049008D104700EE
:1002B0004610440002104200C00F4000800F3E0074
:1002C000420F3C00060F3B00CB0E3800930E370068
:1002D0005C0E3500270E3400F30D3200C10D3100E5
:1002E000900D3000600D2E00320D2D00050D2C00FC
:1002F000D90C2B00AE0C2900850C29005C0C2700C2
:10030000350C27000E0C2600E80B2400C40B24003B
:10031000A00B23007D0B23005A0B2100390B210079
:10032000180B2000F80A1F00D90A1E00BB0A1E0085
:100330009D0A1D00800A1D00630A1C00470A1B005D
:100340002C0A1B00110A1A00F7091A00DD0919000E
:10035000C4091900AB091900920917007B0918009C
:10036000630917004C09160036091600200916000B
:100370000A091500F5081500E0081400CC0814005F
:10038000B8081400A4081400900813007D08120097
:100390006B081300580812004608120034081100B8
:1003A000230811001208110001081100F0071000C5
:1003B000E0071000D0071000C0071000B0070F00C2
:1003C000A107100091070E0083070F0074070F00AC
:1003D00065070E0057070E0049070E003B070D008A
:1003E0002E070E0020070D0013070D0006070D0055
:1003F000F9060C00ED060D00E0060C00D4060C001A
:10040000C8060C00BC060C00B0060C00A4060B00CD
:1004100099060C008D060B0082060B0077060B0078
:100420006C060B0061060A0057060B004C060A001A
:1004300042060A0038060A002E060A0024060A00B0
:100440001A060A001006090007060A00FD05090041
:10045000F4050900EB050900E2050900D9050900CA
:10046000D0050900C7050900BE050900B50508004B
:10047000AD050800A50509009C05080094050800C5
:100480008C050800840508007C0508007405080038
:100490006C050700650508005D05070056050800A6
:1004A0004E0507004705070040050800380507000E
:1004B000310507002A050700230507001C05060073
:1004C000160507000F0507000805060002050700CE
:1004D000FB040600F5040700EE040600E80406002D
:1004E000E2040700DB040600D5040600CF04060082
:1004F000C9040600C3040600BD040600B7040600D4
:10050000B1040500AC040600A6040600A004050022
:100510009B04060095040500900406008A0405006B
:1005200085040500800406007A04050075040500B2
:10053000700405006B0405006604050061040500F5
:100540005C04050057040500520405004D04050035
:1005500048040500430405003E0404003A04050075
:1005600035040500300404002C04050027040400B1
:10057000230405001E0404001A04040016040500E8
:10058000110404000D04040009040500040404001F
:1005900000040400FC030400F8030400F403040056
:1005A000F0030400EC030400E8030400E403040087
:1005B000E0030400DC030400D8030400D4030400B7
:1005C000D0030400CC030400C8030300C5030300E8
:1005D00024F404D9201BC40C5C0E9804C4095F02E7
:1005E00065077101F405F900FB04B30048048700B6
:1005F000C10369005803550003034500BE023A00D9
:100600008402310053022A0029022500040220003E
:10061000E4011C00C8011900AF0117009801140083
:1006200084011300710110006101100051010E00DE
:1006300043010D0036010B002B010B0020010B00C4
:10064000150109000C01090003010800FB00080066
:10065000F3000800EB000700E4000600DE000600DF
:10066000D8000600D2000600CC000500C700050037
:10067000C2000500BD000400B9000400B50004007C
:10068000B1000400AD000400A9000400A5000300AF
:10069000A20003009F0004009B00030098000300D9
:1006A0009500020093000300900003008D000200FB
:1006B0008B00030088000200860002008400030013
:1006C000810002007F0002007D0002007B0002002A
:1006D0007900020077000100760002007400020039
:1006E00072000100710002006F0002006D00010045
:1006F0006C0002006A00010069000200670001004E
:100700006600010065000100640002006200010053
:1007100061000100600001005F0002005D00010057
:100720005C0001005B0001005A000100590001005B
:10073000580001005700010056000100550001005B
:10074000540001005300000053000100520001005A
:1007500051000100500001004F0001004E00000058
:100760004E0001004D0001004C0001004B00000054
:100770004B0001004A000100490001004800000050
:10078000480001004700010046000000460001004B
:100790004500000045000100440001004300000046
:1007A000430001004200000042000100410000003F
:1007B00041000100400001003F0000003F00010037
:1007C0003E0000003E0001003D0000003D00010031
:1007D0003C0000003C0000003C0001003B00000029
:1007E0003B0001003A0000003A000100390000001F
:1007F0003900010038000000380000003800010016
:10080000370000003700010036000000360000000D
:100810003600010035000000350000003500010001
:1008200034000000340000003400010033000000F8
:1008300033000000330001003200000032000000ED
:1008400032000100310000003100000031000100E1
:100850003000000030000000300001002F000000D8
:100860002F0000002F0000002F0001002E000000CC
:100870002E0000002E0001002D0000002D000000C1
:100880002D0000002D0001002C0000002C000000B5
:100890002C0000002C0001002B0000002B000000A9
:1008A0002B0000002B0001002A0000002A0000009D
:1008B0002A0000002A000100290000002900000091
:1008C0002900000029000000290001002800000084
:1008D0002800000028000000280000002800010077
:1008E000270000002700000027000000270000006C
:1008F000270001002600000026000000260000005E
:100900002600000026000100250000002500000050
:100910002500000025000000250000002500010042
:100920002400000024000000240000002400000037
:100930002400010023000000230000002300000029
:10094000230000002300000023000000230001001A
:10095000220000002200000022000000220000000F
:100960002200000022000100210000002100000000
:1009700021000000210000002100000021000000F3
:1009800021000100200000002000000020000000E5
:1009900020000000200000002000000020000000D7
:1009A000200001001F0000001F0000001F000000C9
:1009B0001F0000001F0000001F0000001F000100BA
:1009C0001E0000001E0000001E0000001E000000AF
:1009D000C23100001C260000F4190000D80F0000EE
:1009E000EB080000C0040000750200004001000098
:1009F0002CFFFFFFFFFF0001010101016265640A96
:100A0000002C2073797374656D2073746F7070653A
:100A10006421204865617465725F49443A20004250
:100A200065642068656174696E67206661696C65DC
:100A3000640048656174696E67206661696C65640D
:100A40000045312048656174696E67206661696C94
:100A500065640048656174696E67206661696C65EC
:100A6000640070012C0190012701B0012201C00136
:100A70001D01F00118011002130130020E01600285
:100A8000090190020401C002FF000003FA004003C4
:100A9000F5008003F000D003EB002004E6007004B2
:100AA000E100E004DC004005D700C005D2004006AC
:100AB000CD00D006C8008007C3003008BE00F00893
:100AC000B900C009B400B00AAF00B00BAA00D00C46
:100AD000A500000EA000500F9B00C0109600501201
:100AE000910000148C00C0158700B0178200B01967
:100AF0007D00D01B7800001E730040206E00902205
:100B00006900F024640040275F0090295A00E02B20
:100B10005500102E500020304B0010324600E033BC
:100B2000410090353C001037370070383200A03952
:100B30002D00B03A2800A03B2300603C1E00103D71
:100B40001900903D1400103E0F00703E0A00C03E98
:100B50000500003F0000403FFBFF803FF6FFC03F25
:100B6000F1FF453120544845524D414C2052554EDD
:100B7000415741590042454420544845524D414C4B
:100B80002052554E4157415900546865726D616C51
:100B90002052756E61776179004531204572723A55
:100BA000204D415854454D50004572723A204D41F8
:100BB0005854454D5020424544004D415854454DF0
:100BC000502074726967676572656400453120451D
:100BD00072723A204D494E54454D50004572723A5A
:100BE000204D494E54454D5020424544004D494EFC
:100BF00054454D5020747269676765726564004D95
:100C0000383420582059205A204500202F002042F7
:100C1000403A0020403A0087018501830180017D30
:100C2000017A017701740171016E016B01747275B3
:100C3000650066616C7365002074656D7065726136
:100C400074757265207072657761726E2074726956
:100C50006767657265643A2000207072657761721B
:100C60006E20666C616720636C65617265640A0062
:100C700025753A2530327500253032753A253032E7
:100C8000750025756420253032753A25303275009F
:100C9000202020202020005A005900202020200061
:100CA00058000920000000000000000000000000C3
:100CB000003FFFF000000000000000000000000006
:100CC000380070000000000000000000000000304C
:100CD000FC3000000000000000000000000020FCCC
:100CE000100000000000000000000000002078104C
:100CF0000000000000000000000000002030100094
:100D000000000000000000000000002C00D03FC0E8
:100D1000000000000000002082002E31D07FE000A3
:100D20000000000000001041002F7BD07FE0000099
:100D300000000000001041002F7BD07FE000000089
:100D4000000000002082002E31D03FC000000000D3
:100D50000000004104002C00D03FC0000000000053
:100D600000008208002030107FE00000000000003A
:100D7000008208002078107FE000000000000000E2
:100D800041040020FC107FE0000000000000002073
:100D9000820030FC301F80000000000000000000D6
:100DA000003800700F0000000000000000FFFFC0CE
:100DB0003FFFF0060000000000000000FFFFC00041
:100DC00000000000000000000000000000003FFFE5
:100DD000F00000000000000000000000003800707B
:100DE000000000000000000000000000318630001C
:100DF0000000000000000000000000238710000039
:100E000000000000000000000000278790000000A4
:100E10000000000000000000002F87D0000000004C
:100E200000000000000000002F03D03FC0000000C1
:100E3000000000002082002030107FE00000000051
:100E40000000001041002078107FE000000000004A
:100E500000001041002078107FE00000000000003A
:100E6000002082002030103FC00000000000000081
:100E70004104002F03D03FC00000000000000082AA
:100E800008002F87D07FE0000000000000008208EB
:100E9000002787907FE00000000000000041040070
:100EA0002387107FE0000000000000002082003156
:100EB00086301F80000000000000000000003800A5
:100EC000700F0000000000000000FFFFC03FFFF0B7
:100ED000060000000000000000FFFFC0000000331B
:100EE00044205072696E7465722052656164792E77
:100EF000005072696E74696E672E2E2E00507269F2
:100F00006E7420706175736564004D313235004D2B
:100F10003234005072696E742061626F727465645D
:100F2000005072696E742066726F6D2053440053D6
:100F3000746F70207072696E74004E6F205344207D
:100F40006361726400526573756D65207072696EBD
:100F500074005061757365207072696E7400436F20
:100F60006E74726F6C0050726570617265005475BA
:100F70006E6500496E666F2073637265656E00432F
:100F800068616E67652066696C616D656E740043AB
:100F900068616E67652066696C616D656E74004D91
:100FA00036303020423000466C6F7700466C6F77E9
:100FB0000046616E2073706565640046616E207343
:100FC000706565640042656400426564004E6F7A36
:100FD0007A6C65004E6F7A7A6C6500537065656453
:100FE000005370656564004D61696E0050726568FC
:100FF00065617420504C4120456E640050726568F4
:1010000065617420504C41204265640050726568EF
:1010100065617420504C41005072657061726500CA
:10102000507265686561742041425320456E6400CA
:1010300050726568656174204142532042656400C6
:10104000507265686561742041425300507265704A
:10105000617265004D3432380050726568656174A4
:1010600020504C4100436F6F6C646F776E0050727C
:10107000656865617420414253004368616E67652D
:101080002066696C616D656E74004368616E6765AA
:101090002066696C616D656E74004D36303020429B
:1010A000300044697361626C6520737465707065AB
:1010B0007273004D38340053657420686F6D65207D
:1010C0006F66667365747300486F6D65205A0047DC
:1010D0003238205A00486F6D652059004732382059
:1010E0005900486F6D65205800473238205800413C
:1010F00075746F20686F6D6500473238004D6F76EC
:10110000652061786973004D61696E004D6F766589
:101110002058004D6F76652059004D6F7665205A36
:10112000004578747275646572004D6F7665203085
:101130002E316D6D004D6F766520316D6D004D6FF8
:1011400076652031306D6D004D6F76652061786970
:1011500073004578747275646572004D6F76652012
:101160005A004D6F76652059004D6F766520580006
:101170004578747275646572004D6F7665205A000B
:101180004D6F76652059004D6F76652058004F668B
:1011900066004F6E2000536F667420456E64737452
:1011A0006F7073005072657061726500496E69748A
:1011B00069616C697A6520454550524F4D00436F17
:1011C0006E74726F6C00526573746F726520666125
:1011D000696C73616665004C6F616420736574743B
:1011E000696E677300496E697469616C697A65201C
:1011F000454550524F4D0053746F726520736574AE
:1012000074696E67730046696C616D656E74004D3C
:101210006F74696F6E0054656D706572617475727C
:1012200065004D61696E004D3330332055312045E6
:1012300025692053256900507265686561742041F5
:10124000425320636F6E660050726568656174205A
:10125000504C4120636F6E660050494420417574C4
:101260006F74756E6500504944204175746F7475D4
:101270006E65005049442D44005049442D440050AF
:1012800049442D49005049442D49005049442D50AE
:10129000005049442D50002008204661637400200E
:1012A000082046616374002008204D617800200802
:1012B000204D6178002008204D696E002008204DE7
:1012C000696E004F6666004F6E20004175746F7442
:1012D000656D700046616E207370656564004661DF
:1012E0006E20737065656400426564004265640049
:1012F0004E6F7A7A6C65004E6F7A7A6C6500436F38
:101300006E74726F6C0053746F72652073657474C1
:10131000696E67730042656400426564004E6F7ACF
:101320007A6C65004E6F7A7A6C650046616E207348
:10133000706565640046616E207370656564005475
:10134000656D706572617475726500565472617670
:10135000206D696E005654726176206D696E00567C
:101360006D696E00566D696E00566D61782045009E
:10137000566D6178204500566D6178205A00566D93
:101380006178205A00566D6178205900566D617859
:10139000205900566D6178205800566D61782058AC
:1013A000004D6F74696F6E00416D6178204500419A
:1013B0006D6178204500416D6178205A00416D6172
:1013C00078205A00416D6178205900416D61782084
:1013D0005900416D6178205800416D6178205800B6
:1013E000412D74726176656C00412D747261766571
:1013F0006C00412D7265747261637400412D7265D9
:10140000747261637400416363656C00416363657A
:101410006C004D6F74696F6E0056652D6A65726B56
:101420000056652D6A65726B00567A2D6A65726B7F
:1014300000567A2D6A65726B0056792D6A65726B5B
:101440000056792D6A65726B0056782D6A65726B4D
:101450000056782D6A65726B004D6F74696F6E006F
:101460004573746570732F6D6D004573746570738B
:101470002F6D6D005A73746570732F6D6D005A7304
:10148000746570732F6D6D005973746570732F6D73
:101490006D005973746570732F6D6D0058737465AA
:1014A00070732F6D6D005873746570732F6D6D00C0
:1014B0004D6F74696F6E0053746570732F6D6D009E
:1014C0004A65726B00416363656C65726174696F34
:1014D0006E0056656C6F6369747900436F6E747249
:1014E0006F6C004C6F6164206D6D004C6F61642007
:1014F0006D6D00556E6C6F6164206D6D00556E6C86
:101500006F6164206D6D0046696C2E204469612E08
:101510000046696C2E204469612E004F6666004FBC
:101520006E20004520696E206D6D33004164766148
:101530006E6365204B00416476616E6365204B00ED
:10154000436F6E74726F6C0043616E6E6F742065D2
:101550006E746572207375626469723A2000022E9F
:101560002E004D61696E004D3730322054256400E5
:101570004D36303020423020542564004D37303213
:10158000203B2564004D37303120542564004368EA
:10159000616E67652066696C616D656E740050727E
:1015A00065686561742041425300507265686561E9
:1015B0007420504C41004368616E67652066696C19
:1015C000616D656E74005052494E54205041555320
:1015D000454400554E4C4F41442046494C414D45F1
:1015E0004E54004C4F41442046494C414D454E54C9
:1015F000005075726765206D6F726500436F6E7481
:10160000696E756500524553554D45204F505449FC
:101610004F4E533A0020204E6F7A7A6C653A200084
:101620006368616E6765006F66207468652066692F
:101630006C616D656E74005761697420666F72200D
:1016400073746172740020204E6F7A7A6C653A2050
:1016500000200066696C616D656E7420756E6C6F3C
:101660006164005761697420666F720020204E6FBC
:101670007A7A6C653A20002000506C6561736520B1
:10168000776169742E2E2E0048656174696E67203B
:101690006E6F7A7A6C650020204E6F7A7A6C653AAC
:1016A0002000200068656174206E6F7A7A6C652E68
:1016B00000507265737320627574746F6E20746F5E
:1016C0000020204E6F7A7A6C653A2000746F206398
:1016D0006F6E74696E75652E2E2E00616E642070BB
:1016E0007265737320627574746F6E00496E7365F2
:1016F00072742066696C616D656E740020204E6F97
:101700007A7A6C653A2000200066696C616D656EBE
:1017100074206C6F6164005761697420666F720099
:1017200020204E6F7A7A6C653A2000200066696C42
:10173000616D656E742070757267650057616974BC
:1017400020666F7200746F20726573756D65005747
:1017500061697420666F72207072696E74004361F3
:1017600072642072656D6F766564004361726420F7
:10177000696E7365727465640000060900FE0701F6
:10178000920321207FFF07FF07FF000000060000F3
:10179000010707060200808080808000800302022B
:1017A000060105A0A00507070600005050F850F8F4
:1017B00050500507070600002078A07028F020058B
:1017C0000707060000C0C810204098180507070644
:1017D00000006090A040A89068020303060104C0C6
:1017E00040800307070601002040808080402003DE
:1017F00007070601008040202020408005050506DF
:10180000000120A870A8200505050600012020F889
:1018100020200203030602FFC040800501010600EC
:1018200003F8020202060200C0C005050506000119
:101830000810204080050707060000708888888807
:10184000887003070706010040C040404040E005A3
:101850000707060000708808708080F805070706F3
:101860000000F81020100808F00507070600001017
:10187000305090F81010050707060000F880F008B7
:10188000088870050707060000708080F08888705F
:10189000050707060000F80810202020200507078C
:1018A00006000070888870888870050707060000A9
:1018B00070888878080870020505060200C0C0001C
:1018C000C0C00206060602FFC0C000C04080040778
:1018D000070600001020408040201005030306008A
:1018E00002F800F80407070601008040201020409D
:1018F00080050707060000708808102000200507F3
:101900000706000070880868A8A870050707060089
:1019100000708888F8888888050707060000F08826
:1019200088F08888F00507070600007088808080AE
:101930008870050707060000F08888888888F00509
:101940000707060000F88080F08080F8050707068A
:101950000000F88080F08080800507070600007096
:101960008880B8888870050707060000888888F88E
:101970008888880107070602008080808080808038
:1019800005070706000038101010109060050707C3
:101990000600008890A0C0A09088050707060000F8
:1019A000808080808080F805070706000088D8A81E
:1019B000888888880507070600008888C8A898884E
:1019C00088050707060000708888888888700507E2
:1019D00007060000F08888F0808080050707060071
:1019E0000070888888A89068050707060000F088BE
:1019F00088F0A090880507070600007880807008AE
:101A000008F0050707060000F82020202020200508
:101A100007070600008888888888887005070706F9
:101A200000008888888888502005070706000088FD
:101A300088888888A85005070706000088885020F5
:101A400050888805070706000088888850202020D5
:101A5000050707060000F80810204080F803070774
:101A6000060100E08080808080E005050506000119
:101A70008040201008030707060100E020202020F6
:101A800020E005030306000420508805010106003C
:101A900000F8020202060205804005050506000066
:101AA00070087888780507070600008080B0C8882D
:101AB00088F005050506000070808088700507071E
:101AC0000600000808689888887805050506000063
:101AD0007088F880700507070600003048E0404035
:101AE00040400506060600FF7088887808700507E4
:101AF000070600008080B0C88888880107070602B2
:101B000000800080808080800308080601FF20009C
:101B100020202020A040040707060000808090A01D
:101B2000C0A090030707060100C04040404040E0CD
:101B3000050505060000D0A8A8A8A805050506000B
:101B400000B0C88888880505050600007088888868
:101B5000700506060600FFF08888F08080050606FE
:101B60000600FF788888780808050505060000B09B
:101B7000C880808005050506000070807008F004AC
:101B800007070600004040E04040403005050506DC
:101B90000000888888986805050506000088888800
:101BA00050200505050600008888A8A850050505F1
:101BB00006000088502050880506060600FF888829
:101BC00088780870050505060000F8102040F80325
:101BD000070706010020404080404020010707061B
:101BE00002008080808080808003070706010080DB
:101BF000404020404080050202060002689000003C
:101C00000006000000060900FE00000000000109B7
:101C10000008FE000005080806000040F0C888889B
:101C2000987810050808060000C0F8888888888819
:101C3000F80505050600012030F8302005080806E3
:101C400000002070F820202020E00509090600FF90
:101C50002070A8A8B8888870200509090600FFE050
:101C600080C0B0A8283028280509090600FFF8A878
:101C70008888888888A8F8050A0A0600FE2050503F
:101C8000505088A8A8887003030306000340A040B2
:101C9000434F4D4D554E49434154494F4E004452D8
:101CA0005952554E004552524F525300494E464FDD
:101CB000004543484F00656E7175657565696E67CF
:101CC0002022004B494C4C45442E200053544F5089
:101CD0005045442E20005072696E746572207374F2
:101CE0006F707065642064756520746F2065727212
:101CF0006F72732E20466978207468652065727251
:101D00006F7220616E6420757365204D39393920FA
:101D1000746F20726573746172742E202854656D1F
:101D20007065726174757265206973207265736580
:101D3000742E205365742069742061667465722066
:101D400072657374617274696E67290A004E6F2040
:101D5000436865636B73756D2077697468206C697F
:101D60006E65206E756D6265722C204C61737420F7
:101D70004C696E653A20004E6F20436865636B7353
:101D8000756D2077697468206C696E65206E756D5D
:101D90006265722C204C617374204C696E653A2028
:101DA00000636865636B73756D206D69736D617435
:101DB00063682C204C617374204C696E653A200076
:101DC0004C696E65204E756D626572206973206E78
:101DD0006F74204C617374204C696E65204E756D74
:101DE0006265722B312C204C617374204C696E65D6
:101DF0003A20004D313130004D33310053442072D0
:101E0000656164206572726F720A00446F6E6520AE
:101E10007072696E74696E672066696C650A00206D
:101E2000496E76616C696420657874727564657258
:101E300020000000A0C00000000000000000000022
:101E400057430000574300009643486F6D696E6723
:101E5000206661696C65640044656C6574696F6EC9
:101E6000206661696C65642C2046696C653A2000C7
:101E700046696C652064656C657465643A005072EF
:101E80006F7465637465642050696E0A0020573A68
:101E9000004520436F6F6C696E672E2E2E00452023
:101EA00048656174696E672E2E2E0020573A0042F5
:101EB000656420636F6F6C696E672E2E2E0042651D
:101EC000642068656174696E672E2E2E00205A3A70
:101ED0000020593A0020436F756E7420583A002054
:101EE000453A00205A3A0020593A00583A003A0040
:101EF0004361703A00205A00205900580020204DBC
:101F000061783A2000205A00205900580020204DC6
:101F1000696E3A20004F6E20004F666600536F6670
:101F20007420656E6473746F70733A200023646567
:101F300066696E652044454641554C545F4B6420AC
:101F40000023646566696E652044454641554C54DE
:101F50005F4B69200023646566696E6520444546D1
:101F600041554C545F4B70200050494420417574DA
:101F70006F74756E652066696E697368656421208B
:101F800050757420746865206C617374204B702CDC
:101F9000204B6920616E64204B6420636F6E737404
:101FA000616E74732066726F6D2062656C6F77204E
:101FB000696E746F20436F6E6669677572617469CC
:101FC0006F6E2E680A00504944204175746F747515
:101FD0006E65206661696C6564212074696D656F4A
:101FE00075740A00453120544845524D414C2052E9
:101FF000554E4157415900546865726D616C2052CD
:10200000756E617761790045312048656174696E4C
:1020100067206661696C65640048656174696E6714
:10202000206661696C656400504944204175746F95
:1020300074756E65206661696C6564212054656DF8
:10204000706572617475726520746F6F206869675E
:10205000680A00204B643A2000204B693A20002097
:102060004B703A20000A20436C61737369632050FF
:102070004944200A002054753A2000204B753A202C
:1020800000206D61783A2000206D696E3A200020B2
:10209000643A200020626961733A2000504944206C
:1020A0004175746F74756E652073746172740A0083
:1020B000504944204175746F74756E65206661697E
:1020C0006C65642120426164206578747275646572
:1020D00072206E756D6265720A00496E7365727466
:1020E0002066696C616D656E7420616E642070722B
:1020F00065737320627574746F6E0A005072657335
:102100007320627574746F6E20746F2068656174DB
:10211000206E6F7A7A6C650A00496E73657274205E
:1021200066696C616D656E7420616E6420707265A5
:10213000737320627574746F6E20286F72204D3136
:102140003038290A0047322F4733206261642070FB
:102150006172616D65746572730A00536C656570B8
:102160002E2E2E00436C69636B20746F2072657392
:10217000756D652E2E2E004E6F206D6F76652E00CC
:10218000456E642066696C65206C6973740A004250
:102190006567696E2066696C65206C6973740A00F6
:1021A0004D31323500286E6F2066696C6529004319
:1021B000757272656E742066696C653A20005344CE
:1021C000207072696E74696E672062797465200090
:1021D0004E6F74205344207072696E74696E670A82
:1021E000002569730025696D2025697300256968DC
:1021F0002025696D2025697300256964202569689B
:102200002025696D20256973002569792025696479
:10221000202569682025696D202569730050726941
:102220006E742074696D653A20006F666600B11C9B
:10223000AC1CA51C9E1C901C44454255473A004BC3
:10224000494C4C45442E20004D3131332053006F12
:102250006B003344205072696E746572204F66665D
:102260002E002C20002C2000544845524D414C5F3C
:1022700050524F54454354494F4E004155544F52CC
:1022800045504F52545F53445F535441545553008B
:10229000454D455247454E43595F50415253455273
:1022A00000434153455F4C494748545F42524947B8
:1022B00048544E45535300544F47474C455F4C4993
:1022C0004748545300534F4654574152455F504F6F
:1022D000574552004255494C445F50455243454E84
:1022E00054004C4556454C494E475F4441544100CB
:1022F0005A5F50524F4245004155544F4C45564548
:102300004C005052494E545F4A4F420050524F4782
:1023100052455353004155544F5245504F52545F0C
:1023200054454D5000564F4C554D4554524943006D
:10233000454550524F4D0053455249414C5F584F0F
:102340004E5F584F4646004649524D574152455FF1
:102350004E414D453A4D61726C696E20312E312EE1
:1023600039204461726B5F5361726D6174204D4F0F
:102370004420284769746875622920534F55524399
:10238000455F434F44455F55524C3A6874747073CF
:102390003A2F2F6769746875622E636F6D2F4D61D8
:1023A000726C696E4669726D776172652F4D6172EC
:1023B0006C696E2050524F544F434F4C5F564552FC
:1023C00053494F4E3A312E30204D414348494E45F6
:1023D0005F545950453A3344205072696E746572A7
:1023E0002045585452554445525F434F554E543A38
:1023F0003120555549443A63656465326132662D32
:10240000343161322D343734382D396231322D6315
:1024100035356336326633363766660A002F2F202D
:10242000004D31343520533C696E6465783E206F31
:102430007574206F662072616E67652028302D31BB
:10244000290A00205400205200416363656C6572C4
:102450006174696F6E3A2050004F666673657473DD
:10246000206170706C696564004572723A20546F27
:102470006F206661722100546F6F20666172206662
:10248000726F6D207265666572656E636520706F30
:10249000696E740A0020466C6F773A20000001369E
:1024A000372603FFFFFF353C3D380EFFFFFF312E7F
:1024B000303E12FFFFFFFF28FF0C0809FFFF071A3D
:1024C0001C18FFFF2A08440A2C43496E76616C6988
:1024D000642065787472756465720A0020643A003D
:1024E00020693A0020703A0043290A0061626C6555
:1024F0006420286D696E2074656D702000436F6CD8
:10250000642065787472756465732061726520005B
:102510004E6F2063617365206C696768740A0045BB
:102520004550524F4D204F4B0A003F4B2076616C77
:102530007565206F7574206F662072616E67652007
:1025400028302D3130292E0A00416476616E636592
:10255000204B3D004163746976652045787472753F
:102560006465723A2000496E76616C696420657812
:102570007472756465720A00526573656E643A2000
:10258000006F6B0020746F6F206C6F6E6720657832
:1025900074727573696F6E2070726576656E74659E
:1025A000640A0020636F6C642065787472757369C7
:1025B0006F6E2070726576656E7465640A00627570
:1025C00073793A2070617573656420666F72206953
:1025D0006E7075740A00627573793A207061757354
:1025E000656420666F7220757365720A0062757388
:1025F000793A2070726F63657373696E670A004B76
:10260000494C4C45442E20004B494C4C206361758D
:10261000736564206279204B494C4C206275747458
:102620006F6E2F70696E0A004B494C4C45442E204A
:10263000004B494C4C2063617573656420627920BE
:10264000746F6F206D75636820696E61637469765D
:10265000652074696D65202D2063757272656E74D6
:1026600020636F6D6D616E643A20004D363030002E
:10267000506C6561736520726573657400505249D2
:102680004E5445522048414C544544005072696EA6
:102690007465722068616C7465642E206B696C6C63
:1026A00028292063616C6C6564210A0020647269CA
:1026B0007665722063757272656E743A2000000050
:1026C000A0C0000000000000000000004842000020
:1026D000484200002041000000005761726E696EA0
:1026E000673A20486F6D696E672042756D702044AF
:1026F000697669736F72203C20310A00020204007F
:1027000000A0400000A0400000004000005C43002A
:1027100000574300009643FFFFFF4D3630303A200C
:10272000546F6F20636F6C6400486F74656E642033
:10273000746F6F20636F6C640A007C3C3E5E2B3DBF
:102740003F2F5B5D3B2C2A225C004572726F72202A
:1027500077726974696E6720746F20454550524FD7
:102760004D210A00454550524F4D206461746173FC
:10277000697A65206572726F722E0A00290A00203C
:1027800062797465733B20637263200053657474CF
:10279000696E67732053746F726564202800290A7C
:1027A000002062797465733B20637263200020739C
:1027B000746F7265642073657474696E67732072D8
:1027C0006574726965766564202800202863616CF1
:1027D00063756C6174656429210A0020213D200025
:1027E000454550524F4D20435243206D69736D61F2
:1027F000746368202D202873746F7265642920002B
:102800002053697A653A2000496E6465783A200061
:10281000204D61726C696E3D563535290A00284598
:102820004550524F4D3D00454550524F4D20766525
:102830007273696F6E206D69736D617463682000D7
:1028400048617264636F6465642044656661756C99
:10285000742053657474696E6773204C6F6164658E
:10286000640A002003000020030000640000001040
:10287000270000000016430000164300002041001E
:102880000020420000A0420000A0420000C843E136
:10289000FABC4220204D3930360020286D6D2900C9
:1028A00020204D36303320002055004C0046696C06
:1028B000616D656E74206C6F61642F756E6C6F61F5
:1028C00064206C656E677468733A0A0020204D3985
:1028D0003030204B004C696E656172204164766136
:1028E0006E63653A0A00205430204500205A0020CB
:1028F00059002058005374657070657220647269C5
:102900007665722063757272656E743A0A002044AF
:102910000020490020204D333031205000504944E0
:102920002073657474696E67733A0A00204600204C
:10293000420020480020204D3134352053004D61A5
:1029400074657269616C206865617475702070616E
:1029500072616D65746572733A0A00205A002059DD
:102960000020204D323036205800486F6D65206FB2
:1029700066667365743A0A00204500205A002059A3
:102980000020580020540020530020204D323035C4
:1029900020510020453C6D61785F655F6A65726B10
:1029A0003E0020583C6D61785F785F6A65726B3ECF
:1029B00020593C6D61785F795F6A65726B3E205A81
:1029C0003C6D61785F7A5F6A65726B3E0041647648
:1029D000616E6365643A20513C6D696E5F73656733
:1029E0006D656E745F74696D655F75733E20533CF1
:1029F0006D696E5F66656564726174653E20543C06
:102A00006D696E5F74726176656C5F666565647230
:102A10006174653E0020540020520020204D323069
:102A200034205000416363656C65726174696F6E38
:102A30002028756E6974732F7332293A20503C70C8
:102A400072696E745F616363656C3E20523C7265AF
:102A500074726163745F616363656C3E20543C749F
:102A6000726176656C5F616363656C3E0A00204548
:102A700000205A0020590020204D323031205800CB
:102A80004D6178696D756D20416363656C65726138
:102A900074696F6E2028756E6974732F7332293ACA
:102AA0000A00204500205A0020590020204D3230D5
:102AB000332058004D6178696D756D2066656564D9
:102AC00072617465732028756E6974732F73293A67
:102AD0000A00204500205A0020590020204D39329C
:102AE00020580053746570732070657220756E698C
:102AF000743A0A0020204D3230302044300A002041
:102B0000204D3230302044002044697361626C658E
:102B1000640A0046696C616D656E74207365747437
:102B2000696E67733A0020204D3134392043203BD1
:102B300020556E69747320696E2043656C736975E6
:102B4000730A002020473231202020203B001FFF45
:102B5000FFFFFFFFFF600000000001FF40000000DA
:102B60000000FF8000000000007F83CF00000C30D9
:102B70003F87FF80000C301F867980000C000F8C8F
:102B800030C7838C30E78C30CFC7CC31F38C30DC4E
:102B9000ECEC33B98C30D86C6C33198C30D06C0CB5
:102BA00033198C30D86C0C33198C30DC6C0E3B191B
:102BB0008C30CF7C079F198C30C77C038F19400065
:102BC0000000000002600000000000061FFFFFFF81
:102BD000FFFFF82020506C616E6E6572427566666C
:102BE000657242797465733A2000204672656520EB
:102BF0004D656D6F72793A2000436F6D70696C6539
:102C0000643A204A616E20313220323032300A007C
:102C1000207C20417574686F723A204461726B5F4A
:102C20005361726D617420636F6E666967206D6FAA
:102C3000640A00323031382D30382D303100204CCC
:102C400061737420557064617465643A2000312E9C
:102C5000312E39204461726B5F5361726D61742053
:102C60004D4F440A004D61726C696E0020536F66CF
:102C700074776172652052657365740A002057612C
:102C8000746368646F672052657365740A0020423C
:102C9000726F776E206F75742052657365740A00C9
:102CA0002045787465726E616C2052657365740A94
:102CB00000506F77657255700A0073746172740A00
:102CC000006175746F25692E67006572726F7220DE
:102CD00077726974696E6720746F2066696C650A23
:102CE00000456E6473746F70732025632025632024
:102CF000256320256300205A3A0020593A002058C5
:102D00003A00656E6473746F7073206869743A205A
:102D100000446F6E6520736176696E672066696C2A
:102D2000652E0A004D3239000000210024002700E2
:102D30002A002D00300033000101000004010701CA
:102D40000A0100000A0B02090C0D0E08070304011A
:102D50000000000000000000000000000000000073
:102D60000000000000000000000000000000121140
:102D70001000000000000000000000000000000043
:102D800000000000000000000000200023002600DA
:102D900029002C002F003200000100000301060171
:102DA000090100002200250028002B002E00310020
:102DB000340002010000050108010B0105050505AD
:102DC000070508080808020202020A0A08080404A3
:102DD00004040101010101010101030303030303D1
:102DE0000303040707070C0C0C0C0C0C0C0C020260
:102DF000020206060606060606060B0B0B0B0B0B5D
:102E00000B0B0102102020080810204010204080E9
:102E1000020102010804020101020408102040809E
:102E2000804020100804020180040201804020102C
:102E30000804020108040201010204081020408075
:102E400001020408102040804D3234004D323320FE
:102E5000257300556E6B6E6F776E20636F6D6D61BD
:102E60006E643A202200496E736572742066696C44
:102E7000616D656E7420616E64207072657373207D
:102E8000627574746F6E20286F72204D313038294E
:102E90000A00486F74656E6420746F6F20636F6CF6
:102EA000640A00486F6D65202573257325732066BD
:102EB00069727374002066697273740A005A00594B
:102EC000005800486F6D65200020746F6F206C6F94
:102ED0006E6720657874727573696F6E20707265A5
:102EE00076656E7465640A0020636F6C6420657893
:102EF00074727573696F6E2070726576656E746535
:102F0000640A0053442063617264206F6B0A006F8F
:102F100070656E526F6F74206661696C65640A003B
:102F2000766F6C756D652E696E6974206661696C6B
:102F300065640A00534420696E6974206661696C97
:102F40000A0057726974696E6720746F2066696C35
:102F5000653A20006F70656E206661696C65642C4F
:102F60002046696C653A20006F70656E2066616965
:102F70006C65642C2046696C653A200046696C6576
:102F80002073656C65637465640A002053697A6513
:102F90003A200046696C65206F70656E65643A2062
:102FA000002066696C653A2000646F696E67006690
:102FB00072657368004E6F772000454E442053556C
:102FC00042524F5554494E450A002220706F7300FB
:102FD0002220706172656E743A2200535542524F3E
:102FE0005554494E452043414C4C207461726765ED
:102FF000743A22004B494C4C45442E20007472799F
:10300000696E6720746F2063616C6C207375622D2C
:1030100067636F64652066696C657320776974689F
:1030200020746F6F206D616E79206C6576656C73AE
:103030002E204D4158206C6576656C2069733A00EE
:103040004572726F723A006F70656E206661696CCE
:1030500065642C2046696C653A200043616E6E6F92
:1030600074206F70656E20737562646972200065EC
:1030700063686F3A000015F2F7F111241FBECFEF1D
:10308000D1E2DEBFCDBF00E00CBF13E0A0E0B2E0B4
:10309000E8EAFCE002E00BBF02C007900D92AA37FD
:1030A000B107D9F726E1AAE7B3E001C01D92A13626
:1030B000B207E1F718E1CCE3D8E100E006C02197C0
:1030C0000109802FFE010F947905CB33D10780E0F1
:1030D0000807A9F70E9412F40D9443060C9400000F
:1030E00080914D08813041F0823019F483ED95E1F3
:1030F000089586EC95E1089583EE95E108952CEA14
:1031000035EC47E25EE36091C0047091C1048091A8
:10311000C2049091C3040F944E036093A80370936C
:10312000A9038093AA039093AB0308952CEA35EC8E
:1031300047E25EE36091C4047091C5048091C604C7
:103140009091C7040E94C1FE6093AC037093AD03DD
:103150008093AE039093AF03089560911502709130
:103160001602072E000C880B990B0E9462FE2AE0C3
:1031700037ED43E25CE30E94C1FE20918803309169
:10318000890340918A0350918B030E94C1FE609392
:1031900056027093570280935802909359020895F3
:1031A000282F1092E2048091F4079091F507A091E6
:1031B000F607B091F70781309048A105B10540F0BE
:1031C0001092F4071092F5071092F6071092F70785
:1031D0008091D704882331F08091F4078093CB0449
:1031E0001092CA048091CC041816FCF4082E000C2E
:1031F000990B821B91092091CB04022E000C330BFA
:103200002817390794F097FF02C090E080E0809380
:10321000CB04092E000CAA0BBB0B8093F4079093F0
:10322000F507A093F607B093F7078091CB046623C8
:10323000A9F09091CD04891714F48093CD042091C6
:10324000CD04022E000C330B2C5F3F4F482F082E6D
:10325000000C550B241735071CF484508093CD04C3
:10326000089511989091020187FD90959170909327
:103270000001119A000011989091020186FD90952D
:10328000917090930001119A0000119890910201A1
:1032900085FD9095917090930001119A000011980E
:1032A0009091020184FD9095917090930001119A84
:1032B000000011989091020183FD90959170909378
:1032C0000001119A000011989091020182FD9095E1
:1032D000917090930001119A000011989091020151
:1032E00081FD9095917090930001119A00001198C2
:1032F00080910201817080930001119A000008956D
:1033000090916F00292F227091FF05C090916F005E
:103310009D7F90936F0034E0839FC0011124FC01D6
:10332000E15BF74F4081518162817381835D9B4FE7
:10333000FC01408351836283738381E080937A032D
:10334000222329F080916F00826080936F0008959E
:10335000CF92DF92EF92FF928091D903882309F4F4
:1033600057C0C090D503D090D603E090D703F0901B
:10337000D80320E030E0A901C701B6010E945CFE3D
:10338000882309F445C020E030E040E05FE3C70156
:10339000B6010E94C1FE9B01AC010E94C1FE2BED53
:1033A0003FE049E450E40E94C1FE9B01AC0160E0B3
:1033B00070E080E89FE30F944E036B017C01C092A4
:1033C0008803D0928903E0928A03F0928B03609184
:1033D000150270911602072E000C880B990B0E94A3
:1033E00062FE2AE037ED43E25CE30E94C1FEA701E2
:1033F00096010E94C1FE609356027093570280931B
:10340000580290935902FF90EF90DF90CF9008956B
:10341000C12CD12C80E8E82E8FE3F82ED0CFCF93AB
:10342000DF938091DA0365994AC081608093DA0363
:10343000909103018091DA0391FD43C082608093F3
:10344000DA038091DA034B993EC084608093DA03FB
:10345000C0911E04C0FF0FC08091DD0380FF0BC030
:103460008091DA0380FF07C08091660681608093B7
:10347000660680E045DFC1FF0FC08091DD0381FF5C
:103480000BC08091DA0381FF07C0809166068260DD
:103490008093660681E034DFC2FF17C08091DD03B0
:1034A00082FF13C08091DA0382FF0FC0809166060D
:1034B00084608093660682E0DF91CF9121CF8E7F7A
:1034C000B5CF8D7FBCCF8B7FC1CFDF91CF910895DA
:1034D00089E797E10E9424C681E08093F304089570
:1034E0000C940EE10F931F930E9402E10091EF04F0
:1034F0001091F0042091F1043091F204601B710BE3
:10350000820B930B97FD0CC086B186FB882780F950
:1035100091E08927349B8260329B84608093EE0423
:103520008091EE0481709091EE0491FD8260909103
:10353000ED04981749F0813009F148F0823079F0B4
:10354000833091F08093ED041F910F910895913095
:1035500079F09230B9F79091EC049F5F0CC09923F9
:1035600039F09330C1F3EECF9130A9F3923051F797
:103570009091EC0491509093EC04E4CF992359F38B
:10358000933001F7F5CFCF92DF92EF92FF920F9336
:103590001F930E9402E10091CF041091D00420916A
:1035A000D1043091D2046B017C01C01AD10AE20A25
:1035B000F30A9701860137FD11C02091CE042095B2
:1035C0002093CE046A547C4F8F4F9F4F6093CF045B
:1035D0007093D0048093D1049093D20481E09091B1
:1035E000CE04911101C080E01F910F91FF90EF90E8
:1035F000DF90CF900895CF92DF92EF92FF92CF931A
:10360000C82F0E9402E16B017C0124EA30E74DE7FC
:103610005FE36091BA047091BB048091BC04909107
:10362000BD040E945CFE87FD18C08AEF90E0A0E018
:10363000B0E08C0D9D1DAE1DBF1D8093D3049093F3
:10364000D404A093D504B093D604C0933402CF9190
:10365000FF90EF90DF90CF90089580E090E0DC0144
:10366000E8CFCF93DF9360E085E09ADDD091CD0481
:10367000C0E0D1110CC080915C02882391F030DD54
:1036800021E041E0BC018C2F0E9426D90AC0D13034
:1036900091F480915C0220E041E06FE477E18111D8
:1036A000F2CFDF5FCF5FC53021F783E08093CC049A
:1036B000DF91CF910895D230A1F780915C028823E9
:1036C00081F320E041E065E477E1DDCF0F931F93C4
:1036D000CF93DF93CDB7DEB76E970FB6F894DEBF0A
:1036E0000FBECDBF809127028F93809126028F93CA
:1036F0001F921F9287E292E19F938F938E010F5F3B
:103700001F4F1F930F930E94F5FD81E08093EA0401
:10371000C8010E9445951092EA040FB6F894DEBFE6
:103720000FBECDBF6E960FB6F894DEBF0FBECDBFF5
:10373000DF91CF911F910F9108951F93CF93DF9346
:10374000182FEB01FE018491219681110AC0C8E96E
:10375000D1E0FE0184912196882331F00E94307FD0
:10376000F8CF0E94307FEECFC3E9D1E0112311F0F2
:10377000C9E8D1E0FE0184912196882319F00E94C6
:10378000307FF8CF8AE0DF91CF911F910C94307F8A
:10379000CF93DF9300D01F92CDB7DEB7882349F0D7
:1037A0000E9422ED0F900F900F900F90DF91CF911C
:1037B000089588EB91E09C838B8384E190E09A8369
:1037C0008983BE016D5F7F4FCE0101960E943EC787
:1037D000E9CFCF93DF931F92CDB7DEB78091CE10A4
:1037E000811105C081E08093CE100E9405E56091B3
:1037F00097107091981019829E012F5F3F4F4FE0F4
:1038000085E990E10E94C9E40F90DF91CF9108957E
:103810009F92AF92BF92CF92DF92EF92FF920F935F
:103820001F93CF93DF935B01E9014A3009F4B2C0E3
:10383000453109F068C0DB011296ED91FC91F280F0
:10384000C681D781809102018095827080930001AA
:1038500088E290E00197F1F7EF2CE29420EFE2226A
:1038600030E1932E9F0C48E2C42ED12C88EFF9DC76
:10387000C6010197F1F7BFE1BF1508F47BC08F2D9A
:1038800080778068EEDC8E2DECDCC6010197F1F7C5
:1038900080E8E7DC80E0E5DCC6010197F1F78AEF1C
:1038A000E0DCC6010197F1F78E01005F1F4F8881B0
:1038B000807FD7DC89918295807FD3DCC017D107C8
:1038C000B1F7C6010197F1F7F394E0E1EE0EF910BC
:1038D000CDCF80910201827080930001D5011296B4
:1038E000CD91DC91CE010E94ACE48111D8C1DF9171
:1038F000CF911F910F91FF90EF90DF90CF90BF90ED
:10390000AF909F900895FB0102811381423309F427
:1039100081C108F485C1463409F472C1473409F401
:1039200075C14B3329F589812B81D80112966C9191
:10393000129713964C91213009F4C8C1233009F035
:1039400092C138EF380F582F91E0431708F490E0F8
:1039500041E0531708F040E031E0561708F430E03A
:10396000592F542B352309F0A6C1942309F0A3C184
:1039700081E0BDCF80EE8F0D8068807F72DC8F2D5F
:103980008295807F6EDCC6010197F1F780E869DCE3
:1039900080E881CF80910101826080930101809154
:1039A0000201827080930001809101018160809307
:1039B000010180910201817080930001099A119A9E
:1039C00080910201809582708093000188E290E0EE
:1039D0000197F1F788E790E0CEE9DFE0FE0131974B
:1039E000F1F70197D9F788EF3CDC08E210E0C80155
:1039F0000197F1F780E235DC80E033DCC801019704
:103A0000F1F780E02EDC80E82CDCC8010197F1F7AB
:103A100080E027DC80E125DCC8010197F1F7CE01C9
:103A20000197F1F7CE010197F1F7CE010197F1F778
:103A3000CE010197F1F7CE010197F1F7CE01019781
:103A4000F1F7CE010197F1F7CE010197F1F7CE0121
:103A50000197F1F7CE010197F1F7CE010197F1F748
:103A6000CE010197F1F7CE010197F1F7CE01019751
:103A7000F1F72197F1F780E2F4DB80E4F2DBC80193
:103A80000197F1F780E2EDDB80E6EBDBC8010197FF
:103A9000F1F700E010E0C8E2D0E0812F8077806885
:103AA000E0DB802FDEDBCE010197F1F780E8D9DB88
:103AB00080E0D7DBCE010197F1F78AEFD2DBCE01B0
:103AC0000197F1F790E21198809102018170809343
:103AD0000001119A00001198809102018170809379
:103AE0000001119A00001198809102018170809369
:103AF0000001119A00001198809102018170809359
:103B00000001119A00001198809102018170809348
:103B10000001119A00001198809102018170809338
:103B20000001119A00001198809102018170809328
:103B30000001119A00001198809102018170809318
:103B40000001119A00001198809102018170809308
:103B50000001119A000011988091020181708093F8
:103B60000001119A000011988091020181708093E8
:103B70000001119A000011988091020181708093D8
:103B80000001119A000011988091020181708093C8
:103B90000001119A000011988091020181708093B8
:103BA0000001119A000011988091020181708093A8
:103BB0000001119A00001198809102018170809398
:103BC0000001119A0000FE013197F1F7915009F0C0
:103BD0007ACF88EF46DBCE010197F1F71F5F005FD8
:103BE000103209F05ACF80E03CDB80EC3ADB2197C1
:103BF000F1F78091020182708093000181E077CE1D
:103C0000D80115968C91888381E071CEF80181816D
:103C10008883FACFB901C8010E9496E481E067CE9B
:103C2000443171F0473109F0A3CE1882F801828146
:103C30008983858181508A8383818B8381E057CEFC
:103C4000D80115964C91159750E0440F551F70E020
:103C500060E016968D919C910F94DB05C8010E943F
:103C6000C2E481E044CE481708F482CE861708F4F7
:103C70007FCEFA80E12CD12C243070F41DC0BE011F
:103C8000C8010E9496E4898198819D0D98838E0DCC
:103C90008983FF0C09F46CCEF7FEF6CFF0CF4D818F
:103CA00050E0440F551F70E060E08E819F810F94BB
:103CB000DB0581E01CCEFA8030E0F901E959FD4FC7
:103CC000D0802D593D4FF901E080E6CF58E0580FE4
:103CD000382F3ACEDF92EF92FF920F931F93CF933C
:103CE000DF93EC01D62E1CAD0BAD7C0184E0E80E19
:103CF000F11CE98DFA8DC7011995412F480F2D2D23
:103D0000602FC7010E9437E79BAD890F8BAF81E021
:103D100090E0DF91CF911F910F91FF90EF90DF9096
:103D2000089590938A10809389100C940EE1FF926D
:103D30000F931F93CF93DF9300D000D000D01F923A
:103D40001F92CDB7DEB7F82E2091C804422F022E65
:103D5000000C550B8091C9048130B1F1823069F1BA
:103D600080E795E15F932F939F938F938E010F5F71
:103D70001F4F1F930F930E94F5FD0F900F900F9010
:103D80000F900F900F9081E0F81609F180EF90E00E
:103D9000C8DF81E08093EA04C8010E944595109233
:103DA000EA042B960FB6F894DEBF0FBECDBFDF91AD
:103DB000CF911F910F91FF9008958CE795E127FD1A
:103DC000D1CF87E695E1CECF85E895E1CBCF88ECE2
:103DD00090E0DECF81E0ABCF82E0A9CF0F931F93BD
:103DE000CF93DF938C016F3F19F41092821060E043
:103DF00020918210862F062E000C990B2817190689
:103E000009F00CF560938210C8010E94ABFD800F91
:103E1000911FEC01C01BD10BC731D1053CF00197BC
:103E2000FC012491207C2038D1F3F3CFDD27AE01B3
:103E3000B8018BE690E10E94CCFDC559DF4E188297
:103E400083E080935C02DF91CF911F910F910895E1
:103E5000FC0190E080E02491222339F02491207C21
:103E6000203809F001963196F6CF0895FC0130E034
:103E700020E09191992331F0907C9038D1F32F5F1D
:103E80003F4FF7CFC9010895A4DC3E98469A3C986D
:103E9000449A3A98429AEAE0F1E080818E7F8083EA
:103EA00080910B01809581708093090182E080935D
:103EB000E80418DB1092EC040895809187038230A7
:103EC000A9F090914812992359F0809158128111CC
:103ED00004C08BE492E10C94CFC588E592E1FBCF5E
:103EE000813039F08FED9EE06FEF78CF8DEF9EE05F
:103EF000FBCF81EF9EE0F8CF8091A7048630D8F405
:103F000096E0899FF0011124ED57FB4F20914D025F
:103F100030914E02318320834091F4075091F50790
:103F20006091F6077091F70742835383648375832A
:103F30008F5F8093A70408954F925F926F927F9254
:103F40008F929F92AF92BF92CF92DF92EF92FF92A9
:103F50000F931F93CF93DF936C01EB0129013A017B
:103F60004701CADF83E080935C02D0920308C092CD
:103F70000208D0930108C093000820E030E048EC2C
:103F800052E4C301B2010E94C1FE0F94B6036093D4
:103F9000FC077093FD078093FE079093FF070E9434
:103FA00062FE6B017C0120E030E048EC52E4C80185
:103FB000B4010E94C1FEA70196010F9471020F94F3
:103FC000B6036093F8077093F9078093FA0790930C
:103FD000FB0720E030E048EC52E4688179818A8177
:103FE0009B810E94C1FEA70196010F9471020F945C
:103FF000BB036093F4077093F5078093F6079093E3
:10400000F707DF91CF911F910F91FF90EF90DF9015
:10401000CF90BF90AF909F908F907F906F905F9068
:104020004F90089520914D0230914E022817390784
:10403000D9F090934E0280934D024093F407509331
:10404000F5076093F6077093F70781579C4421F4B6
:1040500010924A081092A70482E080935C0281E0EB
:104060008093CA041092E3040895CF93DF93EC0188
:1040700043DF40E050E0BA01CE01DF91CF91D2CFD3
:1040800021E020934A086093BA047093BB048093A4
:10409000BC049093BD0440E050E0BA018091BE049E
:1040A0009091BF04BFCF60E070E080E291E4E8CF80
:1040B00060E070E080E89FE3E3CF6DEC7CEC8CEC9B
:1040C0009DE3DECF40E050E0BA0181E79CE4AACF57
:1040D000E091A704EE2381F0E150E093A70486E08D
:1040E000E89FF0011124ED57FB4F42815381648119
:1040F00075818081918196CFE5CF9CE0899F802D4D
:10410000112491E0980F909307082CE0280F20933A
:1041100008084091C91030E02E5F3F4F4217130648
:1041200009F0A4F42091CB10921780F4662341F09B
:104130008E5F0E94CFE6809108088E5F0E94CFE6D6
:10414000809108081092CC108093CD100895CF93E1
:10415000C82F823071F024F4813049F0CF91089556
:10416000833011F08430D1F789E797E104C0CF9113
:10417000AFC984E09CE10E9424C6C093F304EECF53
:10418000CF93C82F84E09CE10E9424C68C2F0E940C
:10419000F5C58091F304CF91DACF9FEF980F993056
:1041A00018F4EEDF81E008950E94F5C5FBCF9FEF84
:1041B000980F993008F4E4CF0C94F5C50F931F9332
:1041C000CF93DF93982F862F8A01D22F692F95DF07
:1041D0009091C91080910808891730F19091CB1007
:1041E00080910708981700F1C4E1F80184918823B1
:1041F00029F0D3DFC81B0F5F1F4FF7CFC15020F04E
:1042000080E20E94F5C5FACF809108089AE7909362
:10421000CC108093CD108D2FCADF80E2DF91CF913B
:104220001F910F910C94F5C5DF91CF911F910F91C4
:104230000895DF92EF92FF920F931F93CF93DF9336
:1042400061E081E00E94D018C091CD0415E01C0F00
:1042500081E001E0D2E0FD2EFC1AE82EEC1ADC2E03
:10426000D194C11130C08823D9F08091CB041816A5
:10427000BCF04091F4075091F5076091F6077091FA
:10428000F7074F5F5F4F6F4F7F4F4093F407509397
:10429000F5076093F6077093F7078F5F8093CB0461
:1042A00080915C02882339F020E041E065E076E10E
:1042B0008D2D0E9426D980E0CF5F1C13D2CF83E0E2
:1042C0008093CC0420C0C13031F59091CB04913063
:1042D00071F080915C02882371F381E0913009F0E4
:1042E00080E020E24CEF55E16E2D68DFE4CF809155
:1042F000E904882371F31092E904D0934B0880916C
:10430000CA04882331F3DF91CF911F910F91FF9061
:10431000EF90DF900895C23071F69091CB04923007
:1043200069F080915C02882331F281E0923009F0DB
:1043300080E020E241EF55E16F2DD7CF8091E90475
:10434000882379F31092E90400934B088091CA0402
:10435000882339F3D8CFDF92EF92FF920F931F9308
:10436000CF93DF931092C9041092C80461E081E0FA
:104370000E94D018C091CD0405E00C0F81E0D3E07D
:10438000DC1B12E01C1BF82EFC1AEC2EE194C11170
:1043900030C08823D9F08091CB041816BCF040912E
:1043A000F4075091F5076091F6077091F7074F5F9A
:1043B0005F4F6F4F7F4F4093F4075093F507609323
:1043C000F6077093F7078F5F8093CB0480915C02B0
:1043D000882339F021E041E06EE875E18E2D0E94DE
:1043E00026D9CF5F80E0C013D2CF84E08093CC0485
:1043F0001FC0C13029F5D090CB0481E0D81669F0F8
:1044000080915C02882369F381E0D81280E024E087
:1044100046EB55E16F2DD2DEE4CF8091E90488238D
:1044200079F31092E90454DE8091CA04882341F3A1
:10443000DF91CF911F910F91FF90EF90DF90089542
:10444000C23071F5D090CB0492E0D91669F080911A
:104450005C02882331F281E092E0D91280E023E00F
:104460004AEA55E1612FD7CF8091E904882379F397
:104470001092E9048AEE9EE1F8DD8091CA04882357
:1044800031F3D6CF8091E904882391F01092E904AA
:104490008CEE9EE1EADD8091CA04882349F0C8CF02
:1044A000C33009F09ECFD090CB0483E0D81651F3EF
:1044B00080915C02882309F494CF81E093E0D912C3
:1044C00080E023E04EE955E16D2FA5CFCF92DF923A
:1044D000EF92FF920F931F93CF93DF9361E081E000
:1044E0000E94D018C091CD0485E0D82EDC0ED4E017
:1044F000DC1B13E01C1B02E00C1B81E0F82EFC1AF5
:10450000CC2EC194C1112BC0E090CB04EE2099F0C9
:1045100080915C02882341F081E0E11080E024E09A
:104520004BED54E16C2D4ADECF5FCD11EBCF85E032
:104530008093CC040BC08091E904882349F3109246
:10454000E904C6DD8091CA04882311F3DF91CF917D
:104550001F910F91FF90EF90DF90CF900895C130A1
:10456000F9F4E090CB0481E0E81661F080915C0200
:104570008823D1F281E0E81280E023E042ED54E1AB
:104580006F2DD1CF8091E904882381F31092E90443
:104590008BE393E26ADD8091CA04882339F3D6CF96
:1045A000C23009F050C0E090CB0492E0E91671F0FF
:1045B00080915C02882309F4B7CF81E092E0E91290
:1045C00080E023E045EC54E1602FADCF8091E90419
:1045D000882371F31092E9048CEA9BE346DD809115
:1045E000CA04882329F3B2CFE090CB0483E0E81615
:1045F00071F080915C02882309F496CF81E093E00A
:10460000E91280E023E040EC54E1612F8CCF8091EF
:10461000E904882371F31092E90482E798E325DD29
:104620008091CA04882329F391CF8091E9048823DB
:10463000A1F01092E9048EE19AE317DD8091CA049B
:10464000882359F083CFC33079F2C43009F06CCF9E
:10465000E090CB0484E0E81641F380915C0288236B
:1046600009F462CF81E094E0E91280E023E047EBB7
:1046700054E16D2F58CF3F924F925F926F927F928D
:104680008F929F92AF92BF92CF92DF92EF92FF9262
:104690000F931F93CF93DF9361E081E00E94D018C6
:1046A000C091CD045C2E65E0662E6C0ED1E073E007
:1046B000D72EEBE48E2EE3E19E2E86E0C82ECC1A98
:1046C00085E0B82EBC1A84E0A82EAC1A4D2C4C1AEA
:1046D00082E0782E7C1A3D2E3C1AC11135C0109113
:1046E000CB041123A1F080915C02882349F0652D51
:1046F000619581E0111180E024E041EA53E15EDD43
:10470000CF5F6C12EACF87E08093CC040BC080911E
:10471000E904882341F31092E904DADC8091CA04A9
:10472000882309F3DF91CF911F910F91FF90EF90B4
:10473000DF90CF90BF90AF909F908F907F906F90C1
:104740005F904F903F900895C13009F04DC0809127
:10475000CB04813021F180915C02882389F2DF92C1
:1047600087EE8F931F92DF9383E998E09F938F9357
:1047700083E993E19F938F933F9281E09091CB04E3
:10478000913009F080E08F930E94B1EC8DB79EB715
:104790000A960FB6F8949EBF0FBE8DBFB1CF809121
:1047A000E9048823C1F21092E904C093E204109254
:1047B000DE041092DF041092E0041092E104E12C78
:1047C00010ECF12E09E714E420E030E040E85FE36C
:1047D00063E978E08AE993E10E94D1D98091CA0423
:1047E000882309F4B8CF9ECFC23009F05AC1809116
:1047F000CB04823029F180915C02882309F480CFB8
:10480000DF9287EE8F931F92DF9387E998E09F9363
:104810008F9385E893E19F938F937F9281E09091AE
:10482000CB04923009F080E08F930E94B1EC8DB7F9
:104830009EB70A960FB6F8949EBF0FBE8DBF60CF8D
:104840008091E9048823B9F21092E904D093E2043C
:104850001092DE041092DF041092E0041092E10442
:10486000E12C10ECF12E09E714E420E030E040E800
:104870005FE367E978E08CE893E10E94D1D9809109
:10488000CA04882309F4B7CF4DCF8091CB0483307D
:1048900029F180915C02882309F432CFDF9287EE00
:1048A0008F931F92DF938BE998E09F938F9387E715
:1048B00093E19F938F934F9281E09091CB0493303B
:1048C00009F080E08F930E94B1EC8DB79EB70A96F5
:1048D0000FB6F8949EBF0FBE8DBF12CF8091E90432
:1048E0008823B9F21092E904D093E2041092DE0416
:1048F0001092DF041092E0041092E104E12C10EC1D
:10490000F12E09E714E420E030E040E85FE36BE9D2
:1049100078E08EE793E10E94D1D98091CA04882380
:1049200009F4B7CFFFCE8091CB04843029F1809178
:104930005C02882309F4E4CEDF9287EE8F931F9206
:10494000DF938FE998E09F938F9389E693E19F939C
:104950008F93AF9281E09091CB04943009F080E086
:104960008F930E94B1EC8DB79EB70A960FB6F8945C
:104970009EBF0FBE8DBFC4CE8091E9048823B9F2DB
:104980001092E904D093E2041092DE041092DF0446
:104990001092E0041092E104E12C10ECF12E09E7F2
:1049A00014E420E030E040E85FE36FE978E080E77E
:1049B00093E10E94D1D98091CA04882309F4B7CF2A
:1049C000B1CE8091CB04853029F180915C0288239F
:1049D00009F496CEDF9287EE8F931F921F928FEB92
:1049E00098E09F938F938FE593E19F938F93BF926E
:1049F00081E09091CB04953009F080E08F930E9484
:104A0000B1EC8DB79EB70A960FB6F8949EBF0FBE55
:104A10008DBF76CE8091E9048823B9F21092E90423
:104A2000D093E2041092DE041092DF041092E004AE
:104A30001092E104E12C10ECF12E09E714E420E0DF
:104A400030E0A9016FEB78E084E693E10E94D1D9D0
:104A50008091CA04882309F4B8CF64CE8091E90418
:104A6000882379F11092E904D093E2041092DE04D5
:104A70001092DF041092E0041092E104E12C10EC9B
:104A8000F12E09E714E420E030E0A9016BEB78E0B7
:104A900085E593E10E94D1D98091CA04882389F0E9
:104AA00041CEC33009F4F1CEC43009F43CCFC53057
:104AB00009F487CFC63009F023CE8091CB0486302D
:104AC00069F280915C02882309F41ACEDF9287EEA6
:104AD0008F931F921F928BEB98E09F938F939F92DF
:104AE0008F92CF9281E09091CB04963009F080E0D4
:104AF0008F930E94B1EC8DB79EB70A960FB6F894CB
:104B00009EBF0FBE8DBFFCCD2F923F924F925F9202
:104B10006F927F928F929F92AF92BF92CF92DF92CD
:104B2000EF92FF920F931F93CF93DF93E82E61E0F4
:104B300081E00E94D018C091CD048E2D90E0880FA6
:104B4000991F9C012B543C4F59019C0127543C4F09
:104B500069019C012F543C4F790135E0632E6C0EA6
:104B600044E0842E582C5C1A7724739457E8452E21
:104B7000D3E0DC1B82E0982E9C1A372C3C1A2C2E9A
:104B80002194C11130C01091CB04112371F0809198
:104B90005C02882309F44FC081E0111180E024E019
:104BA0004FE353E1622D0ADB46C08091E90488237C
:104BB00071F31092E9048CDA8091CA04882339F3E6
:104BC000DF91CF911F910F91FF90EF90DF90CF90E9
:104BD000BF90AF909F908F907F906F905F904F901D
:104BE0003F902F900895C13009F042C08091CB04CE
:104BF000813041F180915C028823E9F01F928FEFB0
:104C00008F931F921F92DF92CF928BE293E19F933B
:104C10008F933F9281E09091CB04913009F080E036
:104C20008F930E94E9EC8DB79EB70A960FB6F89461
:104C30009EBF0FBE8DBFCF5FC611A3CF85E080930F
:104C4000CC04BECF8091E9048823A1F21092E9043C
:104C500010E000E02FEF30E050E040E0B60185E3E7
:104C600093E10E9470D98091CA04882319F2A8CFD9
:104C7000C23009F089C08091CB04823019F1809153
:104C80005C028823C1F27F928F921F9285E08F93FE
:104C9000BF92AF922DE133E13F932F939F9281E03A
:104CA0009091CB04923009F080E08F930E94E9EC60
:104CB0002DB73EB7265F3F4F0FB6F8943EBF0FBEED
:104CC0002DBFB9CF8091E9048823C9F21092E9047D
:104CD00010E000E024E031E045E050E0B50184E27E
:104CE00093E10E9470D98091CA04882341F268CF71
:104CF0008091CB04833019F180915C02882309F400
:104D00009ACF1F924F921F9285E08F93FF92EF925E
:104D100085E193E19F938F93DF9381E09091CB04A2
:104D2000933009F080E08F930E94E9EC8DB79EB735
:104D30000A960FB6F8949EBF0FBE8DBF7CCF8091B0
:104D4000E9048823C9F21092E90410E000E027E8A2
:104D500030E045E050E0B70189E193E10E9470D96D
:104D60008091CA04882341F22BCF8091E9048823E3
:104D7000A9F01092E9040E9412840E94C81B80913D
:104D8000CA04882359F01CCFC33009F4B1CFC43012
:104D900009F051CF8091CB04843039F380915C02CB
:104DA000882309F448CF81E09091CB04943009F036
:104DB00080E020E246E053E1652DF5CE81E0A4CE0F
:104DC00080E0A2CE9F92AF92BF92CF92DF92EF92FD
:104DD000FF920F931F93CF93DF9361E081E00E94D6
:104DE000D018C091CD04AC2E85E0B82EBC0ED7E013
:104DF000DC1B16E01C1B05E00C1B84E0F82EFC1AE3
:104E000082E0E82EEC1A81E0D82EDC1A9C2E9194D8
:104E1000C1112EC0C090CB04CC2099F080915C02CF
:104E2000882341F081E0C11080E024E042E252E1B9
:104E3000692DC4D9CF5FCB11EBCF88E08093CC0430
:104E40000BC08091E904882349F31092E90440D90A
:104E50008091CA04882311F3DF91CF911F910F91A4
:104E6000FF90EF90DF90CF90BF90AF909F9008950C
:104E7000C130F9F4C090CB0481E0C81661F0809194
:104E80005C028823B9F281E0C81280E023E046E1A9
:104E900052E16D2DCECF8091E904882381F31092E9
:104EA000E90489EC9EE3E1D88091CA04882339F3B0
:104EB000D3CFC23009F0BAC0C090CB0492E0C9167B
:104EC00071F080915C02882309F4B4CF81E092E014
:104ED000C91280E023E04FE052E16E2DAACF80910D
:104EE000E904882371F31092E90486E692E2BDD8C2
:104EF0008091CA04882329F3AFCFC090CB0483E00C
:104F0000C81679F080915C02882309F493CF63E09E
:104F10006A1981E093E0C91280E023E046E052E1A3
:104F200088CF8091E904882369F31092E90482E430
:104F300096E39BD88091CA04882321F38DCF80917A
:104F4000CB04843081F080915C02882309F472CF15
:104F500081E09091CB04943009F080E020E247EFAB
:104F600051E16F2D66CF8091E904882361F310929F
:104F7000E9040E9412840E94C81B8091CA048823FD
:104F800011F36ACF8091CB04853081F080915C026F
:104F9000882309F44FCF81E09091CB04953009F03C
:104FA00080E020E247ED51E1602F43CF8091E9049A
:104FB000882361F31092E9040E94A9A40E94C81BEF
:104FC0008091CA04882311F347CF8091CB048630A7
:104FD00081F080915C02882309F42CCF81E09091CC
:104FE000CB04963009F080E020E246EC51E1612FDD
:104FF00020CF8091E904882361F31092E9040E9494
:10500000DD9D0E9422ED8091CA04882311F324CFF4
:105010008091E9048823E9F01092E90487E398E29B
:1050200024D88091CA048823A1F016CFC33009F494
:1050300064CFC43009F483CFC53009F4A3CFC630A0
:1050400021F2C73009F0F6CEC090CB0487E0C81635
:10505000F9F280915C02882309F4ECCE81E097E0BC
:10506000C91280E023E045EE51E16D2FE2CEFF92C0
:105070000F931F93CF93DF9361E081E00E94D018DC
:10508000C091CD0405E00C0FD1E0DC1BFC2EF194A7
:10509000C11128C01091CB04112399F080915C02BA
:1050A000882341F081E0111180E024E04EEB51E1D2
:1050B0006F2D84D8CF5F0C13EBCF82E08093CC04AC
:1050C0000BC08091E904882349F31092E90400D8C9
:1050D0008091CA04882311F3DF91CF911F910F9122
:1050E000FF900895C13031F78091CB04813079F081
:1050F00080915C028823F1F281E09091CB049130A1
:1051000009F080E020E24CEA51E16D2FD2CF80918E
:10511000E904882369F31092E9040E94DD9D0E944E
:105120001284182F882319F080E00E94457F812F78
:105130000E94C81B0E9468208091CA048823C1F283
:10514000CBCFBF92CF92DF92EF92FF920F931F933C
:10515000CF93DF93182F7093BF046093BE0461E078
:1051600081E00E94D018C091CD0485E0D82EDC0EDD
:1051700081E004E00C1B93E0F92EFC1A92E0E92E8A
:10518000EC1AC82ECC1ADC2FD195113009F45BC073
:1051900058F1123009F482C0C111A9C08823D9F096
:1051A0008091CB041816BCF04091F4075091F5079C
:1051B0006091F6077091F7074F5F5F4F6F4F7F4F1A
:1051C0004093F4075093F5076093F6077093F70741
:1051D0008F5F8093CB0480915C02882361F121E092
:1051E00041E062E571E156C0C11181C08823D9F068
:1051F0008091CB041816BCF04091F4075091F5074C
:105200006091F6077091F7074F5F5F4F6F4F7F4FC9
:105210004093F4075093F5076093F6077093F707F0
:105220008F5F8093CB0480915C0221E041E069E6CE
:1052300071E181112FC080E0CF5FCD11A6CF85E055
:105240008093CC0476C0C11152C08823D9F08091DC
:10525000CB041816BCF04091F4075091F50760910B
:10526000F6077091F7074F5F5F4F6F4F7F4F409387
:10527000F4075093F5076093F6077093F7078F5F75
:105280008093CB0480915C0221E041E062E671E111
:10529000882389F28D2F0E9426D9CDCFC11127C036
:1052A0008823D9F08091CB041816BCF04091F40704
:1052B0005091F5076091F6077091F7074F5F5F4FC8
:1052C0006F4F7F4F4093F4075093F5076093F607B5
:1052D0007093F7078F5F8093CB0480915C0221E08D
:1052E00041E06BE571E1882309F4A5CFD3CFC1304C
:1052F00051F5B090CB0481E0B81679F080915C0252
:10530000882309F498CF81E0B81280E024E048E4D3
:1053100051E16C2D0E94DE208ECF8091E90488231C
:1053200069F31092E9040E9468208091CA048823DE
:1053300029F3DF91CF911F910F91FF90EF90DF90B4
:10534000CF90BF900895C23009F053C0B090CB0405
:1053500092E0B91671F080915C02882309F46BCF5A
:1053600081E092E0B91280E023E04EE351E16E2D3E
:10537000D1CF8091E904882371F31092E90483E589
:1053800090E20E9435208091CA04882321F3D1CF76
:10539000B090CB0483E0B81671F080915C02882352
:1053A00009F449CF81E093E0B91280E023E045E3BE
:1053B00051E16F2DAFCF8091E904882371F31092F2
:1053C000E90488E590E20E9435208091CA04882390
:1053D00021F3AFCF8091E9048823A9F01092E9046A
:1053E0008DE590E20E9435208091CA04882359F00F
:1053F000A0CFC33069F2C43009F01DCFB090CB0408
:1054000084E0B81639F380915C02882309F413CF45
:1054100081E094E0B91280E023E04AE251E1602F9C
:1054200079CF6CED75E380E08CCE68ED75E381E0BB
:1054300088CE64ED75E382E084CE6EE474E383E0AD
:1054400080CEDF92EF92FF920F931F93CF93DF9363
:1054500061E081E00E94D018C091CD0485E0E82E83
:10546000EC0ED3E0DC1B12E01C1B01E00C1BDC2E5D
:10547000D194C1112CC0F090CB04FF20A1F08091F9
:105480005C02882349F081E0F11080E024E048E1EB
:1054900050E16D2D0E94DE20CF5FEC12EACF84E058
:1054A0008093CC040CC08091E904882341F31092CE
:1054B000E9040E9468208091CA04882301F3DF91E7
:1054C000CF911F910F91FF90EF90DF900895C13021
:1054D00061F58091CB04813079F080915C02882362
:1054E000D9F281E09091CB04913009F080E020E284
:1054F0004CE050E1602FCECF8091E904882369F31E
:105500001092E9044091B9035091BA036091B1033C
:105510007091B2038091B5039091B6030E94B4F1EB
:105520008091CA048823C9F2CACFC23009F042C0B0
:105530008091CB04823081F080915C02882309F451
:10554000ABCF81E09091CB04923009F080E020E273
:105550004CEE5FE0612F9ECF8091E904882361F3D8
:105560001092E9044091B9035091BA036FEF7FEFB5
:105570008091B5039091B6030E94B4F18091CA0462
:105580008823D1F29CCF8091E9048823D1F0109236
:10559000E9044091B9035091BA036091B10370914D
:1055A000B20390E080E00E94B4F18091CA048823A5
:1055B00041F085CFC33009F06FCF8091CB048330A9
:1055C00011F380915C02882309F466CF81E0909109
:1055D000CB04933009F080E020E24CEF5FE06D2FC8
:1055E00059CFDF92EF92FF920F931F93CF93DF93E8
:1055F00061E081E00E94D018C091CD0485E0E82EE2
:10560000EC0ED3E0DC1B12E01C1B01E00C1BDC2EBB
:10561000D194C1112CC0F090CB04FF20A1F0809157
:105620005C02882349F081E0F11080E024E04CE442
:1056300050E16D2D0E94DE20CF5FEC12EACF84E0B6
:105640008093CC040CC08091E904882341F310922C
:10565000E9040E9468208091CA04882301F3DF9145
:10566000CF911F910F91FF90EF90DF900895C1307F
:1056700061F58091CB04813079F080915C028823C0
:10568000D9F281E09091CB04913009F080E020E2E2
:1056900040E450E1602FCECF8091E904882369F384
:1056A0001092E9044091BB035091BC036091B30395
:1056B0007091B4038091B7039091B8030E94B4F144
:1056C0008091CA048823C9F2CACFC23009F042C00F
:1056D0008091CB04823081F080915C02882309F4B0
:1056E000ABCF81E09091CB04923009F080E020E2D2
:1056F00040E250E1612F9ECF8091E904882361F35D
:105700001092E9044091BB035091BC036FEF7FEF0F
:105710008091B7039091B8030E94B4F18091CA04BC
:105720008823D1F29CCF8091E9048823D1F0109294
:10573000E9044091BB035091BC036091B3037091A5
:10574000B40390E080E00E94B4F18091CA04882301
:1057500041F085CFC33009F06FCF8091CB04833007
:1057600011F380915C02882309F466CF81E0909167
:10577000CB04933009F080E020E240E350E16D2F4C
:1057800059CF4F925F926F927F928F929F92AF927A
:10579000BF92CF92DF92EF92FF920F931F93CF931E
:1057A000DF9361E081E00E94D018C091CD047C2E8F
:1057B00085E0882E8C0E93E0E92E27EAA22E2FE0BA
:1057C000B22E85E0D82EDC1AD1E034E0932E692C7D
:1057D0006C1A5E2C5C1A82E0C82ECC1A4D2E4C1A24
:1057E00086E0F82EFC1AC1115FC01091CB04112382
:1057F000E1F180915C02882351F0672D619581E091
:10580000111180E024E047EE5FE00E94DE208091ED
:10581000C50881110CC02091891030918A108091A7
:105820005A0290915B02281739070CF49AC1C630CE
:10583000A9F48091CB04863009F47EC180915C028A
:10584000882361F081E09091CB04963009F080E0EC
:1058500020E24FE85FE06F2D0E94DE20CF5F8C12C8
:10586000C2CF87E08093CC040EC08091E9048823E6
:1058700009F4BFCF1092E9040E9468208091CA0405
:10588000882309F4B6CFDF91CF911F910F91FF903C
:10589000EF90DF90CF90BF90AF909F908F907F90D0
:1058A0006F905F904F900895C13009F041C0809192
:1058B000CB04813031F180915C02882309F4A7CFB9
:1058C000EF9287EE8F931F928AE08F9387E192E0A9
:1058D0009F938F938BED9FE09F938F934F9281E0E7
:1058E0009091CB04913009F080E08F930E94E9EC15
:1058F0008DB79EB70A960FB6F8949EBF0FBE8DBFA8
:1059000086CF8091E9048823B1F21092E90410E077
:1059100000E027EE33E04AE050E067E172E081EE1C
:105920009FE00E9470D98091CA04882321F2ABCFF6
:10593000C23009F039C18091CB04823041F18091AD
:105940005C02882309F463CF80E79AE19F938F93E9
:10595000DF939F921F921F9289E890E19F938F930C
:105960008DEC9FE09F938F93CF9281E09091CB0439
:10597000923009F080E08F930E94E9EC8DB79EB7DA
:105980000C960FB6F8949EBF0FBE8DBF40CF80918E
:10599000E9048823A1F21092E904D093E204109262
:1059A000DE041092DF041092E0041092E10400E79C
:1059B0001AE124E031E050E040E069E870E184ED74
:1059C0009FE00E9470D98091CA04882309F4B7CF60
:1059D0005ACF8091CB04833049F180915C028823B7
:1059E00009F415CF88E29BE49F938F931F9287E879
:1059F0008F931F921F9289E098E09F938F9385EC7D
:105A00009FE09F938F935F9281E09091CB049330BE
:105A100009F080E08F930E94E9EC8DB79EB70C9659
:105A20000FB6F8949EBF0FBE8DBFF1CE8091E904F2
:105A3000882399F21092E904D093E2041092DE04D4
:105A40001092DF041092E0041092E10408E21BE4DB
:105A500027E830E050E040E069E078E089EC9FE042
:105A60000E9470D98091CA04882309F4B6CF0BCF65
:105A70008091CB04843029F180915C02882309F461
:105A8000C6CE1F928FEF8F931F921F9283EC98E0E8
:105A90009F938F9381EB9FE09F938F936F9281E011
:105AA0009091CB04943009F080E08F930E94E9EC50
:105AB0008DB79EB70A960FB6F8949EBF0FBE8DBFE6
:105AC000A6CE8091E9048823B9F21092E904D0931C
:105AD000E2041092DE041092DF041092E0041092AF
